:020000040800F2
:10000000B80700249903000859300008112F000890
:100010005130000899050008893B000800000000E5
:10002000000000000000000000000000A9320008ED
:10003000A10500080000000061300008B13200088E
:10004000B7030008B7030008B7030008B7030008A8
:10005000B7030008B7030008B7030008B703000898
:10006000B7030008B7030008B7030008B703000888
:10007000B7030008B7030008B7030008B703000878
:10008000B7030008B7030008B7030008D10500084C
:10009000B7030008B7030008B7030008B703000858
:1000A000B7030008B7030008B7030008B703000848
:1000B000B7030008B7030008B7030008B703000838
:1000C000B7030008B7030008B7030008B703000828
:1000D000B7030008B7030008B7030008B703000818
:1000E000B7030008B703000800000000B7030008CA
:1000F000B7030008B7030008B7030008B7030008F8
:10010000B7030008B7030008B7030008B7030008E7
:10011000B7030008B7030008B7030008B7030008D7
:10012000B7030008B7030008B7030008B7030008C7
:10013000B7030008B7030008B7030008B7030008B7
:1001400000000000000000000000000000000000AF
:10015000B7030008B7030008B7030008B703000897
:10016000B7030008B7030008B7030008B703000887
:10017000B7030008B7030008B70300080000000039
:10018000B7030008B7030008B7030008B703000867
:10019000B7030008B7030008B7030008B703000857
:1001A000B7030008B7030008B70300080000000009
:1001B000B7030008B7030008B7030008B703000837
:1001C000B7030008B70300080000000000000000AB
:1001D0000000000000000000B7030008000000005D
:1001E000000000000000000000000000000000000F
:1001F0000000000000000000B7030008B70300087B
:10020000B7030008B703000800000000B7030008A8
:10021000B7030008B7030008B7030008B7030008D6
:10022000B703000800000000B7030008000000004A
:10023000B7030008B703000800000000B703000878
:10024000B7030008B7030008B7030008B7030008A6
:10025000B7030008B7030008B7030008B703000896
:10026000B7030008B7030008B7030008B703000886
:10027000B7030008B7030008B70300080000000038
:10028000B7030008B7030008B7030008B703000866
:1002900000000000B7030008B703000800000000DA
:1002A00000000000B7030008B7030008B703000808
:1002B000B7030008B7030008B7030008B703000836
:1002C000B7030008B7030008B703000800F002F8FE
:1002D00000F052F814A696E8000CB244B344DA4594
:1002E00001D100F049F8BAE80F000FA696E83000F7
:1002F000A5EB040504EB0607AAEB0704A7F1010729
:100300004FEA15154FEA3414A4F10104AC4201D3AD
:1003100000F032F813F0010F18BFFB1A43F001038D
:1003200000F001F8DBE71847D03A0000F03A00008F
:10033000103A24BF78C878C1FAD8520724BF30C811
:1003400030C144BF04680C60704700007047000073
:100350000023002400250026103A28BF78C1FBD8CE
:10036000520728BF30C148BF0B6070471FB503F06C
:10037000E5FC1FBD10B510BD00F0D4F81146FFF725
:10038000F5FF03F005FC00F0F2F803B4FFF7F2FF0D
:1003900003BC00F0F9F800000A4880470A4880478B
:1003A0000A480047FEE7FEE7FEE7FEE7FEE7FEE756
:1003B000FEE7FEE7FEE7FEE705480649064A074B6B
:1003C00070470000B105000869330008CD0200083D
:1003D000B8010024B8070024B8030024B80300249F
:1003E00053EA020C00F069802DE9F04B4FF0000653
:1003F000002B1FBFB3FA83F503FA05F424FA05F6C0
:100400005E4012BF1643B2FA82F502FA05F4C5F156
:1004100020051EBF22FA05FC44EA0C04203556EAEA
:10042000044C4FEA144418BF641C4FF000084FF00E
:100430000009904271EB030C39D3002919BFB1FABE
:1004400081F701FA07F6B0FA80F700FA07F6C7F16C
:1004500020071EBF20FA07FC46EA0C062037B6FB31
:10046000F4FCA7EB0507103F07F01F0BCBF12006AC
:100470002CFA06F60CFA0BFB44BFB3460026202FDD
:10048000A4BF5E464FF0000B5BEA060C08BF4FF0BE
:10049000010B19EB0B0948EB0608ABFB027C06FBD2
:1004A00002CC0BFB03CCC01B71EB0C01C1E70B466C
:1004B000024641464846BDE8F08B13B5084318BFD5
:1004C0004FF0FF300146AFF30080BDE81C4070479D
:1004D0004FF0000200B5134694469646203922BFDD
:1004E000A0E80C50A0E80C50B1F12001BFF4F7AF28
:1004F000090728BFA0E80C5048BF0CC05DF804EB0A
:10050000890028BF40F8042B08BF704748BF20F877
:10051000022B11F0804F18BF00F8012B7047704775
:1005200070477047754600F02BF8AE4605006946E7
:10053000534620F00700854618B020B5FFF73CFF72
:10054000BDE820404FF000064FF000074FF00008D4
:100550004FF0000BAC46ACE8C009ACE8C009ACE811
:10056000C009ACE8C00921F007018D46704710B5FD
:100570000446AFF300802046BDE81040FFF705BFFA
:10058000004870471800002401491820ABBEFEE760
:100590002600020070470000FEE700000000000097
:1005A000704700000000000072B600BFFEE70000C8
:1005B00044F60C00C5F60200016841F0020101603A
:1005C00050F8081C8904FBD57047000000000000AB
:1005D00040F27800C2F2004000F06AB9000000006A
:1005E000F0B5D1E900C4D1F808E00D692CB14EEAAC
:1005F0000C04254345F0804C03E045EA8C4444EA72
:100600000E0C856ED0F88470D1E907466B438D6976
:1006100044EA0660D1F814E0CC68054307EB830098
:1006200045EA0E0647F823C046EA04434360CB6818
:10063000002B08BFF0BD43F6D85C08300132002320
:10064000C0F6000CD71857F8017CC750CF680433A8
:100650001CF80770BB42F5D3F0BD0000000000009D
:10066000B0B5044600F020FE40F210010546C2F28B
:100670000041621C097818BF0C4400BF00F014FE52
:10068000401BA042FAD3B0BD90F89830022B1BD18A
:10069000B0B50368D3F8C05015F07C5F1CD0D3F818
:1006A000C450AD021DD4D3F8C4300546C3F304448E
:1006B0002346FFF795FF28680121A140C0F8D0101C
:1006C0000020C5F89410B0BDD0F89C1041F008018E
:1006D000C0F89C1001207047D0F89C1041F0200118
:1006E00003E0D0F89C1041F40071C0F89C10012088
:1006F000B0BD0000000000007047000000000000D6
:10070000704700000000000070470000000000007B
:10071000F0B590F89870022F17D140291AD10468CB
:10072000274657F8A06F16F4FE0F34D0D4F8A46013
:10073000760635D0D4F8A460D4F8A450ED01C6F301
:10074000052E35D44425742648E0D0F89C1041F09D
:10075000080129E0412915D10668374657F8B05FEE
:1007600015F4FE0F17D0D6F8B4506D0618D0D6F891
:10077000B450D6F8B460F601C5F3052E21D44C254B
:1007800078262BE0076DB94205D24FF0000C5425B6
:100790007C268E4623E0D0F89C1041F0200103E037
:1007A000D0F89C1041F48071C0F89C100120F0BD7D
:1007B0003E684425B6F1FF3F4FF07406F4460EDC68
:1007C00007E03E684C25B6F1FF3F4FF07806F4464F
:1007D00005DC0EF101043F6804EA174EF446445963
:1007E00085590EFB04F755F8276016F080465660D1
:1007F00055F8276026F0604408BFC6F38A441460A9
:1008000055F8276006F00056966005EB870655F808
:10081000277007F000471761B788D761F78817F08E
:100820000F07D760776807F480175761776807F478
:1008300000179761F77907F07F07176277684FEA2B
:10084000D77757620DD043F6D85708360025C0F643
:10085000000700BF745D5C550135D4683C5DA5425E
:10086000F8D3402904D10068C0F8A8C00020F0BD2A
:10087000412904D10068C0F8B8C00020F0BD1F298C
:1008800007D80068012202FA01F1C0F89810002090
:10089000F0BD006801F01F01012202FA01F1C0F869
:1008A0009C100020F0BD0000704700000000000018
:1008B0002DE9F04F87B004464AF61000C4F200005C
:1008C00001684AF61400C4F20000026820680A4079
:1008D000D0F850B0D0F85490056D466D036D02937A
:1008E000436D0193036D0693436D0593036D04936C
:1008F000436D0393D0F854A0D0F850805FEACA53F8
:1009000010D518F480710DD04FF4807101654AF64E
:1009100010010020C4F20001174608602046FFF7CE
:10092000C3FF3A460BEA090B4AF610095FEA4A5040
:10093000C4F200094FEA82771AD518F4806017D004
:1009400020689146D0F8DC10D0F8E42011404FF434
:10095000806202654AF61002C4F2000200201060B4
:10096000204600F0BDFB4A464AF61009C4F20009D1
:1009700005EA06050BF4704657B1206800210165B1
:1009800002F00300C9F8000020463946FFF7B4FE24
:10099000DDE9011000EA010705F00F0546B1206806
:1009A000314606650020C9F80000204600F0A0FB93
:1009B00007F0F00645B12068294605650020C9F812
:1009C0000000204600F050FB46B120683146066525
:1009D0000020C9F80000204600F04AFB5FEA0A50F8
:1009E0000CD518F4006009D020684FF4006101654F
:1009F0000020C9F80000204600F07EFB5FEA8A5024
:100A000011D518F400700ED02068D0F8D810D0F8A6
:100A1000E02011404FF4007202650020C9F8000088
:100A2000204600F061FB5FEA0A300CD518F4002084
:100A300009D020684FF4002101650020C9F80000AA
:100A4000204600F00DFB5FEACA300CD518F4803068
:100A500009D020684FF4803101650020C9F80000FA
:100A6000204600F039FB5FEA4A30DDE9031000EA76
:100A700001050CD518F4802009D020684FF480219E
:100A800001650020C9F80000204600F021FB5FEA64
:100A90008A30DDE9051000EA010005F060710FD52C
:100AA00018F400320CD022684FF400331365002292
:100AB000C9F80020D4F89C2042F08002C4F89C20A1
:100AC00000F0715539B1206801650020C9F80000B7
:100AD0002046FFF719FE4DB1206805650020C9F8D2
:100AE0000000D4F89C002843C4F89C002068A9F5B5
:100AF0000161884209D0D4F89C00002868D02046C3
:100B000007B0BDE8F04FFFF7FBBD6068816889075B
:100B1000F1D0016A426A036A476A114003EA070298
:100B200002F03005D0F82080D0F82490D0F820B022
:100B3000466A026A069211F00F01426A0592D0F8E5
:100B400024A0026A049203D00162204600F0B4FAA5
:100B500008EA09072DB1606829460562204600F0C1
:100B6000B3FA5FEA4A6006EA0B0607F4C0750ED5D1
:100B7000049810F040000AD060684023C16BC26B3B
:100B8000090C02F03F020362204600F099FADDE909
:100B9000051000EA010706F4FC462DB160682946FD
:100BA0000562204600F084FA07F4F02036B161684F
:100BB0000E62D4F89C103143C4F89C1000289AD0DF
:100BC00061680862D4F89C100843C4F89C0092E75E
:100BD00007B0BDE8F08F000040B32DE9F04F83B0BF
:100BE0004AF200080446C4F200080068404502D1F9
:100BF00008F58070606094F8980028B9002084F8A7
:100C00009900204600F0CCF92068816921F010019C
:100C1000816100F049FB054620688169090707D515
:100C200000F042FB401B0B28F6D312E00120704776
:100C3000816941F00101816100F036FB054600BF8A
:100C400020688169C90711D100F02EFB401B0B28D9
:100C5000F6D30120D4F89C100843C4F89C0003206C
:100C600084F89800012003B0BDE8F08F816941F05D
:100C700002018161217C826922F04002012918BFB2
:100C800040328261617C826922F48042012908BF7E
:100C900002F580428261A17C826922F4805201299E
:100CA00018BF02F580528261816921F44073D4E952
:100CB00002120B438361836923F0A40383610369F8
:100CC00023F0100303619AB1012A0DD0022A09D042
:100CD0008369032A43F080038361036943F01002B0
:100CE000026105D1202200E0042283691A43826157
:100CF000D4E90572E369561E6FF0FF02256A02EB24
:100D00000323B1F5407F43EA4663A5F1010646EAB5
:100D1000030640F20003CFF6FF7303EB074746EAF2
:100D20000701C16110D1D4E90B65D4E90917013F6E
:100D300002EB06226FF00F063A4306EB05173A4323
:100D400003EB01411143C160236E2BB1616ED0F8FA
:100D5000C0201143C0F8C010E16DCDE90113D942A4
:100D600043F65851C0F6000109D0D0F8C820A36E50
:100D700022F0070251F823301A43C0F8C820D4F8F3
:100D800040C0BCF1000F09D0D0F8BC20636C22F049
:100D9000070251F823301A43C0F8BC20D4F848B0F9
:100DA000BBF1000F0AD0D0F8BC20E36C22F0700237
:100DB00051F8233042EA0312C0F8BC20D4F850A006
:100DC000BAF1000F0AD0D0F8BC20636D22F4E062C3
:100DD00051F8231042EA0121C0F8BC10404504D16B
:100DE00061688A6822F003028A600021C4F89410C6
:100DF000C4F89C10012184F8981004F13409D0F84B
:100E000084104FF6FC729143656C99E80C020095D2
:100E100041EA8201C0F88410D0F8841021F47F01E7
:100E200041EA0341C0F884109918D0F888306FF374
:100E30008F0343EA8103C0F88830D0F8883023F468
:100E4000FE0343EA0943C0F8883001EB4903D0F8B8
:100E5000A0606FF38F0646EA8306C0F8A060D0F862
:100E6000A06026F4FE0646EA0C46C0F8A06005FB2A
:100E70000C36D0F8B0306FF38F0343EA8603C0F826
:100E8000B030D0F8B03023F4FE0343EA0B43C0F88F
:100E9000B030E36CD0F8AC506FF38F0503FB0B66FA
:100EA00045EA8605C0F8AC50D4F8548008FB0A65C2
:100EB000D0F8F0606FF38F0646EA8506C0F8F06060
:100EC000D0F8F0E0A66D2EF47C1747EA0647C0F88C
:100ED000F070F70007EB8507D0F8C0506FF38F056F
:100EE0002F43C0F8C070D0F8C070009DDDF804E05A
:100EF00027F47C1705FB0CFC4AF2000547EA0E4775
:100F0000C0F8C070C4F2000503FB0BC305F54067D1
:100F1000D0F8C05007EB820207EB810125F07C5727
:100F2000029D47EA0567C0F8C07001EBC90008FBE5
:100F30000A372167A16E00EB8C0C606700EB83031E
:100F4000E266C4E91EC30EFB01F300EB87006943B0
:100F5000C4F8800000EBC600C4F8840000EB8300F6
:100F6000C4F8880000EB81004DF2FC31C4F20001AE
:100F7000C4F89000884201D920206BE6824208D252
:100F8000002000BF42F8040BD4F890108A42F9D335
:100F900069E6002003B0BDE8F08F0000000000000B
:100FA000B0B5B6B0044602A8B8210025CDE9345545
:100FB000CDE932553195FFF78BFA4AF200012068EE
:100FC000C4F20001884201D036B0B0BD4FF40040F9
:100FD000029002241020CDE90504C0200395CDE93C
:100FE00009054FF000501D9002A80494CDE9074474
:100FF0000B9500F0DDFB08B1FFF7D6FA44F2E040B4
:10100000C5F60200C16841F48071C160C16801F495
:10101000807101910199016841F00101016000684E
:1010200031A900F00100019001984FF4C050CDE9C2
:1010300031040020CDE93300092035900020C5F6A9
:10104000020000F05DF813200021002200F018FAE1
:10105000132000F001FA36B0B0BD0000000000001F
:101060007047000000000000704700000000000012
:10107000704700000000000090F8981001290CD182
:10108000022180F8981001688A6922F001028A61C1
:101090000021C0F89C1000207047D0F89C1041F04F
:1010A0000401C0F89C1001207047000000000000FF
:1010B00070470000000000007047000000000000C2
:1010C00070470000000000007047000000000000B2
:1010D00070470000000000007047000000000000A2
:1010E0007047000000000000704700000000000092
:1010F0007047000000000000704700000000000082
:101100002DE9F04F83B00F68002F00F0C88000F188
:1011100026420A2302F1FF7642F20042C5F602029D
:101120004FEAB625904200F1200208BF0923009241
:10113000082D38BF4FEAB623002400264FF00008E0
:1011400001930AE008F101080F6837FA08F206F186
:10115000020604F1040400F0A280012202FA08FA57
:1011600017EA0A09EED0D1F804C003220CF0030BF1
:1011700002FA06FEABF10107012F0FD88568CA6895
:1011800025EA0E05B2402A438260CCF3001542687E
:1011900022EA0A0205FA08F52A434260BBF1030F6E
:1011A00002D18A68012A06D0C2688D6822EA0E023E
:1011B000B5402A43C260BBF1020F13D16FF00302A6
:1011C000009D02EA580204F01C030F2755F802C0E4
:1011D0009F40D1F810A02CEA070C0AFA03F343EA67
:1011E0000C03AB5002684B6803F0030722EA0E02BF
:1011F000B74013F4403F42EA07020260A2D044F233
:10120000F44340F2084CC5F60203C5F6000C0F2566
:101210001A6842F002021A601A6802F00202029290
:1012200028F00302029B04F00C0352F80C709D405E
:10123000AF43019D05FA03F33B4342F80C304FF0F6
:10124000B04CDCF800204B6842EA0907DD0258BFC9
:1012500022EA09079D02CCF8007040F2040CC5F6A2
:10126000000CDCF8002042EA090758BF22EA09070F
:101270009D03CCF80070DCF8802042EA090758BFD3
:1012800022EA0907DB03CCF88070DCF87C2042EA14
:10129000090758BF22EA0907CCF87C7052E703B06F
:1012A000BDE8F08F0000000040F2B410C2F2004030
:1012B000006870470000000040F2100040F2B411D6
:1012C000C2F20040C2F2004100780A68104408608F
:1012D000704700000000000080B5032000F000F916
:1012E00001F0CAF844F2184143F6B053C5F60201C2
:1012F000C0F600030A68C2F303229A5C096801F091
:101300000F0102F01F02595CD04040F20402C2F209
:10131000004201F01F0120FA01F1116040F20001CA
:10132000C2F2004108600F2000F00AF800281CBF3C
:10133000012080BD00F080F8002080BD000000008A
:1013400040F21001C2F20041097819B310B5044609
:1013500040F20000C2F200404FF47A72B2FBF1F1A9
:101360000068B0FBF1F001F0FBFB0F2C01464FF0E1
:1013700001000ED8002918BF10BD4FF0FF30002229
:10138000214600F07DF840F214010020C2F2004135
:101390000C6010BD0120704710B54EF6A05E43787A
:1013A000CEF2000E90F800C04EF8083CDEF8003097
:1013B00023F00103CEF8003043684EF8043C037B71
:1013C000C27A817A447B120642EA0372837B42EA44
:1013D000C141C27B41EA8441447A41EA4341007AF7
:1013E00041EA024141EA042141EA400040EA0C009E
:1013F000CEF8000010BD00004EF62450CEF20000E2
:10140000BFF35F8F016821F4803101600021016723
:1014100070470000000000004EF6245140F001002B
:10142000CEF200010867086840F480300860BFF31E
:101430004F8FBFF36F8F704781B044F2F440C5F611
:101440000200016841F002010160006800F0020042
:101450000090009801B07047002848BF704700F026
:101460001F01012202FA01F14EF20012C0F34A10EC
:10147000CEF2000242F82010704700000000000089
:1014800070B54EF60C5C4FF0FF36CEF2000C00F15A
:10149000604505F56445DCF80030C3F3022E8EF09C
:1014A0000703042B28BF0423BEF1030406FA03F349
:1014B00021EA030100F00F0338BF0024043B002899
:1014C000634406FA04F048BF03F10C05A14022EA88
:1014D000000008430001287070BD000000000000FB
:1014E0004EF60C514FF6FF03CEF200010A681A4087
:1014F00060F30A2242F0806040F0FD70086070479F
:10150000B0B544F60C05C5F60205296849072968F7
:1015100005D401F00701081A18BF0120B0BD21F061
:10152000070108432860FFF7BFFE044655F8080C82
:10153000800407D4FFF7B8FE001BB0F57A7FF5D919
:101540000120B0BD0020B0BD80B500F00DFF44F219
:10155000204143F6B052C5F60201C0F60002096808
:10156000C1F30211515C01F01F01C84080BD0000B1
:1015700080B544F2384EC5F6020E5EF8103C5EF8B7
:10158000101C5EF80C2CC1F3053CDEF80410BCF115
:10159000000F18D0C9089FED3A1AD20601EAE2718D
:1015A00003F003026FF35F3100EE101AB8EE400A49
:1015B000DFE802F0021F0E1F5EF8381C89060AD40D
:1015C0009FED311A15E000218160C0E9001180BD56
:1015D0009FED2C1A0DE05EF8381C49F20002C0F2B3
:1015E000D032C1F3C10122FA01F101EE101AB8EEB6
:1015F000411ADEF800109FED253A6FF35F2102EEED
:10160000101ADEF80010C1F34621B8EE422A01316B
:1016100000EE032A00EE10CAB7EE003AB8EE400A18
:1016200081EE000A32EE031A20EE010A01EE101AD2
:10163000B8EE411A80EE011ABCEEC11A80ED001A14
:10164000DEF80010C1F30641013101EE101AB8EEC8
:10165000411A80EE011ABCEEC11A80ED011ADEF8C3
:101660000010C1F30661013101EE101AB8EE411A03
:1016700080EE010ABCEEC00A10EE101A816080BD37
:101680000024744A20BCBE4B0024744C0000003976
:1016900080B544F2404EC5F6020E5EF8183C5EF886
:1016A000181C5EF8142CC1F3055CDEF80410BCF1C4
:1016B000000F18D0C9089FED3A1AD20501EAE2716D
:1016C00003F003026FF35F3100EE101AB8EE400A28
:1016D000DFE802F0021F0E1F5EF8401C89060AD4E4
:1016E0009FED311A15E000218160C0E9001180BD35
:1016F0009FED2C1A0DE05EF8401C49F20002C0F28A
:10170000D032C1F3C10122FA01F101EE101AB8EE94
:10171000411ADEF800109FED253A6FF35F2102EECB
:10172000101ADEF80010C1F34621B8EE422A01314A
:1017300000EE032A00EE10CAB7EE003AB8EE400AF7
:1017400081EE000A32EE031A20EE010A01EE101AB1
:10175000B8EE411A80EE011ABCEEC11A80ED001AF3
:10176000DEF80010C1F30641013101EE101AB8EEA7
:10177000411A80EE011ABCEEC11A80ED011ADEF8A2
:101780000010C1F30661013101EE101AB8EE411AE2
:1017900080EE010ABCEEC00A10EE101A816080BD16
:1017A0000024744A20BCBE4B0024744C0000003955
:1017B0002DE9F04381B00446C07844F22C4900077B
:1017C000C5F6020901D4002520E0606E4FEA3050D2
:1017D000032835D80025DFE800F0020A1C22D9F8DA
:1017E000000040F40030C9F80000D5B906E004F16B
:1017F0000800022101F038FC054695B9D9F824000B
:10180000616E20F440100843C9F824004FF000082E
:1018100008E004F12800022101F0B6FC0546002D85
:10182000ECD0A8466078C0071ED0A06D04283ED832
:10183000DFE800F02B340A0303006DB1A84613E083
:101840000125002DEDD1D9E704F12800002101F098
:101850009BFC0546002DF1D1D9F82400A16D20F0A4
:1018600007000843C9F824006078400747D5D4F83A
:10187000A4004FEA705005282CD8DFE800F01C2F98
:101880002503030395B3A84639E0D9F8000040F4D6
:101890000030C9F80000002DD0D1DDE704F10800C8
:1018A000002101F0E1FB0546002DC7D1D4E7012559
:1018B000002DC3D1D0E7D9F8000040F40030C9F8BA
:1018C0000000002DDFD111E004F12800002101F01B
:1018D0005BFC08E00125002DD5D107E004F10800EC
:1018E000002101F0C1FB0546002DCCD1D9F82C0018
:1018F000D4F8A41020F460000843C9F82C006078E4
:10190000000731D5D4F8A8004FEA3060052816D872
:10191000DFE800F006190F030303E5B1A84623E052
:10192000D9F8000040F40030C9F80000002DF5D1CE
:1019300011E004F12800002101F026FC08E0012557
:10194000002DEBD107E004F10800002101F08CFB31
:101950000546002DE2D1D9F82C00D4F8A81020F0CB
:10196000E0600843C9F82C00E07880071BD5E06CE4
:101970004FEA301003282FD8DFE800F002052502D7
:101980004DB1A8460FE0D9F8000040F40030C9F886
:101990000000002DF5D1D9F82000E16C20F03000D6
:1019A0000843C9F820006078C00629D5E06D4FEAE9
:1019B0003030042849D8DFE800F0363F1303030035
:1019C000B5B1A8461CE004F10800022101F04CFB6F
:1019D0000546002DD5D1DEE70125002DD1D1DAE76E
:1019E00004F12800002101F0CFFB0546002DE8D1CD
:1019F000D9F82400E16D20F4E0400843C9F8240040
:101A00006078800639D5206E4FEA3040052829D805
:101A1000DFE800F025031F25252504F1080001213A
:101A200001F022FB1AE0D9F8000040F40030C9F8B8
:101A30000000002DC5D1DBE704F10800002101F012
:101A400013FB0546002DBCD1D2E70125002DB8D1EE
:101A5000CEE704F12800012101F096FB054625B1EF
:101A6000A8460AE00125002DFAD1D9F82400216EFC
:101A700020F4E0200843C9F824006078400625D50A
:101A8000D4F8AC004FEA3070052813D8DFE800F036
:101A90000F03090F0F0F04F10800012101F0E4FA10
:101AA00004E004F12800012101F06EFB054625B198
:101AB000A8460BE00125002DFAD1D9F82C00D4F866
:101AC000AC1020F0E0400843C9F82C006078000614
:101AD00020D5E06ED8B1B0F1005F12D0B0F1805FD8
:101AE00026D1D9F8000040F40030C9F8000085B9CB
:101AF000D9F82400E16E20F040500843C9F82400D2
:101B000008E004F10800012101F0AEFA0546002DBD
:101B1000EED0A846E078C0071ED0A06C032800F2E3
:101B20008080DFE800F0020974026DB1A84613E07E
:101B30000125002DEDD1DBE7D9F8000040F400309D
:101B4000C9F80000002DF1D1D9F82000A16C20F0D7
:101B500003000843C9F82000A078400644D5D9F80E
:101B6000D40340F48070C9F8D403FFF79DFB064608
:101B7000D9F8D403C00505D4FFF796FB801B652870
:101B8000F6D303257DBBD9F84410D4F8B00041400A
:101B900011F4407F11D0D9F84410D9F8442042F410
:101BA0008032C9F84420D9F8442021F4407122F44D
:101BB0008032C9F84420C9F84410B0F5807F0FD1B5
:101BC000FFF772FB064641F2893700BFD9F844009F
:101BD000800705D4FFF768FB801BB842F6D30325C6
:101BE000002D00F07A82A8462078C00732D0A06F7E
:101BF0004FEAF000052822D8DFE800F01E03181E87
:101C00001E1E04F10800012101F02EFA13E004F178
:101C10000800022101F028FA0546002D7FF486AF66
:101C200092E70125002D7FF481AF8DE704F12800B4
:101C3000012101F0A9FA054625B1A8460AE00125CF
:101C4000002DFAD1D9F82800A16F20F03800084300
:101C5000C9F828002078800721D5606F052813D89F
:101C6000DFE800F00F03090F0F0F04F10800012156
:101C700001F0FAF904E004F12800012101F084FAEE
:101C8000054625B1A8460AE00125002DFAD1D9F86C
:101C90002800616F20F007000843C9F82800207869
:101CA000400723D5D4F89000052813D8DFE800F0CA
:101CB0000F03090F0F0F04F10800012101F0D4F9FF
:101CC00004E004F12800012101F05EFA054625B187
:101CD000A8460BE00125002DFAD1D9F82C00D4F844
:101CE000901020F007000843C9F82C0020788006E7
:101CF00025D5D4F88C004FEA3070052813D8DFE8DA
:101D000000F00F03090F0F0F04F10800002101F08C
:101D1000ABF904E004F12800022101F035FA054690
:101D200025B1A8460BE00125002DFAD1D9F82800ED
:101D3000D4F88C1020F0E0400843C9F8280020783F
:101D4000400625D5D4F898004FEAB020052813D8CE
:101D5000DFE800F00F03090F0F0F04F10800002166
:101D600001F082F904E004F12800022101F00CFAEC
:101D7000054625B1A8460BE00125002DFAD1D9F87A
:101D80002C00D4F8981020F4E0500843C9F82C0037
:101D90002078000625D5D4F89C004FEA703005283D
:101DA00013D8DFE800F00F03090F0F0F04F108004C
:101DB000002101F059F904E004F12800022101F0AA
:101DC000E3F9054625B1A8460BE00125002DFAD11F
:101DD000D9F82C00D4F89C1020F460400843C9F8CE
:101DE0002C002078000716D5D4F88000B0F5805F6D
:101DF00008D104F12800022101F0C6F9002818BF1B
:101E00004FF00108D9F82800D4F8801020F4405091
:101E10000843C9F828002078C00616D5D4F89400E5
:101E2000B0F5807F08D104F12800022101F0ACF95F
:101E3000002818BF4FF00108D9F82C00D4F89410EE
:101E400020F440700843C9F82C00A078000724D57E
:101E5000D4F8A000B0F5003F1CD0B0F5803F13D0FF
:101E6000002840F0E58004F10800002101F0FCF8B2
:101E700005468DB9D9F82C00D4F8A01020F44030D4
:101E80000843C9F82C0008E004F12800022101F001
:101E90007BF90546002DEDD0A846A078400725D552
:101EA000D4F88400B0F5401F1DD0B0F5001F14D049
:101EB000B0F5801F40F0C180D9F8000040F4003038
:101EC000C9F800008DB9D9F82800D4F8841020F49E
:101ED00040100843C9F8280008E004F12800012157
:101EE00001F052F90546002DEDD0A846A078C007B4
:101EF0001FD0206DB0F5803F0BD0002840F09380BC
:101F0000D9F8000040F40030C9F800004DB1A846EF
:101F10000FE004F10800022101F0A6F80546002DAB
:101F2000F5D1D9F82000216D20F480300843C9F89C
:101F30002000E078800608D504F12800022101F095
:101F400023F9002818BF4FF00108D4E900108A03D4
:101F500040F18280E26F6FF0010303EB3223022B2A
:101F60000AD34FEA32233BB1012B6BD1D9F80030B1
:101F700043F40033C9F80030002D66D0CA026ED495
:101F80008A0277D44A0000F18080CA0F40F08D8029
:101F9000090200F19580C00707D004F10800002174
:101FA00001F062F8002818BF05462079800707D5A0
:101FB00004F10800012101F057F8002818BF054678
:101FC0002079400707D504F10800022101F04CF800
:101FD000002818BF05462079000707D504F128001E
:101FE000002101F0D1F8002818BF05462079C0066D
:101FF00007D504F12800012101F0C6F8002818BF18
:1020000005462079800607D504F12800022101F059
:10201000BBF8002818BF0125002D18BF0125284650
:1020200001B0BDE8F0830125002D7FF470AF78E7A3
:102030000125002D7FF430AF1CE70125002D7FF432
:1020400054AF40E70125002D98D1D9F8283023F46A
:1020500040731A43C9F828204546CA0290D5D9F8DA
:102060002420236F22F000421A43C9F824208A0258
:102070007FF588AFD9F82420A36E22F080721A432E
:10208000C9F824204A007FF580AF59F81C2C22F4AF
:10209000004249F81C2CD4F8B42059F81C3C1A43CF
:1020A00049F81C2CCA0F3FF473AFD9F82020636D98
:1020B00022F040521A43C9F8202009027FF56BAF85
:1020C000D9F82810D4F8882021F440011143C9F828
:1020D0002810C0077FF461AF67E74FF6CF73D4F8DD
:1020E000B00059F81C2CC0F2FF0300F4407122F438
:1020F0007C5203EA1013B1F5407F08BF1A436FF317
:102100001F3049F81C2CD9F844100843C9F8440082
:102110006AE50000000000002DE9F04381B00028CE
:1021200000F0F88042F200080446C5F20028894613
:10213000D8F8000000F00F0081420ED9D8F8000056
:1021400020F00F0040EA0900C8F80000D8F80000AD
:1021500000F00F00484540F0DD80206844F2184749
:102160004107C5F602070AD521693A6802F07002F4
:10217000914204D93A6822F0700211433960010794
:102180000AD561697A6802F07002914204D97A68CE
:1021900022F0700211437960C1060AD5A1697A68FC
:1021A00002F4E062914204D97A6822F4E0621143B9
:1021B000796081060AD5E169BA6802F0700291423D
:1021C00004D9BA6822F070021143B96081070AD5B8
:1021D000E1683A6802F00F02914204D93A6822F0AD
:1021E0000F0211433960C00740F0808020688107EA
:1021F0000AD5E1683A6802F00F02914204D23A68C7
:1022000022F00F0211433960D8F8001001F00F01DD
:1022100089450DD2D8F8001021F00F0141EA0901DB
:10222000C8F80010D8F8001001F00F01494571D12D
:1022300041070AD521693A6802F07002914204D23E
:102240003A6822F070021143396001070AD56169CA
:102250007A6802F07002914204D27A6822F0700229
:1022600011437960C1060AD5A1697A6802F4E06277
:10227000914204D27A6822F4E062114379608006C8
:102280000AD5E069B96801F07001884204D2B968E2
:1022900021F070010843B86000F0EEF8396843F6A9
:1022A000B052C0F60002C1F30321515C3B6803F059
:1022B0000F0301F01F01D25C20FA01F102F01F00B0
:1022C00040F20402C2F2004221FA00F0106040F233
:1022D000140040F20002C2F20040C2F20042006864
:1022E000116001B0BDE8F043FFF72AB8386820F468
:1022F0007061D4E9010211433960012857F8181CB4
:102300000CD0032804D0022828D1890302D507E085
:10231000890105D4012001B0BDE8F083C905F9D5D4
:1023200057F8081C21F00701084347F8080CFEF78E
:10233000BBFF064641F2883557F8080C616800F08B
:102340003800B0EBC10F3FF451AFFEF7ADFF801B7B
:10235000A842F1D9032001B0BDE8F0834907D9D5DF
:10236000DEE700000000000080B500F085F844F2D0
:10237000184143F6B053C5F60201C0F600030A68DF
:10238000C2F303229A5C096801F00F0102F01F02F8
:10239000595C20FA02F201F01F0040F20401C2F27F
:1023A000004122FA00F0086040F20001C2F2004150
:1023B0000A6080BD0000000080B500F05DF844F2C6
:1023C000184C43F6B053C5F6020CC0F60003DCF817
:1023D0000020C2F303229A5CDCF8001001F00F0128
:1023E00002F01F02595CD04040F20402C2F20042E7
:1023F00001F01F0120FA01F1116040F20002C2F267
:1024000000421060DCF80400C0F30210185C00F019
:102410001F0021FA00F080BD80B500F02DF844F2D5
:10242000184C43F6B053C5F6020CC0F60003DCF8B6
:102430000020C2F303229A5CDCF8001001F00F01C7
:1024400002F01F02595CD04040F20402C2F2004286
:1024500001F01F0120FA01F1116040F20002C2F206
:1024600000421060DCF80400C0F30220185C00F0A9
:102470001F0021FA00F080BD44F20041C5F60201C0
:102480000869C0F3C200032814D002280DD088BB0D
:102490000868800649F20000C0F2D03058BF70478B
:1024A0000968C1F3C101C840704747F64000C0F257
:1024B0007D1070478B6A886AD1F82CC04A6BC0F3D4
:1024C0000510E0B1C2F3CC0203F0030300EE102AC2
:1024D0009FED291AB8EE400A20EE010A9FED271A57
:1024E000DFE803F0021F0F1F0A6892060CD49FED6D
:1024F000251A16E040F60010C0F23D00704700209B
:1025000070479FED1F1A0CE00A6849F20003C0F201
:10251000D033C2F3C10223FA02F201EE102AB8EE60
:10252000411A0A6B9FED183A6FF35F2202EE102AF0
:102530005FEACC7203FE000A03EE100A086BB8EEE5
:10254000422AC0F34620B8EE433A013030EE020A88
:10255000B7EE002A81EE031A30EE020A21EE000ADD
:1025600001EE100AB8EE411A80EE010ABCEEC00A74
:1025700010EE100A704700BF000000390024744AB2
:1025800020BCBE4B0024744C000000000000000082
:102590002DE9F04381B0002800F097818046007853
:1025A00044F20049C007C5F6020954D0D9F810001A
:1025B00000F03801D9F82800102905D018290CD1CD
:1025C00000F00300022808D1D9F8000080033ED5AE
:1025D000D8F80400D8BB01272CE0D8F80450D9F86B
:1025E00000002DB1B5F5A02F0BD0B5F5803F0ED072
:1025F00020F48030C9F80000D9F8000020F48020D1
:1026000007E040F48020C9F80000D9F8000040F449
:102610008030C9F80000FEF747FE002D054612D0B5
:10262000D9F80000800312D4FEF73EFE401B642858
:10263000F6D90327002070B98CE100BFFEF734FE05
:10264000401B6428F5D8D9F800008003F6D4012097
:10265000002800F07F8198F8000080076AD5D9F83B
:10266000100010F03801D9F828001DD0182908BF33
:102670005FEA807018D0D8F80C00D9F80010002854
:1026800040D021F019010843C9F80000FEF70CFE04
:10269000054600BFD9F80000400727D4FEF704FE26
:1026A000401B0228F6D91EE0D9F80000400704D5E7
:1026B000D8F80C00002800F0AC81D9F80000D8F858
:1026C0000C1020F019000843C9F80000FEF7ECFDDB
:1026D000054600BFD9F80000400707D4FEF7E4FD27
:1026E000401B0228F6D90327002420E0D9F8040073
:1026F000D8F8101020F0FE40012440EA0160C9F82B
:10270000040014E021F00100C9F80000FEF7CCFD40
:1027100005460126D9F8000010F0040086EA90046E
:1027200005D0FEF7C1FD401B0228F3D90327002C7A
:1027300000F0108198F80000C00656D5D9F81000B6
:1027400000F03801D9F82800082905D0182917D138
:1027500000F00300012813D1D9F80000C00503D50B
:10276000D8F81C0080283BD1D9F80C00D8F82010EC
:1027700020F07C50012440EA0160C9F80C0031E0EF
:10278000D8F81C000028D9F8000012D040F08000D2
:10279000C9F80000FEF788FD054600BFD9F8000023
:1027A000C005E1D4FEF780FD401B0228F6D90327BF
:1027B00017E020F08000C9F80000FEF775FD05461F
:1027C000012600BFD9F8000010F4807086EA1024BA
:1027D00008D0FEF769FD401B0228F3D9032701E06A
:1027E00001270024002C00F0B58098F800000007B5
:1027F0006DD498F80000800600F1818098F8000000
:10280000400700F19480D8F82440002C5BD0D9F820
:10281000100000F03800182840F0D980012CD9F8B9
:102820002810D9F8300050D001F00302D8F8283031
:102830009A424AD1C1F30511D8F82C20914244D1D3
:102840000146D8F830206FF35F21013A91423CD124
:10285000C0F34622D8F8341001398A4235D1C0F38A
:102860000642D8F8381001398A422ED1C0F30660EA
:10287000D8F83C100139884227D1D9F83400D8F86B
:102880004810C0F3CC0081421DD0D9F82C0020F0B4
:102890000100C9F82C00FEF707FD0546FEF704FD10
:1028A000A842FBD0D9F834004FF6F871D8F8482088
:1028B000884340EAC200C9F83400D9F82C0040F03F
:1028C0000100C9F82C00002744E0012742E0D8F8B5
:1028D00014000028D9F8740040D040F00100C9F875
:1028E0007400FEF7E1FC0546D9F8740080073FF557
:1028F00080AFFEF7D9FC401B0228F5D929E0D8F8B3
:1029000018000028D9F800004DD040F48050C9F8D4
:102910000000FEF7C9FC0546D9F8000080043FF529
:102920006DAFFEF7C1FC401B0228F5D911E0D9F8C4
:10293000000440F48070C9F80004FEF7B5FC0546B9
:10294000D9F80004C0051CD4FEF7AEFC401B642877
:10295000F6D90327F8B201B0BDE8F08320F00100FA
:10296000C9F87400FEF7A0FC05460327D9F87400E7
:1029700080077FF53EAFFEF797FC401B0228F5D994
:10298000E8E7D8F80850D9F870001DB1052D42D0FD
:10299000012D46D020F00100C9F87000D9F8700070
:1029A00020F004003FE020F48050C9F80000FEF75A
:1029B0007BFC0546032700BFD9F8000080047FF5A3
:1029C0001DAFFEF771FC401B0228F5D9C2E7D9F80C
:1029D000000020F08070C9F80000FEF765FC022CB2
:1029E00005464FF0030709D1D9F8000080013CD516
:1029F000FEF75AFC401B0228F6D9ABE7D9F80000D5
:102A000080017FF560AFFEF74FFC401B0228F5D92F
:102A1000A0E7012768E640F00400C9F87000D9F883
:102A2000700040F00100C9F87000FEF73DFC002D79
:102A3000054641F288344FF0030711D0D9F87000F1
:102A400080073FF5E0AEFEF72FFC401BA042F5D912
:102A500080E700BFFEF728FC401BA0423FF67AAF9C
:102A6000D9F870008007F5D4CDE608F12807D9F829
:102A7000280040F2F33188438ECF0843591E40EAC4
:102A800002104FF47E426FF35F21C9F8280002EB79
:102A900047204FF4FE0280B2D8F83C300844D8F802
:102AA000381002EB01414FF0FE4201F4FE0102EB4F
:102AB0000362084402F0FE410844C9F83000D9F826
:102AC0002C004FF6F87120F00100C9F82C00D9F85D
:102AD0003400D8F84820884340EAC200C9F83400DE
:102AE000D9F82C00D8F8401020F00C000843C9F8A1
:102AF0002C00D9F82C00D8F8441020F0020008432C
:102B0000C9F82C00D9F82C0040F48030C9F82C000A
:102B1000D9F82C0040F40030C9F82C00D9F82C006A
:102B200040F48020C9F82C00D9F82C0040F00100B6
:102B3000C9F82C00D9F8000040F08070C9F80000F6
:102B4000FEF7B2FB04460327D9F8000080013FF5E9
:102B5000BAAEFEF7A9FB001B0228F5D9FAE6000081
:102B6000411E0020B0EB116F01D0012070474EF2E2
:102B70001002F023CEF2000251604EF62351CEF245
:102B800000010B7007219060116070470000000089
:102B900090F88410012901D1022070472421C0F847
:102BA000881001680A680B6822F0005223F00103C4
:102BB0000B60002343660A602021C0F8881080F86B
:102BC000843000207047000090F88420012A01D151
:102BD00002207047B0B5012380F884302422C0F869
:102BE00088200268D0F864E0BEF1000FD2F800C07F
:102BF000146824F001041460946824F0606441EACD
:102C0000040191601BD0916843F6E85E9368C0F6BA
:102C1000000E5B0F43F6F055C1F34261C0F60005AC
:102C20001EF80340EB5C2401B4FBF3F3A0F86A3018
:102C30001EF80130695C1B01B3FBF1F301E0A0F861
:102C40006A30A0F868302021C2F800C0C0F88810AF
:102C5000002180F884100020B0BD000000000000BA
:102C600090F88420012A01D102207047B0B50123D9
:102C700080F884302422C0F888200268D0F864E00C
:102C8000BEF1000FD2F800C0146824F001041460F3
:102C9000946824F0604441EA040191601BD091687B
:102CA00043F6E85E9368C0F6000E5B0F43F6F055FE
:102CB000C1F34261C0F600051EF80340EB5C24013D
:102CC000B4FBF3F3A0F86A301EF80130695C1B0115
:102CD000B3FBF1F301E0A0F86A30A0F868302021DE
:102CE000C2F800C0C0F88810002180F884100020CD
:102CF000B0BD00000000000010B5D8B10446D0F807
:102D0000880028B9002084F88400204600F028F8C4
:102D10002420C4F888002068A16A0268002922F0F3
:102D20000101016002D0204600F08AFB204600F03D
:102D300057FC08B1012010BD2068416821F4904182
:102D40004160816821F02A018160016841F0010140
:102D500001602046BDE8104000F0E2BB000000002A
:102D6000B0B5B6B0044602A8B8210025CDE9345567
:102D7000CDE932553195FDF7ABFB41F200012068FA
:102D8000C4F20101884201D036B0B0BD01200290EA
:102D900002A803952095FEF70BFD08B1FDF704FC92
:102DA00044F2E040C5F60200016941F01001016102
:102DB000016901F0100101910199016841F00201DE
:102DC0000160006831A900F00200019001984FF401
:102DD00040403190022032900020CDE933000420A1
:102DE000359040F20040C5F60200FEF789F936B092
:102DF000B0BD0000000000002DE9F04381B00446A2
:102E0000D0F88800202808D189460120002918BF61
:102E1000002A06D101B0BDE8F083022001B0BDE870
:102E2000F0831D460020C4F890002120C4F88800DB
:102E30001646FEF739FAA4F85460A4F85660064620
:102E4000A168B1F5805F02D12069002857D0C8463B
:102E50004FF00009B4F8560090B36F1C2068C069A9
:102E600000060ED4002FF9D0FEF71EFA002D014601
:102E70004FF003003DD0891BA9423AD82068006872
:102E8000ECE7B8F1000F04D0206818F8011B81624C
:102E900007E039F8020B21684FF000086FF35F205C
:102EA0008862D4F8880000F0210021282AD1B4F8E3
:102EB00056000138A4F85600B4F856000028CDD1C9
:102EC0002068C069400613D46F1C03E02068C06905
:102ED00040060DD4002FF9D0FEF7E6F901464FF079
:102EE000030035B1891BA94203D820680068EDE7CB
:102EF00000202021C4F8881001B0BDE8F0834FF015
:102F00000008A7E7012001B0BDE8F0830000000041
:102F1000FEE700000000000080B540F278004AF2B1
:102F20000001C2F20040C4F200014FF0000C012386
:102F30000160132183610322C1610521C0E90813E7
:102F4000C0E90A33C0E90C3C00F150030821C0E994
:102F500002C2A0F810C0042280F812C04261C0E989
:102F60000E22C0E91012C0E9121283E80610C0E96F
:102F700017C1C0E919C2FDF72FFE002808BF80BDA8
:102F8000BDE88040FDF710BB83B044F2E040C5F6D9
:102F90000200016841F080010160016801F08001D8
:102FA00002910299016841F002010160016801F09B
:102FB000020101910199016841F00101016000687D
:102FC00000F001000090009803B07047000000007E
:102FD00080B540F2181041F20001C2F20040C4F284
:102FE00001010C2201604FF4E13141600021C0E990
:102FF00002110161C0E90521C0E90711C0E9091109
:10300000FFF77AFE08B1FDF7CFFA40F21810002161
:10301000C2F20040FFF724FE08B1FDF7C5FA40F206
:1030200018100021C2F20040FFF7CEFD08B1FDF7F5
:10303000BBFA40F21810C2F20040FFF7A9FD0028C9
:1030400008BF80BDBDE88040FDF7AEBA00000000BB
:10305000FEE7000000000000FEE7000000000000A6
:103060007047000000000000F0B581B044F22C472A
:10307000C5F6020757F8042C02F00302032A02D116
:10308000012001B0F0BD054657F82C0C0C4620F08D
:10309000806047F82C0CFEF707F9064657F82C0C11
:1030A000000105D5FEF700F9801B0228F6D964E07F
:1030B00057F8040CEE6895E80E0020F47C30012CE3
:1030C00040EA0130A2F101016FF35F214FF47E422B
:1030D00002EB432247F8040C92B24FF0FE4302EB9E
:1030E00001004FF4FE012A6901EB064101F4FE01E3
:1030F00003EB0262084402F0FE410844F8603868BD
:10310000696920F0C00040EA010038603868A969A8
:1031100020F0200040EA0100386038684FF6F8716E
:1031200020F0100038603869EA6920EA01004FF4A5
:10313000001140EAC2003861386808BF4FF48011BE
:1031400040F01000002C386008BF4FF400213868B0
:103150000843386057F82C0C40F0806047F82C0C7E
:10316000FEF7A2F8044600BF57F82C0C000107D464
:10317000FEF79AF8001B0328F6D3032001B0F0BD38
:10318000002001B0F0BD0000F0B581B044F22C4742
:10319000C5F6020757F8042C02F00302032A02D1F5
:1031A000012001B0F0BD054657F82C0C0C4620F06C
:1031B000805047F82C0CFEF777F8064657F82C0C91
:1031C000800005D5FEF770F8801B0228F6D964E070
:1031D00057F8040CEE6895E80E0020F07C70012C86
:1031E00040EA0150A2F101016FF35F214FF47E42EA
:1031F00002EB432247F8040C92B24FF0FE4302EB7D
:1032000001004FF4FE012A6901EB064101F4FE01C1
:1032100003EB0262084402F0FE410844786138681A
:10322000696920F4406040EA010038603868A969A3
:1032300020F4007040EA0100386038684FF6F871F9
:1032400020F480703860B869EA6920EA01004FF024
:10325000807140EAC200B861386808BF4FF40001CD
:1032600040F48070002C386008BF4FF4800138684B
:103270000843386057F82C0C40F0805047F82C0C6D
:10328000FEF712F8044600BF57F82C0C800007D454
:10329000FEF70AF8001B0328F6D3032001B0F0BDA7
:1032A000002001B0F0BD00007047000000000000E9
:1032B000FEF702B800000000B0B59CB044F6180458
:1032C00009A84C21C5F60204FDF702F902200025E9
:1032D000CDE90755CDE90555CDE90355CDE90155B2
:1032E000FEF70EF90095206820F440402060206829
:1032F00000F440400090009820688004FCD5012034
:1033000009900522149260224FF48031CDE91520F6
:103310000C20199009A80A9102210024CDE912116C
:10332000CDE91711CDE91A44FFF732F908B172B6A9
:10333000FEE73F20019003204FF48061CDE90204B5
:10334000082004904020CDE90500CDE9071001A830
:103350000321FEF7E1FE10B172B600BFFEE71CB01C
:10336000B0BD0000000000004EF6885042F2000C94
:10337000CEF20000C5F2002C026842F47002026036
:10338000DCF8000000F00F00062806D8DCF800008A
:10339000072262F30300CCF8000044F200404EF62E
:1033A0007F51C5F60200CEF6F621026842F0010216
:1033B000026000220261036819400160DCF800101D
:1033C000090706D5DCF80010072363F30301CCF8E6
:1033D000001040F200218261C261C0F2022102624B
:1033E00081620021C0F2FF11C16240F28021C0F26F
:1033F0000111016342638163C26301644264016835
:1034000021F4802101600266D0F8D410C90448BFBD
:103410007047D0F8D41043F2D20241F48051C0F882
:10342000D41044F20001C5F200210A60D0F8D41093
:1034300021F48051C0F8D410704700000000000053
:10344000816A0A070CD4CA0715D18A071ED44A0715
:1034500027D4CA0630D48A0639D44A0642D454E066
:103460000268D0F838C0536823F4004343EA0C03E1
:103470005360CA07E9D00268D0F82CC0536823F41F
:10348000003343EA0C0353608A07E0D50268D0F8A2
:1034900030C0536823F4803343EA0C0353604A0777
:1034A000D7D50268D0F834C0536823F4802343EAA8
:1034B0000C035360CA06CED50268D0F83CC09368AE
:1034C00023F4805343EA0C0393608A06C5D502684F
:1034D000D0F840C0936823F4005343EA0C03936090
:1034E0004A0612D50268D0F844C0BCF5801F536864
:1034F00023F4801343EA0C03536006D1536823F48A
:10350000C00C836C43EA0C035360090658BF704734
:103510000168C06C4A6822F400221043486070477A
:10352000B0B582B004460020C4F89000FDF7BCFEA0
:10353000216805460968090718D54FF400110022D3
:103540006FF07E40009020462B4600F07DFA68B177
:10355000206850E8000F216820F0800041E8000258
:10356000002AF5D103202021882230E0206800685D
:10357000400723D54FF4800100226FF07E40009079
:1035800020462B4600F060FAC0B100BF206850E82A
:10359000000F216820F4907041E80002002AF5D164
:1035A000206850E8020F216820F0010041E8020283
:1035B000002AF5D1032020218C2208E02020C4F825
:1035C0008800C4F88C00002170220020E166A15020
:1035D000002184F8841002B0B0BD0000000000009B
:1035E000F0B583B004460368806846F6F315D4E965
:1035F0000312104362691043E2691E68CCF6FF753E
:10360000104306EA05021043186058684FF2FF465F
:1036100020F4405240F6004011435960C5F60000C6
:10362000A1698342C1F2FF161CBF226A11439A6846
:1036300047F6FF353240C4F2000511439960DA6A5B
:1036400044F2544122F00F02666AC5F60201324389
:10365000AB42DA624FF0800218DD41F2FF76C4F22D
:103660000106B34227DC47F60046C4F20006B34227
:103670004DD041F20006C4F20106B34231D041F20E
:103680000046C4F20106B3422BD04DE044F6FF36AB
:10369000C4F20006B3422EDD44F60046C4F2000632
:1036A000B34234D045F20006C4F20006B3422ED035
:1036B00047F6000627E041F60006C4F20106B342D1
:1036C0000FD041F60046C4F20106B34209D083424E
:1036D0002AD14A6802F00702062A24D20FF2603388
:1036E0001EE00A68C2F3C202062A1CD243F6AA539D
:1036F000C0F6000314E044F20046C4F20006B342F0
:1037000005D044F60006C4F20006B3420CD10A68A4
:1037100002F00702062A06D243F6A453C0F60003BD
:103720001A44127800E080222368834240F6001099
:10373000C0F23D0000F04F80E369B3F5004F40F068
:103740006480402A00F2FC800027DFE812F041008C
:103750002101F900F9002701F900F900F9002F0112
:10376000F900F900F900F900F900F900F900FF008B
:10377000F900F900F900F900F900F900F900F90081
:10378000F900F900F900F900F900F900F900340135
:10379000F900F900F900F900F900F900F900F90061
:1037A000F900F900F900F900F900F900F900F90051
:1037B000F900F900F900F900F900F900F900F90041
:1037C000F900F900F900F900F900F900F9001B010E
:1037D000FEF7F2FDEFE0931E1E2B00F26080002743
:1037E000DFE803F0106374636363786363636363A8
:1037F0006363666363636363636363636363636396
:1038000063637D00FDF7A0FE69E0402A00F29B8023
:103810000027DFE812F04100C00098009800C700C0
:10382000980098009800ED00980098009800980083
:10383000980098009800A9009800980098009800B7
:1038400098009800980098009800980098009800B8
:10385000980098009800F20098009800980098004E
:103860009800980098009800980098009800980098
:103870009800980098009800980098009800980088
:103880009800980098009800980098009800980078
:10389000980098009800BA00FEF78EFDADE0402A2F
:1038A00003D14FF40040002719E00020012716E063
:1038B00051F8540C800649F20000C0F2D0300ED509
:1038C00051F8541CC1F3C101C84008E06846FDF737
:1038D0004FFE02E06846FDF7DBFE00270198002856
:1038E00000F0A280616A43F6C052C0F6000265682B
:1038F00032F8112005EB4501B0FBF2F38B424FF09B
:103900000101C0F094802E03B34200F290800021A8
:103910000023FCF765FD0902002341EA10612A46F5
:10392000000210EB550041F10001FCF759FD4FF684
:103930000052A0F54071C0F20F02914272D375E0BF
:103940000020012737E00020012756E051F8540CF1
:10395000800649F20000C0F2D0302CD551F8541C3A
:10396000C1F3C101C84026E051F8540C800649F269
:103970000000C0F2D03040D551F8541CC1F3C10151
:10398000C8403AE04FF4004015E04FF4004034E006
:10399000FEF742FD0FE0FEF73FFD2EE06846FDF723
:1039A000E7FD06E06846FDF7E3FD24E06846FDF725
:1039B0006FFE00270198B8B3616A43F6C052C0F6A3
:1039C000000232F811106268B0FBF1F0510801EB0F
:1039D0004000B0FBF2F0A0F110014FF6EF729142FF
:1039E00024D84FF6F0710140C0F34200084419E0BA
:1039F0006846FDF74DFE00270198A8B1616A43F6BD
:103A0000C052C0F6000232F811106268B0FBF1F04B
:103A100000EB5200B0FBF2F0A0F110014FF6EF7294
:103A2000914203D82168C860394600E001214FF077
:103A30000110A0660020C4E91D00084603B0F0BDD7
:103A400002040810204000002DE9F04381B0044634
:103A50000068C0690840401AB0FA80F0400982420C
:103A600057D1DDF820800D461646994608F101072A
:103A700009E000BF2068C0692840401BB0FA80F010
:103A80004009864245D1002FF4D0FDF70DFCB8F176
:103A9000000F01464FF003003CD0A1EB0901414566
:103AA00038D8206801684907E4D5402D18BF802D1B
:103AB000E0D0C169090730D4C1690905DAD54FF4EE
:103AC00000610162206850E8000F216820F49070C6
:103AD00041E80002002AF5D14FF6FE70CEF6FF70E5
:103AE000216851E8021F2268014042E80213002BBE
:103AF000F6D1E06E012809D1206850E8000F216856
:103B000020F0100041E80002002AF5D10320202116
:103B10002CE0002001B0BDE8F0830821016200BF65
:103B2000206850E8000F216820F4907041E80002FE
:103B3000002AF5D14FF6FE70CEF6FF70216851E8ED
:103B4000021F2268014042E80213002BF6D1E06E0A
:103B5000012809D1206850E8000F216820F01000EA
:103B600041E80002002AF5D1012008212022C4F8F2
:103B70008C200022E2666267C4F8901084F88420EA
:103B800001B0BDE8F0830000FEE700000000000087
:103B90009AB04BA04A4914910024D0E90112159122
:103BA000C16816920269CDE91712818A807DADF84D
:103BB00064108DF86600CDE90344CDE90144FDF7BA
:103BC0001BFC0DF104080120ADF8040048F21F7041
:103BD000039040F20110049040460294FDF7DCFB94
:103BE0000420FDF719FCFDF777FBFFF765FBFFF7F6
:103BF000CBF9FFF791F9FFF7EBF940F27805C2F244
:103C000000452846FDF738FA1420FCF729FD4FF44B
:103C100000700D94CDE90B04082040F20806CDE9B0
:103C20000E04CDE91044CDE9124440F2181440F2DC
:103C3000AC17C2F200460DF12C0AC2F200440FF29A
:103C4000A009C2F200470FF2900B07E02046594648
:103C5000FFF7D2F84FF4FA70FCF702FD2846514600
:103C60003246FCF711FD062232230028EED1204611
:103C70004946FFF7C1F84021284642463B46FCF73B
:103C800047FD20B126223223204617A1E0E7172264
:103C9000322320461EA1FFF7AFF80020315C3A5CCA
:103CA000914207D101300828F8D11622322320464C
:103CB00014A9CDE71122322320461BA1C8E700BF7B
:103CC00043414E204C6F6F706261636B205465738B
:103CD00074204F4B0D0A00006661696C0D0A0000EC
:103CE000544553540D0A0000E58F91E98081E68820
:103CF00090E58A9FEFBC8CE69CAAE694B6E588B076
:103D0000E59B9EE78EAFE68AA5E696870D0A000042
:103D1000E68890E58A9FE694B6E588B043414EE692
:103D20008AA5E696870D0A0043414E2044617461DE
:103D3000204572726F72210D0A000000F1EE100A28
:103D40004FF6FF71C0F2C03120EA010040F0407030
:103D5000E1EE100A704700000000000000000000C3
:103D60000000000000000000000000000100000052
:103D7000020000000300000004000000000000003A
:103D8000050000000000000000000000000000002E
:103D9000060000000000000000000000000000001D
:103DA0000700000000040810204001040810204013
:103DB00000000000010203040102030406070809D1
:103DC000010002000400060008000A000C001000B8
:103DD00020004000800000010001020304050607E6
:103DE000080C1014182030400101010307010000E5
:103DF0000804020408010101183E00080000002424
:103E00001800000030030008303E000818000024AD
:103E1000A0070000500300080090D0030090D003DA
:103E2000112233445566778801000000100000001D
:04000005080002CD20
:00000001FF
