:020000040800F2
:10000000600700246D030008FB240008E3230008B8
:10001000F9240008DF040008692A00080000000035
:100020000000000000000000000000004127000860
:10003000E104000800000000FD2400084327000838
:100040008B0300088B0300088B0300088B03000858
:100050008B0300088B0300088B0300088B03000848
:100060008B0300088B0300088B0300088B03000838
:100070008B0300088B0300088B0300088B03000828
:100080008B0300088B0300088B0300088B03000818
:100090008B0300088B0300088B0300088B03000808
:1000A0008B030008B92800088B0300088B030008A5
:1000B0008B0300088B0300088B0300088B030008E8
:1000C0008B0300088B0300088B0300088B030008D8
:1000D0008B0300088B0300088B0300088B030008C8
:1000E0008B0300088B030008000000008B0300084E
:1000F0008B0300088B0300088B0300088B030008A8
:100100008B0300088B0300088B0300088B03000897
:100110008B0300088B0300088B0300088B03000887
:100120008B0300088B0300088B0300088B03000877
:100130008B0300088B0300088B0300088B03000867
:1001400000000000000000000000000000000000AF
:100150008B0300088B0300088B0300088B03000847
:100160008B0300088B0300088B0300088B03000837
:100170008B0300088B0300088B03000800000000BD
:100180008B0300088B0300088B0300088B03000817
:100190008B0300088B0300088B0300088B03000807
:1001A0008B0300088B0300088B030008000000008D
:1001B0008B0300088B0300088B0300088B030008E7
:1001C0008B0300088B030008000000000000000003
:1001D00000000000000000008B0300080000000089
:1001E000000000000000000000000000000000000F
:1001F00000000000000000008B0300088B030008D3
:100200008B0300088B030008000000008B0300082C
:100210008B0300088B0300088B0300088B03000886
:100220008B030008000000008B03000800000000A2
:100230008B0300088B030008000000008B030008FC
:100240008B0300088B0300088B0300088B03000856
:100250008B0300088B0300088B0300088B03000846
:100260008B0300088B0300088B0300088B03000836
:100270008B0300088B0300088B03000800000000BC
:100280008B0300088B0300088B0300088B03000816
:10029000000000008B0300088B0300080000000032
:1002A000000000008B0300088B0300088B0300088C
:1002B0008B0300088B0300088B0300088B030008E6
:1002C0008B0300088B0300088B03000800F002F882
:1002D00000F03CF80AA090E8000C82448344AAF1A4
:1002E0000107DA4501D100F031F8AFF2090EBAE8A2
:1002F0000F0013F0010F18BFFB1A43F0010318475A
:100300006428000084280000103A24BF78C878C10F
:10031000FAD8520724BF30C830C144BF04680C600B
:10032000704700000023002400250026103A28BF53
:1003300078C1FBD8520728BF30C148BF0B60704757
:100340001FB502F0D4FB1FBD10B510BD00F08EF834
:100350001146FFF7F5FF02F099FB00F0ACF803B48B
:10036000FFF7F2FF03BC00F0B3F800000A48804733
:100370000A4880470A480047FEE7FEE7FEE7FEE737
:10038000FEE7FEE7FEE7FEE7FEE7FEE70548064973
:10039000064A074B70470000E9040008E1270008FF
:1003A000CD020008600100246007002460030024DF
:1003B0006003002410B5203AC0F00B80B1E818505B
:1003C000203AA0E81850B1E81850A0E81850BFF43F
:1003D000F5AF5FEA027C24BFB1E81850A0E81850DE
:1003E00044BF18C918C0BDE810405FEA827C24BF32
:1003F00051F8043B40F8043B08BF7047D20728BFC0
:1004000031F8023B48BF11F8012B28BF20F8023B0E
:1004100048BF00F8012B70474FF0000200B51346AB
:1004200094469646203922BFA0E80C50A0E80C5014
:10043000B1F12001BFF4F7AF090728BFA0E80C50C5
:1004400048BF0CC05DF804EB890028BF40F8042BBE
:1004500008BF704748BF20F8022B11F0804F18BF2B
:1004600000F8012B7047704770477047754600F0E1
:100470002BF8AE4605006946534620F00700854636
:1004800018B020B5FFF782FFBDE820404FF000060E
:100490004FF000074FF000084FF0000B21F007016C
:1004A000AC46ACE8C009ACE8C009ACE8C009ACE8AF
:1004B000C0098D46704710B50446AFF30080204652
:1004C000BDE81040FFF74BBF004870470001002413
:1004D00001491820ABBEFEE7260002007047FEE788
:1004E000704772B6FEE70000054805490839026802
:1004F00042F00202026008688004FCD570470000E8
:100500000C480258F0B503684FF6FC716D4C426B15
:10051000D3F884508D4345EA8205C3F884500368BC
:1005200053F8845F068F25F47F0545EA06451D6074
:10053000836B654D9F180268D2F888308B4343EA7D
:100540008703C2F88830026852F8883F868F23F408
:10055000FE0343EA06431360066856F8A03FC26BE9
:100560008B4307EB420243EA82033360076857F884
:10057000A03FB0F8406023F4FE0343EA06433B602B
:10058000D0E9103603FB06220368D3F8B0608E432F
:1005900046EA8206C3F8B0600368B0F84860D3F852
:1005A000B07027F4FE0747EA0646C3F8B060D0E90A
:1005B0001267036806FB0722D3F8AC608E4346EA55
:1005C0008206C3F8AC60D0E91467036806FB072213
:1005D000D3F8F0608E4346EA8206C3F8F060036801
:1005E000B0F85860D3F8F07027F47C1747EA064655
:1005F000C3F8F0600368876D53F8C06F02EB4702E1
:100600008E4346EA820119600168B0F85C20D1F897
:10061000C03023F47C1343EA0242C1F8C0200168D1
:1006200090F86020D1F8C03023F07C5343EA026296
:10063000C1F8C020416B04EB8101C166826B01EB04
:1006400082020267C36B02EBC3024267D0E9103437
:10065000634302EB83028267D0E91234634302EB07
:100660008302C267D0E91434634302EB8302C0F80B
:100670008020836D02EBC303C0F88430C46D826EAA
:10068000544303EB8403C0F88830046E544303EBF7
:100690008402C0F89020AA420AD9D0F89C200321F5
:1006A00042F02002C0F89C2080F898100120F0BD94
:1006B000002200E004C1D0F890308B42FAD800202C
:1006C000F0BD000000AC0040FCD300402DE9F0413B
:1006D00094B08D494C2204466846FFF76BFE64B126
:1006E0008A4D2068A84202D100F58070606094F8BD
:1006F00098004FF0000820B108E0012014B0BDE8D8
:10070000F081204684F8998000F002F92068816920
:1007100021F01001816100F05DFA0327064604E034
:1007200000F058FA801B0A2811D820688069000759
:10073000F6D42068816941F00101816100F04AFA34
:1007400006460DE000F046FA801B0A2808D9D4F8C6
:100750009C0040F00100C4F89C0084F89870CCE73D
:1007600020688069C007EDD02068816941F00201EE
:100770008161207C01282068816937D041F04001E7
:100780008161607C01282068816932D021F4804138
:100790008161A07C0128206881692DD041F48051BD
:1007A00081612068A268816921F4407111438161EF
:1007B0002068816921F0A40181612068016921F02C
:1007C00010010161E068012819D010B302281BD084
:1007D0002068816941F0800181612068016941F0F0
:1007E00010010161E06803280ED012E021F0400101
:1007F000C6E741F48041CBE721F48051D0E720687F
:10080000816941F0040103E02068816941F0200121
:100810008161207E6FF0FF02D4E90773A68A11027E
:10082000400602EB0727A0F10070384327685B1EE3
:10083000184301EB06463043F861A068B0F5407FED
:1008400011D104F12800A68C6FF00F0C89C801EBC0
:100850000641401E02EB0322104322680CEB0713F3
:1008600018430843D060206E30B12068626ED0F823
:10087000C0101143C0F8C010D4E917126846D14225
:1008800009D02168A36E51F8C82F50F8233022F008
:1008900007021A430A60216C49B12168626C51F861
:1008A000BC3F50F8226023F0070232430A60A16C7B
:1008B00051B12168E36C51F8BC2F50F8233022F07D
:1008C000700242EA03120A60216D51B12168626D23
:1008D00051F8BC3F50F8220023F4E06242EA0020C5
:1008E00008602068A84204D16068816821F0030193
:1008F0008160C4F894800121C4F89C8084F8981029
:100900002046FFF7FFFDF9E6082B000800A0004095
:1009100070B5B4B0044614212EA8FFF77DFDB821B0
:100920006846FFF779FD1F492068884237D10021CA
:1009300002240D4620224FF400408DE80700782362
:10094000CDE903344026059406948003CDE9076180
:1009500009911B90684600F05FFA08B1FFF7C1FDEE
:100960001148016841F480710160006800F48070F2
:1009700033900D480C38016841F0010101600068B6
:100980002EAA092100F0010033904FF4C05082E8F4
:100990003100CDE9315105482EA900F009F834B0F5
:1009A00070BD000000A00040EC4402580000025856
:1009B0002DE9F84F03247C4D00234FF001094FF03F
:1009C000B04B4FF00F0AE7E009FA03F632407BD054
:1009D0000F7907F00307012F01D0022F1AD1876882
:1009E0004FEA430ED1F80CC004FA0EF827EA0807C4
:1009F0000CFA0EFC4CEA070CC0F808C0476891F8E6
:100A000004C0B743CCF3001C0CFA03FC4CEA070CFF
:100A1000C0F804C00E79F643B60702D18E68012EE5
:100A20000BD0C7684FEA43088E6804FA08FC27EA2F
:100A30000C0706FA08F63E43C6600E7906F0030678
:100A4000022E12D1DE080F694FEA437C00EB8606C6
:100A5000B646366A4FEADC6C0AFA0CF807FA0CF76D
:100A600026EA08063743CEF820700F7906684FEA69
:100A7000430807F0030704FA08FC07FA08F726EA18
:100A80000C06374307604E6816F4403F1CD0474EB3
:100A9000376847F00207376036689F0706F002069E
:100AA000009623F0030606F1B046B6463F0FD6F88F
:100AB0000864DFF8FC800AFA07FC404526EA0C06C9
:100AC00003D14FF0000C3AE065E0DFF8E8C0604584
:100AD00002D14FF0010C32E0DFF8DCC0604502D1FA
:100AE0004FF0020C2BE0DFF8D4C0604502D14FF08C
:100AF000030C24E0DFF8C8C0604502D14FF0040CBD
:100B00001DE0DFF8C0C0604502D14FF0050C16E0D3
:100B1000DFF8B4C0604502D14FF0060C0FE0DFF8FB
:100B2000ACC0604502D14FF0070C08E0DFF8A0C070
:100B3000604502D14FF0090C01E04FF00A0C0CFAAD
:100B400007FC4CEA060CCEF808C44F68DBF80060DE
:100B5000FF0226EA020600D516435F46CBF8006086
:100B6000D1F804C0DBF804605FEA8C2C26EA0206A8
:100B700000D516437E606E684F6826EA0206BF0302
:100B800000D516436E602E684F6826EA0206FF0302
:100B900000D516432E605B1C0A6832FA03F67FF418
:100BA00013AFBDE8F88F000080000058F4440258ED
:100BB000000002580004025800080258000C0258B5
:100BC000001002580014025800180258001C025865
:100BD000002402580148806870470000000000248B
:100BE0000248816802781144816070470000002447
:100BF000032010B500F0D4F800F0DAFE0F4A1049D7
:100C000014681368C4F3032203F00F038A5CC95C01
:100C100002F01F0201F01F01D0400A4A20FA01F140
:100C20001160094908600F2000F010F808B1012098
:100C300010BD00F079F8002010BD000018440258E3
:100C4000542B0008100000240C00002470B50D4D3A
:100C500004462878A0B14FF47A71B1FBF0F00A494C
:100C60000968B1FBF0F001F0D2F948B9102C07D2B5
:100C700000222146501E00F073F800206C6070BD09
:100C8000012070BD000000240C000024154BF0B5BD
:100C9000083B427813491A600B680A1F23F00103CE
:100CA0000B6043681360057BC67A827A437B2D070D
:100CB000847B45EA0665C77B90F809C0067A90F800
:100CC00000E045EAC24040EA834040EA444040EA4E
:100CD000074040EA0C2040EA460040EA0E00086067
:100CE000F0BD0000A0ED00E0BFF35F8F04480021DD
:100CF0000368034A23F48033036070321160704745
:100D000024ED00E0074A40F001000649703210600F
:100D1000086840F480300860BFF34F8FBFF36F8FD7
:100D20007047000024ED00E0054808B5016841F077
:100D300002010160006800F00200009008BD0000A0
:100D4000F4440258002809DB410900F01F02890021
:100D5000012001F1E0219040C1F80001704700003E
:100D60000E4BF0B41B680D46C3F30223C3F1070614
:100D7000042E00D90426191D072901D2002300E002
:100D8000DB1E012404FA06F19C40491E2940641E22
:100D9000994014402143F0BC01F067BE0CED00E027
:100DA000064900F0070210B54FF6FF040868044B2F
:100DB000204040EA02201843086010BD0CED00E01E
:100DC0000000FA05134970B50A68D243520705D5E9
:100DD000096801F00701814213D118E00A6822F086
:100DE000070202430A60FFF7F5FE0A4D4FF47A76D8
:100DF0000446083D07E000BFFFF7ECFE001BB042D1
:100E000001D9012070BD2868C0438004F4D40020BB
:100E100070BD00000C4802582DE9FE4F0546DFF872
:100E200000A450F8081B0024FD4FC943019005F1B0
:100E3000280026460AF1240A009008011DD4686E95
:100E400050B1B0F5801F0CD0B0F5001F0ED0B0F53A
:100E5000401F1ED001240FE0386840F40030386095
:100E600017E00198022101F04BFB03E000980221FA
:100E700001F0D6FB04000CD026462888C043C005EC
:100E800023D4A86D05281ED2DFE800F00C11161B34
:100E90001B006A6EDAF8001021F440111143CAF801
:100EA0000010EAE7386840F40030386009E0019843
:100EB000002101F025FB03E00098002101F0B0FBC8
:100EC0000446C4B100E0012426462888DFF8508398
:100ED000C04308F12C0840052FD4D5F8A400B0F584
:100EE000C00F28D010DCB8B1B0F5001F19D0B0F594
:100EF000800F0FD11AE0AA6DDAF8001021F0070177
:100F00001143CAF80010E0E7B0F5000F13D0B0F5B8
:100F1000200F10D001240FE0386840F40030386012
:100F200009E00198002101F0EBFA03E000980021AC
:100F300001F076FB044694B126462888C04300059C
:100F400030D4D5F8A800B0F1407F29D011DCC0B171
:100F5000B0F1807F1AD0B0F1007F10D11BE0D5F83E
:100F6000A420D8F8001021F460011143C8F8001043
:100F7000E3E7B0F1806F13D0B0F1A06F10D001247F
:100F80000FE0386840F40030386009E00198002133
:100F900001F0B6FA03E00098002101F041FB04469D
:100FA00094B126462868DFF878B2C0430BF1200BD5
:100FB00080011FD4E86CD8B110280FD0202812D09F
:100FC000302815D0012414E0D5F8A820D8F8001056
:100FD00021F0E0611143C8F80010E3E7386840F4FD
:100FE0000030386004E00198022101F089FA0446DB
:100FF00074B126462888C043C0042BD4E86DB0F5F0
:10100000005F20D00DDCA0B1B0F5805F0FD115E0FE
:10101000EA6CDBF8001021F030011143CBF800102E
:10102000E8E7B0F5405F13D0B0F5804F10D0012451
:101030000FE0386840F40030386009E00198002182
:1010400001F05EFA03E00098002101F0E9FA04469D
:101050008CB126462888C043800429D4286EB0F578
:10106000403F23D010DC08B3B0F5803F14D0B0F57A
:10107000003F0FD115E0EA6DDAF8001021F4E041ED
:101080001143CAF80010E5E7B0F5802F0ED0B0F597
:10109000A02F0BD001240AE00198012101F030FAC1
:1010A00003E00098012101F0BBFA044694B1264602
:1010B0002888C04340042AD4D5F8AC00B0F1405F82
:1010C00023D010DC08B3B0F1805F14D0B0F1005F22
:1010D0000FD115E02A6EDAF8001021F4E021114357
:1010E000CAF80010E4E7B0F1804F0ED0B0F1A04F85
:1010F0000BD001240AE00198012101F001FA03E07C
:101100000098012101F08CFA044674B12646288823
:10111000C04300041FD4E86ED8B1B0F1805F0ED098
:10112000B0F1005F10D0012414E0D5F8AC20D8F85D
:10113000001021F0E0411143C8F80010E7E73868DB
:1011400040F40030386004E00198012101F0D8F942
:10115000044674B126462868C043C0011ED4A86C5A
:10116000D0B101280ED0022811D0032814D00124B8
:1011700013E0EA6EDAF8001021F040511143CAF88A
:101180000010E8E7386840F40030386004E0019867
:10119000022101F0B5F904466CB126462868C04327
:1011A000400255D41F48016841F480710160FFF787
:1011B00011FD81460EE0AA6CDBF8001021F003015E
:1011C0001143CBF80010E9E7FFF704FDA0EB09009D
:1011D00064283BD813480068C005F5D5BCBBDFF8D0
:1011E0004090B5F8B01009F14409D9F8000001F4B5
:1011F000407100F44070884211D0D9F80010D9F83D
:10120000002021F4407142F48032C9F80020D9F85E
:10121000002022F48032C9F80020C9F8001003E051
:101220002C44025800480258D5F8B000B0F5807F31
:1012300019D1FFF7CFFC029011E000BFFFF7CAFC05
:101240000299411A41F28830814208D90324264686
:101250002878DFF81494C043C00721D03CE0D9F8C7
:1012600000008007EAD5D5F8B010C1F301200328AB
:10127000FE480DD0016821F47C510160B5F8B02022
:10128000D9F80010C2F30B021143C9F80010DFE7D0
:10129000F74A036802EA111223F47C511143ECE788
:1012A000A86F182816D005DCA0B1082808D010288F
:1012B00004D10AE020280DD028280BD001240AE010
:1012C0000198012101F01CF903E00098012101F0CF
:1012D000A7F9044664B126462878C04380071ED487
:1012E000686F062819D2DFE800F0160C11161616E2
:1012F000AA6FD9F8001021F038011143C9F8001085
:10130000EAE70198012101F0FBF803E000980121D0
:1013100001F086F904467CB100E0012426462878D5
:10132000C04340071FD4D5F89000062819D2DFE843
:1013300000F0160C111616166A6FD9F8001021F07D
:1013400007011143C9F80010E9E70198012101F0F4
:10135000D7F803E00098012101F062F90446A4B136
:1013600000E0012426462878C04380062BD4D5F817
:101370008C00B0F1405F24D011DC10B3B0F1805F7D
:1013800015D0B0F1005F10D116E0D5F89020D8F854
:10139000001021F007011143C8F80010E3E7B0F195
:1013A000804F0ED0B0F1A04F0BD001240AE001987D
:1013B000002101F0A5F803E00098022101F030F9C6
:1013C000044694B126462878C04340062BD4D5F86D
:1013D0009800B0F5406F24D011DC10B3B0F5806FE9
:1013E00015D0B0F5006F10D116E0D5F88C20D9F8E3
:1013F000001021F0E0411143C9F80010E3E7B0F517
:10140000805F0ED0B0F5A05F0BD001240AE00198F8
:10141000002101F075F803E00098022101F000F9C5
:10142000044694B126462878C04300062BD4D5F84C
:101430009C00B0F5C04F24D011DC10B3B0F5005FB4
:1014400015D0B0F5804F10D116E0D5F89820D8F817
:10145000001021F4E0511143C8F80010E3E7B0F5A3
:10146000004F0ED0B0F5204F0BD001240AE00198B8
:10147000002101F045F803E00098022101F0D0F8C6
:10148000044654B126462878C04300071ED4D5F838
:101490008000B0F5805F0AD00FE0D5F89C20D8F826
:1014A000001021F460411143C8F80010EBE70098E8
:1014B000022101F0B5F800B10126D5F88020D9F855
:1014C000001021F440511143C9F800102878C0439E
:1014D000C00613D4D5F89400B0F5807F05D10098EC
:1014E000022101F09DF800B10126D5F89420D8F82A
:1014F000001021F440711143C8F800102868C0435F
:10150000000316D4D5F8A00038B1B0F5803F09D05B
:10151000B0F5003F0BD001240AE00198002100F053
:10152000EFFF03E00098022101F07AF804468CB145
:1015300026462868C043400322D4D5F88400B0F57D
:10154000801F11D0B0F5001F13D0B0F5401F15D08B
:10155000012414E0D5F8A020D8F8001021F440317F
:101560001143C8F80010E4E7386840F400303860F0
:1015700004E00098012101F053F804465CB12646CE
:101580002868C043C0031CD4286D70B1B0F5803FFB
:1015900010D0012414E0D5F88420D9F8001021F4EB
:1015A00040111143C9F80010EAE7386840F40030F0
:1015B000386004E00198022100F0A2FF0446DCB18B
:1015C00026462868C043800005D40098022101F017
:1015D00027F800B101262868C04380031BD4E86FB8
:1015E000B8B1B0F5807F10D0B0F5007F11D0B0F564
:1015F000407F0ED001240DE02A6DDBF8001021F4AD
:1016000080311143CBF80010DBE7386840F400303C
:1016100038607CB326462868C043C00207D42A6FCE
:10162000DAF8001021F000411143CAF800102868D0
:10163000C043800207D4AA6EDAF8001021F080714E
:101640001143CAF800102868C043400009D4074875
:10165000016821F4004101600168D5F8B42011430C
:1016600001602868C04306E0544402581044025800
:10167000CFFFFF001DE007D46A6DDBF8001021F0FA
:1016800040511143CBF800102868C043000208D431
:10169000D5F88820D9F8001021F440011143C9F889
:1016A000001028790024C04300F00100204309D035
:1016B0000EE0EA6FD9F8001021F440711143C9F827
:1016C0000010A8E70198002100F01AFF00B10646BB
:1016D0002879C04300F00200204305D10198012180
:1016E00000F00EFF00B106462879C04300F0040068
:1016F000204305D10198022100F002FF00B1064607
:101700002879C04300F00800204305D1009800214B
:1017100000F086FF00B106462879C04300F01000B3
:10172000204305D10098012100F07AFF00B1064660
:101730002879C04300F02000044304D1009802211E
:1017400000F06EFF00B916B10120BDE8FE8F002049
:10175000FBE700002DE9F05F04000F467ED0DFF8C4
:101760003882D8F8000000F00F00B8420CD2D8F848
:10177000001021F00F013943C8F80010D8F800001C
:1017800000F00F00B84269D12078844D40070AD597
:101790002069296801F07001884204D9296821F084
:1017A00070010143296020787C4E361D00070AD560
:1017B0006069316801F07001884204D9316821F014
:1017C0007001014331602078C0060AD5A0693168F4
:1017D00001F4E061884204D9316821F4E0610143F9
:1017E00031602078DFF8B4B180060BF1080B0CD51E
:1017F000E1695846DBF8002002F07002914204D9FA
:10180000026822F070020A430260207880070AD53D
:10181000E068296801F00F01884204D9296821F0A5
:101820000F01014329602078C0073ED05B49A268C0
:101830002868183920F47060104328606068022816
:1018400018D0032819D00968012819D049070029A0
:101850004ADADFF848A1AAF1080A00E044E0DAF821
:10186000002022F007020243CAF80020FFF7B2F975
:10187000814612E009688903E9E709688901E6E71A
:10188000C905E4E7FFF7A6F9A0EB090141F28830AA
:10189000814202D90320BDE8F09F6168DAF80000B8
:1018A00000F03800B0EBC10FECD1207880070AD5EA
:1018B000E068296801F00F01884204D2296821F00C
:1018C0000F0101432960D8F80010404601F00F01D4
:1018D000B9420BD9016821F00F013943016000685A
:1018E00000F00F00B84201D00120D4E72078400773
:1018F0000AD52069296801F07001884204D229685C
:1019000021F0700101432960207800070AD5606941
:10191000316801F07001884204D2316821F0700111
:10192000014331602078C0060AD5A069316801F40E
:10193000E061884204D2316821F4E0610143316002
:10194000207880060CD5E1695846DBF8002002F0CB
:101950007002914204D2026822F070020A430260CF
:1019600000F026F80E492A682B68C2F3032203F020
:101970000F038A5CC95C02F01F0201F01F01D04016
:10198000084A20FA01F11160074908600748006819
:10199000BDE8F05FFFF75AB9002000521844025822
:1019A000542B0008100000240C0000240400002424
:1019B000454970B545480968434B103B11F0380262
:1019C00008D00111082A03D0102A0BD0182A0BD0F6
:1019D000084670BD19688906FBD51968C1F3C101B5
:1019E000C84070BD3A4870BD3749374D18310C1D9D
:1019F00024350A68096826682D6802F0030406F099
:101A00000102C1F30511C5F3CC0515FB02F200EE8E
:101A1000102AB8EE400AE9B32F4ADFED2E0AB7EEDE
:101A2000001A6CB1DFED2D1A012C01D0022C43D02D
:101A300002EE101A1068F8EE422A81EEA22A1EE089
:101A40001C68A40611D51B6801EE901A1168C3F337
:101A5000C103F8EE612AD84001EE900AC1F30800F4
:101A6000F8EE611A81EEA22A0BE001EE901ADFED8A
:101A70001C2A00BFF8EE611A106882EEA12AC0F39A
:101A8000080001EE900AF8EE611A40EE201A31EEDD
:101A9000810A00E015E022EE000A1068C0F346203B
:101AA000401C00EE900AF8EE600A80EE201ABCEEB0
:101AB000C10A10EE100A70BD01EE901ADFED092A7E
:101AC000D8E7002070BD0000104402580090D003F9
:101AD00040787D0100000039304402580024744AE7
:101AE0000024744C20BCBE4B2DE9F05F04007DD077
:101AF000FF4F2078FE4D1837DFF8F483103DC00704
:101B000048D0D8F80000396800F03800102815D007
:101B1000182803D101F0030002280FD06068B0F547
:101B2000803F12D010B1B0F5A02F18D0286820F453
:101B300080302860286820F4802009E0286880032D
:101B400028D560680028D2D024E0286840F480308E
:101B50002860606888B1FFF73DF8064609E028680C
:101B600040F480202860F0E7FFF734F8801B6428F9
:101B70007ED828688003F7D50CE0FFF72BF80646DF
:101B800005E000BFFFF726F8801B6428F0D828681E
:101B90008003F7D42078800756D5D8F80000DFF806
:101BA0005093396810F03800A9F10C090ED01828AC
:101BB00001D188070AD0E068A8B3296821F019018B
:101BC00001432960FFF706F8064628E02868400729
:101BD00002D5E06800288AD0E168286820F0190062
:101BE00008432860FEF7F6FF064606E0D2E000BF95
:101BF000FEF7F0FF801B0228BAD828684007F7D507
:101C0000217CD9F8002022F0FE4242EA0161C9F8A5
:101C1000001019E0FEF7DEFF801B0228A8D8286814
:101C20004007F7D5ECE7FFE7286820F001002860BF
:101C3000FEF7D0FF064604E0FEF7CCFF801B02282B
:101C400096D828684007F7D42078C00646D5D8F83B
:101C50000000DFF89C92396800F03800A9F104090F
:101C6000082812D0182805D101F00300012800E04F
:101C7000CEE00AD0E0690028286820D040F080003B
:101C80002860FEF7A7FF064615E02868C00502D5C4
:101C9000E06980287ED194F82010D9F8002022F045
:101CA0007C5242EA0161C9F8001017E0FEF792FF8A
:101CB000801B0228A0D82868C005F7D5EBE720F0E4
:101CC00080002860FEF786FF064604E0FEF782FFEC
:101CD000801B022890D82868C005F7D42078000718
:101CE00029D583486169643000298146016811D093
:101CF00041F001010160FEF76DFF064605E000BFFF
:101D0000FEF768FF801B022888D8D9F800008007FA
:101D1000F6D510E021F001010160FEF75BFF0646F9
:101D200005E000BFFEF756FF801B022870D8D9F8E7
:101D300000008007F6D42078800623D5A06900280B
:101D4000286810D040F480502860FEF743FF064614
:101D500005E000BFFEF73EFF801B022858D8286828
:101D60008004F7D50EE020F480502860FEF732FFA3
:101D7000064604E0FEF72EFF801B022848D828689C
:101D80008004F7D42078400751D5DFF86891D9F85E
:101D9000001000E015E141F48071C9F80010FEF771
:101DA00019FF064605E000BFFEF714FF801B6428FC
:101DB0002ED8D9F80000C005F6D54D4EA068603683
:101DC00001280AD008B1052813D0306820F001009E
:101DD0003060306820F0040002E0306840F001001C
:101DE0003060A06841F2883A98B1FEF7F3FE814670
:101DF0000AE0306840F004003060EEE7FEF7EAFEEB
:101E0000A0EB0901514503D830688007F6D50EE0F4
:101E100072E0FEF7DFFE814606E000BFFEF7DAFE65
:101E2000A0EB0901514567D830688007F6D4606A95
:101E300000287CD0DFF8B8A0D8F800100AF1200AFA
:101E40004FF6F87B0AF10408C1F3C2010329AAF195
:101E500004096DD00228286820F08070286003D023
:101E6000FEF7B8FE044681E0FEF7B4FE064604E045
:101E7000FEF7B0FE801B022875D828688001F7D4D1
:101E8000E26A40F2F331386854F8283F884340EA68
:101E9000021018433860217B4FF4FE0C22894FF06A
:101EA000FE47208A4902267D521E401EA1F5007180
:101EB00089B2C2F308021143761E0CEA00400143C6
:101EC000484607EA06621143CAF80010D9F8001024
:101ED00021F00101C9F80010D8F80030266A23EA81
:101EE0000B0343EAC601C8F80010D9F8001004E05B
:101EF000104402580048025835E0A26921F00C0154
:101F00001143C9F800100168E26921F00201114390
:101F10000160016841F480310160016841F40031E1
:101F20000160016841F480210160016801E06CE01A
:101F300020E041F001010160286840F080702860D5
:101F4000FEF748FE044604E0FEF744FE001B0228AC
:101F500009D828688001F7D557E000BFFEF73AFEA0
:101F6000001B022802D90320BDE8F09F28688001E9
:101F7000F4D44AE039680128DAF8000021D0A26AD6
:101F800001F0030393421CD1E26AC1F305118A42B6
:101F900017D1216BC0F30802491E8A4211D1616B2F
:101FA000C0F34622491E91420BD1A16BC0F30642F9
:101FB000491E914205D1E16BC0F30660491E814282
:101FC00001D00120D0E7A16C4646D8F80000C0F34C
:101FD000CC00814219D0D9F800004D4620F0010014
:101FE000C9F80000FEF7F6FD4FEA0007FEF7F2FD24
:101FF000B842FBD0A26C306820EA0B0040EAC20075
:102000003060286840F0010028600020ACE7401EE6
:10201000B0F1807F10B501D3012010BD4FF0E02456
:1020200060610F21601700F020FD0020A0610721F2
:10203000216110BD7047704770470000F0B590F8FF
:102040003C20012A41D0224E012480F83C4002224B
:1020500080F83D2002681F4D5368B242D2F808C094
:1020600001D0AA4203D14F6823F470033B430F68A9
:1020700023F070031F4357600268B24219D0B2F1D7
:10208000804F16D0144B9A4213D0144B9A4210D062
:10209000134B9A420DD0AA420BD0124B9A4208D051
:1020A000114B9A4205D0114B9A4202D0104B9A42E2
:1020B00004D189682CF0800319439160002180F8D5
:1020C0003D4080F83C100846F0BD0220F0BD000005
:1020D00000000140000401400004004000080040EE
:1020E000000C0040001800400040014000E00040AB
:1020F00000E4004010B5040003D094F83D0010B196
:1021000007E0012010BD002084F83C00204600F0CC
:1021100023F8022084F83D002068211D00F0D2FB46
:10212000012084F8480084F83E0084F83F0084F8D9
:10213000400084F8410084F8420084F8430084F8A9
:10214000440084F8450084F8460084F8470084F889
:102150003D00002010BD000008B500680B49884212
:1021600012D10B48016841F00101016000680022B2
:10217000114600F0010000901920FEF7F1FDBDE8C6
:1021800008401920FEF7DEBD08BD00000000014038
:10219000F044025870B5044690F83C000025012830
:1021A00014D03A4B012684F83C60022084F83D00AC
:1021B00022689068184020F47F409060086870287A
:1021C0002FD010DC10F00F0F03D022E04FF00200F0
:1021D00070BD4FEA2012072A1BD2DFE802F05353EA
:1021E00053534B394100B0F1101F4BD009DCB0F50F
:1021F000805F0FD0B0F5005F1ED0B0F5801F08D112
:1022000040E0A0F5801120393CD010293AD0202997
:1022100038D0012584F83D60002084F83C00284631
:1022200070BD4A682068D1E9021300F0BBFB20684A
:10223000816841F0770109E04A682068D1E902131A
:1022400000F0B0FB2068816841F480418160E1E7E3
:10225000CA684968206800F0B9FB2068502106E090
:10226000CA684968206800F0DFFB2068602100F040
:10227000A3FBCFE7CA684968206800F0A7FB206885
:102280004021F4E7226801461046F0E788FFCEFFC0
:1022900070472DE9F041044600680027C6680569CB
:1022A000A90713D5B10711D5FA1E026101212177C3
:1022B000206880698007204602D0FFF7E9FF04E02C
:1022C00000F08BF8204600F089F82777680716D5CC
:1022D000700714D5226802206FF004011161207785
:1022E0002068806910F4407F204602D0FFF7D0FFBD
:1022F00004E000F072F8204600F070F82777280715
:1023000015D5300713D5226804206FF0080111613C
:1023100020772068C0698007204602D0FFF7B8FF09
:1023200004E000F05AF8204600F058F82777E80655
:1023300016D5F00614D5226808206FF0100111613F
:1023400020772068C06910F4407F204602D0FFF754
:102350009FFF04E000F041F8204600F03FF82777A7
:10236000E80708D0F00706D021686FF00100086187
:10237000204600F034F8280601D4A80408D5300619
:1023800006D521686FF4025008612046FFF753FE1E
:10239000E80508D5300606D521686FF4807008611D
:1023A0002046FFF747FE680608D5700606D5216867
:1023B0006FF040000861204600F012F8A8060AD528
:1023C000B00608D521686FF0200008612046BDE8FE
:1023D000F041FFF731BEBDE8F081704770477047AC
:1023E0007047FEE7194800212DE9F041164D00F134
:1023F00018080560012281600525C1600B26017463
:102400000C274174042481740823456188E8C400C2
:1024100042628262C262C0E90C21C0E90E31C0E9A9
:102420001034C0E912340365C0E91541C0E917133F
:10243000C0E91914FEF74AF9002803D0BDE8F041BD
:10244000FEF74FB8BDE8F08100A000401400002462
:102450000D4808B5016841F004010160016801F010
:1024600004010091016841F080010160016801F000
:1024700080010091016841F001010160006800F0F5
:102480000100009008BD0000E044025810B588B07B
:102490001848002416494FF4897240F2E73300943B
:1024A00001940294039404940594069480E8160021
:1024B000C0E9033444618461FFF71CFE08B1FEF7F4
:1024C00010F84FF4805000900A486946FFF762FE0A
:1024D00008B1FEF706F8074804A904940594069489
:1024E000FFF7ACFD002801D0FDF7FBFF08B010BDE1
:1024F00000000140B4000024FEE7FEE77047000042
:102500002DE9F047454D044689464FF0000A2868FA
:10251000C04380070AD0414E283E306820F08060DA
:102520003060FEF757FB0746B04608E00120BDE8E3
:10253000F08700BFFEF74EFBC01B022867D8D8F813
:1025400000000001F6D4206829684FF4FE0721F44A
:102550007C313E0241EA00302860207AA389B4F839
:1025600004C040022D4D2D495B1E227CACF1010CB4
:102570001035091DA0F5007080B2521ECCF3080C76
:1025800007EA034340EA0C00184306EA02621043DC
:1025900028600868626920F0C000104308600A687B
:1025A000A06922F0200202430A60281D0A6822F076
:1025B00010020A6002684FF6F873E4699A4342EA2F
:1025C000C40202600868B9F1000F40F010020A600E
:1025D00011D00868B9F1010F11D040F40010086063
:1025E000D8F80000444640F08060C8F80000FEF7CC
:1025F000F1FA05460DE0086840F40020EFE740F4EA
:102600008010ECE7FEF7E6FA401B022801D9032010
:102610008DE720680001F5D5504688E72844025828
:102620002DE9F047454D044689464FF0000A2868D9
:10263000C04380070AD0414E283E306820F08050C9
:102640003060FEF7C7FA0746B04608E00120BDE853
:10265000F08700BFFEF7BEFAC01B022867D8D8F883
:1026600000008000F6D4208829684FF4FE0721F08E
:102670007C713E0241EA00502860207AA389B4F8B8
:1026800004C040022D4D2D495B1E227CACF1010C93
:102690001835091DA0F5007080B2521ECCF3080C4D
:1026A00007EA034340EA0C00184306EA02621043BB
:1026B00028600868626920F44060104308600A6876
:1026C000A06922F4007202430A60281D0A6822F4FD
:1026D00080720A6002684FF6F873E4699A4342EA2E
:1026E000C40202600868B9F1000F40F480720A6009
:1026F00011D00868B9F1010F11D040F08070086066
:10270000D8F80000444640F08050C8F80000FEF7BA
:1027100061FA05460DE0086840F48000EFE740F4F8
:102720000000ECE7FEF756FA401B022801D903200F
:102730008DE720688000F5D5504688E72844025888
:102740007047FEF74DBA0000F0B59DB04C216846C9
:10275000FDF762FE202113A8FDF75EFE0220FEF7C2
:1027600031FB1E48016821F44041016001680024EA
:1027700001F440411B9101688904FCD540250220E9
:10278000009001222223CDE9032504210D92CDE9F9
:102790000B13CDE909040C26CDE90E10370268466B
:1027A000CDE910641297FFF79FF908B172B6FEE702
:1027B00008221A95CDE91625D30113AA3F2003213B
:1027C000CDE9185382E8130013A8FEF7C3FF0028D1
:1027D00001D072B6FEE71DB0F0BD000018480258E7
:1027E0002D48F0B52D4A016841F470010160106870
:1027F00000F00F00072804D2106820F00F00C01D61
:10280000106027490020264C10340B68254D43F0FA
:1028100001030B6020600B682B400B60136803F012
:102820000F03072B04D9136823F00F03DB1D13607C
:102830001B4C1D4A18341D4B261D371D2060184C9B
:102840001B4D28343060261D3860371D23603B1D2A
:1028500035601C1D3A60251D2E1D1860331D226039
:102860002860326018600B680D4A0D4C23F48023F9
:10287000D4320B60603420601068C0040BD413683D
:1028800043F2D2000B4943F4805313600860106890
:1028900020F480501060F0BD88ED00E00020005270
:1028A000004402587FEDF6EA8002010100020202B4
:1028B0000000FF01004000520148FFF7EABC0000A1
:1028C000B40000242DE9F0472C4B4FF0804A2C4DEA
:1028D000026898422B4E2C4F2C4C09D0504507D003
:1028E000A84205D0B04203D0B84201D0A04205D1E1
:1028F000D1F804C022F070024CEA0202DFF890C066
:10290000DFF890809842DFF8909015D0504513D0B2
:10291000A84211D0B0420FD0B8420DD0A0420BD087
:10292000604509D0404507D0484505D01B4DA84219
:1029300002D01B4DA84203D1CD6822F440722A4335
:102940008E684D6922F08002C6620E682A43984262
:10295000866207D0A04205D0604503D0404501D033
:10296000484501D1096901630368012143F004036B
:10297000036041610260BDE8F08700000000014093
:102980000004004000080040000C0040000401402A
:1029900000400140004401400048014000E0004088
:1029A00000E4004042EA032283680A4323F47F41A3
:1029B0000A43826070470000034B82681A400A4352
:1029C00042F00701816070478FFFCFFF30B5114C97
:1029D000036A056AA04225F0010404620BD00E4C84
:1029E000A04208D00D4CA04205D00D4CA04202D010
:1029F0000C4CA04203D1046A24F0040404628469EC
:102A000023F00A030B4324F0F00444EA021181612D
:102A1000036230BD0000014000040140004001405D
:102A2000004401400048014030B50D4C036A056A7E
:102A3000A04225F01004046202D00A4CA04203D147
:102A4000046A24F040040462846923F0A00343EA8A
:102A5000011124F4704444EA02328261016230BD03
:102A60000000014000040140FEE7090700284FEA8A
:102A7000116104DB00F1E02080F80014704700F0E1
:102A80000F0000F1E02080F8141D70471FB50024EE
:102A90000094019402940394FEF726F901208DF826
:102AA0000C001F218DF8081087228DF809208DF861
:102AB0000D008DF8000068468DF80A408DF80E4034
:102AC0008DF8014001948DF80B408DF80F40FEF712
:102AD000DDF80420FEF716F9FEF78AF8FFF734FE5A
:102AE000FFF7B6FCFFF77EFCFFF7D0FCFEE74FF0E8
:102AF0004070E1EE100A704700010203040506076A
:102B0000080C1014182030400000000000000000E5
:102B100000000000000000000000000001000000B4
:102B2000020000000300000004000000000000009C
:102B30000500000000000000000000000000000090
:102B4000060000000000000000000000000000007F
:102B5000070000000000000001020304010203045A
:102B600006070809842B0008000000241400000058
:102B700008030008982B0008140000244C070000EC
:102B80002403000801000000100000000000000005
:082B90000090D0030090D00377
:04000005080002CD20
:00000001FF
