:020000040800F2
:10000000E00F00246D030008D33D0008033700080B
:10001000D13D0008CF050008A54B000800000000F6
:10002000000000000000000000000000D1410008B6
:10003000D105000800000000A73F0008D3410008D8
:100040008B0300088B0300088B0300088B03000858
:100050008B0300088B0300088B0300088B03000848
:100060008B0300088B0300088B0300088B03000838
:100070008B0300088B0300088B0300088B03000828
:100080008B0300088B0300088B0300088B03000818
:100090008B0300088B0300088B0300088B03000808
:1000A0008B030008494300088B0300088B030008FA
:1000B000554300088B0300088B0300088B030008DE
:1000C0008B0300088B0300088B0300088B030008D8
:1000D0008B0300088B0300088B030008994B000872
:1000E0008B0300088B030008000000008B0300084E
:1000F0008B0300088B0300088B0300088B030008A8
:100100008B0300088B0300088B0300088B03000897
:100110008B0300088B0300088B0300088B03000887
:100120008B0300088B0300088B0300088B03000877
:100130008B0300088B0300088B0300088B03000867
:1001400000000000000000000000000000000000AF
:100150008B0300088B0300088B0300088B03000847
:100160008B0300088B0300088B0300088B03000837
:100170008B0300088B0300088B03000800000000BD
:100180008B0300088B0300088B0300088B03000817
:100190008B0300088B0300088B0300088B03000807
:1001A0008B0300088B0300088B030008000000008D
:1001B0008B0300088B0300088B0300088B030008E7
:1001C0008B0300088B030008000000000000000003
:1001D00000000000000000008B0300080000000089
:1001E000000000000000000000000000000000000F
:1001F00000000000000000008B0300088B030008D3
:100200008B0300088B030008000000008B0300082C
:100210008B0300088B0300088B0300088B03000886
:100220008B030008000000008B03000800000000A2
:100230008B0300088B030008000000008B030008FC
:100240008B0300088B0300088B0300088B03000856
:100250008B0300088B0300088B0300088B03000846
:100260008B0300088B0300088B0300088B03000836
:100270008B0300088B0300088B03000800000000BC
:100280008B0300088B0300088B0300088B03000816
:10029000000000008B0300088B0300080000000032
:1002A000000000008B0300088B0300088B0300088C
:1002B0008B0300088B0300088B0300088B030008E6
:1002C0008B0300088B0300088B03000800F002F882
:1002D00000F03CF80AA090E8000C82448344AAF1A4
:1002E0000107DA4501D100F031F8AFF2090EBAE8A2
:1002F0000F0013F0010F18BFFB1A43F0010318475A
:100300004C4B00006C4B0000103A24BF78C878C1F9
:10031000FAD8520724BF30C830C144BF04680C600B
:10032000704700000023002400250026103A28BF53
:1003300078C1FBD8520728BF30C148BF0B60704757
:100340001FB504F033FD1FBD10B510BD00F005F959
:100350001146FFF7F5FF04F037FC00F023F903B472
:10036000FFF7F2FF03BC00F02BF900000A488047BA
:100370000A4880470A480047FEE7FEE7FEE7FEE737
:10038000FEE7FEE7FEE7FEE7FEE7FEE70548064973
:10039000064A074B70470000D90500087142000863
:1003A000CD020008E0090024E00F0024E00B002447
:1003B000E00B002453EA020C00F069802DE9F04BB9
:1003C0004FF00006002B1FBFB3FA83F503FA05F4C4
:1003D00024FA05F65E4012BF1643B2FA82F502FA1D
:1003E00005F4C5F120051EBF22FA05FC44EA0C0401
:1003F000203556EA044C4FEA144418BF641C4FF0F1
:1004000000084FF00009904271EB030C39D300292A
:1004100019BFB1FA81F701FA07F6B0FA80F700FACE
:1004200007F6C7F120071EBF20FA07FC46EA0C06B4
:100430002037B6FBF4FCA7EB0507103F07F01F0BB6
:10044000CBF120060CFA0BFB2CFA06F644BFB346A0
:100450000026202FA4BF5E464FF0000B5BEA060C7F
:1004600008BF4FF0010B19EB0B09ABFB027C48EB0B
:100470000608C01B06FB02CC0BFB03CC71EB0C0186
:10048000C1E70B46024641464846BDE8F08B13B52E
:100490004FF000004FF00001AFF30080BDE81C40BA
:1004A000704710B5203AC0F00B80B1E81850203AE0
:1004B000A0E81850B1E81850A0E81850BFF4F5AF04
:1004C0005FEA027C24BFB1E81850A0E8185044BF8E
:1004D00018C918C0BDE810405FEA827C24BF51F8FB
:1004E000043B40F8043B08BF7047D20728BF31F8EF
:1004F000023B48BF11F8012B28BF20F8023B48BF40
:1005000000F8012B70474FF0000200B513469446E7
:100510009646203922BFA0E80C50A0E80C50B1F15B
:100520002001BFF4F7AF090728BFA0E80C5048BF6F
:100530000CC05DF804EB890028BF40F8042B08BF0D
:10054000704748BF20F8022B11F0804F18BF00F809
:10055000012B7047704770477047754600F02CF8C4
:10056000AE4605006946534620F00700854618B0A0
:1005700020B5FFF70BFFBDE820404FF000064FF01D
:1005800000074FF000084FF0000B21F00701AC46C8
:10059000ACE8C009ACE8C009ACE8C009ACE8C009E7
:1005A0008D46704710B50446AFF300802046BDE885
:1005B0001040FFF7D4BE0000004870477C090024BB
:1005C00001491820ABBEFEE7260002007047FEE797
:1005D000704772B6FEE700000548016841F002016D
:1005E00001600348083801688904FCD570470000A1
:1005F0000C48025830B50368426B53F8844F4FF6ED
:10060000FC718C4344EA82041C60036853F8844FF5
:10061000058F24F47F0444EA05441C60836B1A446C
:100620000368D3F888408C4344EA8204C3F88840C6
:10063000036853F8884F858F24F4FE0444EA054488
:100640001C60C36B02EB43020368D3F8A0408C43E9
:1006500044EA8204C3F8A040036853F8A04FB0F8FE
:10066000405024F4FE0444EA05441C60D0E91034F0
:1006700003FB04220368D3F8B0408C4344EA8204AD
:10068000C3F8B040036853F8B04FB0F8485024F4B2
:10069000FE0444EA05441C60D0E9123403FB042242
:1006A0000368D3F8AC408C4344EA8204C3F8AC40FE
:1006B000D0E9143403FB04220368D3F8F0408C43E0
:1006C00044EA8204C3F8F040036853F8F04FB0F8EE
:1006D000585024F47C1444EA05441C60836D02EBFA
:1006E00043030268D2F8C0408C4344EA8301C2F855
:1006F000C010016851F8C02FB0F85C3022F47C12B1
:1007000042EA03420A60016851F8C02F90F8603055
:1007100022F07C5242EA03620A60416B234A02EBF8
:100720008101C166826B01EB82020267C36B02EB3F
:10073000C3024267D0E91034634302EB830282674D
:10074000D0E91234634302EB8302C267D0E9143468
:10075000634302EB8302C0F88020836D02EBC30287
:10076000C0F88420C46D836E5C4302EB8402C0F841
:100770008820046E5C430E4B02EB8402C0F890208C
:100780009A420AD9D0F89C1041F02001C0F89C1080
:10079000032180F89810012030BD002200E004C140
:1007A000D0F890308B42FAD8002030BD00AC004029
:1007B000FCD30040F0B5D1E901650C692C430D680C
:1007C000CEB145F080452C4391F82070D1E9066503
:1007D00035434E6946EA076635438E8945EA064544
:1007E000D0F88460806E584306EB80030020E3E875
:1007F0000245094C0AE044EA8544E5E71618155C11
:10080000001DD6F8016045EA062520C3CD68655D68
:100810008542F3D8F0BD0000B84D00082DE9F84F2F
:10082000044600F0A1FE009034B194F8350002288F
:1008300005D080206065EBE00120BDE8F88FCC4E4C
:10084000CB4FCB491836DFF828833037DFF82093B9
:10085000DFF81CA308F14808DFF814B309F16009B8
:1008600020680AF1780A0BF1900B884228D0B04238
:1008700026D0B84224D0404522D0484520D050450B
:100880001ED058451CD0BA4AA832904218D0B94A56
:10089000904215D0B74A1832904211D0B54A303242
:1008A00090420DD0B34A4832904209D0B14A6032EA
:1008B000904205D0AF4A7832904201D0AD4A903292
:1008C000026822F001020260206888422ED0B04205
:1008D0002CD0B8422AD0404528D0484526D0504593
:1008E00024D0584522D0A24AA83290421ED0A14A14
:1008F00090421BD09F4A1832904217D09D4A303206
:10090000904213D09B4A483290420FD0994A6032AD
:1009100090420BD0974A7832904207D0954A903255
:10092000904203D0934AA832904209D1026822F043
:100930001E0202602068426922F08002426103E0E8
:10094000026822F00E0202602568894928468D421D
:100950004DD0B0424BD0B84249D0404547D0484531
:1009600045D0504543D0584541D08149A8318842AF
:100970003DD0804988423AD07E491831884236D0ED
:100980007C493031884232D07A49483188422ED071
:100990007849603188422AD076497831884226D019
:1009A00074499031884222D07249A83188421ED0C1
:1009B000714988421BD070491431884217D06E4962
:1009C0002831884213D06C493C3188420FD06A49A3
:1009D000503188420BD068496431884207D066495B
:1009E0007831884203D064498C318D4214D1206E15
:1009F000016821F4807101600EE000F0B5FD0099FE
:100A0000401A052808D920206065032084F83500A5
:100A1000002084F834000FE72868C007EDD1544A5D
:100A20000121206890422ED0B0422CD0B8422AD06A
:100A3000404528D0484526D0504524D0584522D09E
:100A40004B4BA83398421ED04A4B98421BD0494B7F
:100A50001833984217D0474B3033984213D0454B48
:100A6000483398420FD0434B603398420BD0414BF0
:100A70007833984207D03F4B9033984203D03D4B98
:100A8000A833984208D194F85C30A06D03F01F059C
:100A90003F23AB40836007E094F85C30A06D03F027
:100AA0001F0301FA03F34360206890424DD0B04227
:100AB0004BD0B84249D0404547D0484545D0504535
:100AC00043D0584541D02A4AA83290423DD0294AC5
:100AD00090423AD0274A1832904236D0254A3032D6
:100AE000904232D0234A483290422ED0214A60327E
:100AF00090422AD01F4A7832904226D01D4A903226
:100B0000904222D01B4AA83290421ED01A4A9042EC
:100B10001BD0194A1432904217D0174A28329042FB
:100B200013D0154A3C3290420FD0134A50329042B3
:100B30000BD0114A6432904207D00F4A783290426B
:100B400003D00D4A8C3290420BD1D4E91902426095
:100B5000E06E30B1026822F480720260D4E91C02B7
:100B6000426084F83510002084F8340065E6000007
:100B70001000024010040240085402582DE9F05FB2
:100B800028B190F83510022904D080214165012058
:100B9000BDE8F09F7B4C7B4D7B4F3034794AA835C4
:100BA000DFF8E0E16037DFF8DCB1DFF8D8810EF183
:100BB000180EDFF8D4910BF1480BDFF8CCC108F127
:100BC0009008DFF8C4A109F1180901680CF1780C4C
:100BD0006D4E0AF1900A914228D0714526D0A1426B
:100BE00024D0594522D0674B603399421ED0654BC3
:100BF000783399421AD04346994217D0A94215D06A
:100C0000B14213D0494511D05F4B303399420DD0DA
:100C10005D4B4833994209D0B94207D0614505D0B0
:100C2000514503D0584BA83399422FD1042380F863
:100C30003530914225D0714523D0A14221D059456C
:100C40001FD05048603081421BD04E4878308142DE
:100C500017D0414515D0A94213D0B14211D0494512
:100C60000FD04948303081420BD04748483081424C
:100C700007D0B94205D0614503D0514501D0424863
:100C8000A830086820F00100086079E0D1F8008001
:100C900028F00108C1F800800168D1F8008028F030
:100CA0000E08C1F8008001684FF00108914246D05B
:100CB000714544D0A14242D0594540D0314A6032BA
:100CC00091423CD02F4A7832914238D02D4A90320E
:100CD000914234D0A94232D0B14230D049452ED0D1
:100CE000294A303291422AD0274A4832914226D0AE
:100CF000B94224D0614522D0514520D099421ED01E
:100D0000224A91421BD0214A1432914217D01F4AE5
:100D10002832914213D01D4A3C3291420FD01B4AD7
:100D2000503291420BD0194A6432914207D0174A8F
:100D30007832914203D0154A8C32914218D1016E1B
:100D40000A6822F480720A6090F85C20816D02F0DB
:100D50001F0208FA02F24A60D0E919124A60C16E15
:100D600031B10A6822F480720A60D0E91C124A602C
:100D700080F83580002180F83410016D01B188477A
:100D8000002005E7100002401004024008540258F9
:100D900070B5044690F89800022804D0D4F89C005E
:100DA00040F008000DE02068D0F8C03013F07C5F00
:100DB0000BD0D0F8C4309B020CD5D4F89C0040F482
:100DC0000070C4F89C00012070BDD4F89C0040F075
:100DD0002000F6E7D0F8C400C0F3044520462B46B7
:100DE000FFF7E8FC21680120A840C1F8D000C4F852
:100DF0009400002070BD10B590F89820012A09D009
:100E0000022A07D0D0F89C1041F00201C0F89C10D3
:100E1000012010BD0B68CA6883B10B69072A43EA39
:100E2000427325D00C7A4A6942EA84724968006F9D
:100E300000EBC100C0E90032002010BD072A0DD030
:100E40000C7AD2064B6943EA84730C8A42EA044264
:100E5000C06E4968134340F82130EDE70B8A4FF02C
:100E600060548A6942EA0343CA6944EA0222EFE70E
:100E70008A69DBE730B590F89850039C012D07D0C4
:100E8000D0F89C1041F00401C0F89C10012030BD46
:100E90000068090141EA820141EA43012143C0F8A7
:100EA0008010002030BD0000F0B590F8985000246C
:100EB000022D04D0D0F89C1041F0080130E0402908
:100EC00005D0412930D0056D8D4220D94DE005680F
:100ED000D5F8A04014F4FE0F19D0D5F8A44064064C
:100EE0001AD0D5F8A440D5F8A460C4F30524F601BF
:100EF0000AD5D5F8A06016F0004F05D5D5F8A0505A
:100F0000641CC5F306452C40466F456C2BE0D0F8B9
:100F10009C1041F0200103E0D0F89C1041F4807156
:100F2000C0F89C100120F0BD0568D5F8B04014F45D
:100F3000FE0FECD0D5F8B4406406EDD0D5F8B4403F
:100F4000D5F8B460C4F30524F6010AD5D5F8B0602D
:100F500016F0004F05D5D5F8B050641CC5F3064512
:100F60002C40866FC56C654302E0456DC66F4D43EE
:100F700006EB8506356815F080455560356824D048
:100F800025F0604515603568254F05F000559560E2
:100F9000356805F000451561B588ADB2D561756855
:100FA000C5F30345D560756805F48015556175680E
:100FB00005F4001595617568C5F3066515627568D9
:100FC000ED0F55620025083607E0C5F38A45D9E7DD
:100FD00016F805C003F805C06D1CD2F80CC017F850
:100FE0000CC0AC45F4D8402909D041290BD00122CE
:100FF00020290CD200688A40C0F898200DE00068D3
:10100000C0F8A84009E00068C0F8B84005E00068F2
:1010100001F01F018A40C0F89C200020F0BD0000B4
:10102000B84D00082DE9F04194B08D494C2204469A
:101030006846FFF736FA64B18A4E2068B04202D1A2
:1010400000F58070606094F898004FF0000820B1BF
:1010500008E0012014B0BDE8F081204684F89980B2
:1010600000F01CF92068816921F01001816100F015
:101070007BFA0327054604E000F076FA401B0A28B5
:1010800011D8206880690007F6D42068816941F092
:101090000101816100F068FA05460DE000F064FA94
:1010A000401B0A2808D9D4F89C0040F00100C4F87D
:1010B0009C0084F89870CCE720688069C007EDD068
:1010C0002068816941F002018161207C012820684B
:1010D000816937D041F040018161607C012820683E
:1010E000816932D021F480418161A07C012820688F
:1010F00081692DD041F48051816120688169A268A5
:1011000021F44071114381612068816921F0A401BB
:1011100081612068016921F010010161E068012806
:1011200019D010B302281BD02068816941F08001DA
:1011300081612068016941F010010161E0680328C4
:101140000ED012E021F04001C6E741F48041CBE728
:1011500021F48051D0E72068816941F0040103E067
:101160002068816941F020018161207E6FF0FF02DB
:10117000E169A38A400602EB0121A0F10070084357
:10118000216A491E0843110201EB034318432368F7
:10119000D861A068B0F5407F10D1D4E90A03401EA1
:1011A00002EB03221043226B0B1303EB02121043DA
:1011B000A28C01EB024108432168C860206E30B167
:1011C0002068D0F8C010626E1143C0F8C010D4E996
:1011D0001701C842694609D0206850F8C82FA36E8D
:1011E00022F0070251F823301A430260206C48B104
:1011F000206850F8BC2F636C22F0070251F82330AE
:101200001A430260A06C50B1206850F8BC2FE36C08
:1012100022F0700251F8233042EA03120260206D7E
:1012200050B1206850F8BC2F636D22F4E06251F891
:10123000231042EA012101602068B04204D16068B5
:10124000816821F003018160C4F89480C4F89C8017
:10125000012084F898002046FFF7CCF9FAE6000058
:10126000C84D000800A0004010B50068D0F89840B4
:10127000D0F89C300122202905D28A40224207D092
:10128000C0F8982008E001F01F018A401A4201D1FD
:10129000002010BDC0F89C20012010BD30B5B5B0B5
:1012A000044614212EA8FFF72EF9B8216846FFF74F
:1012B0002AF91F492068884237D100214FF40040A5
:1012C0000D460224CDE90001202002907820CDE9CE
:1012D0000304402005940694CDE90701C005099157
:1012E0001B90684600F0AAFB08B1FFF772F911489D
:1012F000016841F480710160006800F480703390EF
:101300000C480C38016841F00101016000682EA909
:1013100000F0010033904FF4C05081E83100092003
:10132000CDE93150044800F035F835B030BD00004B
:1013300000A00040EC4402580000025890F89810B9
:10134000012907D0D0F89C1041F00401C0F89C108E
:1013500001207047022180F8981001688A6922F004
:1013600001028A610021C0F89C10084670470160A4
:1013700000214160C0E90212016141619A68C0E93F
:1013800006210162084670470B4601461846FFF7E2
:10139000FFBC00002DE9F84F684C00224FF0B04A26
:1013A0004FF0010B4FF003084FF00F09BEE00BFAAE
:1013B00002F6334071D00D7905F00305012D01D0FF
:1013C000022D15D18768550008FA05FC27EA0C079D
:1013D000D1F80CC00CFA05FC4CEA070CC0F808C0A8
:1013E0004568B5430E79C6F3001696402E43466015
:1013F0000D79ED43AD0702D18D68012D08D0C66887
:10140000550008FA05F7BE438F68AF403743C76001
:101410000D7905F00305022D11D1D50800EB8507E4
:101420003E6A5507ED0E09FA05FC26EA0C06D1F8CE
:1014300010C00CFA05FC4CEA060CC7F820C0066880
:10144000550008FA05F7BE430F7907F00307AF40D0
:10145000374307604D6815F4403F66D0384D2E681D
:1014600046F002062E602D6822F0030606F1B04613
:1014700005F002050095D6F8087495074FEA157C2B
:1014800009FA0CF5AF432F4DA84201D1002529E000
:101490002D4DA84202D1012524E046E02B4DA84263
:1014A00001D102251EE02A4DA84201D1032519E0F1
:1014B000284DA84201D1042514E0274DA84201D1AE
:1014C00005250FE0254DA84201D106250AE0244D4F
:1014D000A84201D1072505E0224DA84201D10925E6
:1014E00000E00A2505FA0CF53D43C6F80854DAF881
:1014F000005056464F689D43FF0200D51D4335609E
:1015000075684F689D43BF0200D51D4375606568CF
:101510004E689D43B60300D51D43656025684E683F
:101520009D43F60300D51D432560521C0B6833FA1A
:1015300002F57FF43CAFBDE8F88F00008000005852
:10154000F4440258000002580004025800080258EF
:10155000000C0258001002580014025800180258DB
:10156000001C02580024025801488068704700009F
:1015700004000024024881680278114481607047A9
:1015800004000024032010B500F0D0F801F072F838
:101590000F4A11681268C1F303230E49CB5C03F0B4
:1015A0001F03D84002F00F02895C0B4A01F01F01B3
:1015B00020FA01F11160094908600F2000F010F8CD
:1015C00008B1012010BD00F075F8002010BD00002A
:1015D000184402583C4E0008140000241000002457
:1015E00070B50D4D04462A78A2B14FF47A700B49BC
:1015F000B0FBF2F00968B1FBF0F001F061FB48B913
:10160000102C07D200222146501E00F06FF8002057
:101610006C6070BD012070BD040000241000002427
:10162000134A41781160124908310A6822F0010218
:101630000A600B1F42681A60027BC37A120742EAF3
:101640000362837A42EAC342437B42EA8342837B5A
:1016500042EA4342C37B42EA0342437A42EA03221C
:10166000037A007842EA430202430A6070470000AE
:1016700098ED00E0BFF35F8F0448016821F48031EA
:1016800001600249002070310860704724ED00E0DD
:10169000074940F00100086005487038016841F4CE
:1016A00080310160BFF34F8FBFF36F8F7047000031
:1016B00094ED00E0054808B5016841F002010160C1
:1016C000006800F00200009008BD0000F4440258D9
:1016D000002809DB012100F01F0291404009800031
:1016E00000F1E020C0F80011704700000E4BF0B48C
:1016F0001B68C3F30223C3F10704042C00D904249C
:101700001D1D072D01D2002300E0DB1E012606FA75
:1017100004F56D1E0D409D409E40761E164045EA24
:101720000601F0BC03F03FBA0CED00E0064A00F001
:10173000070110684FF6FF03184040EA01200349F3
:1017400008431060704700000CED00E00000FA054F
:10175000124970B50A68D243520705D5096801F0ED
:101760000701814212D117E00A6822F00702024302
:101770000A60FFF7F9FE094D4FF47A760446083DFA
:1017800006E0FFF7F1FE001BB04201D9012070BD59
:101790002868C0438004F4D4002070BD0C4802586F
:1017A00010B500F021FF05490968054AC1F302118F
:1017B000515C01F01F01C84010BD000020440258D8
:1017C0003C4E0008484910B50A68096802F0030257
:1017D000454B1B1DC1F305311B68434C1434C3F347
:1017E00000132468C4F3CC0414FB03F300EE103A96
:1017F000B8EE400AE9B33C4B9FED3C1A1033F7EECC
:10180000000A62B1DFED3A1A012A01D0022A5ED045
:1018100002EE101AF8EE422A81EEA22A1AE0324AAB
:10182000283A1468A4060DD51268C2F3C104314ADF
:10183000E24001EE902AF8EE612A01EE901AF8EEED
:10184000611A05E001EE901ADFED2B2AF8EE611A1D
:1018500082EEA12A1968C1F3080101EE901A1968F5
:10186000F8EE611A40EE011A31EEA00A22EE000AEB
:1018700000E033E0C1F3462101EE101AB8EE411A40
:1018800031EE201AC0EE011ABCEEE11A80ED001A0A
:101890001968C1F3064101EE101AB8EE411A31EE93
:1018A000201AC0EE011ABCEEE11A80ED011A196887
:1018B000C1F3066101EE101AB8EE411A71EE200A6A
:1018C00080EE201ABCEEC10A80ED020A10BD01EEC6
:1018D000901ADFED0A2AF8EE611AB9E700210160DB
:1018E0004160816010BD00002844025800000039AA
:1018F0000024744A0090D0030024744C20BCBE4BDA
:10190000484910B50A68096802F00302454B1B1DDF
:10191000C1F305511B68434C1C34C3F300232468F6
:10192000C4F3CC0414FB03F300EE103AB8EE400A03
:10193000E9B33C4B9FED3C1A1833F7EE000A62B155
:10194000DFED3A1A012A01D0022A5ED002EE101A07
:10195000F8EE422A81EEA22A1AE0324A283A1468A6
:10196000A4060DD51268C2F3C104314AE24001EE6B
:10197000902AF8EE612A01EE901AF8EE611A05E05D
:1019800001EE901ADFED2B2AF8EE611A82EEA12A01
:101990001968C1F3080101EE901A1968F8EE611A8E
:1019A00040EE011A31EEA00A22EE000A00E033E018
:1019B000C1F3462101EE101AB8EE411A31EE201A99
:1019C000C0EE011ABCEEE11A80ED001A1968C1F3ED
:1019D000064101EE101AB8EE411A31EE201AC0EE9F
:1019E000011ABCEEE11A80ED011A1968C1F3066113
:1019F00001EE101AB8EE411A71EE200A80EE201A9C
:101A0000BCEEC10A80ED020A10BD01EE901ADFEDB6
:101A10000A2AF8EE611AB9E700210160416081608D
:101A200010BD000028440258000000390024744A08
:101A30000090D0030024744C20BCBE4B2DE9FC5F09
:101A4000044600680025FD4FC043DFF8F4A32E468E
:101A5000010104F10800019004F1280000901DD458
:101A6000606E50B1B0F5801F0CD0B0F5001F0ED0E5
:101A7000B0F5401F1ED001250FE0386840F400305B
:101A8000386017E00198022102F08EFA03E0009816
:101A9000022102F013FB05000CD02E462088C04323
:101AA000C00523D4A06D05281ED2DFE800F00C117C
:101AB000161B1B00DAF80010626E21F4401111436E
:101AC000CAF80010EAE7386840F40030386009E0EE
:101AD0000198002102F068FA03E00098002102F06A
:101AE000EDFA0546B5B100E001252E462088DFF865
:101AF0005483C04340052FD4D4F8A400B0F5C00FE0
:101B000028D010DCB8B1B0F5001F19D0B0F5800FA7
:101B10000FD11AE0DAF80010A26D21F0070111438D
:101B2000CAF80010E2E7B0F5000F13D0B0F5200FAF
:101B300010D001250FE0386840F40030386009E02B
:101B40000198002102F030FA03E00098002102F031
:101B5000B5FA054695B12E462088C043000530D41D
:101B6000D4F8A800B0F1407F29D011DCC0B1B0F1A9
:101B7000807F1AD0B0F1007F10D11BE0D8F80010A0
:101B8000D4F8A42021F460011143C8F80010E3E761
:101B9000B0F1806F13D0B0F1A06F10D001250FE02D
:101BA000386840F40030386009E00198002102F004
:101BB000FBF903E00098002102F080FA054685B1A8
:101BC0002E462068DFF880B2C04380011FD4E06C4D
:101BD000D8B110280FD0202812D0302815D00125D8
:101BE00014E0D8F80010D4F8A82021F0E0611143E7
:101BF000C8F80010E5E7386840F40030386004E0C9
:101C00000198022102F0D0F9054675B12E462088D0
:101C1000C043C0042BD4E06DB0F5005F20D00DDCD4
:101C2000A0B1B0F5805F0FD115E0DBF80010E26CD9
:101C300021F030011143CBF80010E8E7B0F5405F28
:101C400013D0B0F5804F10D001250FE0386840F474
:101C50000030386009E00198002102F0A5F903E0A6
:101C60000098002102F02AFA05468DB12E46208800
:101C7000C043800429D4206EB0F5403F23D010DC4F
:101C800008B3B0F5803F14D0B0F5003F0FD115E098
:101C9000DAF80010E26D21F4E0411143CAF80010B7
:101CA000E5E7B0F5802F0ED0B0F5A02F0BD00125C1
:101CB0000AE00198012102F077F903E00098012180
:101CC00002F0FCF9054695B12E462088C043400439
:101CD0002AD4D4F8AC00B0F1405F23D010DC08B3B4
:101CE000B0F1805F14D0B0F1005F0FD115E0DAF8E9
:101CF0000010226E21F4E0211143CAF80010E4E73D
:101D0000B0F1804F0ED0B0F1A04F0BD001250AE00A
:101D10000198012102F048F903E00098012102F046
:101D2000CDF9054675B12E462088C04300041FD466
:101D3000E06ED8B1B0F1805F0ED0B0F1005F10D08E
:101D4000012514E0D8F80010D4F8AC2021F0E041CF
:101D50001143C8F80010E7E7386840F400303860F5
:101D600004E00198012102F01FF9054675B12E46E5
:101D70002068C043C0011ED4A06CD0B101280ED091
:101D8000022811D0032814D0012513E0DAF800103E
:101D9000E26E21F040511143CAF80010E8E73868BC
:101DA00040F40030386004E00198022102F0FCF8B1
:101DB00005466DB12E462068C043400259D42348E1
:101DC000016841F480710160FFF7CEFB81460EE0AF
:101DD000DBF80010A26C21F003011143CBF80010D6
:101DE000E9E7FFF7C1FBA0EB0900642839D81748E1
:101DF0000068C005F5D55DBB124818300068B4F81E
:101E0000B01000F4407001F4407188420DD00D48CC
:101E100018300168026821F4407142F48032026097
:101E2000026822F4803202600160D4F8B000B0F59C
:101E3000807F25D1FFF798FB814614E02C4402589F
:101E400050440258584402584C4402580048025822
:101E50000EE0FFF789FBA0EB090141F288308142D7
:101E600001D9032504E0FE4800688007F1D53DB1A3
:101E70002E462078DFF8EC93C043C00720D03BE02B
:101E8000D4F8B000C0F3012103290ED0F54844383E
:101E9000016821F47C510160F1480168B4F8B02078
:101EA000C2F30B0211430160E3E7EE4944390A68CB
:101EB000ED4B22F47C5203EA101002430A60EBE778
:101EC000A06F182816D005DCA0B1082808D010286B
:101ED00004D10AE020280DD028280BD001250AE0E3
:101EE0000198012102F060F803E00098012102F05E
:101EF000E5F8054665B12E462078C04380071ED41C
:101F0000606F062819D2DFE800F0160C11161616BD
:101F1000D9F80010A26F21F038011143C9F8001060
:101F2000EAE70198012102F03FF803E0009801215F
:101F300002F0C4F805467DB100E001252E46207868
:101F4000C04340071FD4D4F89000062819D2DFE818
:101F500000F0160C11161616D9F80010626F21F059
:101F600007011143C9F80010E9E70198012102F0C7
:101F70001BF803E00098012102F0A0F80546A5B186
:101F800000E001252E462078C04380062BD4D4F8EB
:101F90008C00B0F1405F24D011DC10B3B0F1805F51
:101FA00015D0B0F1005F10D116E0D8F80010D4F8C9
:101FB000902021F007011143C8F80010E3E7B0F1C9
:101FC000804F0ED0B0F1A04F0BD001250AE0019850
:101FD000002101F0E9FF03E00098022102F06EF811
:101FE000054695B12E462078C04340062BD4D4F840
:101FF0009800B0F5406F24D011DC10B3B0F5806FBD
:1020000015D0B0F5006F10D116E0D9F80010D4F853
:102010008C2021F0E0411143C9F80010E3E7B0F54E
:10202000805F0ED0B0F5A05F0BD001250AE00198CB
:10203000002101F0B9FF03E00098022102F03EF810
:10204000054695B12E462078C04300062BD4D4F81F
:102050009C00B0F5C04F24D011DC10B3B0F5005F88
:1020600015D0B0F5804F10D116E0D8F80010D4F894
:10207000982021F4E0511143C8F80010E3E7B0F5CF
:10208000004F0ED0B0F5204F0BD001250AE001988B
:10209000002101F089FF03E00098022102F00EF810
:1020A000054655B12E462078C04300071ED4D4F80B
:1020B0008000B0F5805F0AD00FE0D8F80010D4F8A7
:1020C0009C2021F460411143C8F80010EBE7009810
:1020D000022101F0F3FF00B10126D9F80010D4F875
:1020E000802021F440511143C9F800102078C043EA
:1020F000C00613D4D4F89400B0F5807F05D10098C1
:10210000022101F0DBFF00B10126D8F80010D4F85D
:10211000942021F440711143C8F800102068C04396
:10212000000316D4D4F8A00038B1B0F5803F09D030
:10213000B0F5003F0BD001250AE00198002101F025
:1021400033FF03E00098022101F0B8FF05468DB18E
:102150002E462068C043400322D4D4F88400B0F552
:10216000801F11D0B0F5001F13D0B0F5401F15D05F
:10217000012514E0D8F80010D4F8A02021F4403153
:102180001143C8F80010E4E7386840F400303860C4
:1021900004E00098012101F091FF05465DB12E4653
:1021A0002068C043C0031CD4206D70B1B0F5803FDF
:1021B00010D0012514E0D9F80010D4F8842021F4BF
:1021C00040111143C9F80010EAE7386840F40030C4
:1021D000386004E00198022101F0E6FE0546DDB119
:1021E0002E462068C043800005D40098022101F0EB
:1021F00065FF00B101262068C04380031BD4E06F57
:10220000B8B1B0F5807F10D0B0F5007F11D0B0F537
:10221000407F0ED001250DE0DBF80010226D21F487
:1022200080311143CBF80010DBE7386840F4003010
:102230003860EDB32E462068C043C00207D4DAF8F8
:102240000010226F21F000411143CAF800102068ED
:10225000C04380020ED4DAF8001021F0807105E04E
:102260007044025854440258CFFFFF00A26E11433D
:10227000CAF800102068C043400009D43D480168F6
:1022800021F4004101600168D4F8B42011430160D9
:102290002068C04307D4DBF80010626D21F0405184
:1022A0001143CBF800102068C04300020AD400E0BC
:1022B00010E0D9F80010D4F8882021F4400111432F
:1022C000C9F8001020790025C04300F00100284320
:1022D00009D00EE0D9F80010E26F21F440711143EB
:1022E000C9F80010A7E70198002101F05DFE00B1D8
:1022F00006462079C04300F00200284305D101982A
:10230000012101F051FE00B106462079C04300F0E2
:102310000400284305D10198022101F045FE00B1D7
:1023200006462079C04300F00800284305D10098F4
:10233000002101F0C3FE00B106462079C04300F041
:102340001000284305D10098012101F0B7FE00B12B
:1023500006462079C04300F02000054304D10098D0
:10236000022101F0ABFE00B916B10120BDE8FC9FCF
:102370000020FBE7104402582DE9F05F04000D46F1
:102380007ED0DFF84492D9F8000000F00F00A84298
:102390000CD2D9F8001021F00F012943C9F8001020
:1023A000D9F8000000F00F00A84269D12078874ECC
:1023B00040070AD52069316801F07001884204D9CC
:1023C000316821F07001014331602078DFF800822C
:1023D00000070CD560694146D8F8002002F0700271
:1023E000904204D90A6822F0700202430A60207801
:1023F000C0060CD5A0694146D8F8002002F4E0627E
:10240000904204D90A6822F4E06202430A6020780C
:10241000DFF8C0B180060CD5E0695946DBF8002032
:1024200002F07002904204D90A6822F0700202435E
:102430000A60207880070AD5E068316801F00F0152
:10244000884204D9316821F00F01014331602078BE
:10245000C0073DD03068A16820F470600843306048
:102460005A4960681839022818D0032819D0096819
:10247000012819D04907002949DADFF850A100E006
:1024800045E0AAF1080ADAF8001021F0070101433B
:10249000CAF80010FFF768F8074611E009688903D9
:1024A000E9E709688901E6E7C905E4E7FFF75CF8B1
:1024B000C11B41F28830814202D90320BDE8F09F60
:1024C000DAF80000616800F03800B0EBC10FEDD120
:1024D000207880070AD5E068316801F00F01884252
:1024E00004D2316821F00F0101433160D9F80010A6
:1024F000484601F00F01A9420BD9016821F00F01F4
:1025000029430160006800F00F00A84201D00120BB
:10251000D4E7207840070AD52069316801F07001BE
:10252000884204D2316821F0700101433160207883
:1025300000070CD560694146D8F8002002F070020F
:10254000904204D20A6822F0700202430A602078A6
:10255000C0060CD5A0694246D8F8001001F4E0612D
:10256000884204D2116821F4E061014311602078AF
:1025700080060CD5E0695946DBF8002002F07002B5
:10258000904204D20A6822F0700202430A6000F00E
:1025900071F83168C1F303220F498A5C02F01F020F
:1025A000D040326802F00F02895C0C4A01F01F0132
:1025B00020FA01F111600A4908600A480068BDE884
:1025C000F05FFFF70DB800000020005218440258D9
:1025D0001C440258204402583C4E000814000024B9
:1025E000100000240800002400B500F043F80B4A56
:1025F00011681268C1F303230949CB5C03F01F0380
:10260000D84002F00F02895C064A01F01F0120FA4F
:1026100001F11160044A1060084600BD18440258D8
:102620003C4E0008140000241000002400B5FFF701
:10263000DBFF05490968054AC1F30211515C01F04D
:102640001F01C84000BD00001C4402583C4E000859
:1026500000B5FFF7C9FF05490968054AC1F3022122
:10266000515C01F01F01C84000BD00001C4402582D
:102670003C4E0008434830B50068444C10F0380127
:10268000414808D00211082903D010290BD018297D
:102690000BD0104630BD21688906FBD52168C1F3F7
:1026A000C101C84030BD3A4830BD364918310A68CA
:1026B000096802F00302334B1C33C1F305111B6898
:1026C000304D03F0010324352D68C5F3CC0515FB0F
:1026D00003F300EE103AB8EE400AE9B3294BDFED00
:1026E0002D0A2033B7EE001A62B1DFED2B1A012A52
:1026F00001D0022A3CD002EE101AF8EE422A81EEF6
:10270000A22A17E0226892060CD52268C2F3C10201
:10271000D04001EE900AF8EE612A01EE901AF8EE30
:10272000611A05E001EE901ADFED1C2AF8EE611A3D
:1027300082EEA12A1868C0F3080001EE900A18681A
:10274000F8EE611A40EE201A31EE810A22EE000AFC
:10275000C0F34620401C00E011E000EE900AF8EEC5
:10276000600A80EE201ABCEEC10A10EE100A30BDDD
:1027700001EE901ADFED0A2AF8EE611AD8E7002080
:1027800030BD0000104402580090D00300440258AD
:1027900040787D01000000390024744A0024744C04
:1027A00020BCBE4B2DE9F05F040078D02078DFF824
:1027B000F893FE4EFE4DC00747D0D9F800003168AF
:1027C00000F03800102815D0182803D101F00300BC
:1027D00002280FD06068B0F5803F12D010B1B0F57C
:1027E000A02F18D0286820F480302860286820F4B2
:1027F000802009E02868800327D560680028D4D0AD
:1028000023E0286840F480302860606888B1FEF7D3
:10281000ABFE074609E0286840F480202860F0E716
:10282000FEF7A2FEC01B64287ED828688003F7D577
:102830000BE0FEF799FE074604E0FEF795FEC01B8D
:102840006428F1D828688003F7D42078800753D50E
:10285000D9F80000316810F03800DFF858830ED046
:10286000182801D188070AD0E068A0B3296821F0B0
:10287000190101432960FEF777FE074627E0286823
:10288000400702D5E06800288FD02868E16820F072
:10289000190008432860FEF767FE074605E0D1E00F
:1028A000FEF762FEC01B0228BED828684007F7D595
:1028B000D8F80010227C21F0FE4141EA0261C8F8FC
:1028C000001019E0FEF750FEC01B0228ACD82868A3
:1028D0004007F7D5ECE7FFE7286820F00100286003
:1028E000FEF742FE074604E0FEF73EFEC01B02284C
:1028F0009AD828684007F7D42078C00646D5D9F87A
:102900000000316800F03800DFF89C820828A8F148
:10291000040812D0182803D101F0030001280CD0BC
:10292000E0690028286800E0C7E020D040F080007F
:102930002860FEF719FE074615E02868C00502D595
:10294000E06980287ED1D8F8001094F8202021F08A
:102950007C5141EA0261C8F8001017E0FEF704FE5E
:10296000C01B0228A0D82868C005F7D5EBE720F0E7
:1029700080002860FEF7F8FD074604E0FEF7F4FD4E
:10298000C01B022890D82868C005F7D4207800071B
:1029900028D5864960694C31002888460846096870
:1029A00010D041F001010160FEF7DEFD074604E0B2
:1029B000FEF7DAFDC01B022888D8D8F8000080078F
:1029C000F6D50FE021F001010160FEF7CDFD0746CD
:1029D00004E0FEF7C9FDC01B02286ED8D8F800003D
:1029E0008007F6D42078800622D5A06900282868C0
:1029F0000FD040F480502860FEF7B6FD074604E093
:102A0000FEF7B2FDC01B022857D828688004F7D50E
:102A10000EE020F480502860FEF7A6FD074604E093
:102A2000FEF7A2FDC01B022847D828688004F7D40F
:102A3000207840074FD5DFF88081D8F8001041F4A6
:102A4000807100E017E1C8F80010FEF78DFD074621
:102A500004E0FEF789FDC01B64282ED8D8F80000DA
:102A6000C005F6D5514FA068483701280AD008B1F3
:102A7000052813D0386820F001003860386820F04D
:102A8000040002E0386840F001003860A06841F2BC
:102A9000883A98B1FEF768FD80460AE0386840F051
:102AA00004003860EEE7FEF75FFDA0EB080151453A
:102AB00003D838688007F6D50DE07FE0FEF754FDB7
:102AC000804605E0FEF750FDA0EB0801514575D8A2
:102AD00038688007F6D4616A002970D0D9F8000000
:102AE0004FF6F87BDFF8C48008F10808C0F3C20095
:102AF000032808F10409A8F1040A7DD028680229F6
:102B000020F08070286003D0FEF72EFD044687E099
:102B1000FEF72AFD074604E0FEF726FDC01B02284B
:102B20007BD828688001F7D4306840F2F3318843BD
:102B3000E16A40EA0110A16A0843306094F8340069
:102B40004FF4FE02218E4002491EA0F5007080B2B3
:102B5000C1F308010843218F491E02EA01410843DD
:102B600094F83C101202491E02EA01610843C8F8B9
:102B70000000DAF80010504621F00101CAF80010F8
:102B8000D9F80020A36C22EA0B0242EAC302C9F87A
:102B90000020DAF80010226C21F00C011143CAF871
:102BA0000010DAF800100BE01044025828440258D4
:102BB0000044025804440258004802582DE07DE0C9
:102BC000626C21F0020111430160016841F480311F
:102BD0000160016841F400310160016841F4802125
:102BE0000160016841F001010160286840F08070D7
:102BF0002860FEF7B9FC00E016E0044604E0FEF7AA
:102C0000B3FC001B022808D828688001F7D555E0DE
:102C1000FEF7AAFC001B022802D90320BDE8F09FA2
:102C200028688001F4D449E03268D8F8000001290E
:102C300021D0A36A02F0030199421CD1E16AC2F3D8
:102C40000512914217D1216BC0F30802491E8A4236
:102C500011D1616BC0F34622491E91420BD1A16B89
:102C6000C0F30642491E914205D1E16BC0F30660F4
:102C7000491E814201D00120D0E7D9F800004F461B
:102C8000A16CC0F3CC00814218D0DAF8000056469F
:102C900020F00100CAF80000FEF766FC0546FEF7CA
:102CA00063FCA842FBD03868A16C20EA0B0040EA24
:102CB000C1003860306840F0010030600020ADE7AE
:102CC000401EB0F1807F10B501D3012010BD4FF040
:102CD000E02460610F21601701F065FF0020A06112
:102CE00007202061002010BD70477047704700002A
:102CF000F0B590F83C20012A42D0012580F83C50E4
:102D0000022280F83D2003685A689C681D4E1E4FC1
:102D1000B34201D0BB4204D122F4700C4A6842EAAB
:102D20000C0222F0700C0A6842EA0C025A60026837
:102D3000B24219D0B2F1804F16D0144B9A4213D040
:102D4000134B9A4210D0134B9A420DD0BA420BD07B
:102D5000114B9A4208D0114B9A4205D0104B9A421F
:102D600002D0104B9A4204D1896824F080031943A1
:102D7000916080F83D50002180F83C100846F0BD7D
:102D80000220F0BD000001400004014000040040AA
:102D900000080040000C00400018004000400140C6
:102DA00000E0004000E4004010B5040003D094F8B7
:102DB0003D0010B107E0012010BD002084F83C0068
:102DC000204600F023F8022084F83D002068211DF1
:102DD00001F0C6FA012084F8480084F83E0084F827
:102DE0003F0084F8400084F8410084F8420084F8F1
:102DF000430084F8440084F8450084F8460084F8D1
:102E0000470084F83D00002010BD000008B50068B0
:102E1000154988420FD11548016841F00101016050
:102E200000680022114600F0010000901920FEF712
:102E30005DFC192012E0B0F1804F13D10B48083827
:102E4000016841F00101016000680022114600F0B4
:102E5000010000901C20FEF749FC1C20BDE8084042
:102E6000FEF736BC08BD000000000140F0440258E7
:102E700090F83D10012901D001207047022180F80F
:102E80003D100168CA6842F00102CA600068164934
:102E900088421AD0B0F1804F17D01449884214D01C
:102EA0001349884211D0134988420ED012498842F2
:102EB0000BD01249884208D01149884205D01149E7
:102EC000884202D01049884207D181680F4A1140D8
:102ED000062906D0B1F5803F03D0016841F0010119
:102EE0000160002070470000000001400004004025
:102EF00000080040000C00400004014000180040A1
:102F00000040014000E0004000E4004007000100F4
:102F100070B5044690F83C000025012815D0012624
:102F200084F83C60022084F83D0020688268364BBB
:102F30001A4022F47F4282600868702802462FD02F
:102F400010DC10F00F0F03D022E04FF0020070BD34
:102F50004FEA201007281BD2DFE800F053535353E9
:102F60004B394100B0F1101F4BD009DCB0F5805F48
:102F70000FD0B0F5005F1ED0B0F5801F08D140E043
:102F80002038B0F580103CD010283AD0202838D016
:102F9000012584F83D60002084F83C00284670BD7F
:102FA0004A682068D1E9021301F048FA2068816874
:102FB00041F0770109E04A682068D1E9021301F085
:102FC0003DFA2068816841F480418160E1E7CA6888
:102FD0004968206801F046FA2068502106E0CA6876
:102FE0004968206801F06CFA2068602101F030FA2D
:102FF000CFE7CA684968206801F034FA20684021A8
:10300000F4E720681146F1E788FFCEFF70472DE90D
:10301000F04104460068C66805694FF00007A9073B
:1030200013D5B10711D5F91E016101202077206861
:1030300080698007204602D0FFF7E8FF04E000F037
:103040008BF8204600F089F82777680716D57007B7
:1030500014D521686FF004000861022020772068F1
:10306000806910F4407F204602D0FFF7CFFF04E0D4
:1030700000F072F8204600F070F82777280715D581
:10308000300713D521686FF008000861042020770D
:103090002068C0698007204602D0FFF7B7FF04E030
:1030A00000F05AF8204600F058F82777E80616D5C1
:1030B000F00614D521686FF0100008610820207711
:1030C0002068C06910F4407F204602D0FFF79EFFC1
:1030D00004E000F041F8204600F03FF82777E807C9
:1030E00008D0F00706D021686FF001000861204683
:1030F00000F034F8280601D4A80408D5300606D517
:1031000021686FF4025008612046FFF7EEFDE805E4
:1031100008D5300606D521686FF480700861204616
:10312000FFF7E2FD680608D5700606D521686FF046
:1031300040000861204600F023F8A8060AD5B00632
:1031400008D521686FF0200008612046BDE8F041F5
:10315000FFF7CCBDBDE8F0817047704700680122E1
:10316000054B0649984201D10A707047B0F1804F73
:10317000FBD14A70704700000000014000000024AD
:10318000704790F88410012918D0012180F884102C
:103190002421C0F8881001680A680B6823F0010335
:1031A0000B6022F000510022426603681960202162
:1031B000C0F8881080F884201046704702207047BD
:1031C0007047704770B5044690F8840001281DD000
:1031D000012084F884002420C4F888002068056851
:1031E000026822F0010202602068826822F06062B8
:1031F0000A438260204601F083F9206805602020A0
:10320000C4F88800002084F8840070BD022070BDDE
:1032100070B5044690F8840001281DD0012084F880
:1032200084002420C4F8880020680568026822F021
:10323000010202602068826822F060420A438260D4
:10324000204601F05DF9206805602020C4F8880060
:10325000002084F8840070BD022070BD7047704764
:10326000704700002DE9F04107680446F8693968A5
:10327000BA6840F60F0318424FF000054FF00206FF
:103280000AD183067ED501F0200302F0805C53EA68
:103290000C0377D0616F7DE1D34BDFF850C313404F
:1032A00001EA0C0C53EA0C0C6CD05FEAC07C0CD029
:1032B0005FEAC15C09D54FF0010CC7F820C0D4F813
:1032C000907047F00107C4F89070870709D5D707B9
:1032D00007D027683E62D4F8906046F00406C4F830
:1032E000906046070AD5D60708D0276804263E62B4
:1032F000D4F8906046F00206C4F8906006070CD53A
:1033000001F020061E4308D0266808233362D4F853
:10331000903043F00803C4F8903003050BD54B01FF
:1033200009D526684FF400633362D4F8903043F037
:103330002003C4F89030D4F89030002B3DD08006A4
:1033400009D501F0200002F08051084303D0616FDD
:1033500009B120468847D4F8900021688968490659
:1033600002D410F0280F2AD0204601F0ABF92068D3
:10337000806840061ED52068083050E8001F21F004
:10338000400100E021E040E80012002AF3D1D4F827
:10339000800078B196490165D4F88000FDF7EEFB16
:1033A00000280AD0D4F88000016D00E02046BDE876
:1033B000F04108472046FFF753FFBDE8F081204663
:1033C000FFF74EFFC4F89050F7E7D4F86CC0202305
:1033D000BCF1010F7ED15FEAC06C7BD55FEAC16CA6
:1033E00078D51020386220688068400673D5D4F8FC
:1033F000802080491068884234D07E491831884244
:1034000030D07C49303188422CD07A4948318842CA
:1034100028D078496031884224D076497831884272
:1034200020D07449903188421CD07249A83188421A
:1034300018D07149884215D06F491831884211D08F
:103440006D49303188420DD06B494831884209D0EE
:1034500069496031884205D067497831884201D096
:103460006549903140684FF480770004000C40D0EB
:10347000B4F85C1081423CD9A4F85E00D069B8422F
:103480002FD0206850E8001F21F4807140E800121E
:10349000002AF6D12068083050E8001F21F0010111
:1034A00040E80012002AF5D12068083050E8001FDB
:1034B00021F0400140E80012002AF5D1C4F88C3018
:1034C000E566206850E8001F21F0100140E8001276
:1034D000002A01E049E019E0F3D1D4F88000FDF7BB
:1034E0009DF92667B4F85C00B4F85E10401A81B20A
:1034F00008E0B4F85C1081427FF466AFD069B8424E
:10350000FAD126672046FFF75BFE56E7B4F85C0069
:10351000B4F85E10401A81B2B4F85E000028F4D00E
:103520000029F2D0206850E8002F22F4907240E881
:103530000027002FF6D12C4FFF432068083050E8B9
:10354000002F3A4040E8002CBCF1000FF5D1C4F840
:103550008C30E5666567206850E8002F22F0100285
:1035600040E80023002BF6D1CBE7C60209D556026E
:1035700007D54FF4801038622046BDE8F041FFF7D0
:103580006EBE06060AD501F0800602F4000216435C
:1035900004D0A16F00297FF409AF0EE7420611D5D0
:1035A0004A060FD52046016851E8002F22F040025C
:1035B00041E80024002CF6D1C0F88830856700F07F
:1035C0009FF8FAE6020206D54A0004D52046BDE877
:1035D000F041FFF743BEC00197D5002995DA204698
:1035E000BDE8F041FFF7EDBD01000010200100042F
:1035F000B9460008100002401004024010B5040053
:1036000003D0D4F8880010B107E0012010BD0020DD
:1036100084F88400204600F027F82420C4F88800AD
:103620002068016821F001010160A06A10B1204604
:1036300000F088FF204601F06FF80128E6D02068EE
:10364000416821F4904141602068816821F02A019D
:1036500081602068016841F0010101602046BDE8F9
:10366000104000F0D3BF000010B5B4B004461421E0
:103670002EA8FCF748FFB8216846FCF744FF1D4917
:103680002068884233D100201D9002210446CDE9F4
:1036900000106846FEF7D2F908B1FCF79AFF164809
:1036A000016841F480210160006800F480203390BB
:1036B00011480838016841F00201016000682EA934
:1036C00000F0020033904FF440602E900220CDE9CC
:1036D0002F040720CDE931400848FDF75BFE0022AA
:1036E00027201146FEF702F82720FDF7F1FF34B03E
:1036F00010BD000000480040E84402580004025891
:103700007047FEE7002101809FED031B418080EDA3
:10371000021B80ED040B7047000000000000000059
:1037200002EE101A018090ED020BB8EEC22B90ED64
:10373000041B32EE402B01EE020B80ED020BBDEEBE
:10374000C00B10EE101A09B241800846704700F015
:10375000A1B900002DE9F0430646154689462DED36
:10376000028B89B0906B08283ED3286D08283BD384
:103770002021356001A8FCF7C6FE00200190022040
:10378000039040F2FF704FF00108022206900720DC
:1037900043461146CDF8008004902846FDF76AFBA9
:1037A00010BB9FED178B00242946601CC2B2C4EBEE
:1037B000C400002306EB4017B0EE480B07F10800E9
:1037C00000F02DF880B908FA04F010EA090F42461B
:1037D00010D03A7304F20120029401A907940590D5
:1037E0002846FDF708FB28B1012009B0BDEC028B8B
:1037F000BDE8F083641C082CD6DB0020F5E7000050
:10380000FFFFFFFFFFFFEF7F002807D021B1012955
:1038100004D1703000F01CBB1030FBE7704710B5CE
:1038200070B169B10024047101604271C4800481E7
:103830004481047380F8D03080ED360B204610BDF3
:10384000012010BD10B5044690F8D00088421CD06D
:103850002079002819D084F8D01004F158009FED89
:103860000B0B84ED0C0B84ED100B84ED240B84ED1D
:10387000280B94ED1A0BFFF745FF94ED320B04F182
:10388000B800BDE81040FFF73DBF10BD00000000CC
:103890000000000021B1012904D1703000F080BB8C
:1038A0001030FBE77047000070B506462DED088B21
:1038B00000F0C1F800259FED448B9FED45BB9FEDC7
:1038C000469B9FED47ABC5EBC50006EB4014207B44
:1038D000012873D194F8D8000834B0EE480B20B119
:1038E000012813D0022825D13DE0B4F9081004F1D5
:1038F0005800FFF715FF00EE100A04F11000B8EEB3
:10390000C00B84ED140B00F065FA13E0B4F90A1053
:1039100004F1B800FFF704FF00EE100A04F1700094
:10392000B8EEC01BB0EE480B84ED2C1BB0EE4B1B69
:1039300000F0A8FAB4EEC90BF1EE10FA01DDB0EE1A
:10394000490BB4EECA0BF1EE10FA01D2B0EE4A0BFD
:10395000042DBDEEC00B06EB450110EE100A2BDA6C
:10396000A1F810072AE0B4F90A1004F1B800FFF733
:10397000D7FE00EE100A04F17000B8EEC01BB0EEE6
:10398000480B84ED2C1BB0EE4B1B00F07BFA94ED42
:10399000362BB4EEC02BF1EE10FA01D2B0EE420B92
:1039A000B1EE421BB4EEC01BF1EE10FA01DDB0EE39
:1039B000410B84ED120B98E7A1F800076D1C082D50
:1039C00081DBBDEC088B70BD000000000000000032
:1039D000000000000000C040000000000000D040D7
:1039E000000000000000D0C070B5002405462DED99
:1039F000088BB0EE438BB0EE429BB0EE41ABB0EE25
:103A000040BBC4EBC40005EB4010017B51B1083052
:103A1000B0EE483BB0EE492BB0EE4A1BB0EE4B0B7C
:103A200000F006F8641C082CEBDBBDEC088B70BDC5
:103A3000703000F011BAF0B50127064600248DB0B1
:103A4000C4EBC40006EB4015287B01281BD130686D
:103A50002146FDF709FCB0B130680AAB6A46214641
:103A6000FDF722FA78B9BDF82800002740BA68822D
:103A7000BDF82A0040BA2882BDF82C0040BAE8817F
:103A80009DF82E002875641CE4B2082CD8D30DB024
:103A90003846F0BDF0B58BB0324E04460020774278
:103AA000099009AD0A90C0EBC00104EB4111097BFC
:103AB000B1B104EB4001B1F91027B24202DAA1F82A
:103AC000106703E0BA4201DDA1F81077B1F81027C2
:103AD000120A05F8102005EB400291F810175170FA
:103AE000401C0428DFDB0822236868469101FDF7AB
:103AF0003EFC216809AA6846FDF746FC70BBC0EB96
:103B0000C00104EB411191F88C13B1B104EB4001F9
:103B1000B1F90827B24202DAA1F8086703E0BA4215
:103B200001DDA1F80877B1F80827120A05F810207E
:103B300005EB400291F808175170401C0428DEDBA9
:103B40002368082240F2FF116846FDF710FC216847
:103B500009AA6846FDF718FC002800D001200BB028
:103B6000F0BD000000C0FFFF002210B5C2EBC20391
:103B700000EB43131C7B2CB101EBC20494ED000B52
:103B800083ED2C0B521C082AF0DB10BD70B500240D
:103B900005462DED088BB0EE438BB0EE429BB0EEA8
:103BA00041ABB0EE40BBC4EBC40005EB4010017B61
:103BB00051B10830B0EE483BB0EE492BB0EE4A1B95
:103BC000B0EE4B0B00F006F8641C082CEBDBBDECF0
:103BD000088B70BD103000F03FB9000018480B236F
:103BE0001649052210B5016000218160C160017491
:103BF0004174817442610122C0E906230C23C0E9AB
:103C0000083282620423C262C0E90C210822C0E9A2
:103C10000E21C0E91023C0E912230265C0E9153165
:103C2000C0E91712C0E91913FDF7FCF9002803D009
:103C3000BDE81040FCF7CDBC10BD000000A0004066
:103C4000B0070024114808B5016841F00401016083
:103C5000016801F004010091016841F080010160F8
:103C6000016801F080010091016841F002010160EA
:103C7000016801F002010091016841F00101016059
:103C8000006800F00100009008BD0000E044025808
:103C900010B588B019480024174900940194029483
:103CA000039404940594069401604FF48971C0E96B
:103CB000011440F2E731C0E9031444618461FFF765
:103CC00073F808B1FCF785FC4FF4805000900B4866
:103CD0006946FFF71DF908B1FCF77BFC074804A90A
:103CE000049405940694FFF703F8002801D0FCF72C
:103CF00070FC08B010BD0000000001405008002416
:103D000010B588B0174800244FF08041009401940A
:103D10000294039404940594069401604FF489710D
:103D2000C0E9011440F2CF71C0E903148461FFF7C8
:103D30003BF808B1FCF74DFC4FF480500090094867
:103D40006946FFF7E5F808B1FCF743FC054804A90C
:103D500004940694FEF7CCFF002801D0FCF739FC50
:103D600008B010BD9C08002418480C22164910B554
:103D700001604FF46121416000218160C160C0E9B0
:103D800004128161C161016241628162FFF736FC08
:103D900008B1FCF71EFC0D480021FFF739FA08B105
:103DA000FCF717FC09480021FFF70CFA08B1FCF7F3
:103DB00010FC0648FFF7E5F9002803D0BDE81040E5
:103DC000FCF707BC10BD000000480040E8080024D4
:103DD000FEE7FEE790ED0E0B90ED101B90ED082B2B
:103DE00090ED063B30EE411B01EE032B80ED082BDE
:103DF00090ED0A0BB5EEC00BF1EE10FA11DDB4EE4A
:103E0000C02BF1EE10FA01DD80ED080B90ED082BD0
:103E1000B1EE400BB4EEC02BF1EE10FA01D280ED02
:103E2000080B90ED0C0B80ED0C1B31EE400B80EE7F
:103E3000032B90ED020B90ED083B20EE030B90ED71
:103E4000003B03EE010B90ED041B01EE020B7047EB
:103E500080ED160B7047000080EC080BBFEE000BE6
:103E60009FED061B80ED081B80ED0A0B80ED0C1BFF
:103E70004830B7EE000BFFF745BC00000000000023
:103E800000000000B4EEC10BF1EE10FA05D2B0EE66
:103E9000402BB0EE410BB0EE421BB6EE003B30EED5
:103EA000412B22EE034B90ED0E3B03E033EE423B01
:103EB00080ED0E3BB4EEC03BF1EE10FAF6DC03E011
:103EC00033EE023B80ED0E3BB4EEC13BF1EE10FA57
:103ED000F6D390ED103B03E033EE423B80ED103B18
:103EE000B4EEC03BF1EE10FAF6DC90ED100B03E0FF
:103EF00030EE020B80ED100BB4EEC10BF1EE10FAB8
:103F0000F6D390ED0E0B90ED101B30EE411BB4EE8E
:103F1000C41BF1EE10FA02DD31EE421B08E0B1EEF7
:103F2000440BB4EEC01BF1EE10FA01D231EE021BCD
:103F300090ED082B90ED063B01EE032B80ED082B56
:103F400090ED0A0BB5EEC00BF1EE10FA11DDB4EEF8
:103F5000C02BF1EE10FA01DD80ED080B90ED082B7F
:103F6000B1EE400BB4EEC02BF1EE10FA01D280EDB1
:103F7000080B90ED0C0B80ED0C1B31EE400B80EE2E
:103F8000032B90ED020B90ED083B20EE030B90ED20
:103F9000003B03EE010B90ED041B01EE020B70479A
:103FA00080ED0A0B704770472DE9F047DFF8088174
:103FB00004460E464FF00009D8F80000C0438007C1
:103FC00009D03D4D283D286820F080602860FDF72D
:103FD000CBFA074607E00120BDE8F087FDF7C4FAF9
:103FE000C01B022860D828680001F7D4D8F8001058
:103FF000226821F47C3141EA0231C8F80010207AAD
:104000004FF4FE02A1884002491EA0F5007080B264
:10401000C1F308010843A189491E02EA014108438E
:10402000217C1202491E02EA016108432249103133
:1040300008602148001D0168626921F0C001114338
:1040400001600168A26921F020011143016001684B
:1040500021F010010160184914310A684FF6F87315
:104060009A43E36942EAC3020A60016841F0100121
:1040700001606EB10168012E0ED041F400110160A3
:10408000286840F080602860FDF76EFA04460DE075
:10409000016841F40021F2E741F48011EFE7FDF7F8
:1040A00063FA001B022801D9032095E72868000164
:1040B000F5D5484690E70000284402582DE9F0471E
:1040C000DFF8088104460E464FF00009D8F80000DA
:1040D000C043800709D03D4D283D286820F080501E
:1040E0002860FDF741FA074607E00120BDE8F087A8
:1040F000FDF73AFAC01B022860D828688000F7D480
:10410000D8F80010228821F07C7141EA0251C8F8E9
:104110000010207A4FF4FE02A1884002491EA0F54B
:10412000007080B2C1F308010843A189491E02EA68
:1041300001410843217C1202491E02EA0161084341
:104140002249183108602148001D0168626921F484
:104150004061114301600168A26921F400711143BB
:104160000160016821F48071016018491C310A68FE
:104170004FF6F8739A43E36942EAC3020A600168A2
:1041800041F4807101606EB10168012E0ED041F0E2
:1041900080710160286840F080502860FDF7E4F9E4
:1041A00004460DE0016841F48001F2E741F40001AA
:1041B000EFE7FDF7D9F9001B022801D9032095E7A5
:1041C00028688000F5D5484690E70000284402584A
:1041D0007047FDF7CFB9000030B59DB04C2168465F
:1041E000FCF791F9202113A8FCF78DF90220FDF7C7
:1041F000AFFA1E480024016821F4404101600168C3
:1042000001F440411B9101688904FCD5402502203E
:10421000009001222223CDE9032504210D92CDE94E
:104220000B13CDE90904CDE90E100C20CDE91004E3
:10423000000212906846FEF7B5FA08B172B6FEE7C2
:104240003F2013900320CDE9140408201A95CDE9EE
:104250001605C0010321CDE9185013A8FEF78CF80C
:10426000002801D072B6FEE71DB030BD18480258D4
:104270002D4810B5016841F4700101602B4A1068A7
:1042800000F00F00072804D2106820F00F00C01DB6
:1042900010602749086840F001000860244B0020A6
:1042A000103318600B68234C23400B60136803F035
:1042B0000F03072B04D9136823F00F03DB1D1360D2
:1042C0001B4A18321060121D1060121D1060184B2E
:1042D000194A28331A601B1D184A1A601B1D184AF8
:1042E0001A601B1D18601B1D1A601B1D18601B1D0A
:1042F0001A601A1D10600A6822F480220A600C49B4
:10430000603108600A48D4300168C9040BD40168E0
:1043100041F4805101600B4A43F2D20111600168FF
:1043200021F48051016010BD88ED00E000200052B2
:10433000004402587FEDF6EA000202020000FF018D
:1043400080020101004000520148FEF760BE0000FB
:10435000500800240148FEF75ABE00009C080024C3
:104360002DE9F04702684FF0804A2A4C2A4D2B4E27
:10437000A0422B4F2B4B09D0504507D0A84205D067
:10438000B04203D0B84201D0984204D122F0700C60
:104390004A6842EA0C02DFF890C0DFF89080A04241
:1043A000DFF88C9015D0504513D0A84211D0B04200
:1043B0000FD0B8420DD098420BD0604509D040458F
:1043C00007D0484505D01B4DA84202D01A4DA8423F
:1043D00003D122F44075CA682A434D6922F0800255
:1043E0002A438D68C5620D688562A04207D0984255
:1043F00005D0604503D0404501D0484501D1096949
:104400000163016841F00401016001214161026022
:10441000BDE8F087000001400004004000080040B3
:10442000000C0040000401400040014000440140F5
:104430000048014000E0004000E4004010B58468FE
:1044400042EA03220A4324F47F442243826010BDDF
:104450008268034B1A400A4342F0070181607047AB
:104460008FFFCFFF10B5036A046A24F001040462D1
:104470000E4CA0420BD00E4CA04208D00D4CA042D6
:1044800005D00D4CA04202D00C4CA04203D1046ACE
:1044900024F004040462846924F0F00444EA021461
:1044A000846123F00A020A43026210BD0000014049
:1044B0000004014000400140004401400048014028
:1044C00010B5036A046A24F0100404620A4CA04286
:1044D00002D00A4CA04203D1046A24F040040462D2
:1044E000846923F0A00343EA011124F4704444EAF0
:1044F00002328261016210BD0000014000040140EF
:1045000030B5416EB9B1026891689268C1F34261F9
:104510000B4C520FA35C1D0104F108039A5CB5FB20
:10452000F2F2A0F86A20625C595C1201B2FBF1F170
:10453000A0F8681030BD0121A0F86A10F8E700006B
:104540002C4E000890F82810090706D501684A6823
:10455000836B22F400421A434A6090F82810C9077E
:1045600006D001684A68C36A22F400321A434A60DE
:1045700090F82810890706D501684A68036B22F471
:1045800080321A434A6090F82810490706D501681E
:104590004A68436B22F480221A434A6090F828103C
:1045A000C90606D501688A68C36B22F480521A4393
:1045B0008A6090F82810890606D501688A68036C1D
:1045C00022F400521A438A6090F82810490611D547
:1045D00001684A68436C22F480121A434A60416CB5
:1045E000B1F5801F06D101684A68836C22F4C002CD
:1045F0001A434A6090F82810090606D501684A68EF
:10460000C06C22F4002202434A6070472DE9F8434F
:1046100000250446C0F89050FCF7A6FF80462068AD
:1046200000686FF07E474FF02006000713D5002288
:10463000434631042046009700F064FA58B12068E0
:1046400050E8001F21F0800140E80012002AF6D156
:10465000C4F8886021E020680068400722D5002265
:1046600043464FF480012046009700F04BFAC8B152
:10467000206850E8001F21F4907140E80012002AE1
:10468000F6D12068083050E8001F21F0010140E811
:104690000012002AF5D1C4F88C60032084F88450FD
:1046A000BDE8F883C4F88860C4F88C60E5662567C7
:1046B000002084F88450F3E710B5806BFEF7D0FD3E
:1046C00010BD000010B5016851E8002F22F490726F
:1046D00041E80023002BF6D10E4B0168083151E868
:1046E000002F1A4041E80024002CF6D1C16E0129A8
:1046F00008D1016851E8002F22F0100241E80023A0
:10470000002BF6D12021C0F88C100021C166416732
:1047100010BD0000FEFFFFEF2DE9F04304460068E6
:104720000025DFF89C8387B02269A168E369114303
:1047300062691A4311430268E24B1A400A4302605D
:1047400020684168E26821F44051114341602168CA
:10475000A069414501D0226A10438A68DA4B1A40A9
:1047600002438A602068C16A626A21F00F01114326
:10477000C162D64A2068D64990420ED1096801F03C
:10478000380118296FD07ADCB9B308296CD0102908
:104790006BD18BE0282968D18EE0CE4A904209D1B6
:1047A000096801F0070106295FD2DFE801F0507DBA
:1047B0007F818385C84A904209D1096801F00701C9
:1047C00006297BD2DFE801F0437072747678C34A21
:1047D000904209D1096801F0070106296ED2DFE88D
:1047E00001F036636567696BBD4A90420BD1096879
:1047F00001F00701062961D200E043E0DFE801F0A3
:10480000275456585A5CB74A904206D1096801F0BD
:10481000380118294CD0B7DD31E0B34A904209D1B4
:10482000096801F00701062948D2DFE801F0103DD0
:104830003F414345AD4A90420BD1096801F0070161
:1048400006293BD2DFE801F003303234363800214C
:1048500035E0A74A904209D1096801F038011829CA
:1048600026D091DD0BE023E01EE027E0A14A904234
:104870000AD1096801F03801182919D084DD2029EE
:1048800088D11CE001211AE0404517D19049091D4B
:10489000096801F00701062910D2DFE801F00305DD
:1048A00007090B0D02210AE0042108E0082106E0B7
:1048B000102104E0202102E0402100E08021DFF807
:1048C00038C2834A4FF400478C4E4FF00009543AE7
:1048D00040454FEA2C1353D110291CD006DC022985
:1048E00009D004290BD0082972D10EE0202943D029
:1048F00040296DD142E0FCF753FF844613E068463F
:10490000FCF760FFDDF804C00DE003A8FCF7F8FF3A
:10491000DDF810C007E01068800607D51068C0F306
:10492000C1002CFA00FCBCF1000F24D0606A36F8FC
:1049300010206668BCFBF2F006EB4601814247D8C6
:10494000B0EB063F44D800234F4660461946FBF7BC
:1049500031FD0902020241EA106170081018324666
:1049600079410023FBF726FD654AA0F5407191428D
:104970002ED82168C86090E09C46D7E7BC46D5E7B2
:10498000E0694FF6EF78B8424AD108291AD005DC21
:1049900059B101290CD004297ED10DE0102918D07D
:1049A000202939D0402977D138E0FDF73FFE01E0DA
:1049B000FDF74EFE844614E06846FCF703FFDDF881
:1049C00004C00EE003A8FCF79BFFDDF810C008E070
:1049D00062E01068800607D51068C0F3C1002CFAA9
:1049E00000FCBCF1000F58D0606A36F81000BCFB28
:1049F000F0F04100606801EB5001B1FBF0F0A0F174
:104A00001001414548D84FF6F0710140C0F3420013
:104A100001432068C16040E09C46E5E7BC46E3E70F
:104A200008291AD005DC59B101290CD0042933D149
:104A30000DE0102917D020293CD040292CD13BE093
:104A4000FDF7F4FD01E0FDF703FE844613E0684640
:104A5000FCF7B8FEDDF804C00DE003A8FCF750FF3A
:104A6000DDF810C007E01068800607D51068C0F3B5
:104A7000C1002CFA00FCBCF1000F0ED0606A36F8C1
:104A80001000BCFBF0F1606801EB5001B1FBF0F0ED
:104A9000A0F11002424511D901250120A4F86A00B5
:104AA000A4F868002846C4F87490C4F8789007B059
:104AB000BDE8F0839C46E1E7BC46DFE780B258E7FB
:104AC000000C0058F369FFCFFFF4FF110010014004
:104AD000544402580044004000480040004C00404C
:104AE000005000400014014000780040007C00406D
:104AF00000180140001C01400090D003144E000833
:104B0000FFFC0F002DE9F0471F4690460D46044676
:104B1000089E4FF0000932E0701C30D0FCF724FDF5
:104B2000C01BB04218D8BEB120680168490726D51D
:104B3000802D24D0402D22D0C169C94309070DD44E
:104B4000082505622046FFF7BDFDC4F890500120FE
:104B500084F88490BDE8F0870320FBE7C069C04378
:104B600000050CD421684FF4006008622046FFF76E
:104B7000A9FD2020C4F8900084F88490ECE7206818
:104B8000C06935EA000004D000204045C4D00020B0
:104B9000E0E70120F9E700000148FEF763BB0000F1
:104BA000E8080024FEE70907090E002804DB00F1ED
:104BB000E02080F80014704700F00F0000F1E020C2
:104BC00080F8141D704700002DED068B84B0002482
:104BD0000094019402940394FCF74CFD01268DF897
:104BE0000C601F208DF8080087208DF809008DF8D3
:104BF0000D6068468DF800608DF80A408DF80E4013
:104C00008DF8014001948DF80B408DF80F40FCF7B2
:104C100007FD0420FCF73CFDFCF7B4FCFFF7DCFAD1
:104C2000FFF710F8FFF7A0F8FEF7D8FFFFF730F80E
:104C3000FFF766F84548FEF71BF94548FEF718F9F7
:104C4000444A20214448FEF785FD9FED448BB0EE99
:104C5000483B9FED449B4048B0EE001BB0EE492B13
:104C6000B1EE000BFEF792FF3B48B0EE483BB0EED2
:104C7000492B9FED3E1BB0EE0C0BFEF7B5FE3F48F7
:104C800000219FED3C0B0746FEF704FE012138464C
:104C90009FED3B0BFEF7FEFD002138469FED3A0BE2
:104CA000FEF7B2FD01213846B7EE000BFEF7ACFD72
:104CB000294D9FED370B403D2748294685ED0A0BCE
:104CC000FEF752FF02213846FEF7BCFD9FED320B86
:104CD00005F5886080ED500B1E48FCF72FFBDFF8D0
:104CE00078802F4F9FED2FABB3EE049B787870B197
:104CF0007C70B87840B9BE70B8F8720400EE100A43
:104D0000B8EE400B85ED0A0B1348FEF7CDFD387861
:104D10000028EBD03C7095ED0A0BB0EE4A8B30EEDC
:104D2000090B85ED0A0BB4EEC80BF1EE10FA03DDAA
:104D300030EE480B85ED0A0B074907484039FEF76E
:104D400013FF0548FEF703FDD0E7000050080024DC
:104D50009C080024B007002458000024FCA9F1D2CC
:104D60004D62603F7B14AE47E17A943F9A999999DE
:104D70009999A93F0000000000007940C004002478
:104D80000000000000407F409A9999999999E93F65
:104D900000000000000000000000000000E075407E
:104DA00000000024000000000000C0404FF04070F0
:104DB000E1EE100A70470000000102030405060737
:104DC000080C101418203040000000000000000003
:104DD00000000000000000000000000001000000D2
:104DE00002000000030000000400000000000000BA
:104DF00005000000000000000000000000000000AE
:104E0000060000000000000000000000000000009C
:104E100007000000010002000400060008000A006C
:104E20000C0010002000400080000001010101037F
:104E3000070100000804020408010101000000004D
:104E40000102030401020304060708096C4E00086E
:104E5000000000241800000008030008844E000829
:104E600018000024C80F0000240300080000000000
:104E70000100000010000000000000000090D003BE
:044E80000090D003CB
:04000005080002CD20
:00000001FF
