:020000040800F2
:10000000285300242D0400080F300008112D00088B
:100010000D3000086B070008553C00080000000088
:100020000000000000000000000000006D03000858
:100030006D07000800000000C90300089D32000899
:100040004B0400084B0400084B0400084B04000854
:100050004B0400084B0400084B0400084B04000844
:100060004B0400084B0400084B0400084B04000834
:100070004B0400084B0400084B0400084B04000824
:100080004B0400084B0400084B0400084B04000814
:100090004B0400084B0400084B0400084B04000804
:1000A0004B0400084B0400084B0400084B040008F4
:1000B0004B0400084B0400084B0400084B040008E4
:1000C0004B0400084B0400084B0400084B040008D4
:1000D0004B0400084B0400084B0400084B040008C4
:1000E0004B0400084B040008000000004B0400080B
:1000F0004B040008293400084B0400084B04000896
:100100004B0400084B0400084B0400084B04000893
:100110004B0400084B0400084B0400084B04000883
:100120004B0400084B0400084B0400084B04000873
:100130004B0400084B0400084B0400084B04000863
:1001400000000000000000000000000000000000AF
:100150004B0400084B0400084B0400084B04000843
:100160004B0400084B0400084B0400084B04000833
:100170004B0400084B0400084B040008000000007A
:100180004B0400084B0400084B0400084B04000813
:100190004B0400084B0400084B0400084B04000803
:1001A0004B0400084B0400084B040008000000004A
:1001B0004B0400084B0400084B0400084B040008E3
:1001C0004B0400084B040008000000000000000081
:1001D00000000000000000004B04000800000000C8
:1001E000000000000000000000000000000000000F
:1001F00000000000000000004B0400084B04000851
:100200004B0400084B040008000000004B040008E9
:100210004B0400084B0400084B0400084B04000882
:100220004B040008000000004B0400080000000020
:100230004B0400084B040008000000004B040008B9
:100240004B0400084B0400084B0400084B04000852
:100250004B0400084B0400084B0400084B04000842
:100260004B0400084B0400084B0400084B04000832
:100270004B0400084B0400084B0400080000000079
:100280004B0400084B0400084B0400084B04000812
:10029000000000004B0400084B04000800000000B0
:1002A000000000004B0400084B0400084B04000849
:1002B0004B0400084B0400084B0400084B040008E2
:1002C0004B0400084B0400084B04000800F002F83F
:1002D00000F03CF80AA090E8000C82448344AAF1A4
:1002E0000107DA4501D100F031F8AFF2090EBAE8A2
:1002F0000F0013F0010F18BFFB1A43F0010318475A
:1003000090500000B0500000103A24BF78C878C167
:10031000FAD8520724BF30C830C144BF04680C600B
:10032000704700000023002400250026103A28BF53
:1003300078C1FBD8520728BF30C148BF0B60704757
:100340001FB504F0BDFF1FBD10B510BD00F0D4F9FE
:100350001146FFF7F5FF03F08FFC00F0F2F903B44C
:10036000FFF7F2FF03BC00F0F9F900002C4B19680D
:100370000868B0E8F04F80F30988BFF36F8F4FF043
:10038000000080F3118870470000000008480068F2
:10039000006880F308884FF0000080F3148862B68C
:1003A00061B6BFF34F8FBFF36F8F00DF00BF00BF99
:1003B00008ED00E0DFF80C00016841F47001016015
:1003C000704700BF88ED00E0EFF30980BFF36F8F47
:1003D000134B1A681EF0100F08BF20ED108A20E999
:1003E000F04F106009B44FF0500080F31188BFF354
:1003F0004F8FBFF36F8F04F0EDFA4FF0000080F3E2
:10040000118809BC19680868B0E8F04F1EF0100F99
:1004100008BFB0EC108A80F30988BFF36F8F704774
:100420001C000024EFF30580704700000A48804755
:100430000A4880470A480047FEE7FEE7FEE7FEE776
:10044000FEE7FEE7FEE7FEE7FEE7FEE705480649B2
:10045000064A074B70470000750700085133000833
:10046000CD020008284D002428530024284F0024E2
:10047000284F002453EA020C00F069802DE9F04B6C
:100480004FF00006002B1FBFB3FA83F503FA05F403
:1004900024FA05F65E4012BF1643B2FA82F502FA5C
:1004A00005F4C5F120051EBF22FA05FC44EA0C0440
:1004B000203556EA044C4FEA144418BF641C4FF030
:1004C00000084FF00009904271EB030C39D300296A
:1004D00019BFB1FA81F701FA07F6B0FA80F700FA0E
:1004E00007F6C7F120071EBF20FA07FC46EA0C06F4
:1004F0002037B6FBF4FCA7EB0507103F07F01F0BF6
:10050000CBF120060CFA0BFB2CFA06F644BFB346DF
:100510000026202FA4BF5E464FF0000B5BEA060CBE
:1005200008BF4FF0010B19EB0B09ABFB027C48EB4A
:100530000608C01B06FB02CC0BFB03CC71EB0C01C5
:10054000C1E70B46024641464846BDE8F08B13B56D
:100550004FF000004FF00001AFF30080BDE81C40F9
:100560007047032A40F2308010F0030C00F0158031
:1005700011F8013BBCF1020F624498BF11F801CBA6
:1005800000F8013B38BF11F8013BA2F1040298BF0B
:1005900000F801CB38BF00F8013B11F0030300F075
:1005A0002580083AC0F0088051F8043B083A51F819
:1005B00004CBA0E80810F5E7121D5CBF51F8043B1E
:1005C00040F8043BAFF30080D20724BF11F8013B91
:1005D00011F801CB48BF11F8012B24BF00F8013BF3
:1005E00000F801CB48BF00F8012B704710B5203A46
:1005F000C0F00B80B1E81850203AA0E81850B1E8DC
:100600001850A0E81850BFF4F5AF5FEA027C24BF91
:10061000B1E81850A0E8185044BF18C918C0BDE888
:1006200010405FEA827C24BF51F8043B40F8043B51
:1006300008BF7047D20728BF31F8023B48BF11F806
:10064000012B28BF20F8023B48BF00F8012B704760
:1006500002F0FF0343EA032242EA024200F002B83A
:100660004FF000020429C0F0128010F0030C00F0DB
:100670001B80CCF1040CBCF1020F18BF00F8012B59
:10068000A8BF20F8022BA1EB0C0100F00DB85FEA27
:10069000C17C24BF00F8012B00F8012B48BF00F8F3
:1006A000012B70474FF0000200B513469446964662
:1006B000203922BFA0E80C50A0E80C50B1F1200175
:1006C000BFF4F7AF090728BFA0E80C5048BF0CC023
:1006D0005DF804EB890028BF40F8042B08BF704781
:1006E00048BF20F8022B11F0804F18BF00F8012BF3
:1006F0007047704770477047754600F02BF8AE465C
:1007000005006946534620F00700854618B020B51D
:10071000FFF79CFEBDE820404FF000064FF00007B9
:100720004FF000084FF0000B21F00701AC46ACE899
:10073000C009ACE8C009ACE8C009ACE8C0098D4606
:10074000704710B50446AFF300802046BDE8104066
:10075000FFF705BE00487047C84C00240149182027
:10076000ABBEFEE7260002007047FEE7704772B698
:10077000FEE70000054805490839026842F0020218
:10078000026008688004FCD5704700000C480258DD
:10079000F0B503684FF6FC716D4C426BD3F8845092
:1007A0008D4345EA8205C3F88450036853F8845F9B
:1007B000068F25F47F0545EA06451D60836B654D70
:1007C0009F180268D2F888308B4343EA8703C2F847
:1007D0008830026852F8883F868F23F4FE0343EA8C
:1007E00006431360066856F8A03FC26B8B4307EBC5
:1007F000420243EA82033360076857F8A03FB0F82B
:10080000406023F4FE0343EA06433B60D0E9103620
:1008100003FB06220368D3F8B0608E4346EA8206E3
:10082000C3F8B0600368B0F84860D3F8B07027F43C
:10083000FE0747EA0646C3F8B060D0E912670368CE
:1008400006FB0722D3F8AC608E4346EA8206C3F863
:10085000AC60D0E91467036806FB0722D3F8F060A8
:100860008E4346EA8206C3F8F0600368B0F8586029
:10087000D3F8F07027F47C1747EA0646C3F8F06017
:100880000368876D53F8C06F02EB47028E4346EA58
:10089000820119600168B0F85C20D1F8C03023F4FF
:1008A0007C1343EA0242C1F8C020016890F860203E
:1008B000D1F8C03023F07C5343EA0262C1F8C02073
:1008C000416B04EB8101C166826B01EB820202671E
:1008D000C36B02EBC3024267D0E91034634302EBFF
:1008E00083028267D0E91234634302EB8302C2675A
:1008F000D0E91434634302EB8302C0F88020836D97
:1009000002EBC303C0F88430C46D826E544303EB22
:100910008403C0F88830046E544303EB8402C0F8AB
:100920009020AA420AD9D0F89C20032142F020024C
:10093000C0F89C2080F898100120F0BD002200E053
:1009400004C1D0F890308B42FAD80020F0BD0000EE
:1009500000AC0040FCD300402DE9F04194B08D493B
:100960004C2204466846FFF741FE64B18A4D206878
:10097000A84202D100F58070606094F898004FF0B2
:10098000000820B108E0012014B0BDE8F081204645
:1009900084F8998000F002F92068816921F0100143
:1009A000816100F093FA0327064604E000F08EFA16
:1009B000801B0A2811D8206880690007F6D42068B7
:1009C000816941F00101816100F080FA06460DE085
:1009D00000F07CFA801B0A2808D9D4F89C0040F06B
:1009E0000100C4F89C0084F89870CCE72068806906
:1009F000C007EDD02068816941F002018161207C4F
:100A000001282068816937D041F040018161607C14
:100A100001282068816932D021F480418161A07C65
:100A20000128206881692DD041F4805181612068BE
:100A3000A268816921F44071114381612068816954
:100A400021F0A40181612068016921F01001016198
:100A5000E068012819D010B302281BD020688169F2
:100A600041F0800181612068016941F0100101615C
:100A7000E06803280ED012E021F04001C6E741F4FF
:100A80008041CBE721F48051D0E72068816941F0B3
:100A9000040103E02068816941F020018161207E2A
:100AA0006FF0FF02D4E90773A68A1102400602EB39
:100AB0000727A0F10070384327685B1E184301EB3D
:100AC00006463043F861A068B0F5407F11D104F1CB
:100AD0002800A68C6FF00F0C89C801EB0641401E60
:100AE00002EB0322104322680CEB07131843084360
:100AF000D060206E30B12068626ED0F8C010114313
:100B0000C0F8C010D4E917126846D14209D0216854
:100B1000A36E51F8C82F50F8233022F007021A4371
:100B20000A60216C49B12168626C51F8BC3F50F8F1
:100B3000226023F0070232430A60A16C51B12168A0
:100B4000E36C51F8BC2F50F8233022F0700242EAD7
:100B500003120A60216D51B12168626D51F8BC3FEA
:100B600050F8220023F4E06242EA00200860206886
:100B7000A84204D16068816821F003018160C4F853
:100B800094800121C4F89C8084F898102046FFF7D7
:100B9000FFFDF9E60053000800A00040F0B587B063
:100BA000054614216846FFF77DFD384A0024364B80
:100BB0000926DFF8DCC02F680C3B1068022532499B
:100BC000674500F101001AD10128106007D10868BB
:100BD00040F480700860086800F480700590186820
:100BE00040F0010018601868694600F001000590A7
:100BF0004FF4C05000902748CDE901541DE0DFF8C4
:100C000098C0674520D10128106007D1086840F4DA
:100C100080700860086800F480700590186840F0E3
:100C2000020018601868694600F0020005904FF451
:100C3000405000901948CDE90154CDE9034600BF6A
:100C400000F032F807B0F0BD154EB742FAD10128D6
:100C5000106007D1086840F480700860086800F4EC
:100C600080700590186840F0200018601868694688
:100C700000F020000590C0200090CDE90154094803
:100C8000CDE90345DCE70000EC44025804000024F1
:100C900000A000400000025800A4004000040258D8
:100CA00000D40040001402582DE9F84F03247C4D75
:100CB00000234FF001094FF0B04B4FF00F0AE7E06F
:100CC00009FA03F632407BD00F7907F00307012FB2
:100CD00001D0022F1AD187684FEA430ED1F80CC019
:100CE00004FA0EF827EA08070CFA0EFC4CEA070C87
:100CF000C0F808C0476891F804C0B743CCF3001CA3
:100D00000CFA03FC4CEA070CC0F804C00E79F64359
:100D1000B60702D18E68012E0BD0C7684FEA430890
:100D20008E6804FA08FC27EA0C0706FA08F63E4328
:100D3000C6600E7906F00306022E12D1DE080F6996
:100D40004FEA437C00EB8606B646366A4FEADC6C17
:100D50000AFA0CF807FA0CF726EA08063743CEF829
:100D600020700F7906684FEA430807F0030704FA7A
:100D700008FC07FA08F726EA0C06374307604E68B6
:100D800016F4403F1CD0474E376847F002073760E3
:100D900036689F0706F00206009623F0030606F168
:100DA000B046B6463F0FD6F80864DFF8FC800AFA72
:100DB00007FC404526EA0C0603D14FF0000C3AE050
:100DC00065E0DFF8E8C0604502D14FF0010C32E089
:100DD000DFF8DCC0604502D14FF0020C2BE0DFF8F9
:100DE000D4C0604502D14FF0030C24E0DFF8C8C046
:100DF000604502D14FF0040C1DE0DFF8C0C0604533
:100E000002D14FF0050C16E0DFF8B4C0604502D106
:100E10004FF0060C0FE0DFF8ACC0604502D14FF098
:100E2000070C08E0DFF8A0C0604502D14FF0090CC4
:100E300001E04FF00A0C0CFA07FC4CEA060CCEF865
:100E400008C44F68DBF80060FF0226EA020600D5FE
:100E500016435F46CBF80060D1F804C0DBF80460AD
:100E60005FEA8C2C26EA020600D516437E606E6887
:100E70004F6826EA0206BF0300D516436E602E684F
:100E80004F6826EA0206FF0300D516432E605B1C5E
:100E90000A6832FA03F67FF413AFBDE8F88F00005A
:100EA00080000058F4440258000002580004025820
:100EB00000080258000C0258001002580014025892
:100EC00000180258001C025800240258014880688B
:100ED000704700000800002402488168027811442D
:100EE0008160704708000024032010B500F0FEF870
:100EF00001F0CEF80F4A104914681368C4F30322B6
:100F000003F00F038A5CC95C02F01F0201F01F01AD
:100F1000D0400A4A20FA01F11160094908600F2007
:100F200000F010F808B1012010BD00F09FF800207B
:100F300010BD000018440258745300081800002423
:100F40001400002410B5102804468AB02CD20022C8
:100F500001462D2000F0AAF82D2000F099F817483E
:100F600004601748016841F480710160006809A9B4
:100F700000F480700890684601F016F80598B0B14A
:100F800001F062F840000F4900220F4CB0FBF1F174
:100F90000E4840F2E7330460C0E90332491EC0E95D
:100FA000011201F003FC28B101200AB010BD01F0CC
:100FB0004BF8E8E7054801F045FCF6E70C00002493
:100FC000E844025840420F0000200040A8030024DB
:100FD000154BF0B5083B427813491A600B680A1F9D
:100FE00023F001030B6043681360057BC67A827AA5
:100FF000437B2D07847B45EA0665C77B90F809C0D3
:10100000067A90F800E045EAC24040EA834040EAB0
:10101000444040EA074040EA0C2040EA460040EAEB
:101020000E000860F0BD0000A0ED00E0BFF35F8F90
:10103000044800210368034A23F4803303607032BC
:101040001160704724ED00E0074A40F001000649B6
:1010500070321060086840F480300860BFF34F8F32
:10106000BFF36F8F7047000024ED00E0074882B0A7
:10107000016841F002010160006800220F2100F0C8
:1010800002000090901E02B000F010B8F444025824
:10109000002809DB410900F01F028900012001F14D
:1010A000E0219040C1F80001704700000E4BF0B401
:1010B0001B680D46C3F30223C3F10706042E00D9B3
:1010C0000426191D072901D2002300E0DB1E01249C
:1010D00004FA06F19C40491E2940641E99401440C0
:1010E0002143F0BC02F0B7BD0CED00E0064900F072
:1010F000070210B54FF6FF040868044B204040EA91
:1011000002201843086010BD0CED00E00000FA0555
:10111000134970B50A68D243520705D5096801F032
:101120000701814213D118E00A6822F00702024346
:101130000A60FFF7CBFE0A4D4FF47A760446083D6D
:1011400007E000BFFFF7C2FE001BB04201D901203B
:1011500070BD2868C0438004F4D4002070BD000036
:101160000C48025810B500F04DFF05490968054AC2
:10117000C1F30211515C01F01F01C84010BD000015
:101180002044025874530008494930B5484C0B1D9F
:101190000A68143409681D68246802F00303C5F363
:1011A0000012C1F30531C4F3CC04002914FB02F290
:1011B00000EE102AF8EE400A75D03F4A9FED3D1A26
:1011C000B7EE000A6BB1DFED3D1A012B01D0022B07
:1011D00064D002EE101A1168F8EE422A81EEA22ABB
:1011E00021E0334C283C23689B0612D5344B2468FD
:1011F00001EE901A1168C4F3C104F8EE612AE340CD
:1012000001EE903AC1F30801F8EE611A81EEA22ACC
:101210000BE001EE901ADFED2B2A00BFF8EE611A09
:10122000116882EEA12AC1F3080101EE901A11683B
:10123000F8EE611A40EE811A71EE800A62EE200A21
:10124000C1F3462101EE101AB8EE411A31EE001A30
:10125000C0EE811ABCEEE11A80ED001A1168C1F3EC
:10126000064101EE101AB8EE411A31EE001AC0EE36
:10127000811ABCEEE11A80ED011A1168C1F3066112
:1012800001EE101AB8EE411A31EE000A80EE801A13
:10129000BCEEC10A80ED020A30BD04E001EE901AF6
:1012A000DFED092ABAE70021016041608160F3E7C0
:1012B0002844025800000039384402580024744A77
:1012C0000090D0030024744C20BCBE4B494930B57B
:1012D000484C0B1D0A681C3409681D68246802F01C
:1012E0000303C5F30022C1F30551C4F3CC04002964
:1012F00014FB02F200EE102AF8EE400A75D03F4AC5
:101300009FED3D1AB7EE000A6BB1DFED3D1A012BE0
:1013100001D0022B64D002EE101A1168F8EE422AB6
:1013200081EEA22A21E0334C283C23689B0612D58B
:10133000344B246801EE901A1168C4F3C104F8EE2E
:10134000612AE34001EE903AC1F30801F8EE611A18
:1013500081EEA22A0BE001EE901ADFED2B2A00BFEE
:10136000F8EE611A116882EEA12AC1F3080101EEBC
:10137000901A1168F8EE611A40EE811A71EE800A37
:1013800062EE200AC1F3462101EE101AB8EE411AAE
:1013900031EE001AC0EE811ABCEEE11A80ED001A9F
:1013A0001168C1F3064101EE101AB8EE411A31EE90
:1013B000001AC0EE811ABCEEE11A80ED011A116824
:1013C000C1F3066101EE101AB8EE411A31EE000ABF
:1013D00080EE801ABCEEC10A80ED020A30BD04E046
:1013E00001EE901ADFED092ABAE7002101604160A1
:1013F0008160F3E728440258000000394044025855
:101400000024744A0090D0030024744C20BCBE4BCE
:101410002DE9FE4F0546DFF800A450F8081B002414
:10142000FD4FC943019005F1280026460AF1240A20
:10143000009008011DD4686E50B1B0F5801F0CD02B
:10144000B0F5001F0ED0B0F5401F1ED001240FE0F4
:10145000386840F40030386017E00198022101F04C
:10146000F9FD03E00098022101F084FE04000CD095
:1014700026462888C043C00523D4A86D05281ED25F
:10148000DFE800F00C11161B1B006A6EDAF8001082
:1014900021F440111143CAF80010EAE7386840F41B
:1014A0000030386009E00198002101F0D3FD03E02D
:1014B0000098002101F05EFE0446C4B100E0012462
:1014C00026462888DFF85083C04308F12C084005E1
:1014D0002FD4D5F8A400B0F5C00F28D010DCB8B1D7
:1014E000B0F5001F19D0B0F5800F0FD11AE0AA6D2A
:1014F000DAF8001021F007011143CAF80010E0E704
:10150000B0F5000F13D0B0F5200F10D001240FE07C
:10151000386840F40030386009E00198002101F09B
:1015200099FD03E00098002101F024FE044694B1E7
:1015300026462888C043000530D4D5F8A800B0F16D
:10154000407F29D011DCC0B1B0F1807F1AD0B0F15A
:10155000007F10D11BE0D5F8A420D8F8001021F4AA
:1015600060011143C8F80010E3E7B0F1806F13D0B9
:10157000B0F1A06F10D001240FE0386840F40030C3
:10158000386009E00198002101F064FD03E0009853
:10159000002101F0EFFD044694B126462868DFF8EB
:1015A00078B2C0430BF1200B80011FD4E86CD8B196
:1015B00010280FD0202812D0302815D0012414E094
:1015C000D5F8A820D8F8001021F0E0611143C8F840
:1015D0000010E3E7386840F40030386004E0019818
:1015E000022101F037FD044674B126462888C04325
:1015F000C0042BD4E86DB0F5005F20D00DDCA0B1A5
:10160000B0F5805F0FD115E0EA6CDBF8001021F037
:1016100030011143CBF80010E8E7B0F5405F13D07C
:10162000B0F5804F10D001240FE0386840F400304E
:10163000386009E00198002101F00CFD03E00098FA
:10164000002101F097FD04468CB126462888C0434E
:10165000800429D4286EB0F5403F23D010DC08B3B5
:10166000B0F5803F14D0B0F5003F0FD115E0EA6D22
:10167000DAF8001021F4E0411143CAF80010E5E760
:10168000B0F5802F0ED0B0F5A02F0BD001240AE0CA
:101690000198012101F0DEFC03E00098012101F036
:1016A00069FD044694B126462888C04340042AD4E4
:1016B000D5F8AC00B0F1405F23D010DC08B3B0F136
:1016C000805F14D0B0F1005F0FD115E02A6EDAF818
:1016D000001021F4E0211143CAF80010E4E7B0F152
:1016E000804F0ED0B0F1A04F0BD001240AE001983A
:1016F000012101F0AFFC03E00098012101F03AFD67
:10170000044674B126462888C04300041FD4E86EFE
:10171000D8B1B0F1805F0ED0B0F1005F10D00124DD
:1017200014E0D5F8AC20D8F8001021F0E0411143C6
:10173000C8F80010E7E7386840F40030386004E08B
:101740000198012101F086FC044674B12646286800
:10175000C043C0011ED4A86CD0B101280ED002280D
:1017600011D0032814D0012413E0EA6EDAF8001037
:1017700021F040511143CAF80010E8E7386840F4FE
:101780000030386004E00198022101F063FC044657
:101790006CB126462868C043400255D41F480168F2
:1017A00041F480710160FFF791FB81460EE0AA6C65
:1017B000DBF8001021F003011143CBF80010E9E73A
:1017C000FFF784FBA0EB090064283BD813480068AE
:1017D000C005F5D5BCBBDFF84090B5F8B01009F1F5
:1017E0004409D9F8000001F4407100F440708842C7
:1017F00011D0D9F80010D9F8002021F4407142F43A
:101800008032C9F80020D9F8002022F48032C9F8CB
:101810000020C9F8001003E02C4402580048025888
:10182000D5F8B000B0F5807F19D1FFF74FFB0290DB
:1018300011E000BFFFF74AFB0299411A41F28830DC
:10184000814208D9032426462878DFF81494C0433F
:10185000C00721D03CE0D9F800008007EAD5D5F8D0
:10186000B010C1F301200328FE480DD0016821F417
:101870007C510160B5F8B020D9F80010C2F30B021A
:101880001143C9F80010DFE7F74A036802EA1112B2
:1018900023F47C511143ECE7A86F182816D005DC1F
:1018A000A0B1082808D0102804D10AE020280DD0C3
:1018B00028280BD001240AE00198012101F0CAFB7D
:1018C00003E00098012101F055FC044664B126466E
:1018D0002878C04380071ED4686F062819D2DFE835
:1018E00000F0160C11161616AA6FD9F8001021F088
:1018F00038011143C9F80010EAE70198012101F00D
:10190000A9FB03E00098012101F034FC04467CB1FE
:1019100000E0012426462878C04340071FD4D5F8AC
:101920009000062819D2DFE800F0160C11161616E2
:101930006A6FD9F8001021F007011143C9F80010AF
:10194000E9E70198012101F085FB03E000980121FE
:1019500001F010FC0446A4B100E0012426462878DA
:10196000C04380062BD4D5F88C00B0F1405F24D062
:1019700011DC10B3B0F1805F15D0B0F1005F10D171
:1019800016E0D5F89020D8F8001021F00701114397
:10199000C8F80010E3E7B0F1804F0ED0B0F1A04FCF
:1019A0000BD001240AE00198002101F053FB03E071
:1019B0000098022101F0DEFB044694B12646287807
:1019C000C04340062BD4D5F89800B0F5406F24D022
:1019D00011DC10B3B0F5806F15D0B0F5006F10D1E9
:1019E00016E0D5F88C20D9F8001021F0E041114321
:1019F000C9F80010E3E7B0F5805F0ED0B0F5A05F46
:101A00000BD001240AE00198002101F023FB03E040
:101A10000098022101F0AEFB044694B126462878D6
:101A2000C04300062BD4D5F89C00B0F5C04F24D09D
:101A300011DC10B3B0F5005F15D0B0F5804F10D1B8
:101A400016E0D5F89820D8F8001021F4E0511143A1
:101A5000C8F80010E3E7B0F5004F0ED0B0F5204F06
:101A60000BD001240AE00198002101F0F3FA03E011
:101A70000098022101F07EFB044654B126462878E6
:101A8000C04300071ED4D5F88000B0F5805F0AD0AF
:101A90000FE0D5F89C20D8F8001021F460411143E4
:101AA000C8F80010EBE70098022101F063FB00B1D9
:101AB0000126D5F88020D9F8001021F440511143B7
:101AC000C9F800102878C043C00613D4D5F8940094
:101AD000B0F5807F05D10098022101F04BFB00B1E9
:101AE0000126D5F89420D8F8001021F44071114354
:101AF000C8F800102868C043000316D4D5F8A00029
:101B000038B1B0F5803F09D0B0F5003F0BD00124CB
:101B10000AE00198002101F09DFA03E000980221FB
:101B200001F028FB04468CB126462868C0434003D8
:101B300022D4D5F88400B0F5801F11D0B0F5001F75
:101B400013D0B0F5401F15D0012414E0D5F8A02023
:101B5000D8F8001021F440311143C8F80010E4E730
:101B6000386840F40030386004E00098012101F04A
:101B700001FB04465CB126462868C043C0031CD460
:101B8000286D70B1B0F5803F10D0012414E0D5F875
:101B90008420D9F8001021F440111143C9F8001035
:101BA000EAE7386840F40030386004E00198022128
:101BB00001F050FA0446DCB126462868C043800094
:101BC00005D40098022101F0D5FA00B10126286859
:101BD000C04380031BD4E86FB8B1B0F5807F10D04C
:101BE000B0F5007F11D0B0F5407F0ED001240DE09C
:101BF0002A6DDBF8001021F480311143CBF800107E
:101C0000DBE7386840F4003038607CB3264628684B
:101C1000C043C00207D42A6FDAF8001021F0004157
:101C20001143CAF800102868C043800207D4AA6E86
:101C3000DAF8001021F080711143CAF8001028680A
:101C4000C043400009D40748016821F40041016005
:101C50000168D5F8B420114301602868C04306E04C
:101C60005444025810440258CFFFFF001DE007D42F
:101C70006A6DDBF8001021F040511143CBF80010E1
:101C80002868C043000208D4D5F88820D9F800108D
:101C900021F440011143C9F8001028790024C04301
:101CA00000F00100204309D00EE0EA6FD9F80010DF
:101CB00021F440711143C9F80010A8E701980021F0
:101CC00001F0C8F900B106462879C04300F00200CF
:101CD000204305D10198012101F0BCF900B106466D
:101CE0002879C04300F00400204305D10198022167
:101CF00001F0B0F900B106462879C04300F00800B1
:101D0000204305D10098002101F034FA00B10646C5
:101D10002879C04300F01000204305D1009801212C
:101D200001F028FA00B106462879C04300F02000EF
:101D3000044304D10098022101F01CFA00B916B145
:101D40000120BDE8FE8F0020FBE700002DE9F05FD9
:101D500004000F467ED0DFF83882D8F8000000F08B
:101D60000F00B8420CD2D8F8001021F00F0139430F
:101D7000C8F80010D8F8000000F00F00B84269D190
:101D80002078844D40070AD52069296801F0700148
:101D9000884204D9296821F0700101432960207824
:101DA0007C4E361D00070AD56069316801F070016C
:101DB000884204D9316821F07001014331602078F4
:101DC000C0060AD5A069316801F4E061884204D9EF
:101DD000316821F4E061014331602078DFF8B4B16B
:101DE00080060BF1080B0CD5E1695846DBF80020A2
:101DF00002F07002914204D9026822F070020A4394
:101E00000260207880070AD5E068296801F00F0198
:101E1000884204D9296821F00F0101432960207804
:101E2000C0073ED05B49A2682868183920F470606A
:101E3000104328606068022818D0032819D0096868
:101E4000012819D0490700294ADADFF848A1AAF188
:101E5000080A00E044E0DAF8002022F0070202431A
:101E6000CAF80020FFF732F8814612E009688903BA
:101E7000E9E709688901E6E7C905E4E7FFF726F81D
:101E8000A0EB090141F28830814202D90320BDE86C
:101E9000F09F6168DAF8000000F03800B0EBC10F85
:101EA000ECD1207880070AD5E068296801F00F019D
:101EB000884204D2296821F00F0101432960D8F833
:101EC0000010404601F00F01B9420BD9016821F022
:101ED0000F0139430160006800F00F00B84201D0E3
:101EE0000120D4E7207840070AD52069296801F04D
:101EF0007001884204D2296821F0700101432960F1
:101F0000207800070AD56069316801F070018842C5
:101F100004D2316821F07001014331602078C0069D
:101F20000AD5A069316801F4E061884204D23168C1
:101F300021F4E06101433160207880060CD5E1692D
:101F40005846DBF8002002F07002914204D2026889
:101F500022F070020A43026000F09AF80E492A68E3
:101F60002B68C2F3032203F00F038A5CC95C02F002
:101F70001F0201F01F01D040084A20FA01F1116050
:101F80000749086007480068BDE8F05FFEF7DABF60
:101F9000002000521844025874530008180000240E
:101FA000140000240C00002470B5144C3F22026081
:101FB000124A24680832131D114D04F007044460CE
:101FC00016681C1D06F470668660166806F00F061B
:101FD000C660126802F0700202611A6802F07002B4
:101FE00042611A6802F4E0628261226802F07002C3
:101FF000C261286800F00F00086070BD10440258EC
:102000000020005230B500F043F80B4A0B490C4B4E
:1020100015681468C5F3032204F00F048A5C095D97
:1020200002F01F0201F01F01D040064A20FA01F120
:1020300019601060084630BD1844025874530008F7
:10204000180000241400002400B5FFF7DBFF054949
:102050000968054AC1F30211515C01F01F01C84033
:1020600000BD00001C4402587453000800B5FFF77F
:10207000C9FF05490968054AC1F30221515C01F015
:102080001F01C84000BD00001C44025874530008E2
:10209000454970B545480968434B103B11F038027B
:1020A00008D00111082A03D0102A0BD0182A0BD00F
:1020B000084670BD19688906FBD51968C1F3C101CE
:1020C000C84070BD3A4870BD3749374D18310C1DB6
:1020D00024350A68096826682D6802F0030406F0B2
:1020E0000102C1F30511C5F3CC0515FB02F200EEA8
:1020F000102AB8EE400AE9B32F4ADFED2E0AB7EEF8
:10210000001A6CB1DFED2D1A012C01D0022C43D046
:1021100002EE101A1068F8EE422A81EEA22A1EE0A2
:102120001C68A40611D51B6801EE901A1168C3F350
:10213000C103F8EE612AD84001EE900AC1F308000D
:10214000F8EE611A81EEA22A0BE001EE901ADFEDA3
:102150001C2A00BFF8EE611A106882EEA12AC0F3B3
:10216000080001EE900AF8EE611A40EE201A31EEF6
:10217000810A00E015E022EE000A1068C0F3462054
:10218000401C00EE900AF8EE600A80EE201ABCEEC9
:10219000C10A10EE100A70BD01EE901ADFED092A97
:1021A000D8E7002070BD0000104402580090D00312
:1021B00040787D0100000039304402580024744A00
:1021C0000024744C20BCBE4B2DE9F05F04007DD090
:1021D000FF4F2078FE4D1837DFF8F483103DC0071D
:1021E00048D0D8F80000396800F03800102815D021
:1021F000182803D101F0030002280FD06068B0F561
:10220000803F12D010B1B0F5A02F18D0286820F46C
:1022100080302860286820F4802009E02868800346
:1022200028D560680028D2D024E0286840F48030A7
:102230002860606888B1FEF749FE064609E0286814
:1022400040F480202860F0E7FEF740FE801B642801
:102250007ED828688003F7D50CE0FEF737FE0646E7
:1022600005E000BFFEF732FE801B6428F0D8286826
:102270008003F7D42078800756D5D8F80000DFF81F
:102280005093396810F03800A9F10C090ED01828C5
:1022900001D188070AD0E068A8B3296821F01901A4
:1022A00001432960FEF712FE064628E02868400731
:1022B00002D5E06800288AD0E168286820F019007B
:1022C00008432860FEF702FE064606E0D2E000BFA3
:1022D000FEF7FCFD801B0228BAD828684007F7D516
:1022E000217CD9F8002022F0FE4242EA0161C9F8BF
:1022F000001019E0FEF7EAFD801B0228A8D8286824
:102300004007F7D5ECE7FFE7286820F001002860D8
:10231000FEF7DCFD064604E0FEF7D8FD801B022830
:1023200096D828684007F7D42078C00646D5D8F854
:102330000000DFF89C92396800F03800A9F1040928
:10234000082812D0182805D101F00300012800E068
:10235000CEE00AD0E0690028286820D040F0800054
:102360002860FEF7B3FD064615E02868C00502D5D3
:10237000E06980287ED194F82010D9F8002022F05E
:102380007C5242EA0161C9F8001017E0FEF79EFD99
:10239000801B0228A0D82868C005F7D5EBE720F0FD
:1023A00080002860FEF792FD064604E0FEF78EFDF1
:1023B000801B022890D82868C005F7D42078000731
:1023C00029D583486169643000298146016811D0AC
:1023D00041F001010160FEF779FD064605E000BF0E
:1023E000FEF774FD801B022888D8D9F8000080070A
:1023F000F6D510E021F001010160FEF767FD064609
:1024000005E000BFFEF762FD801B022870D8D9F8F6
:1024100000008007F6D42078800623D5A069002824
:10242000286810D040F480502860FEF74FFD064623
:1024300005E000BFFEF74AFD801B022858D8286837
:102440008004F7D50EE020F480502860FEF73EFDB2
:10245000064604E0FEF73AFD801B022848D82868AB
:102460008004F7D42078400751D5DFF86891D9F877
:10247000001000E015E141F48071C9F80010FEF78A
:1024800025FD064605E000BFFEF720FD801B642801
:102490002ED8D9F80000C005F6D54D4EA06860369C
:1024A00001280AD008B1052813D0306820F00100B7
:1024B0003060306820F0040002E0306840F0010035
:1024C0003060A06841F2883A98B1FEF7FFFC81467F
:1024D0000AE0306840F004003060EEE7FEF7F6FCFA
:1024E000A0EB0901514503D830688007F6D50EE00E
:1024F00072E0FEF7EBFC814606E000BFFEF7E6FC6B
:10250000A0EB0901514567D830688007F6D4606AAE
:1025100000287CD0DFF8B8A0D8F800100AF1200A13
:102520004FF6F87B0AF10408C1F3C2010329AAF1AE
:1025300004096DD00228286820F08070286003D03C
:10254000FEF7C4FC044681E0FEF7C0FC064604E04A
:10255000FEF7BCFC801B022875D828688001F7D4E0
:10256000E26A40F2F331386854F8283F884340EA81
:10257000021018433860217B4FF4FE0C22894FF083
:10258000FE47208A4902267D521E401EA1F5007199
:1025900089B2C2F308021143761E0CEA00400143DF
:1025A000484607EA06621143CAF80010D9F800103D
:1025B00021F00101C9F80010D8F80030266A23EA9A
:1025C0000B0343EAC601C8F80010D9F8001004E074
:1025D000104402580048025835E0A26921F00C016D
:1025E0001143C9F800100168E26921F002011143AA
:1025F0000160016841F480310160016841F40031FB
:102600000160016841F480210160016801E06CE033
:1026100020E041F001010160286840F080702860EE
:10262000FEF754FC044604E0FEF750FC001B0228B1
:1026300009D828688001F7D557E000BFFEF746FCAF
:10264000001B022802D90320BDE8F09F2868800102
:10265000F4D44AE039680128DAF8000021D0A26AEF
:1026600001F0030393421CD1E26AC1F305118A42CF
:1026700017D1216BC0F30802491E8A4211D1616B48
:10268000C0F34622491E91420BD1A16BC0F3064212
:10269000491E914205D1E16BC0F30660491E81429B
:1026A00001D00120D0E7A16C4646D8F80000C0F365
:1026B000CC00814219D0D9F800004D4620F001002D
:1026C000C9F80000FEF702FC4FEA0007FEF7FEFB28
:1026D000B842FBD0A26C306820EA0B0040EAC2008E
:1026E0003060286840F0010028600020ACE77047A7
:1026F00070477047F0B590F83C20012A41D0224E37
:10270000012480F83C40022280F83D2002681F4DE1
:102710005368B242D2F808C001D0AA4203D14F6830
:1027200023F470033B430F6823F070031F4357608B
:102730000268B24219D0B2F1804F16D0144B9A42BF
:1027400013D0144B9A4210D0134B9A420DD0AA4288
:102750000BD0124B9A4208D0114B9A4205D0114B24
:102760009A4202D0104B9A4204D189682CF080031F
:1027700019439160002180F83D4080F83C100846E4
:10278000F0BD0220F0BD0000000001400004014047
:102790000004004000080040000C00400018004009
:1027A0000040014000E0004000E4004010B504009B
:1027B00003D094F83D0010B107E0012010BD0020C7
:1027C00084F83C00204600F023F8022084F83D0005
:1027D0002068211D00F02EFE012084F8480084F8B6
:1027E0003E0084F83F0084F8400084F8410084F8FB
:1027F000420084F8430084F8440084F8450084F8DB
:10280000460084F8470084F83D00002010BD000019
:1028100008B500680949884201D1094804E0B0F1CF
:10282000804F09D106480838016841F00101016074
:10283000006800F00100009008BD000000000140A9
:10284000F044025890F83D10012901D00120704752
:102850001A4A022180F83D100168CB6843F0010359
:10286000CB60006890421AD0B0F1804F17D0144965
:10287000884214D01349884211D0134988420ED09F
:10288000124988420BD01249884208D01149884227
:1028900005D01149884202D01049884207D1816889
:1028A0000F4A1140062906D0B1F5803F03D00168D8
:1028B00041F001010160002070470000000001406C
:1028C0000004004000080040000C004000040140EB
:1028D000001800400040014000E0004000E40040DB
:1028E0000700010070B5044690F83C00002501285F
:1028F00014D03A4B012684F83C60022084F83D0055
:1029000022689068184020F47F4090600868702822
:102910002FD010DC10F00F0F03D022E04FF0020098
:1029200070BD4FEA2012072A1BD2DFE802F0535392
:1029300053534B394100B0F1101F4BD009DCB0F5B7
:10294000805F0FD0B0F5005F1ED0B0F5801F08D1BA
:1029500040E0A0F5801120393CD010293AD0202940
:1029600038D0012584F83D60002084F83C002846DA
:1029700070BD4A682068D1E9021300F0CBFD2068E1
:10298000816841F0770109E04A682068D1E90213C3
:1029900000F0C0FD2068816841F480418160E1E77A
:1029A000CA684968206800F0C9FD2068502106E027
:1029B000CA684968206800F0EFFD2068602100F0D7
:1029C000B3FDCFE7CA684968206800F0B7FD20680A
:1029D0004021F4E7226801461046F0E788FFCEFF69
:1029E00070472DE9F041044600680027C668056974
:1029F000A90713D5B10711D5FA1E0261012121776C
:102A0000206880698007204602D0FFF7E9FF04E0D4
:102A100000F08BF8204600F089F82777680716D574
:102A2000700714D5226802206FF00401116120772D
:102A30002068806910F4407F204602D0FFF7D0FF65
:102A400004E000F072F8204600F070F827772807BD
:102A500015D5300713D5226804206FF008011161E5
:102A600020772068C0698007204602D0FFF7B8FFB2
:102A700004E000F05AF8204600F058F82777E806FE
:102A800016D5F00614D5226808206FF010011161E8
:102A900020772068C06910F4407F204602D0FFF7FD
:102AA0009FFF04E000F041F8204600F03FF8277750
:102AB000E80708D0F00706D021686FF00100086130
:102AC000204600F035F8280601D4A80408D53006C1
:102AD00006D521686FF4025008612046FFF708FE12
:102AE000E80508D5300606D521686FF480700861C6
:102AF0002046FFF7FCFD680608D5700606D521685C
:102B00006FF040000861204600F01CF8A8060AD5C6
:102B1000B00608D521686FF0200008612046BDE8A6
:102B2000F041FFF7E6BDBDE8F08170477047000057
:102B300000680349884201D1FEF7CEB97047000012
:102B400000200040704730B590F88410012918D05B
:102B5000012280F884202421C0F88810002220243B
:102B600001680B680D6823F0005325F001050D6026
:102B7000426601680B60C0F8884080F884201046E7
:102B800030BD022030BD70B5044690F884000128A5
:102B90001DD0012284F884202420C4F888002068F5
:102BA0000568026822F0010202602068826822F053
:102BB00060620A438260204600F00EFD22682021F8
:102BC00000201560C4F8881084F8840070BD0220CD
:102BD00070BD70B5044690F8840001281DD0012214
:102BE00084F884202420C4F88800206805680268DE
:102BF00022F0010202602068826822F060420A43EB
:102C00008260204600F0E8FC226820210020156048
:102C1000C4F8881084F8840070BD022070BD10B51F
:102C2000040003D0D4F8880010B107E0012010BDE3
:102C3000002084F88400204600F026F82420C4F800
:102C400088002068016821F001010160A06A10B1CC
:102C5000204600F0E3FC204600F0C4FD0128E6D049
:102C60002068416821F4904141602068816821F02A
:102C70002A0181602068016841F00101016020465D
:102C8000BDE8104000F02EBD10B5B4B004461421CC
:102C90002EA8FDF707FDB8216846FDF703FD194989
:102CA000206888422BD100201D9002210446CDE9E6
:102CB00000106846FEF7ACFB08B1FDF758FD12485E
:102CC000016841F480210160006800F480203390A5
:102CD0000D480838016841F00201016000682EAB20
:102CE000022100F0020033904FF44060072283E895
:102CF000130006482EA9CDE93142FDF7D5FF34B0C7
:102D000010BD000000480040E8440258000402588A
:102D1000FEE710B54FF00004EFF3058048B902F06C
:102D2000E5F8012806D0EFF3108010B9EFF3118019
:102D300000B10124204610BD1648002110B5144CE6
:102D400001220423046010248160C1600174417475
:102D50008174C0E90542C261026242628262C2625B
:102D6000C0E90C218163C163C0E91013C0E91213EB
:102D7000C0E914138165C1650166C0E91913FDF747
:102D8000EBFD002803D0BDE81040FDF7F0BC10BDFE
:102D900000A000409C0000241648002110B5144CEF
:102DA00001220423046010248160C1600174417415
:102DB0008174C0E90542C261026242628262C262FB
:102DC000C0E90C218163C163C0E91013C0E912138B
:102DD000C0E914138165C1650166C0E91913FDF7E7
:102DE000BBFD002803D0BDE81040FDF7C0BC10BDFE
:102DF00000A400403C0100241648002110B5144CEA
:102E000001220423046010248160C16001744174B4
:102E10008174C0E90542C261026242628262C2629A
:102E2000C0E90C218163C163C0E91013C0E912132A
:102E3000C0E914138165C1650166C0E91913FDF786
:102E40008BFD002803D0BDE81040FDF790BC10BDFD
:102E500000D40040DC010024044A0021044810B5DD
:102E600000F094FF0349086010BD0000CC52000838
:102E70009532000800000024154808B5016841F0AB
:102E800004010160016801F004010091016841F052
:102E900020010160016801F020010091016841F00A
:102EA00080010160016801F080010091016841F03A
:102EB00002010160016801F002010091016841F026
:102EC00001010160006800F00100009008BD0000F1
:102ED000E044025810B588B0184800244FF6FF723D
:102EE0001549009401940294039404940594069463
:102EF000C0E90014C0E90242046144618461FFF743
:102F000055FC08B1FDF733FC4FF4805000900B489E
:102F10006946FFF7E7FC08B1FDF729FC074804A95B
:102F2000049405940694FFF7E5FB002801D0FDF713
:102F30001EFC08B010BD0000000001407C0200240F
:102F400010B588B016480024621E00944FF08041EE
:102F5000019402940394049405940694C0E9001427
:102F6000C0E9024204618461FFF720FC08B1FDF76B
:102F7000FEFB4FF48050009009486946FFF7B2FC11
:102F800008B1FDF7F4FB064804A904940694FFF782
:102F9000B1FB002801D0FDF7EAFB08B010BD00002E
:102FA000C80200241848002110B5164C0C224FF41A
:102FB000E1330460C0E90131C160C0E904128161FC
:102FC000C161016241628162FFF729FE08B1FDF72C
:102FD000CEFB0D480021FFF7FCFD08B1FDF7C7FB54
:102FE00009480021FFF7CFFD08B1FDF7C0FB0648F7
:102FF000FFF7A9FD002803D0BDE81040FDF7B7BBDF
:1030000010BD00000048004014030024FEE7FEE766
:1030100070B5AEB0B8216846FDF744FB002302202E
:1030200020244FF400428DE81C007825CDE90350A0
:103030004026059006900207CDE90763684609938C
:103040001B92FEF7E5F9002801D072B6FEE72EB01C
:1030500070BD00002DE9F047454D044689464FF00C
:10306000000A2868C04380070AD0414E283E3068D5
:1030700020F080603060FDF729FF0746B04608E089
:103080000120BDE8F08700BFFDF720FFC01B02282C
:1030900067D8D8F800000001F6D4206829684FF4FA
:1030A000FE0721F47C313E0241EA00302860207A9C
:1030B000A389B4F804C040022D4D2D495B1E227C2B
:1030C000ACF1010C1035091DA0F5007080B2521E44
:1030D000CCF3080C07EA034340EA0C00184306EA65
:1030E0000262104328600868626920F0C000104343
:1030F00008600A68A06922F0200202430A60281DC5
:103100000A6822F010020A6002684FF6F873E46958
:103110009A4342EAC40202600868B9F1000F40F025
:1031200010020A6011D00868B9F1010F11D040F403
:1031300000100860D8F80000444640F08060C8F8ED
:103140000000FDF7C3FE05460DE0086840F40020CE
:10315000EFE740F48010ECE7FDF7B8FE401B0228D3
:1031600001D903208DE720680001F5D5504688E796
:10317000284402582DE9F047454D044689464FF052
:10318000000A2868C04380070AD0414E283E3068B4
:1031900020F080503060FDF799FE0746B04608E009
:1031A0000120BDE8F08700BFFDF790FEC01B02289C
:1031B00067D8D8F800008000F6D4208829684FF43A
:1031C000FE0721F07C713E0241EA00502860207A1F
:1031D000A389B4F804C040022D4D2D495B1E227C0A
:1031E000ACF1010C1835091DA0F5007080B2521E1B
:1031F000CCF3080C07EA034340EA0C00184306EA44
:103200000262104328600868626920F4406010433D
:1032100008600A68A06922F4007202430A60281D4F
:103220000A6822F480720A6002684FF6F873E46953
:103230009A4342EAC40202600868B9F1000F40F400
:1032400080720A6011D00868B9F1010F11D040F006
:1032500080700860D8F80000444640F08050C8F8FC
:103260000000FDF733FE05460DE0086840F48000DD
:10327000EFE740F40000ECE7FDF728FE401B0228D2
:1032800001D903208DE720688000F5D5504688E7F6
:1032900028440258012000F030FDFBE74FF0E02009
:1032A00010B5006901F022FE012803D0BDE81040EE
:1032B00001F042BC10BD0000F0B59DB04C21684645
:1032C000FDF7F0F9202113A8FDF7ECF90220FDF736
:1032D0001FFF1E48016821F440410160016800247D
:1032E00001F440411B9101688904FCD5402502206E
:1032F000009001222223CDE9032504210D92CDE97E
:103300000B13CDE909040C26CDE90E1037026846EF
:10331000CDE910641297FEF757FF08B172B6FEE7C9
:1033200008221A95CDE91625D30113AA3F200321BF
:10333000CDE9185382E8130013A8FEF707FD002813
:1033400001D072B6FEE71DB0F0BD0000184802586B
:103350002D48F0B52D4A016841F4700101601068F4
:1033600000F00F00072804D2106820F00F00C01DE5
:10337000106027490020264C10340B68254D43F07F
:1033800001030B6020600B682B400B60136803F097
:103390000F03072B04D9136823F00F03DB1D136001
:1033A0001B4C1D4A18341D4B261D371D2060184C20
:1033B0001B4D28343060261D3860371D23603B1DAF
:1033C00035601C1D3A60251D2E1D1860331D2260BE
:1033D0002860326018600B680D4A0D4C23F480237E
:1033E000D4320B60603420601068C0040BD41368C2
:1033F00043F2D2000B4943F4805313600860106815
:1034000020F480501060F0BD88ED00E000200052F4
:10341000004402587FEDF6EA800201010002020238
:103420000000FF01004000520148FFF7DABA000037
:10343000A80300242DE9F0472C4B4FF0804A2C4D77
:10344000026898422B4E2C4F2C4C09D0504507D087
:10345000A84205D0B04203D0B84201D0A04205D165
:10346000D1F804C022F070024CEA0202DFF890C0EA
:10347000DFF890809842DFF8909015D0504513D037
:10348000A84211D0B0420FD0B8420DD0A0420BD00C
:10349000604509D0404507D0484505D01B4DA8429E
:1034A00002D01B4DA84203D1CD6822F440722A43BA
:1034B0008E684D6922F08002C6620E682A439842E7
:1034C000866207D0A04205D0604503D0404501D0B8
:1034D000484501D1096901630368012143F00403F0
:1034E000036041610260BDE8F08700000000014018
:1034F0000004004000080040000C004000040140AF
:1035000000400140004401400048014000E000400C
:1035100000E4004042EA032283680A4323F47F4127
:103520000A43826070470000034B82681A400A43D6
:1035300042F00701816070478FFFCFFF30B5114C1B
:10354000036A056AA04225F0010404620BD00E4C08
:10355000A04208D00D4CA04205D00D4CA04202D094
:103560000C4CA04203D1046A24F004040462846970
:1035700023F00A030B4324F0F00444EA02118161B2
:10358000036230BD000001400004014000400140E2
:10359000004401400048014030B50D4C036A056A03
:1035A000A04225F01004046202D00A4CA04203D1CC
:1035B000046A24F040040462846923F0A00343EA0F
:1035C000011124F4704444EA02328261016230BD88
:1035D000000001400004014030B5416EB9B10168FE
:1035E0000D4B03F108048A688968C2F34262490FEF
:1035F0005D5C615C2D01B5FBF1F1A0F86A10995C8E
:10360000A25C0901B1FBF2F1A0F8681030BD012104
:10361000A0F86A10F8E700006453000890F828103A
:10362000090706D50168836B4A6822F400421A43F1
:103630004A6090F82810C90706D00168C36A4A6832
:1036400022F400321A434A6090F82810890706D500
:103650000168036B4A6822F480321A434A6090F88A
:103660002810490706D50168436B4A6822F4802276
:103670001A434A6090F82810C90606D50168C36B42
:103680008A6822F480521A438A6090F828108906CA
:1036900006D50168036C8A6822F400521A438A60D6
:1036A00090F82810490611D50168436C4A6822F445
:1036B00080121A434A60416CB1F5801F06D101683F
:1036C000836C4A6822F4C0021A434A6090F82810BA
:1036D000090606D50168C26C486820F40020104332
:1036E000486070472DE9F84300250446C0F8905023
:1036F000FDF7ECFB8046206820266FF07E470068CF
:10370000000713D50022434631042046009700F0FD
:1037100057FA58B1216851E8000F20F0800041E8C5
:103720000002002AF6D1C4F8886021E02068006811
:10373000400722D5002243464FF4800120460097DF
:1037400000F03EFAC8B1206850E8001F21F49071E3
:1037500040E80012002AF6D12068083050E8001F27
:1037600021F0010140E80012002AF5D1C4F88C6074
:10377000032084F88450BDE8F883C4F88860C4F856
:103780008C60E5662567002084F88450F3E700002C
:1037900010B5026852E8001F21F4907142E800134E
:1037A000002BF6D10E4B0268083252E8001F194078
:1037B00042E80014002CF6D1C16E012908D102683C
:1037C00052E8001F21F0100142E80013002BF6D14F
:1037D00000212022C0F88C20C166416710BD000086
:1037E000FEFFFFEF2DE9F04304468068E24E87B00C
:1037F000E24B2168D4E90427D4F81CC010430A68BE
:10380000002547EA0C073843324002430A6020682B
:10381000E268416821F44051114341602268A16986
:103820009A4201D0206A01439668DFF854C3D54F0D
:10383000D54806EA0C060E4396602168666ACA6A95
:1038400022F00F023243CA622268BA420ED10068E7
:1038500000F0380018286FD07ADCB8B308286CD094
:1038600010286BD18BE0282868D18EE0C7498A42A6
:1038700009D1006800F0070006285FD2DFE800F0F9
:10388000507D7F818385C2498A4209D1006800F05A
:10389000070006287BD2DFE800F043707274767868
:1038A000BC498A4209D1006800F0070006286ED2A0
:1038B000DFE800F036636567696BB7498A420BD170
:1038C000006800F00700062861D200E043E0DFE86E
:1038D00000F0275456585A5CB0498A4206D1006815
:1038E00000F0380018284CD0B7DD31E0AC498A42EE
:1038F00009D1006800F00700062848D2DFE800F090
:10390000103D3F414345A7498A420BD1006800F072
:10391000070006283BD2DFE800F0033032343638A7
:10392000002035E0A0498A4209D1006800F0380043
:10393000182826D091DD0BE023E01EE027E09B490C
:103940008A420AD1006800F03800182819D084DDB6
:10395000202888D11CE001201AE09A4217D18A4819
:10396000001D006800F00700062810D2DFE800F014
:10397000030507090B0D02200AE0042008E00820D7
:1039800006E0102004E0202002E0402000E080203B
:103990008749DFF820829A42874A4FF400434FEA72
:1039A00021174FF000064ED110281AD006DC02284D
:1039B00009D004280BD008287ED10DE020283ED065
:1039C000402879D13DE0FDF7CDFB014610E0684687
:1039D000FDF7DAFB01990BE003A8FDF777FC0499EA
:1039E00006E01068800605D51068C0F3C100C1402C
:1039F000002970D0606A676838F8102007EB470329
:103A0000B1FBF2F0834257D8B0EB073F54D8002304
:103A100008461946FCF72EFD02467808130E1202DE
:103A200043EA012110183A4671410023FCF722FDB8
:103A3000624AA0F5407191423ED821688FE0394634
:103A4000D8E71946D6E7D4F81CC04FF6EF799C4565
:103A500046D1082819D005DC58B101280CD004281B
:103A600075D10DE0102815D0202835D040286ED112
:103A700034E0FEF7E9FA01E0FEF7F8FA014610E05B
:103A80006846FDF781FB01990BE003A8FDF71EFCDA
:103A9000049906E01068800604D51068C0F3C100E0
:103AA000C140C1B1636A606838F81330B1FBF3F10B
:103AB000490001EB500100E049E0B1FBF0F0A0F15A
:103AC0001001494543D84FF6F0732168C0F3420214
:103AD0001840104343E043E03946E3E71946E1E785
:103AE000082819D005DC58B101280CD004282ED1A3
:103AF0000DE0102815D020282BD0402827D12AE00F
:103B0000FEF7A2FA01E0FEF7B1FA014610E06846BE
:103B1000FDF73AFB01990BE003A8FDF7D7FB0499E9
:103B200006E01068800604D51068C0F3C100C140EB
:103B3000B1B1636A606838F81330B1FBF3F101EB9F
:103B40005001B1FBF0F0A0F11001494505D9012564
:103B500006E03946EDE71946EBE7216880B2C86018
:103B60000120A4F86A00A4F8680028466667A667E2
:103B700007B0BDE8F0830000F369FFCF000C0058E8
:103B8000FFF4FF110010014054440258004400406B
:103B900000480040004C004000500040001401402C
:103BA00000780040007C004000180140001C0140EB
:103BB0000090D0034C53000800440258FFFC0F0053
:103BC0002DE9F047994617460D460446089E4FF0EA
:103BD000000833E0701C31D0FDF778F9A0EB090044
:103BE000B04218D8BEB120680168490726D5802D9B
:103BF00024D0402D22D0C169C94309070DD408251E
:103C000005622046FFF7C4FDC4F89050012084F8F7
:103C10008480BDE8F0870320FBE7C069C04300054E
:103C20000CD421684FF4006008622046FFF7B0FD15
:103C30002021C4F8901084F88480ECE72068C069E3
:103C400035EA000004D00020B842C3D00020E0E7ED
:103C50000120F9E7FEE7090700284FEA116104DBBC
:103C600000F1E02080F80014704700F00F0000F130
:103C7000E02080F8141D70471FB5002400940194C3
:103C800002940394FDF7D2F901208DF80C001F2156
:103C90008DF8081087228DF809208DF80D008DF819
:103CA000000068468DF80A408DF80E408DF80140FE
:103CB00001948DF80B408DF80F40FDF789F9042031
:103CC000FDF7C2F9FDF710F9FFF7F6FAFFF7A0F9D3
:103CD000FFF7D2F8FFF730F8FFF75EF8FFF78CF840
:103CE000FFF7F8F8FFF72CF9FFF75CF900F016F88A
:103CF000FFF7B2F800F02AF8FEE770B50546FFF7C7
:103D000008F810B16FF0050405E04FF0000415B19C
:103D1000284600F0A1FD204670BD000010B5FEF75A
:103D2000F8FF10B16FF0050010BD01F0DFF80128B9
:103D300002D10549086810B14FF0FF3010BD0122D3
:103D40000A60002010BD00007000002410B5FEF7CE
:103D5000E0FF10B16FF0050010BD01F0C7F80128B9
:103D600003D108480168012902D04FF0FF3010BD8F
:103D7000054A002182F8141D0221016000F0E0FDD7
:103D8000002010BD700000240BE000E02DE9FF4191
:103D9000002514460F4606460395FEF7BAFF60BBA2
:103DA0005EB34FF080024FF018004FF000014CB3AB
:103DB000236803B11946A3691BB118465B1E382B53
:103DC00002D22379DB0703D0002004B0BDE8F081E4
:103DD000636903B19A08D4F808C0BCF1000F0DD094
:103DE000E5685C2D19D324693CB133B18DE811101D
:103DF0003B46304601F040F803900EE0E36863B9BB
:103E0000236953B903AB92B2CDE900033B46304678
:103E100001F002F8012800D003950398D5E70000CF
:103E20002DE9F0411A4C0F460546E6682068001D52
:103E300000F0FEFB681C15D1A7B11649226848683E
:103E4000906023688268DA6022688368121D5A6075
:103E50002268121D8260206841610868401C086069
:103E6000BDE8F08120683544B5424560216805D23F
:103E7000E06B091DBDE8F04100F014BCA06B091D0A
:103E800000F010FCA06A8542EAD2A562E8E70000D3
:103E90001C000024E40800242DE9F041054600F050
:103EA00019FC354C354FA068401CA060206810B14B
:103EB000606930B32BE02560A068012827D1002677
:103EC00006EB860007EB800000F0DEFB761C382E48
:103ED000F6D32B4800F0D8FB2948143000F0D4FB6F
:103EE0002748283000F0D0FB25483C3000F0CCFBC0
:103EF0002348503000F0C8FB2148A0631430E06331
:103F000005E0E86A2168C96A814200D82560606AD4
:103F1000401C60626864E86A2169884200D92061B7
:103F200000EB8000291D07EB80004068A8608268D4
:103F3000EA60826851608160E86A00EB800007EB0C
:103F40008001696157F82010491C47F8201000F0E3
:103F5000E1FB606900280CD02068E96AC06A8842E9
:103F600007D208494FF080500860BFF34F8FBFF36E
:103F70006F8FBDE8F08100001C0000243404002491
:103F80009408002404ED00E038B500F0A3FB104CC9
:103F90002068C8B90F4800F077FB0E48143000F0D5
:103FA00073FB0C490020E16014312161A1F582739B
:103FB0000090A1F1B40210210A2000F0D3FD20608E
:103FC00010B105A100F0FEFBBDE8384000F0A2BB37
:103FD0005C000024E8090024546D725100000000C8
:103FE00030B4026C0B46002A0BD0D0E902411144D8
:103FF000C160A14201D30168C160184630BCFCF722
:10400000B0BA30BC704710B5044690F8590058B1AA
:1040100001280CD002280FD0502080F31188BFF364
:104020004F8FBFF36F8FFEE7206B00F087FB2046BA
:10403000BDE8104000F082BB10BD00000F484FF4F7
:10404000705110B5420706D00C49C01D20F0070082
:10405000411AC1F570510A4C002201440839A4F1FB
:10406000140321F00701C4E900020C1A19604A6028
:104070000A60C0E900149C605C6010BDC810002498
:1040800088000024144E4FF08058144CDFF85090F4
:10409000A6F29C4712E000BF00F01CFBF068C56868
:1040A000281D00F0C5FAA068401EA0606068401E90
:1040B000606000F02FFB2846FFF7A5FF606800282E
:1040C000EAD138680128F9D9C9F80080BFF34F8FC9
:1040D000BFF36F8FF2E70000D00800241C0000241B
:1040E00004ED00E070B51D46049C51B1C4F80020F9
:1040F000C4E90F010121204600F058FD84F84C501E
:1041000070BD2460F4E72DE9F0470D469946910013
:104110001746DDE90984089EA5228246206BFCF73C
:1041200097FA206B6FF0030101EB8701084420F040
:104130000707780707D0502080F31188BFF34F8F0F
:10414000BFF36F8FFEE765B100202218295C82F86B
:104150003410295C11B1401C1028F6D3002084F8DB
:104160004300382E07D3502080F31188BFF34F8FC0
:10417000BFF36F8FFEE7E662201DE66400F08FFA62
:1041800004F1180000F08BFA2461C6F13800646273
:104190004A465146A061384600F032FAB8F1000FA5
:1041A000206001D0C8F80040BDE8F08730B5114963
:1041B00000E011460A688242FBD34B685C188442D7
:1041C00003D14468084623444B6043681D18954258
:1041D00009D1084C143C2468A24209D052681A4400
:1041E00042600A6812680260814200D0086030BDF7
:1041F0000460F9E78800002470B50D4D91424160DC
:104200004FF00004006106D88169D21A8A4206D2B2
:10421000011D286907E09A4203D2994201D3012483
:1042200003E0011DE86800F03DFA204670BD000083
:104230005C00002410B5044600F04CFAA06B28B1D5
:104240005FF0000400F066FA204610BD0124F9E793
:1042500070B506460D480D46C068C068C468201D8C
:1042600000F0E6F994F82800410705D52A463146C2
:10427000204600F0BBF803E000F0FE0084F82800C0
:10428000216A2046BDE87040084700005C00002419
:1042900070B53A4E86B067E00098002806DA019AB9
:1042A000DDE902019047009800285DDB029C60690F
:1042B00010B1201D00F0BCF904A800F0B9F80546C3
:1042C00000980A2850D2DFE800F04F0505282B435C
:1042D0000505282B94F828002A4640F0010084F8B0
:1042E0002800A1690198014403462046FFF784FF96
:1042F00028B394F82800410707D501982A46A169F8
:104300000144204600F072F803E000F0FE0084F85B
:104310002800216A2046884726E094F828001FE0FC
:1043200094F8280040F0010084F828000198A0616A
:1043300030B141192B461A462046FFF75DFF13E0C6
:10434000502080F31188BFF34F8FBFF36F8FFEE7CC
:1043500094F82800810703D4204600F0EFF903E029
:1043600000F0FE0084F8280030680022694600F062
:104370007BFC002890D106B070BD00005C000024DA
:10438000F8B50D46064600F01DFB684600F050F8F3
:104390000446009810B100F0C3FEF8BD1148ADB15D
:1043A00001690968D9B100250068311B2A4600F06F
:1043B00031FA00F0B5FE0028EFD10B494FF08050E4
:1043C0000860BFF34F8FBFF36F8FF8BDA642EBD8E5
:1043D00000F0A6FE21463046FFF73AFFF8BD012562
:1043E000E2E700005C00002404ED00E070B5164632
:1043F0000C46054604E0A869296A04442846884713
:10440000A8692346324601192846FFF7F5FE002821
:10441000F1D170BD0548816B096821B1816BC96814
:104420000968816270474FF0FF31FAE71C000024F1
:104430002DE9F041064600F067FD0E4C0546A068E8
:10444000854214D24FF0FF3704E0C0683946006857
:10445000FFF7FEFEE06801680029F6D12169C4E992
:104460000310012030602846A560BDE8F0810020DF
:10447000F8E700005C00002408484068401C4FF04A
:10448000500080F3118804D0BFF34F8FBFF36F8FBC
:10449000FEE7BFF34F8FBFF36F8FFEE7900000245E
:1044A000074CE068016841B1C0680021D0F8000005
:1044B000FFF766FFFFF7ECFEF3E701210020F7E7C7
:1044C0005C0000242DE9F041044600F003F994F962
:1044D000455004F1240609E0606A48B1304600F016
:1044E000B1FD08B100F0E6F96D1E6DB2002DF3DCF0
:1044F0004FF0FF3684F8456000F00CF900F0EAF860
:1045000094F9445004F1100709E0206948B1384695
:1045100000F098FD08B100F0CDF96D1E6DB2002DD0
:10452000F3DC84F84460BDE8F04100F0F3B800002B
:104530002DE9F0410027044600F044FA2F4E306880
:1045400008B9FFF77BFDACB314F1090F47D8083465
:10455000600707D004F00700C0F10800C1438C4297
:104560003DD80444002C3ADD7068844237D8234893
:10457000143001460D6801E028460D466968A142E5
:1045800002D229680029F7D131688D4227D0076807
:104590002968016008376868011B10290FD928199C
:1045A000420708D0502080F31188BFF34F8FBFF32C
:1045B0006F8FFEE713E041606C60FFF7F7FD6968FD
:1045C0007068401A7060B268904200D2B06041F0EA
:1045D00000410020C5E90001F068401CF06000F0D7
:1045E0009FFD780707D0502080F31188BFF34F8FCD
:1045F000BFF36F8FFEE73846BDE8F08174000024FA
:1046000070B5041F094E231F4FF0807521F0010182
:1046100025601C1F1960A0F120010B1F2660443883
:104620000A606FF002051D6070BD0000794400084B
:10463000D0E9013201699A60D0E901235A604A68E1
:10464000824201D182684A60002202610868401EED
:10465000086008687047000010B5044C80230460AF
:1046600004F15C000860136010BD0000100A002413
:1046700010B5044C4FF48073046004F15C000860D2
:10468000136010BD6C0C00244FF0FF3300F10801E3
:104690000022C0E901130260C1600161704700217E
:1046A0000161704730B50B685A1C02D000F1080256
:1046B00002E0026904E02246546825689D42FAD966
:1046C00053684B6099608A60516008610168491CB9
:1046D000016030BD502080F31188BFF34F8FBFF3CE
:1046E0006F8F0A494868401C486001280CD108486F
:1046F000006810F0FF0F07D0502080F31188BFF33F
:104700004F8FBFF36F8FFEE77047000090000024CB
:1047100004ED00E00849486828B1401E486001D116
:1047200080F311887047502080F31188BFF34F8FBA
:10473000BFF36F8FFEE700009000002470B50028E3
:104740002AD0A0F108046068002807DB502080F31D
:104750001188BFF34F8FBFF36F8FFEE7216839B128
:10476000502080F31188BFF34F8FBFF36F8FFEE7A8
:1047700020F00040606000F025F9084D606869682D
:10478000084468602046FFF711FD2869401C286135
:10479000BDE8704000F0C4BC70BD0000740000248F
:1047A0004FF0E020002101614FF47A72816107230C
:1047B00003490968B1FBF2F1491E41610361704789
:1047C0001400002470B54FF0000258B100291DD02C
:1047D0000F4C002304EBC3056E6886420AD104EB3C
:1047E000C3020FE0502080F31188BFF34F8FBFF357
:1047F0006F8FFEE71AB954F8336006B92A465B1C7E
:10480000082BE7D3002A01D0C2E9001070BD0000D8
:10481000F403002470B515460E460446FFF75AFF10
:1048200094F944100020491C01D184F8440094F903
:104830004510491C01D184F84500FFF76BFFA06BC0
:1048400028B904F124002A46314600F051F82046E8
:10485000BDE87040FFF736BE020010B514D00F4817
:10486000406B38B1502080F31188BFF34F8FBFF3F6
:104870006F8FFEE700F0A6F800211046FFF7D0FA90
:1048800000F04EFC002807D105494FF08050086029
:10489000BFF34F8FBFF36F8F10BD00001C000024CB
:1048A00004ED00E002490A6A0260C968416070478D
:1048B0001C00002401490120C86170471C0000242D
:1048C00010B50C4650B1094909681831FFF7EAFEE6
:1048D0002046BDE810400121FFF7A2BA502080F326
:1048E0001188BFF34F8FBFF36F8FFEE71C000024CA
:1048F000F0B40C46D0B111490D684368EB619D6876
:104900000E6835620D689E68183575600D6818353B
:104910009D60096888620168491C01600AB14FF016
:10492000FF3411462046F0BCFFF77ABA502080F3DE
:104930001188BFF34F8FBFF36F8FFEE71C00002479
:1049400030B587B0002405AA04A9039403A80494F1
:10495000FFF782FEDDE9030100940023CDE9011099
:10496000164814A1059A00F087FA154DE862A8B11F
:1049700000F076FC012802D0401C12D00EE050203E
:1049800080F31188BFF34F8FBFF36F8F01204FF07B
:10499000FF31A9626861EC6000F04EF8286B07B047
:1049A00030BD502080F31188BFF34F8FBFF36F8F5E
:1049B000FEE7000049444C45000000008540000827
:1049C0001C0000240248416B491C416370470000F1
:1049D0001C000024164810B5416B11B10121C161C2
:1049E00010BD0021C1611349026901E0BAB1521E34
:1049F00002EB820351F82330002BF7D002EB820345
:104A000001EB830101F108044B685B684B60A34232
:104A100001D1CB684B60D9680160026110BD5020A4
:104A200080F31188BFF34F8FBFF36F8FFEE7000055
:104A30001C000024340400243A483EB53A49026878
:104A40008A4207D1502080F31188BFF34F8FBFF304
:104A50006F8FFEE734490068491E884207D1502015
:104A600080F31188BFF34F8FBFF36F8FFEE72F489E
:104A700000250195FF2102788DF80820017001784A
:104A80002B4C8DF800109DF8001011F05001217092
:104A90000CD09DF800205021914316D0502080F377
:104AA0001188BFF34F8FBFF36F8FFEE7502080F365
:104AB0001188BFF34F8FBFF36F8FFEE7491C019141
:104AC0009DF8001049008DF800109DF800100906AF
:104AD0000199F3D4082922D0C1F10701A160217AFC
:104AE000090201F4E061A1609DF8081001700D4811
:104AF0002030016841F47F010160016841F07F418D
:104B00000160FFF74DFE6560FBF754FC0948016842
:104B100041F040410160FBF739FC00203EBDA5603B
:104B2000DDE7000000ED00E071C20F4100E400E0AD
:104B30009000002434EF00E0502010B580F311887D
:104B4000BFF34F8FBFF36F8F00F0E4F918B1044942
:104B50004FF080500860002080F3118810BD0000E5
:104B600004ED00E0F8B5069D1BB158B14AB189B912
:104B700008E0502080F31188BFF34F8FBFF36F8F91
:104B8000FEE739B1502080F31188BFF34F8FBFF398
:104B90006F8FFEE750241C46012683F84660009381
:104BA0002B46FFF79FFA2046F8BD00002DE9F05F85
:104BB00004008A464FF0010B32D0E06B78B34FF01F
:104BC000FF39226CB9FBF0F0904242D3FFF782FD2F
:104BD00021680025D4E90F23D4F840C004F110085F
:104BE00010460E46401EA56302FB031200FB0C108C
:104BF000BAF1000F666084F8449084F84590C4E9E7
:104C0000022015D04046FFF73FFD04F12400FFF7D6
:104C10003BFD00BFFFF77EFD5846BDE8F09F18E062
:104C2000502080F31188BFF34F8FBFF36F8FFEE7E3
:104C300020690028EED0404600F004FA0028E9D0B0
:104C400008494FF080500860BFF34F8FBFF36F8F5C
:104C5000E0E7502080F31188BFF34F8FBFF36F8FD1
:104C6000FEE7000004ED00E02DE9F74704008A4666
:104C700083B04FF0000603D0BAF1000F08D011E066
:104C8000502080F31188BFF34F8FBFF36F8FFEE783
:104C9000206C38B1502080F31188BFF34F8FBFF3E1
:104CA0006F8FFEE700F022F9DFF8F4804FF08057B5
:104CB0004FF0000948B9059838B1502080F31188A9
:104CC000BFF34F8FBFF36F8FFEE7FFF703FDA56BB9
:104CD000C5B151462046FFF783F96D1EA5632069D3
:104CE00050B104F1100000F0ADF928B1C8F800701F
:104CF000BFF34F8FBFF36F8FFFF70CFD012006B09E
:104D0000BDE8F087059808B11EB106E0FFF702FD87
:104D100027E06846FFF7C6FD0126FFF7FBFCFFF71B
:104D200051FEFFF7D7FC94F94400401C01D184F8F0
:104D3000449094F94500401C01D184F84590FFF758
:104D4000E9FC05A9684600F02DF8002820460AD0A5
:104D5000FFF7B8FB00F0E4F92046FFF76BFA0028F4
:104D6000B3D00020CBE7FFF765FA90B1059904F1C5
:104D70002400FFF7A5FD2046FFF7A4FB00F0D0F9C3
:104D80000028A2D1C8F80070BFF34F8FBFF36F8F18
:104D90009BE72046FFF796FB00F0C2F995E700007D
:104DA00004ED00E02DE9F04105000C461BD014B3E2
:104DB000FFF790FC174E2068F268471C6B68A2EB67
:104DC00003010ED02F68D6F820C00026674501D019
:104DD000934218D9884216D9401A20602846FFF716
:104DE00061FD002511E0502080F31188BFF34F8F43
:104DF000BFF36F8FFEE7502080F31188BFF34F8F12
:104E0000BFF36F8FFEE701252660FFF783FC28467E
:104E1000BDE8F0811C0000242DE9FF5F994616468D
:104E20008A4683469000DDE90E87FFF781FB050087
:104E30001FD05C20FFF77CFB040017D05C21FBF740
:104E400031FC0020256384F859004B46CDE90087EA
:104E5000CDE90240324651465846FFF754F9204604
:104E6000FFF71AF8012004B0BDE8F09F2846FFF7CD
:104E700065FC4FF0FF30F6E72DE9F04786B01F469E
:104E8000904689468246DDE90F540E9EEDB124B36B
:104E90005C20009001462046FBF704FC25630220BD
:104EA00084F85900002104AA009603913B46CDE9FD
:104EB0000124424649465046FFF725F92046FEF7B1
:104EC000EBFF049806B0BDE8F087502080F311880E
:104ED000BFF34F8FBFF36F8FFEE7502080F3118831
:104EE000BFF34F8FBFF36F8FFEE7000005484169A6
:104EF00019B1406B18B100207047012070470220A3
:104F0000704700001C0000240148C0687047000082
:104F10001C0000242DE9F047484C606B002628B1A6
:104F2000A069401CA0613046BDE8F087E5686D1CB3
:104F3000E56013D1A06B006838B1502080F3118870
:104F4000BFF34F8FBFF36F8FFEE7A06BE16BA163E1
:104F5000E063206A401C2062FFF75CFA3848A16ACF
:104F60008D420FD34FF00009A16B096839B1A16BD5
:104F7000C968C9684A68954212D2A26202E04FF03D
:104F8000FF31A1622168C96A01EB810150F821005B
:104F9000012800D90126E0690028C4D00126C2E713
:104FA000D1E902734A6901F10408BB60D1E9023713
:104FB0007B605368434501D1CB685360C1F81490BE
:104FC00013685B1E13608A6A9AB1D1E9077C01F10C
:104FD0001803C7F808C0D1E9077CCCF804705768FB
:104FE0009F4201D10B6A5360C1F8289013685B1E81
:104FF0001360CA6A23699A4200D9226102EB8202D5
:1050000000EB820252688A609368CB609368C3F8B1
:105010000480C2F80880CA6A02EB820200EB8203B5
:105020004B6150F822305B1C40F822302268C96A7C
:10503000D26A914298D9012696E700001C0000240C
:105040003404002430B5C068C06850B3D0E90732DA
:10505000816A9A60D0E907235A6000F118034A6810
:105060009A4201D1026A4A60002484620A68521E90
:105070000A6028494A6BE2B1274C6268C2619568B0
:10508000056295686B60936084622268521C22609E
:10509000C06A0A68D26A904239D90122CA611046B0
:1050A00030BD502080F31188BFF34F8FBFF36F8F57
:1050B000FEE7D0E902534269AB60D0E902356B608C
:1050C000031D55689D4201D1C5685560446114684F
:1050D000641E1460C26A0C69A24200D90A6102EB24
:1050E00082020E4C04EB8202526882609568C560B1
:1050F00095686B609360C26A02EB820204EB8203E4
:10510000436154F822305B1C44F82230C0E7002091
:1051100030BD00001C000024BC080024340400241E
:105120002DE9F047DFF82881D8F83400002425461F
:1051300050B1FFF7CFFAD8F83400401EC8F8340059
:10514000D8F8340040B17EE0502080F31188BFF3DE
:105150004F8FBFF36F8FFEE73E480126D8F8081047
:105160004FF00009F1BB6EE0C168CC68D4E90732AA
:10517000A16A9A60D4E907235A6004F118024B68C7
:10518000934201D1226A4A604A46C4F828900B68CB
:105190005B1E0B60D4E9027C6169231DC7F808C05F
:1051A000D4E9027CCCF804704F689F4201D1E768D3
:1051B0004F6062610A68521E0A60E16AD8F81020E6
:1051C000914201D9C8F8101001EB8101224A02EB8B
:1051D00081014968A1608F68E7608F687B608B60A0
:1051E000E16A00E011E001EB810102EB8103636100
:1051F00052F821305B1C42F82130D8F80020E16AD7
:10520000D26A914201D9C8F81C6001680029ABD16B
:105210000CB1FFF7FFF8D8F8184044B1FFF77AFE59
:1052200008B1C8F81C60641EF8D1C8F81890D8F806
:105230001C0040B1094901254FF080500860BFF3C0
:105240004F8FBFF36F8FFFF765FA2846BDE8F087F1
:105250001C000024BC0800243404002404ED00E0F9
:1052600010B586B0FEF790FE114C2068B8B1002052
:10527000039005AA049004A903A8FFF7F9F9DDE952
:105280000321022000238DE807000C4809A1059A9C
:10529000FFF7F2FD606010B106B0012010BD502094
:1052A00080F31188BFF34F8FBFF36F8FFEE70000CD
:1052B0005C000024546D722053766300A144000802
:1052C0004FF04070E1EE100A704700008453000870
:1052D00000000000000000000000000000000000CE
:1052E00000020000180000000000000000000000A4
:1052F0000001020304050607080C101418203040B2
:10530000000000000000000000000000000000009D
:105310000000000001000000020000000300000087
:105320000400000000000000050000000000000074
:105330000000000000000000060000000000000067
:105340000000000000000000070000000100020053
:105350000400060008000A000C00100020004000B5
:10536000800000010101010307010000080402049C
:10537000080101010000000001020304010203040E
:105380000607080964656661756C745461736B0087
:10539000B0530008000000249C000000080300082F
:1053A0004C5400089C0000248C5200002403000888
:1053B00000000000000000000100000010000000DC
:1053C000000000000090D0030090D0030000000017
:1053D00000000000000000000000000000000000CD
:1053E00000000000000000000000000000000000BD
:1053F0000000000000000000000000003700000076
:10540000000000000000000000000000000000009C
:10541000000000000000000000000000000000008C
:10542000000000000000000000000000000000007C
:10543000000000000000000000000000000000006C
:0C54400000000000AAAAAAAA00000000B8
:04000005080002CD20
:00000001FF
