:020000040800F2
:10000000485900242D0400080D390008313000083B
:100010007D3700086B070008394700080000000022
:100020000000000000000000000000006D03000858
:100030006D07000800000000C9030008713D0008BA
:100040004B0400084B0400084B0400084B04000854
:100050004B0400084B0400084B0400084B04000844
:100060004B0400084B0400084B0400084B04000834
:100070004B0400084B0400084B0400084B04000824
:100080004B0400084B0400084B0400084B04000814
:100090004B0400084B0400084B0400084B04000804
:1000A0004B040008013F00084B0400084B04000803
:1000B0000D3F00084B0400084B0400084B040008E7
:1000C0004B0400084B0400084B0400084B040008D4
:1000D0004B0400084B0400084B0400084B040008C4
:1000E0004B0400084B040008000000004B0400080B
:1000F0004B0400084B0400084B0400084B040008A4
:100100004B0400084B0400084B0400084B04000893
:100110004B0400084B0400084B0400084B04000883
:100120004B0400084B0400084B0400084B04000873
:100130004B0400084B0400084B0400084B04000863
:1001400000000000000000000000000000000000AF
:100150004B0400084B0400084B0400084B04000843
:100160004B0400084B0400084B0400084B04000833
:100170004B0400084B0400084B040008000000007A
:100180004B0400084B0400084B0400084B04000813
:100190004B0400084B0400084B0400084B04000803
:1001A0004B0400084B0400084B040008000000004A
:1001B0004B0400084B0400084B0400084B040008E3
:1001C0004B0400084B040008000000000000000081
:1001D00000000000000000004B04000800000000C8
:1001E000000000000000000000000000000000000F
:1001F00000000000000000004B0400084B04000851
:100200004B0400084B040008000000004B040008E9
:100210004B0400084B0400084B0400084B04000882
:100220004B040008000000004B0400080000000020
:100230004B0400084B040008000000004B040008B9
:100240004B0400084B0400084B0400084B04000852
:100250004B0400084B0400084B0400084B04000842
:100260004B0400084B0400084B0400084B04000832
:100270004B0400084B0400084B0400080000000079
:100280004B0400084B0400084B0400084B04000812
:10029000000000004B0400084B04000800000000B0
:1002A000000000004B0400084B0400084B04000849
:1002B0004B0400084B0400084B0400084B040008E2
:1002C0004B0400084B0400084B04000800F002F83F
:1002D00000F03CF80AA090E8000C82448344AAF1A4
:1002E0000107DA4501D100F031F8AFF2090EBAE8A2
:1002F0000F0013F0010F18BFFB1A43F0010318475A
:100300002068000040680000103A24BF78C878C117
:10031000FAD8520724BF30C830C144BF04680C600B
:10032000704700000023002400250026103A28BF53
:1003300078C1FBD8520728BF30C148BF0B60704757
:100340001FB506F041FB1FBD10B510BD00F0D4F97C
:100350001146FFF7F5FF04F001FA00F0F2F903B4DB
:10036000FFF7F2FF03BC00F0F9F900002C4B19680D
:100370000868B0E8F04F80F30988BFF36F8F4FF043
:10038000000080F3118870470000000008480068F2
:10039000006880F308884FF0000080F3148862B68C
:1003A00061B6BFF34F8FBFF36F8F00DF00BF00BF99
:1003B00008ED00E0DFF80C00016841F47001016015
:1003C000704700BF88ED00E0EFF30980BFF36F8F47
:1003D000134B1A681EF0100F08BF20ED108A20E999
:1003E000F04F106009B44FF0500080F31188BFF354
:1003F0004F8FBFF36F8F05F047FA4FF0000080F387
:10040000118809BC19680868B0E8F04F1EF0100F99
:1004100008BFB0EC108A80F30988BFF36F8F704774
:1004200030000024EFF30580704700000A48804741
:100430000A4880470A480047FEE7FEE7FEE7FEE776
:10044000FEE7FEE7FEE7FEE7FEE7FEE705480649B2
:10045000064A074B7047000075070008293E000850
:10046000CD02000848530024485900244855002470
:100470004855002453EA020C00F069802DE9F04B46
:100480004FF00006002B1FBFB3FA83F503FA05F403
:1004900024FA05F65E4012BF1643B2FA82F502FA5C
:1004A00005F4C5F120051EBF22FA05FC44EA0C0440
:1004B000203556EA044C4FEA144418BF641C4FF030
:1004C00000084FF00009904271EB030C39D300296A
:1004D00019BFB1FA81F701FA07F6B0FA80F700FA0E
:1004E00007F6C7F120071EBF20FA07FC46EA0C06F4
:1004F0002037B6FBF4FCA7EB0507103F07F01F0BF6
:10050000CBF120060CFA0BFB2CFA06F644BFB346DF
:100510000026202FA4BF5E464FF0000B5BEA060CBE
:1005200008BF4FF0010B19EB0B09ABFB027C48EB4A
:100530000608C01B06FB02CC0BFB03CC71EB0C01C5
:10054000C1E70B46024641464846BDE8F08B13B56D
:100550004FF000004FF00001AFF30080BDE81C40F9
:100560007047032A40F2308010F0030C00F0158031
:1005700011F8013BBCF1020F624498BF11F801CBA6
:1005800000F8013B38BF11F8013BA2F1040298BF0B
:1005900000F801CB38BF00F8013B11F0030300F075
:1005A0002580083AC0F0088051F8043B083A51F819
:1005B00004CBA0E80810F5E7121D5CBF51F8043B1E
:1005C00040F8043BAFF30080D20724BF11F8013B91
:1005D00011F801CB48BF11F8012B24BF00F8013BF3
:1005E00000F801CB48BF00F8012B704710B5203A46
:1005F000C0F00B80B1E81850203AA0E81850B1E8DC
:100600001850A0E81850BFF4F5AF5FEA027C24BF91
:10061000B1E81850A0E8185044BF18C918C0BDE888
:1006200010405FEA827C24BF51F8043B40F8043B51
:1006300008BF7047D20728BF31F8023B48BF11F806
:10064000012B28BF20F8023B48BF00F8012B704760
:1006500002F0FF0343EA032242EA024200F002B83A
:100660004FF000020429C0F0128010F0030C00F0DB
:100670001B80CCF1040CBCF1020F18BF00F8012B59
:10068000A8BF20F8022BA1EB0C0100F00DB85FEA27
:10069000C17C24BF00F8012B00F8012B48BF00F8F3
:1006A000012B70474FF0000200B513469446964662
:1006B000203922BFA0E80C50A0E80C50B1F1200175
:1006C000BFF4F7AF090728BFA0E80C5048BF0CC023
:1006D0005DF804EB890028BF40F8042B08BF704781
:1006E00048BF20F8022B11F0804F18BF00F8012BF3
:1006F0007047704770477047754600F02BF8AE465C
:1007000005006946534620F00700854618B020B51D
:10071000FFF79CFEBDE820404FF000064FF00007B9
:100720004FF000084FF0000B21F00701AC46ACE899
:10073000C009ACE8C009ACE8C009ACE8C0098D4606
:10074000704710B50446AFF300802046BDE8104066
:10075000FFF705BE00487047E85200240149182001
:10076000ABBEFEE7260002007047FEE7704772B698
:10077000FEE70000054805490839026842F0020218
:10078000026008688004FCD5704700000C480258DD
:10079000F0B503684FF6FC716D4C426BD3F8845092
:1007A0008D4345EA8205C3F88450036853F8845F9B
:1007B000068F25F47F0545EA06451D60836B654D70
:1007C0009F180268D2F888308B4343EA8703C2F847
:1007D0008830026852F8883F868F23F4FE0343EA8C
:1007E00006431360066856F8A03FC26B8B4307EBC5
:1007F000420243EA82033360076857F8A03FB0F82B
:10080000406023F4FE0343EA06433B60D0E9103620
:1008100003FB06220368D3F8B0608E4346EA8206E3
:10082000C3F8B0600368B0F84860D3F8B07027F43C
:10083000FE0747EA0646C3F8B060D0E912670368CE
:1008400006FB0722D3F8AC608E4346EA8206C3F863
:10085000AC60D0E91467036806FB0722D3F8F060A8
:100860008E4346EA8206C3F8F0600368B0F8586029
:10087000D3F8F07027F47C1747EA0646C3F8F06017
:100880000368876D53F8C06F02EB47028E4346EA58
:10089000820119600168B0F85C20D1F8C03023F4FF
:1008A0007C1343EA0242C1F8C020016890F860203E
:1008B000D1F8C03023F07C5343EA0262C1F8C02073
:1008C000416B04EB8101C166826B01EB820202671E
:1008D000C36B02EBC3024267D0E91034634302EBFF
:1008E00083028267D0E91234634302EB8302C2675A
:1008F000D0E91434634302EB8302C0F88020836D97
:1009000002EBC303C0F88430C46D826E544303EB22
:100910008403C0F88830046E544303EB8402C0F8AB
:100920009020AA420AD9D0F89C20032142F020024C
:10093000C0F89C2080F898100120F0BD002200E053
:1009400004C1D0F890308B42FAD80020F0BD0000EE
:1009500000AC0040FCD30040F0B58E680C69D1E9D2
:10096000005744EA0604DFB145F080452C43866E0B
:10097000D1E906C54F695E4391F8203045EA0C0580
:10098000B1F80CC0D0F884E0002047EA0363104FB0
:100990001D430EEB860345EA0C45E3E8024511E0F2
:1009A00044EA8544E3E71418155CA67894F803C07C
:1009B00094F801E0360445EA0C6446EA0E252C431F
:1009C000001D10C3CC683C5D8442ECD8F0BD000033
:1009D000506A000870B5044690F89800022804D0C8
:1009E000D4F89C0040F008000DE02068D0F8C0303A
:1009F00013F07C5F0BD0D0F8C4309B020CD5D4F838
:100A00009C0040F40070C4F89C00012070BDD4F834
:100A10009C0040F02000F6E7D0F8C400C0F3044585
:100A200020462B46FFF798FF21680120A840C1F817
:100A3000D000C4F89400002070BD70B590F89820E4
:100A4000012A09D0022A07D0D0F89C1041F00201F7
:100A5000C0F89C10012070BD0B68CA6883B10B6997
:100A6000072A43EA427325D00C7A4A6942EA847223
:100A70004968006F00EBC100C0E90032002070BD82
:100A8000072A0DD00C7AD6060D8A4B6943EA847288
:100A900046EA0543C06E49681A4340F82120EDE755
:100AA0000B8A4FF06055D1E9062442EA034245EA39
:100AB0000423EFE78A69DBE730B590F89850039C90
:100AC000012D07D0D0F89C1041F00401C0F89C1013
:100AD000012030BD0D01016845EA820040EA430073
:100AE0002043C1F88000002030BD0000F0B590F830
:100AF00098500024022D04D0D0F89C1041F0080139
:100B000030E0402905D0412930D0056D8D4220D9F3
:100B10004DE00568D5F8A04014F4FE0F19D0D5F8C3
:100B2000A44064061AD0D5F8A440D5F8A460C4F354
:100B30000524F6010AD5D5F8A06016F0004F05D5BA
:100B4000D5F8A050641CC5F306452C40466F456C93
:100B50002BE0D0F89C1041F0200103E0D0F89C106D
:100B600041F48071C0F89C100120F0BD0568D5F8F3
:100B7000B04014F4FE0FECD0D5F8B4406406EDD0CC
:100B8000D5F8B440D5F8B460C4F30524F6010AD50D
:100B9000D5F8B06016F0004F05D5D5F8B050641CFC
:100BA000C5F306452C40866FC56C654302E0456D74
:100BB000C66F4D4306EB85052E6816F080465660DD
:100BC0002E6836D026F060461660D5F800C00026A4
:100BD0002D4F0CF0005CC2F808C0D5F800C00CF036
:100BE000004CC2F810C0B5F804C01FFA8CFCC2F863
:100BF0001CC0D5F804C0CCF3034CC2F80CC0D5F827
:100C000004C00CF4801CC2F814C0D5F804C00CF465
:100C1000001CC2F818C0D5F804C0CCF3066CC2F8AA
:100C200020C0D5F804C008354FEADC7CC2F824C0E7
:100C300007E0C6F38A46C7E715F806C003F806C002
:100C4000761CD2F80CC017F80CC0B445F4D8402973
:100C50000AD041290CD020294FF001020CD20068A3
:100C60008A40C0F898200DE00068C0F8A84009E06C
:100C70000068C0F8B84005E0006801F01F018A4034
:100C8000C0F89C200020F0BD506A00082DE9F0411A
:100C900094B08D494C2204466846FFF7A7FC64B126
:100CA0008A4D2068A84202D100F58070606094F8F7
:100CB00098004FF0000820B108E0012014B0BDE812
:100CC000F081204684F8998000F01EF9206881693F
:100CD00021F01001816100F0A5FA0327064604E027
:100CE00000F0A0FA801B0A2811D82068806900074C
:100CF000F6D42068816941F00101816100F092FA27
:100D000006460DE000F08EFA801B0A2808D9D4F8B8
:100D10009C0040F00100C4F89C0084F89870CCE777
:100D200020688069C007EDD02068816941F0020128
:100D30008161207C01282068816937D041F0400121
:100D40008161607C01282068816932D021F4804172
:100D50008161A07C0128206881692DD041F48051F7
:100D600081612068A268816921F440711143816129
:100D70002068816921F0A40181612068016921F066
:100D800010010161E068012819D010B302281BD0BE
:100D90002068816941F0800181612068016941F02A
:100DA00010010161E06803280ED012E021F040013B
:100DB000C6E741F48041CBE721F48051D0E72068B9
:100DC000816941F0040103E02068816941F020015C
:100DD0008161207E6FF0FF02D4E90773A68A1102B9
:100DE000400602EB0727A0F10070384327685B1E1E
:100DF000184301EB06463043F861A068B0F5407F28
:100E000011D104F12800A68C6FF00F0C89C801EBFA
:100E10000641401E02EB0322104322680CEB07132D
:100E200018430843D060206E30B12068626ED0F85D
:100E3000C0101143C0F8C010D4E917126846D1425F
:100E400009D02168A36E51F8C82F50F8233022F042
:100E500007021A430A60216C49B12168626C51F89B
:100E6000BC3F50F8226023F0070232430A60A16CB5
:100E700051B12168E36C51F8BC2F50F8233022F0B7
:100E8000700242EA03120A60216D51B12168626D5D
:100E900051F8BC3F50F8220023F4E06242EA0020FF
:100EA00008602068A84204D16068816821F00301CD
:100EB0008160C4F894800121C4F89C8084F8981063
:100EC0002046FFF765FCF9E6606A000800A00040D4
:100ED00010B5036820294FF00102D3F89800D3F829
:100EE0009C4005D28A40024207D0C3F8982008E00F
:100EF00001F01F008240224201D1002010BDC3F842
:100F00009C20012010BD000070B5B4B0044614212F
:100F10002EA8FFF7C7FBB8216846FFF7C3FB1F49A0
:100F20002068884237D1002102240D4620224FF448
:100F300000408DE807007823CDE90334402605946E
:100F400006948003CDE9076109911B90684600F083
:100F5000E5FB08B1FFF70BFC1148016841F4807113
:100F60000160006800F4807033900D480C3801680F
:100F700041F00101016000682EAA092100F0010082
:100F800033904FF4C05082E83100CDE9315105482B
:100F90002EA900F035F834B070BD000000A000406C
:100FA000EC4402580000025890F89810012907D02C
:100FB000D0F89C1041F00401C0F89C10012070474B
:100FC000022180F89810002201688B6923F0010348
:100FD0008B61C0F89C201046704710B50024C0E912
:100FE0000014C0E90242046144619968C0E9061432
:100FF0000462204610BD0B4601461846FFF7EABCC6
:101000002DE9F84F03247C4D00234FF001094FF0E8
:10101000B04B4FF00F0AE7E009FA03F632407BD0FD
:101020000F7907F00307012F01D0022F1AD187682B
:101030004FEA430ED1F80CC004FA0EF827EA08076D
:101040000CFA0EFC4CEA070CC0F808C0476891F88F
:1010500004C0B743CCF3001C0CFA03FC4CEA070CA9
:10106000C0F804C00E79F643B60702D18E68012E8F
:101070000BD0C7684FEA43088E6804FA08FC27EAD9
:101080000C0706FA08F63E43C6600E7906F0030622
:10109000022E12D1DE080F694FEA437C00EB860670
:1010A000B646366A4FEADC6C0AFA0CF807FA0CF717
:1010B00026EA08063743CEF820700F7906684FEA13
:1010C000430807F0030704FA08FC07FA08F726EAC2
:1010D0000C06374307604E6816F4403F1CD0474E5D
:1010E000376847F00207376036689F0706F0020648
:1010F000009623F0030606F1B046B6463F0FD6F839
:101100000864DFF8FC800AFA07FC404526EA0C0672
:1011100003D14FF0000C3AE065E0DFF8E8C060452D
:1011200002D14FF0010C32E0DFF8DCC0604502D1A3
:101130004FF0020C2BE0DFF8D4C0604502D14FF035
:10114000030C24E0DFF8C8C0604502D14FF0040C66
:101150001DE0DFF8C0C0604502D14FF0050C16E07D
:10116000DFF8B4C0604502D14FF0060C0FE0DFF8A5
:10117000ACC0604502D14FF0070C08E0DFF8A0C01A
:10118000604502D14FF0090C01E04FF00A0C0CFA57
:1011900007FC4CEA060CCEF808C44F68DBF8006088
:1011A000FF0226EA020600D516435F46CBF8006030
:1011B000D1F804C0DBF804605FEA8C2C26EA020652
:1011C00000D516437E606E684F6826EA0206BF03AC
:1011D00000D516436E602E684F6826EA0206FF03AC
:1011E00000D516432E605B1C0A6832FA03F67FF4C2
:1011F00013AFBDE8F88F000080000058F444025897
:10120000000002580004025800080258000C02585E
:10121000001002580014025800180258001C02580E
:101220000024025801488068704700001C00002418
:101230000248816802781144816070471C000024D4
:10124000032010B500F0D8F801F07AF80F4A1049E1
:1012500014681368C4F3032203F00F038A5CC95CAB
:1012600002F01F0201F01F01D0400A4A20FA01F1EA
:101270001160094908600F2000F010F808B1012042
:1012800010BD00F079F8002010BD0000184402588D
:10129000D46A00082C0000242800002470B50D4DED
:1012A00004462878A0B14FF47A71B1FBF0F00A49F6
:1012B0000968B1FBF0F001F072FB48B9102C07D2BD
:1012C00000222146501E00F077F800206C6070BDAF
:1012D000012070BD1C00002428000024154BF0B52F
:1012E000083B427813491A600B680A1F23F0010378
:1012F0000B6043681360057BC67A827A437B2D07B7
:10130000847B45EA0665C77B90F809C0067A90F8A9
:1013100000E045EAC24040EA834040EA444040EAF7
:10132000074040EA0C2040EA460040EA0E00086010
:10133000F0BD0000A0ED00E0BFF35F8F0448002186
:101340000368034A23F480330360703211607047EE
:1013500024ED00E0074A40F00100064970321060B9
:10136000086840F480300860BFF34F8FBFF36F8F81
:101370007047000024ED00E0074882B0016841F0AA
:1013800002010160006800220F2100F002000090BD
:10139000901E02B000F010B8F4440258002809DB97
:1013A000410900F01F028900012001F1E021904075
:1013B000C1F80001704700000E4BF0B41B680D46E9
:1013C000C3F30223C3F10706042E00D90426191D16
:1013D000072901D2002300E0DB1E012404FA06F1F4
:1013E0009C40491E2940641E994014402143F0BC92
:1013F00003F0A3B90CED00E0064900F0070210B5B8
:101400004FF6FF040868044B204040EA02201843CE
:10141000086010BD0CED00E00000FA05134970B53E
:101420000A68D243520705D5096801F007018142D5
:1014300013D118E00A6822F0070202430A60FFF79E
:10144000F1FE0A4D4FF47A760446083D07E000BFEE
:10145000FFF7E8FE001BB04201D9012070BD2868EB
:10146000C0438004F4D4002070BD00000C48025832
:1014700010B500F01FFF05490968054AC1F30211C4
:10148000515C01F01F01C84010BD0000204402580B
:10149000D46A0008494930B5484C0B1D0A68143419
:1014A00009681D68246802F00303C5F30012C1F344
:1014B0000531C4F3CC04002914FB02F200EE102A1B
:1014C000F8EE400A75D03F4A9FED3D1AB7EE000A8C
:1014D0006BB1DFED3D1A012B01D0022B64D002EE7F
:1014E000101A1168F8EE422A81EEA22A21E0334C4C
:1014F000283C23689B0612D5344B246801EE901AD1
:101500001168C4F3C104F8EE612AE34001EE903A99
:10151000C1F30801F8EE611A81EEA22A0BE001EE98
:10152000901ADFED2B2A00BFF8EE611A116882EEE7
:10153000A12AC1F3080101EE901A1168F8EE611AB0
:1015400040EE811A71EE800A62EE200AC1F3462154
:1015500001EE101AB8EE411A31EE001AC0EE811AEF
:10156000BCEEE11A80ED001A1168C1F3064101EEEC
:10157000101AB8EE411A31EE001AC0EE811ABCEE14
:10158000E11A80ED011A1168C1F3066101EE101A2B
:10159000B8EE411A31EE000A80EE801ABCEEC10AA4
:1015A00080ED020A30BD04E001EE901ADFED092A59
:1015B000BAE70021016041608160F3E728440258E6
:1015C00000000039384402580024744A0090D003C7
:1015D0000024744C20BCBE4B494930B5484C0B1D0F
:1015E0000A681C3409681D68246802F00303C5F307
:1015F0000022C1F30551C4F3CC04002914FB02F20C
:1016000000EE102AF8EE400A75D03F4A9FED3D1AD1
:10161000B7EE000A6BB1DFED3D1A012B01D0022BB2
:1016200064D002EE101A1168F8EE422A81EEA22A66
:1016300021E0334C283C23689B0612D5344B2468A8
:1016400001EE901A1168C4F3C104F8EE612AE34078
:1016500001EE903AC1F30801F8EE611A81EEA22A78
:101660000BE001EE901ADFED2B2A00BFF8EE611AB5
:10167000116882EEA12AC1F3080101EE901A1168E7
:10168000F8EE611A40EE811A71EE800A62EE200ACD
:10169000C1F3462101EE101AB8EE411A31EE001ADC
:1016A000C0EE811ABCEEE11A80ED001A1168C1F398
:1016B000064101EE101AB8EE411A31EE001AC0EEE2
:1016C000811ABCEEE11A80ED011A1168C1F30661BE
:1016D00001EE101AB8EE411A31EE000A80EE801ABF
:1016E000BCEEC10A80ED020A30BD04E001EE901AA2
:1016F000DFED092ABAE70021016041608160F3E76C
:101700002844025800000039404402580024744A1A
:101710000090D0030024744C20BCBE4B2DE9FE4F3A
:101720000546DFF800A450F8081B0024FD4FC9430C
:10173000019005F1280026460AF1240A00900801CC
:101740001DD4686E50B1B0F5801F0CD0B0F5001FED
:101750000ED0B0F5401F1ED001240FE0386840F4D1
:101760000030386017E00198022102F0B5F903E07B
:101770000098022102F040FA04000CD02646288886
:10178000C043C00523D4A86D05281ED2DFE800F0B1
:101790000C11161B1B006A6EDAF8001021F44011C0
:1017A0001143CAF80010EAE7386840F400303860A6
:1017B00009E00198002102F08FF903E00098002170
:1017C00002F01AFA0446C4B100E001242646288833
:1017D000DFF85083C04308F12C0840052FD4D5F81A
:1017E000A400B0F5C00F28D010DCB8B1B0F5001FD0
:1017F00019D0B0F5800F0FD11AE0AA6DDAF80010F9
:1018000021F007011143CAF80010E0E7B0F5000F1E
:1018100013D0B0F5200F10D001240FE0386840F449
:101820000030386009E00198002102F055F903E02A
:101830000098002102F0E0F9044694B12646288879
:10184000C043000530D4D5F8A800B0F1407F29D0BE
:1018500011DCC0B1B0F1807F1AD0B0F1007F10D19F
:101860001BE0D5F8A420D8F8001021F46001114342
:10187000C8F80010E3E7B0F1806F13D0B0F1A06FAB
:1018800010D001240FE0386840F40030386009E0DF
:101890000198002102F020F903E00098002102F0F5
:1018A000ABF9044694B126462868DFF878B2C04305
:1018B0000BF1200B80011FD4E86CD8B110280FD099
:1018C000202812D0302815D0012414E0D5F8A82003
:1018D000D8F8001021F0E0611143C8F80010E3E7E8
:1018E000386840F40030386004E00198022102F0CA
:1018F000F3F8044674B126462888C043C0042BD4AC
:10190000E86DB0F5005F20D00DDCA0B1B0F5805FD0
:101910000FD115E0EA6CDBF8001021F03001114323
:10192000CBF80010E8E7B0F5405F13D0B0F5804F7A
:1019300010D001240FE0386840F40030386009E02E
:101940000198002102F0C8F803E00098002102F09D
:1019500053F904468CB126462888C043800429D414
:10196000286EB0F5403F23D010DC08B3B0F5803FBF
:1019700014D0B0F5003F0FD115E0EA6DDAF8001091
:1019800021F4E0411143CAF80010E5E7B0F5802FDB
:101990000ED0B0F5A02F0BD001240AE00198012150
:1019A00002F09AF803E00098012102F025F90446BC
:1019B00094B126462888C04340042AD4D5F8AC0008
:1019C000B0F1405F23D010DC08B3B0F1805F14D0D9
:1019D000B0F1005F0FD115E02A6EDAF8001021F4A3
:1019E000E0211143CAF80010E4E7B0F1804F0ED0B7
:1019F000B0F1A04F0BD001240AE00198012102F0C0
:101A00006BF803E00098012102F0F6F8044674B187
:101A100026462888C04300041FD4E86ED8B1B0F130
:101A2000805F0ED0B0F1005F10D0012414E0D5F833
:101A3000AC20D8F8001021F0E0411143C8F80010A4
:101A4000E7E7386840F40030386004E0019801218D
:101A500002F042F8044674B126462868C043C0012B
:101A60001ED4A86CD0B101280ED0022811D00328B2
:101A700014D0012413E0EA6EDAF8001021F040518E
:101A80001143CAF80010E8E7386840F400303860C5
:101A900004E00198022102F01FF804466CB12646CA
:101AA0002868C043400255D41F48016841F4807142
:101AB0000160FFF7B7FB81460EE0AA6CDBF800106F
:101AC00021F003011143CBF80010E9E7FFF7AAFB6F
:101AD000A0EB090064283BD813480068C005F5D581
:101AE000BCBBDFF84090B5F8B01009F14409D9F853
:101AF000000001F4407100F44070884211D0D9F820
:101B00000010D9F8002021F4407142F48032C9F865
:101B10000020D9F8002022F48032C9F80020C9F84A
:101B2000001003E02C44025800480258D5F8B000D9
:101B3000B0F5807F19D1FFF775FB029011E000BF6F
:101B4000FFF770FB0299411A41F28830814208D9AF
:101B5000032426462878DFF81494C043C00721D018
:101B60003CE0D9F800008007EAD5D5F8B010C1F301
:101B700001200328FE480DD0016821F47C5101604A
:101B8000B5F8B020D9F80010C2F30B021143C9F820
:101B90000010DFE7F74A036802EA111223F47C51D0
:101BA0001143ECE7A86F182816D005DCA0B108286F
:101BB00008D0102804D10AE020280DD028280BD006
:101BC00001240AE00198012101F086FF03E000985A
:101BD000012102F011F8044664B126462878C0437A
:101BE00080071ED4686F062819D2DFE800F0160CB3
:101BF00011161616AA6FD9F8001021F038011143FA
:101C0000C9F80010EAE70198012101F065FF03E03F
:101C10000098012101F0F0FF04467CB100E00124AE
:101C200026462878C04340071FD4D5F890000628E0
:101C300019D2DFE800F0160C111616166A6FD9F8E3
:101C4000001021F007011143C9F80010E9E70198DD
:101C5000012101F041FF03E00098012101F0CCFFD8
:101C60000446A4B100E0012426462878C04380063B
:101C70002BD4D5F88C00B0F1405F24D011DC10B328
:101C8000B0F1805F15D0B0F1005F10D116E0D5F84B
:101C90009020D8F8001021F007011143C8F8001077
:101CA000E3E7B0F1804F0ED0B0F1A04F0BD001248C
:101CB0000AE00198002101F00FFF03E000980221E3
:101CC00001F09AFF044694B126462878C0434006A6
:101CD0002BD4D5F89800B0F5406F24D011DC10B3A8
:101CE000B0F5806F15D0B0F5006F10D116E0D5F8C3
:101CF0008C20D9F8001021F0E0411143C9F8001000
:101D0000E3E7B0F5805F0ED0B0F5A05F0BD0012403
:101D10000AE00198002101F0DFFE03E000980221B3
:101D200001F06AFF044694B126462878C0430006B5
:101D30002BD4D5F89C00B0F5C04F24D011DC10B3E3
:101D4000B0F5005F15D0B0F5804F10D116E0D5F892
:101D50009820D8F8001021F4E0511143C8F8001081
:101D6000E3E7B0F5004F0ED0B0F5204F0BD00124C3
:101D70000AE00198002101F0AFFE03E00098022183
:101D800001F03AFF044654B126462878C0430007C4
:101D90001ED4D5F88000B0F5805F0AD00FE0D5F8EA
:101DA0009C20D8F8001021F460411143C8F80010BD
:101DB000EBE70098022101F01FFF00B10126D5F8E2
:101DC0008020D9F8001021F440511143C9F80010C7
:101DD0002878C043C00613D4D5F89400B0F5807FAE
:101DE00005D10098022101F007FF00B10126D5F8C6
:101DF0009420D8F8001021F440711143C8F8001065
:101E00002868C043000316D4D5F8A00038B1B0F557
:101E1000803F09D0B0F5003F0BD001240AE00198C3
:101E2000002101F059FE03E00098022101F0E4FED8
:101E300004468CB126462868C043400322D4D5F816
:101E40008400B0F5801F11D0B0F5001F13D0B0F59D
:101E5000401F15D0012414E0D5F8A020D8F80010B8
:101E600021F440311143C8F80010E4E7386840F429
:101E70000030386004E00098012101F0BDFE044606
:101E80005CB126462868C043C0031CD4286D70B1DD
:101E9000B0F5803F10D0012414E0D5F88420D9F8A3
:101EA000001021F440111143C9F80010EAE7386826
:101EB00040F40030386004E00198022101F00CFE8B
:101EC0000446DCB126462868C043800005D400984B
:101ED000022101F091FE00B101262868C043800371
:101EE0001BD4E86FB8B1B0F5807F10D0B0F5007F9B
:101EF00011D0B0F5407F0ED001240DE02A6DDBF843
:101F0000001021F480311143CBF80010DBE7386872
:101F100040F4003038607CB326462868C043C002D5
:101F200007D42A6FDAF8001021F000411143CAF8F3
:101F300000102868C043800207D4AA6EDAF80010A7
:101F400021F080711143CAF800102868C043400096
:101F500009D40748016821F4004101600168D5F8FF
:101F6000B420114301602868C04306E0544402587D
:101F700010440258CFFFFF001DE007D46A6DDBF864
:101F8000001021F040511143CBF800102868C043E5
:101F9000000208D4D5F88820D9F8001021F44001B7
:101FA0001143C9F8001028790024C04300F0010053
:101FB000204309D00EE0EA6FD9F8001021F44071F7
:101FC0001143C9F80010A8E70198002101F084FD31
:101FD00000B106462879C04300F00200204305D135
:101FE0000198012101F078FD00B106462879C0432F
:101FF00000F00400204305D10198022101F06CFD9E
:1020000000B106462879C04300F00800204305D1FE
:102010000098002101F0F0FD00B106462879C04388
:1020200000F01000204305D10098012101F0E4FDEB
:1020300000B106462879C04300F02000044304D1D3
:102040000098022101F0D8FD00B916B10120BDE8C9
:10205000FE8F0020FBE700002DE9F05F04000F4633
:102060007ED0DFF83882D8F8000000F00F00B842C8
:102070000CD2D8F8001021F00F013943C8F8001035
:10208000D8F8000000F00F00B84269D12078844DE4
:1020900040070AD52069296801F07001884204D9F7
:1020A000296821F070010143296020787C4E361D9B
:1020B00000070AD56069316801F07001884204D9CF
:1020C000316821F07001014331602078C0060AD5E3
:1020D000A069316801F4E061884204D9316821F4D3
:1020E000E061014331602078DFF8B4B180060BF184
:1020F000080B0CD5E1695846DBF8002002F07002AD
:10210000914204D9026822F070020A4302602078EA
:1021100080070AD5E068296801F00F01884204D9D8
:10212000296821F00F01014329602078C0073ED0C3
:102130005B49A2682868183920F470601043286051
:102140006068022818D0032819D00968012819D01E
:10215000490700294ADADFF848A1AAF1080A00E095
:1021600044E0DAF8002022F007020243CAF8002017
:10217000FFF758F8814612E009688903E9E7096822
:102180008901E6E7C905E4E7FFF74CF8A0EB090190
:1021900041F28830814202D90320BDE8F09F616896
:1021A000DAF8000000F03800B0EBC10FECD1207875
:1021B00080070AD5E068296801F00F01884204D23F
:1021C000296821F00F0101432960D8F8001040462A
:1021D00001F00F01B9420BD9016821F00F01394319
:1021E0000160006800F00F00B84201D00120D4E780
:1021F000207840070AD52069296801F070018842DB
:1022000004D2296821F07001014329602078000779
:102210000AD56069316801F07001884204D23168E2
:1022200021F07001014331602078C0060AD5A06911
:10223000316801F4E061884204D2316821F4E06140
:1022400001433160207880060CD5E1695846DBF8FF
:10225000002002F07002914204D2026822F0700263
:102260000A43026000F06CF80E492A682B68C2F33A
:10227000032203F00F038A5CC95C02F01F0201F025
:102280001F01D040084A20FA01F111600749086097
:1022900007480068BDE8F05FFFF700B80020005273
:1022A00018440258D46A00082C0000242800002496
:1022B0002000002430B500F043F80B4A0B490C4BCA
:1022C00015681468C5F3032204F00F048A5C095DE5
:1022D00002F01F0201F01F01D040064A20FA01F16E
:1022E00019601060084630BD18440258D46A0008CE
:1022F0002C0000242800002400B5FFF7DBFF05496F
:102300000968054AC1F30211515C01F01F01C84080
:1023100000BD00001C440258D46A000800B5FFF755
:10232000C9FF05490968054AC1F30221515C01F062
:102330001F01C84000BD00001C440258D46A0008B8
:10234000454970B545480968434B103B11F03802C8
:1023500008D00111082A03D0102A0BD0182A0BD05C
:10236000084670BD19688906FBD51968C1F3C1011B
:10237000C84070BD3A4870BD3749374D18310C1D03
:1023800024350A68096826682D6802F0030406F0FF
:102390000102C1F30511C5F3CC0515FB02F200EEF5
:1023A000102AB8EE400AE9B32F4ADFED2E0AB7EE45
:1023B000001A6CB1DFED2D1A012C01D0022C43D094
:1023C00002EE101A1068F8EE422A81EEA22A1EE0F0
:1023D0001C68A40611D51B6801EE901A1168C3F39E
:1023E000C103F8EE612AD84001EE900AC1F308005B
:1023F000F8EE611A81EEA22A0BE001EE901ADFEDF1
:102400001C2A00BFF8EE611A106882EEA12AC0F300
:10241000080001EE900AF8EE611A40EE201A31EE43
:10242000810A00E015E022EE000A1068C0F34620A1
:10243000401C00EE900AF8EE600A80EE201ABCEE16
:10244000C10A10EE100A70BD01EE901ADFED092AE4
:10245000D8E7002070BD0000104402580090D0035F
:1024600040787D0100000039304402580024744A4D
:102470000024744C20BCBE4B2DE9F05F04007DD0DD
:10248000FF4F2078FE4D1837DFF8F483103DC0076A
:1024900048D0D8F80000396800F03800102815D06E
:1024A000182803D101F0030002280FD06068B0F5AE
:1024B000803F12D010B1B0F5A02F18D0286820F4BA
:1024C00080302860286820F4802009E02868800394
:1024D00028D560680028D2D024E0286840F48030F5
:1024E0002860606888B1FEF79DFE064609E028680E
:1024F00040F480202860F0E7FEF794FE801B6428FB
:102500007ED828688003F7D50CE0FEF78BFE0646E0
:1025100005E000BFFEF786FE801B6428F0D828681F
:102520008003F7D42078800756D5D8F80000DFF86C
:102530005093396810F03800A9F10C090ED0182812
:1025400001D188070AD0E068A8B3296821F01901F1
:1025500001432960FEF766FE064628E0286840072A
:1025600002D5E06800288AD0E168286820F01900C8
:1025700008432860FEF756FE064606E0D2E000BF9C
:10258000FEF750FE801B0228BAD828684007F7D50E
:10259000217CD9F8002022F0FE4242EA0161C9F80C
:1025A000001019E0FEF73EFE801B0228A8D828681C
:1025B0004007F7D5ECE7FFE7286820F00100286026
:1025C000FEF730FE064604E0FEF72CFE801B0228D4
:1025D00096D828684007F7D42078C00646D5D8F8A2
:1025E0000000DFF89C92396800F03800A9F1040976
:1025F000082812D0182805D101F00300012800E0B6
:10260000CEE00AD0E0690028286820D040F08000A1
:102610002860FEF707FE064615E02868C00502D5CB
:10262000E06980287ED194F82010D9F8002022F0AB
:102630007C5242EA0161C9F8001017E0FEF7F2FD92
:10264000801B0228A0D82868C005F7D5EBE720F04A
:1026500080002860FEF7E6FD064604E0FEF7E2FD96
:10266000801B022890D82868C005F7D4207800077E
:1026700029D583486169643000298146016811D0F9
:1026800041F001010160FEF7CDFD064605E000BF07
:10269000FEF7C8FD801B022888D8D9F80000800703
:1026A000F6D510E021F001010160FEF7BBFD064602
:1026B00005E000BFFEF7B6FD801B022870D8D9F8F0
:1026C00000008007F6D42078800623D5A069002872
:1026D000286810D040F480502860FEF7A3FD06461D
:1026E00005E000BFFEF79EFD801B022858D8286831
:1026F0008004F7D50EE020F480502860FEF792FDAC
:10270000064604E0FEF78EFD801B022848D82868A4
:102710008004F7D42078400751D5DFF86891D9F8C4
:10272000001000E015E141F48071C9F80010FEF7D7
:1027300079FD064605E000BFFEF774FD801B6428A6
:102740002ED8D9F80000C005F6D54D4EA0686036E9
:1027500001280AD008B1052813D0306820F0010004
:102760003060306820F0040002E0306840F0010082
:102770003060A06841F2883A98B1FEF753FD814677
:102780000AE0306840F004003060EEE7FEF74AFDF2
:10279000A0EB0901514503D830688007F6D50EE05B
:1027A00072E0FEF73FFD814606E000BFFEF73AFD0E
:1027B000A0EB0901514567D830688007F6D4606AFC
:1027C00000287CD0DFF8B8A0D8F800100AF1200A61
:1027D0004FF6F87B0AF10408C1F3C2010329AAF1FC
:1027E00004096DD00228286820F08070286003D08A
:1027F000FEF718FD044681E0FEF714FD064604E0EE
:10280000FEF710FD801B022875D828688001F7D4D8
:10281000E26A40F2F331386854F8283F884340EACE
:10282000021018433860217B4FF4FE0C22894FF0D0
:10283000FE47208A4902267D521E401EA1F50071E6
:1028400089B2C2F308021143761E0CEA004001432C
:10285000484607EA06621143CAF80010D9F800108A
:1028600021F00101C9F80010D8F80030266A23EAE7
:102870000B0343EAC601C8F80010D9F8001004E0C1
:10288000104402580048025835E0A26921F00C01BA
:102890001143C9F800100168E26921F002011143F7
:1028A0000160016841F480310160016841F4003148
:1028B0000160016841F480210160016801E06CE081
:1028C00020E041F001010160286840F0807028603C
:1028D000FEF7A8FC044604E0FEF7A4FC001B022857
:1028E00009D828688001F7D557E000BFFEF79AFCA9
:1028F000001B022802D90320BDE8F09F2868800150
:10290000F4D44AE039680128DAF8000021D0A26A3C
:1029100001F0030393421CD1E26AC1F305118A421C
:1029200017D1216BC0F30802491E8A4211D1616B95
:10293000C0F34622491E91420BD1A16BC0F306425F
:10294000491E914205D1E16BC0F30660491E8142E8
:1029500001D00120D0E7A16C4646D8F80000C0F3B2
:10296000CC00814219D0D9F800004D4620F001007A
:10297000C9F80000FEF756FC4FEA0007FEF752FCCC
:10298000B842FBD0A26C306820EA0B0040EAC200DB
:102990003060286840F0010028600020ACE7401E4D
:1029A000B0F1807F10B501D3012010BD4FF0E024BD
:1029B00060610F21601701F0C0FE0020A0610721B7
:1029C000216110BD7047704770470000F0B590F866
:1029D0003C20012A41D0224E012480F83C400222B2
:1029E00080F83D2002681F4D5368B242D2F808C0FB
:1029F00001D0AA4203D14F6823F470033B430F6810
:102A000023F070031F4357600268B24219D0B2F13D
:102A1000804F16D0144B9A4213D0144B9A4210D0C8
:102A2000134B9A420DD0AA420BD0124B9A4208D0B7
:102A3000114B9A4205D0114B9A4202D0104B9A4248
:102A400004D189682CF0800319439160002180F83B
:102A50003D4080F83C100846F0BD0220F0BD00006B
:102A60000000014000040140000400400008004054
:102A7000000C0040001800400040014000E0004011
:102A800000E4004010B5040003D094F83D0010B1FC
:102A900007E0012010BD002084F83C00204600F033
:102AA00023F8022084F83D002068211D01F034FA4B
:102AB000012084F8480084F83E0084F83F0084F840
:102AC000400084F8410084F8420084F8430084F810
:102AD000440084F8450084F8460084F8470084F8F0
:102AE0003D00002010BD000008B50068154988426F
:102AF0000FD11548016841F0010101600068002212
:102B0000052100F0010000901920FEF755FC192066
:102B100012E0B0F1804F13D10B480838016841F042
:102B20000101016000680022052100F00100009011
:102B30001C20FEF741FC1C20BDE80840FEF72EBC1F
:102B400008BD000000000140F044025890F83D101C
:102B5000012901D0012070471A4A022180F83D1056
:102B60000168CB6843F00103CB60006890421AD043
:102B7000B0F1804F17D01449884214D013498842CD
:102B800011D0134988420ED0124988420BD0124905
:102B9000884208D01149884205D01149884202D0A4
:102BA0001049884207D181680F4A1140062906D092
:102BB000B1F5803F03D0016841F0010101600020C0
:102BC0007047000000000140000400400008004081
:102BD000000C00400004014000180040004001408B
:102BE00000E0004000E400400700010070B504462A
:102BF00090F83C000025012814D03A4B012684F8B7
:102C00003C60022084F83D0022689068184020F45F
:102C10007F409060086870282FD010DC10F00F0FF4
:102C200003D022E04FF0020070BD4FEA2012072AC5
:102C30001BD2DFE802F0535353534B394100B0F13C
:102C4000101F4BD009DCB0F5805F0FD0B0F5005FEE
:102C50001ED0B0F5801F08D140E0A0F580112039CA
:102C60003CD010293AD0202938D0012584F83D6085
:102C7000002084F83C00284670BD4A682068D1E9ED
:102C8000021301F0B9F92068816841F0770109E089
:102C90004A682068D1E9021301F0AEF92068816822
:102CA00041F480418160E1E7CA684968206801F029
:102CB000B7F92068502106E0CA684968206801F029
:102CC000DDF92068602101F0A1F9CFE7CA68496801
:102CD000206801F0A5F920684021F4E72268014648
:102CE0001046F0E788FFCEFF70472DE9F04104461B
:102CF00000680027C6680569A90713D5B10711D573
:102D0000FA1E026101212177206880698007204630
:102D100002D0FFF7E9FF04E000F08BF8204600F056
:102D200089F82777680716D5700714D5226802201E
:102D30006FF00401116120772068806910F4407FF2
:102D4000204602D0FFF7D0FF04E000F072F82046E2
:102D500000F070F82777280715D5300713D52268BB
:102D600004206FF00801116120772068C069800796
:102D7000204602D0FFF7B8FF04E000F05AF82046E2
:102D800000F058F82777E80616D5F00614D5226823
:102D900008206FF01001116120772068C06910F4DD
:102DA000407F204602D0FFF79FFF04E000F041F88B
:102DB000204600F03FF82777E80708D0F00706D054
:102DC00021686FF001000861204600F035F8280600
:102DD00001D4A80408D5300606D521686FF4025046
:102DE00008612046FFF7EFFDE80508D5300606D557
:102DF00021686FF4807008612046FFF7E3FD6806E4
:102E000008D5700606D521686FF04000086120469D
:102E100000F028F8A8060AD5B00608D521686FF09A
:102E2000200008612046BDE8F041FFF7CDBDBDE8B8
:102E3000F081704770470000084A016808489142D5
:102E400001D1806803E0B1F1804F05D140680028CE
:102E500002D0012101F092BD704700000000014046
:102E60000C000024704730B590F88410012918D068
:102E7000012280F884202421C0F888100022202418
:102E800001680B680D6823F0005325F001050D6003
:102E9000426601680B60C0F8884080F884201046C4
:102EA00030BD022030BD70B5044690F88400012882
:102EB0001DD0012284F884202420C4F888002068D2
:102EC0000568026822F0010202602068826822F030
:102ED00060620A438260204601F0F0F822682021F7
:102EE00000201560C4F8881084F8840070BD0220AA
:102EF00070BD70B5044690F8840001281DD00122F1
:102F000084F884202420C4F88800206805680268BA
:102F100022F0010202602068826822F060420A43C7
:102F20008260204601F0CAF8226820210020156046
:102F3000C4F8881084F8840070BD022070BD10B5FC
:102F4000040003D0D4F8880010B107E0012010BDC0
:102F5000002084F88400204600F026F82420C4F8DD
:102F600088002068016821F001010160A06A10B1A9
:102F7000204601F0C5F8204601F0A6F90128E6D068
:102F80002068416821F4904141602068816821F007
:102F90002A0181602068016841F00101016020463A
:102FA000BDE8104001F010B910B5B4B004461421CA
:102FB0002EA8FDF777FBB8216846FDF773FB19498A
:102FC000206888422BD100201D9002210446CDE9C3
:102FD00000106846FEF7A2FB08B1FDF7C8FB1248D7
:102FE000016841F480210160006800F48020339082
:102FF0000D480838016841F00201016000682EABFD
:10300000022100F0020033904FF44060072283E871
:10301000130006482EA9CDE93142FDF7F1FF34B087
:1030200010BD000000480040E84402580004025867
:10303000FEE710B54FF00004EFF3058048B903F048
:1030400035FA012806D0EFF3108010B9EFF31180A4
:1030500000B10124204610BD9FED041B80ED040B40
:1030600080ED021B002101804180704700000000BC
:103070000000000001EE101A90ED020B90ED042B01
:10308000B8EEC11B018031EE401B02EE010B80ED5A
:10309000020BBDEEC01B11EE101A09B241800846AA
:1030A000704700F0A7B900002DE9F0430746154628
:1030B00089462DED028B89B0906B08283CD3286D92
:1030C000082839D320213D6001A8FDF7EBFA072439
:1030D00040F2FF730021069302224FF00108CDE970
:1030E0000324CDE90081434611462846FDF7E4FC60
:1030F00010BB9FED178B0024611CC4EBC400CAB247
:10310000294607EB40160023B0EE480B06F10800F5
:1031100000F02DF880B908FA04F111EA090F11D076
:1031200086F80C8004F20121029428460794059148
:1031300001A9FDF782FC28B1012009B0BDEC028B8A
:10314000BDE8F083641C082CD6DB0020F5E7000006
:10315000FFFFFFFFFFFFEF7F002807D021B101290C
:1031600004D1703000F011BC1030FBE7704710B58F
:1031700070B169B101600024427180F8D03080EDF7
:10318000360B0471C480048144810473204610BD51
:10319000012010BD10B5044690F8D00088421CD024
:1031A0002079002819D084F8D01004F158009FED40
:1031B0000B0B84ED0C0B84ED100B84ED240B84EDD4
:1031C000280B94ED1A0BFFF747FF94ED320B04F137
:1031D000B800BDE81040FFF73FBF10BD0000000081
:1031E0000000000021B1012904D1703000F070BC52
:1031F0001030FBE77047000070B506462DED088BD8
:1032000000F0C8F89FED478B9FED489B9FED49ABC1
:103210009FED4ABB5FF00005C5EBC50006EB40140F
:10322000207B012877D194F8D8000834B0EE480B01
:1032300020B1012813D0022825D141E0B4F90810AB
:1032400004F15800FFF716FF00EE100A04F1100019
:10325000B8EEC00B84ED140B00F059FB13E0B4F989
:103260000A1004F1B800FFF705FF00EE100AB0EEF7
:10327000491B04F17000B8EEC00B84ED2C0BB0EECE
:10328000480B00F097FBB0EE4A2BB4EEC20BF1EE08
:1032900010FA01DDB0EE420BB0EE4B2BB4EEC20BD8
:1032A000F1EE10FA01D2B0EE420B042DBDEEC00BD0
:1032B00006EB450110EE100A2BDAA1F810072AE000
:1032C000B4F90A1004F1B800FFF7D4FE00EE100ABA
:1032D000B0EE491B04F17000B8EEC00B84ED2C0B6E
:1032E000B0EE480B00F066FB94ED361BB4EEC01B4D
:1032F000F1EE10FA01D2B0EE410BB1EE411BB4EE8B
:10330000C01BF1EE10FA01DDB0EE410B84ED120BA3
:1033100094E7A1F800076D1C082DFFF67DAFBDEC0A
:10332000088B70BD000000000000000000000000DD
:103330000000C040000000000000D040000000007D
:103340000000D0C070B55FF0000405462DED088B7D
:10335000B0EE438BB0EE429BB0EE41ABB0EE40BB63
:10336000C4EBC40005EB4010017B51B10830B0EE56
:10337000483BB0EE492BB0EE4A1BB0EE4B0B00F0D1
:1033800006F8641C082CEBDBBDEC088B70BD7030BC
:1033900000F0FEBAF0B5012706465FF0000491B0D8
:1033A000C4EBC40006EB4015287B01281BD1306814
:1033B0002146FDF78DFDB0B1306802AB06AA21466B
:1033C000FDF794FB78B9BDF80800002740BA688281
:1033D000BDF80A0040BA2882BDF80C0040BAE88166
:1033E0009DF80E002875641CE4B2082CD8D311B0E7
:1033F0003846F0BDF0B58BB0324E0446002077421F
:10340000099009ADCDF82800C0EBC00104EB4111D3
:10341000097BB1B104EB4001B1F91027B24202DAE5
:10342000A1F8106703E0BA4201DDA1F8107705EBBF
:103430004003B1F81027120A05F8102091F8101770
:103440005970401C0428DFDB08222368684691017C
:10345000FDF7C3FD216809AA6846FDF7CCFD70BBE6
:10346000C0EBC00104EB411191F88C13B1B104EB36
:103470004001B1F90827B24202DAA1F8086703E077
:10348000BA4201DDA1F8087705EB4003B1F808273F
:10349000120A05F8102091F808175970401C0428EA
:1034A000DEDB2368082240F2FF116846FDF795FD38
:1034B000216809AA6846FDF79EFD002800D001207A
:1034C0000BB0F0BD00C0FFFF002210B5C2EBC2037D
:1034D00000EB43131C7B2CB101EBC20494ED000BF9
:1034E00083ED2C0B521C082AF0DB10BD70B55FF089
:1034F000000405462DED088BB0EE438BB0EE429BE9
:10350000B0EE41ABB0EE40BBC4EBC40005EB4010E5
:10351000017B51B10830B0EE483BB0EE492BB0EE24
:103520004A1BB0EE4B0B00F006F8641C082CEBDBDA
:10353000BDEC088B70BD103000F02ABA194800218C
:103540002DE9F041164D00F1180805600122816057
:103550000525C1600B2601740C2741740424817475
:103560000823456188E8C40042628262C262C0E901
:103570000C21C0E90E31C0E91034C0E912340365F2
:10358000C0E91541C0E91713C0E91914FDF77EFB26
:10359000002803D0BDE8F041FDF7E9B8BDE8F081AF
:1035A00000A00040480800240D4810B501F092F931
:1035B0000C4C00210A4A6C3AE0600B4801F06FFAAB
:1035C000074A002120600948483A01F068FA044A95
:1035D000002160600648243A01F061FAA06010BD45
:1035E000406A00080C000024193D0008493D00080D
:1035F000213D0008114808B5016841F0040101604F
:10360000016801F004010091016841F0800101604E
:10361000016801F080010091016841F00201016040
:10362000016801F002010091016841F001010160AF
:10363000006800F00100009008BD0000E04402585E
:1036400010B588B01848002416494FF4897240F22A
:10365000E73300940194029403940494059406942F
:1036600080E81600C0E9033444618461FFF70AFA78
:1036700008B1FDF77CF84FF4805000900A48694685
:10368000FFF7B4FA08B1FDF772F8074804A90494EB
:1036900005940694FFF79AF9002801D0FDF767F822
:1036A00008B010BD00000140E808002410B588B043
:1036B000174800244FF489724FF0804140F2CF73D5
:1036C000009401940294039404940594069480E871
:1036D0001600C0E903348461FFF7D4F908B1FDF79F
:1036E00046F84FF48050009009486946FFF77EFA8B
:1036F00008B1FDF73CF8064804A904940694FFF7C6
:1037000065F9002801D0FDF732F808B010BD0000BF
:10371000340900241848002110B5164C0C224FF42F
:1037200061230460C0E90131C160C0E90412816114
:10373000C161016241628162FFF701FC08B1FDF7DE
:1037400016F80D480021FFF7D4FB08B1FDF70FF87C
:1037500009480021FFF7A7FB08B1FDF708F8064864
:10376000FFF781FB002803D0BDE81040FCF7FFBF46
:1037700010BD00000048004080090024FEE7000062
:1037800010B5284A102128482DED048BFFF78CFC3A
:103790009FED268B9FED279B2348B0EE483BB0EE74
:1037A000492BB0EE001BB1EE000BFFF79FFE1E4849
:1037B000B0EE483BB0EE492B9FED201BB0EE0C0B5A
:1037C000FFF7C0FD214800219FED1E0B0446FFF7C7
:1037D00009FD012120469FED1E0BFFF703FD00218F
:1037E00020469FED1D0BFFF7B7FC01212046B7EEE9
:1037F000000BFFF7B1FC0C489FED190B4038014658
:1038000080ED080B4030FFF75FFE02212046FFF7F6
:10381000C1FC0E489FED140B783080ED180BBDEC09
:10382000048B10BD48080024F0000024FCA9F1D24C
:103830004D62603F7B14AE47E17A943F9A99999923
:103840009999A93F00000000000079407804002405
:103850000000000000407F409A9999999999E93FAA
:1038600000000000000000000000000000E07540C3
:10387000114910B511489FED121B8A68B3EE042B55
:10388000521C8A6090ED080B30EE020B80ED080BA5
:10389000B4EEC10BF1EE10FA03DD30EE410B80ED1A
:1038A000080B064901F14000FFF70EFE0348BDE892
:1038B00010404030FFF7F5BB00000024B0000024AA
:1038C000000000000000C0400E4810B54168491CCF
:1038D0004160017881B9012101700B48B0F8920371
:1038E00000EE100A0848B8EE400B4038014680ED63
:1038F000080B4030FFF7E8FDBDE810400248FFF735
:103900007BBC000000000024F0000024FEE790EDE6
:103910000E0B90ED101B90ED083B90ED062B30EE5A
:10392000411B90ED0A0BB5EEC00B01EE023BF1EE30
:1039300010FA80ED083B11DDB4EEC03BF1EE10FA59
:1039400001DD80ED080B90ED083BB1EE400BB4EECD
:10395000C03BF1EE10FA01D280ED080B90ED0C6B3C
:1039600090ED020B90ED083B31EE466B20EE030B21
:1039700090ED005B90ED044B80ED0C1B86EE023B5E
:1039800005EE010B04EE030B704780ED160B70473C
:103990009FED064BBFEE005B80EC0C0BB7EE000B0F
:1039A00080ED0C4B4830FFF757BB000000000000D3
:1039B00000000000B4EEC10BF1EE10FA05D2B0EE3B
:1039C000402BB0EE410BB0EE421BB6EE003B30EEAA
:1039D000412B90ED0E4B22EE033B03E034EE424BC5
:1039E00080ED0E4BB4EEC04BF1EE10FAF6DC03E0C6
:1039F00034EE024B80ED0E4BB4EEC14BF1EE10FAFB
:103A0000F6D390ED104B03E034EE424B80ED104BBB
:103A1000B4EEC04BF1EE10FAF6DC90ED100B03E0C3
:103A200030EE020B80ED100BB4EEC10BF1EE10FA8C
:103A3000F6D390ED0E0B90ED101B30EE411BB4EE63
:103A4000C31BF1EE10FA02DD31EE421B08E0B1EECD
:103A5000430BB4EEC01BF1EE10FA01D231EE021BA3
:103A600090ED083B90ED062B90ED0A0BB5EEC00BE8
:103A700001EE023BF1EE10FA80ED083B11DDB4EEF1
:103A8000C03BF1EE10FA01DD80ED080B90ED083B34
:103A9000B1EE400BB4EEC03BF1EE10FA01D280ED76
:103AA000080B90ED0C6B90ED020B90ED083B31EEA6
:103AB000466B20EE030B90ED005B90ED044B80ED28
:103AC0000C1B86EE023B05EE010B04EE030B704768
:103AD00080ED0A0B704700002DE9F047454D044684
:103AE00089464FF0000A2868C04380070AD0414E3B
:103AF000283E306820F080603060FDF793FB074679
:103B0000B04608E00120BDE8F08700BFFDF78AFB62
:103B1000C01B022867D8D8F800000001F6D420683E
:103B200029684FF4FE0721F47C313E0241EA00305F
:103B30002860207AA389B4F804C040022D4D2D4995
:103B40005B1E227CACF1010C1035091DA0F5007044
:103B500080B2521ECCF3080C07EA034340EA0C0083
:103B6000184306EA0262104328600868626920F080
:103B7000C000104308600A68A06922F020020243D6
:103B80000A60281D0A6822F010020A6002684FF6D7
:103B9000F873E4699A4342EAC40202600868B9F122
:103BA000000F40F010020A6011D00868B9F1010F4F
:103BB00011D040F400100860D8F80000444640F0EE
:103BC0008060C8F80000FDF72DFB05460DE0086891
:103BD00040F40020EFE740F48010ECE7FDF722FB13
:103BE000401B022801D903208DE720680001F5D58C
:103BF000504688E7284402582DE9F047454D0446D1
:103C000089464FF0000A2868C04380070AD0414E19
:103C1000283E306820F080503060FDF703FB0746F7
:103C2000B04608E00120BDE8F08700BFFDF7FAFAD2
:103C3000C01B022867D8D8F800008000F6D420887E
:103C400029684FF4FE0721F07C713E0241EA0050E2
:103C50002860207AA389B4F804C040022D4D2D4974
:103C60005B1E227CACF1010C1835091DA0F500701B
:103C700080B2521ECCF3080C07EA034340EA0C0062
:103C8000184306EA0262104328600868626920F45B
:103C90004060104308600A68A06922F40072024381
:103CA0000A60281D0A6822F480720A6002684FF6D2
:103CB000F873E4699A4342EAC40202600868B9F101
:103CC000000F40F480720A6011D00868B9F1010F4A
:103CD00011D040F080700860D8F80000444640F0F1
:103CE0008050C8F80000FDF79DFA05460DE0086811
:103CF00040F48000EFE740F40000ECE7FDF792FAB3
:103D0000401B022801D903208DE720688000F5D5EB
:103D1000504688E728440258012000F06BFDFBE77D
:103D2000084C4FF0FF3500212A46012000F06CFEC0
:103D3000E068294600F0A6FDFFF79AFDE06800F074
:103D4000FBFDF0E70C000024084C4FF0FF3500218C
:103D50002A46012000F058FEE068294600F092FD56
:103D6000FFF7B2FDE06800F0E7FDF0E70C0000248B
:103D70004FF0E02010B50069FDF75AFA02F096FB0B
:103D8000012803D0BDE8104001F030BE10BD000096
:103D9000F0B59DB04C216846FCF784FC202113A8A7
:103DA000FCF780FC0220FDF739FB1E48016821F476
:103DB000404101600168002401F440411B91016809
:103DC0008904FCD540250220009001222223CDE960
:103DD000032504210D92CDE90B13CDE909040C262E
:103DE000CDE90E1037026846CDE910641297FEF750
:103DF00043FB08B172B6FEE708221A95CDE91625F5
:103E0000D30113AA3F200321CDE9185382E8130000
:103E100013A8FEF721F9002801D072B6FEE71DB005
:103E2000F0BD0000184802582D48F0B52D4A016831
:103E300041F470010160106800F00F00072804D2FF
:103E4000106820F00F00C01D106027490020264C8C
:103E500010340B68254D43F001030B6020600B68A4
:103E60002B400B60136803F00F03072B04D9136872
:103E700023F00F03DB1D13601B4C1D4A18341D4B30
:103E8000261D371D2060184C1B4D28343060261D20
:103E90003860371D23603B1D35601C1D3A60251DB1
:103EA0002E1D1860331D22602860326018600B6878
:103EB0000D4A0D4C23F48023D4320B606034206013
:103EC0001068C0040BD4136843F2D2000B4943F4CA
:103ED000805313600860106820F480501060F0BDBB
:103EE00088ED00E000200052004402587FEDF6EA21
:103EF00080020101000202020000FF0100400052A6
:103F00000148FEF7F2BE0000E80800240148FEF771
:103F1000ECBE0000340900242DE9F0472C4B4FF093
:103F2000804A2C4D026898422B4E2C4F2C4C09D0C5
:103F3000504507D0A84205D0B04203D0B84201D0C6
:103F4000A04205D1D1F804C022F070024CEA02026E
:103F5000DFF890C0DFF890809842DFF8909015D09D
:103F6000504513D0A84211D0B0420FD0B8420DD066
:103F7000A0420BD0604509D0404507D0484505D048
:103F80001B4DA84202D01B4DA84203D1CD6822F49C
:103F900040722A438E684D6922F08002C6620E6824
:103FA0002A439842866207D0A04205D0604503D0DC
:103FB000404501D0484501D10969016303680121E9
:103FC00043F00403036041610260BDE8F087000034
:103FD000000001400004004000080040000C0040C8
:103FE00000040140004001400044014000480140FD
:103FF00000E0004000E4004042EA032283680A43F4
:1040000023F47F410A43826070470000034B8268BB
:104010001A400A4342F00701816070478FFFCFFFCB
:1040200030B5114C036A056AA04225F00104046210
:104030000BD00E4CA04208D00D4CA04205D00D4C28
:10404000A04202D00C4CA04203D1046A24F0040424
:104050000462846923F00A030B4324F0F00444EA69
:1040600002118161036230BD000001400004014083
:1040700000400140004401400048014030B50D4C73
:10408000036A056AA04225F01004046202D00A4CBB
:10409000A04203D1046A24F040040462846923F03E
:1040A000A00343EA011124F4704444EA023282611D
:1040B000016230BD000001400004014030B5416E96
:1040C000B9B101680D4B03F108048A688968C2F32D
:1040D0004262490F5D5C615C2D01B5FBF1F1A0F816
:1040E0006A10995CA25C0901B1FBF2F1A0F86810BA
:1040F00030BD0121A0F86A10F8E70000C46A00088A
:1041000090F82810090706D50168836B4A6822F4E5
:1041100000421A434A6090F82810C90706D0016887
:10412000C36A4A6822F400321A434A6090F82810A1
:10413000890706D50168036B4A6822F480321A4366
:104140004A6090F82810490706D50168436B4A6811
:1041500022F480221A434A6090F82810C90606D536
:104160000168C36B8A6822F480521A438A6090F80F
:104170002810890606D50168036C8A6822F400526B
:104180001A438A6090F82810490611D50168436CDB
:104190004A6822F480121A434A60416CB1F5801FCC
:1041A00006D10168836C4A6822F4C0021A434A604F
:1041B00090F82810090606D50168C26C486820F4FA
:1041C00000201043486070472DE9F843002504465D
:1041D000C0F89050FDF726F88046206820266FF042
:1041E0007E470068000713D500224346310420466D
:1041F000009700F057FA58B1216851E8000F20F0FD
:10420000800041E80002002AF6D1C4F8886021E06D
:1042100020680068400722D5002243464FF4800101
:104220002046009700F03EFAC8B1206850E8001F11
:1042300021F4907140E80012002AF6D1206808307D
:1042400050E8001F21F0010140E80012002AF5D1DA
:10425000C4F88C60032084F88450BDE8F883C4F867
:104260008860C4F88C60E5662567002084F8845077
:10427000F3E7000010B5026852E8001F21F49071C6
:1042800042E80013002BF6D10E4B0268083252E8C8
:10429000001F194042E80014002CF6D1C16E01291C
:1042A00008D1026852E8001F21F0100142E8001313
:1042B000002BF6D100212022C0F88C20C166416776
:1042C00010BD0000FEFFFFEF2DE9F04304468068BB
:1042D000E24E87B0E24B2168D4E90427D4F81CC031
:1042E00010430A68002547EA0C073843324002436E
:1042F0000A602068E268416821F44051114341603E
:104300002268A1699A4201D0206A01439668DFF8C9
:1043100054C3D54FD54806EA0C060E439660216873
:10432000666ACA6A22F00F023243CA622268BA423F
:104330000ED1006800F0380018286FD07ADCB8B3CE
:1043400008286CD010286BD18BE0282868D18EE02B
:10435000C7498A4209D1006800F0070006285FD2E9
:10436000DFE800F0507D7F818385C2498A4209D110
:10437000006800F0070006287BD2DFE800F04370F9
:1043800072747678BC498A4209D1006800F007004F
:1043900006286ED2DFE800F036636567696BB749BF
:1043A0008A420BD1006800F00700062861D200E0C5
:1043B00043E0DFE800F0275456585A5CB0498A427F
:1043C00006D1006800F0380018284CD0B7DD31E085
:1043D000AC498A4209D1006800F00700062848D29B
:1043E000DFE800F0103D3F414345A7498A420BD129
:1043F000006800F0070006283BD2DFE800F0033039
:1044000032343638002035E0A0498A4209D10068AC
:1044100000F03800182826D091DD0BE023E01EE0E4
:1044200027E09B498A420AD1006800F0380018282A
:1044300019D084DD202888D11CE001201AE09A429E
:1044400017D18A48001D006800F00700062810D226
:10445000DFE800F0030507090B0D02200AE0042045
:1044600008E0082006E0102004E0202002E04020C0
:1044700000E080208749DFF820829A42874A4FF483
:1044800000434FEA21174FF000064ED110281AD0F2
:1044900006DC022809D004280BD008287ED10DE0C4
:1044A00020283ED0402879D13DE0FCF7E1FF0146CD
:1044B00010E06846FCF7EEFF01990BE003A8FDF75A
:1044C0008BF8049906E01068800605D51068C0F3E3
:1044D000C100C140002970D0606A676838F81020B8
:1044E00007EB4703B1FBF2F0834257D8B0EB073F2D
:1044F00054D8002308461946FBF7BCFF024678084B
:10450000130E120243EA012110183A4671410023AA
:10451000FBF7B0FF624AA0F5407191423ED8216896
:104520008FE03946D8E71946D6E7D4F81CC04FF6D5
:10453000EF799C4546D1082819D005DC58B10128EF
:104540000CD0042875D10DE0102815D0202835D0C6
:1045500040286ED134E0FDF7CFFE01E0FDF7DEFE2E
:10456000014610E06846FCF795FF01990BE003A8AF
:10457000FDF732F8049906E01068800604D510684B
:10458000C0F3C100C140C1B1636A606838F813303C
:10459000B1FBF3F1490001EB500100E049E0B1FB50
:1045A000F0F0A0F11001494543D84FF6F0732168AF
:1045B000C0F342021840104343E043E03946E3E7CA
:1045C0001946E1E7082819D005DC58B101280CD0BC
:1045D00004282ED10DE0102815D020282BD04028FB
:1045E00027D12AE0FDF788FE01E0FDF797FE01469E
:1045F00010E06846FCF74EFF01990BE003A8FCF7BA
:10460000EBFF049906E01068800604D51068C0F33B
:10461000C100C140B1B1636A606838F81330B1FBC2
:10462000F3F101EB5001B1FBF0F0A0F110014945AD
:1046300005D9012506E03946EDE71946EBE7216883
:1046400080B2C8600120A4F86A00A4F86800284677
:104650006667A66707B0BDE8F0830000F369FFCF87
:10466000000C0058FFF4FF110010014054440258A0
:104670000044004000480040004C00400050004012
:104680000014014000780040007C00400018014008
:10469000001C01400090D003AC6A0008004402589E
:1046A000FFFC0F002DE9F047994617460D460446DA
:1046B000089E4FF0000833E0701C31D0FCF7B2FDCB
:1046C000A0EB0900B04218D8BEB1206801684907C4
:1046D00026D5802D24D0402D22D0C169C943090799
:1046E0000DD4082505622046FFF7C4FDC4F890509C
:1046F000012084F88480BDE8F0870320FBE7C069CF
:10470000C04300050CD421684FF4006008622046C5
:10471000FFF7B0FD2021C4F8901084F88480ECE706
:104720002068C06935EA000004D00020B842C3D038
:104730000020E0E70120F9E7FEE7090700284FEA3B
:10474000116104DB00F1E02080F80014704700F0F4
:104750000F0000F1E02080F8141D70471FB5002401
:104760000094019402940394FCF7E6FD01208DF877
:104770000C001F218DF8081087228DF809208DF874
:104780000D008DF8000068468DF80A408DF80E4047
:104790008DF8014001948DF80B408DF80F40FCF727
:1047A0009DFD0420FCF7D6FDFCF74AFDFFF7F0FA6B
:1047B000FEF720FFFEF7AEFFFEF7C0FEFEF740FF5C
:1047C000FEF774FF0848FEF7C1F90848FEF7BEF986
:1047D000FEF7D6FF0648FCF7E7FB00F01BF8FEF7F4
:1047E000E3FE00F02FF8FEE7E80800243409002477
:1047F0004808002470B50546FEF71BFC10B16FF0A9
:10480000050405E04FF0000415B1284600F024FF30
:10481000204670BD10B5FEF70CFC10B16FF005001E
:1048200010BD01F043FE012802D10549086810B10E
:104830004FF0FF3010BD01220A60002010BD0000C3
:104840008400002410B5FEF7F4FB10B16FF00500F2
:1048500010BD01F02BFE012803D108480168012991
:1048600002D04FF0FF3010BD054A002182F8141D20
:104870000221016000F0BEFF002010BD8400002472
:104880000BE000E02DE9F04100240E4620F0010588
:1048900000F00107FEF7CDFB08B1A41F17E055B1EA
:1048A000002F31466FF0010728466FF0020808D04C
:1048B00001F098FB07E06FF0030408E036B13C46D6
:1048C00005E001F0DBFA0128F8D100E0444620467B
:1048D000BDE8F08170B500250446FEF7AAFB48BB91
:1048E0000CB1606800E00020C10701D0012600E0A3
:1048F000002600071ED46CB1D4E9021021B1502863
:1049000018D31EB1042002E020B113E0012001F011
:104910008EF805E00EB1042000E0012001F07CF8E3
:10492000050007D01CB1216809B100F04BFE0EB1A3
:1049300045F00105284670BD70B5002420F0010542
:1049400000F00106FEF775FB08B1A41F14E03DB1AD
:10495000002E6FF0020606D0284601F0D1F908E0DB
:104960006FF0030408E0002328461A46194601F0B8
:1049700017F9012800D03446204670BD2DE9FF41CB
:1049800005000E4601D0002E03DA6FF003000290FE
:1049900033E04FF0FF300290FEF74BFB02AF4FF0D9
:1049A0000004E0B103A83246012303940021CDE9BD
:1049B0000040284601F072FC00232846CDE900742F
:1049C0001A46194601F06AFC0398B0B10D494FF040
:1049D00080500860BFF34F8FBFF36F8F0DE001234E
:1049E000324600212846009401F0BEFB00232846F1
:1049F0001A461946009701F0B7FB029804B0BDE8CB
:104A0000F081000004ED00E02DE9FC5F16468A46C7
:104A10000546FEF70EFB10B16FF0050420E0002DF7
:104A200002DA6FF003041BE05FEA8A7002D54FF0F0
:104A3000000900E0A9463746002401F045FD6FF06B
:104A40000208834600214A4601AB0846009701F060
:104A5000D9FC012807D006B36FF001040028F1D17A
:104A60002046BDE8FC9F01992C405FEACA7044EAE9
:104A700001040BD035EA0400F2D056B101F024FD58
:104A8000A0EB0B00B04206D90027DBE72542E7D1B7
:104A9000F3E74446E4E7371AD4E74446DEE72DE976
:104AA000FF41002514460F4606460395FEF7C1FA5E
:104AB00060BB5EB34FF080024FF018004FF0000172
:104AC0004CB3236803B11946A3691BB118465B1E9A
:104AD000382B02D22379DB0703D0002004B0BDE8D5
:104AE000F081636903B19A08D4F808C0BCF1000FE3
:104AF0000DD0E5685C2D19D324693CB133B18DE844
:104B000011103B46304601F0F5FA03900EE0E368E1
:104B100063B9236953B903AB92B2CDE900033B46B5
:104B2000304601F0B7FA012800D003950398D5E785
:104B30002DE9F0411A4C0F460546E6682068001D35
:104B400000F04CFC681C15D1A7B1164922684868D2
:104B5000906023688268DA6022688368121D5A6058
:104B60002268121D8260206841610868401C08604C
:104B7000BDE8F08120683544B5424560216805D222
:104B8000E06B091DBDE8F04100F062BCA06B091D9F
:104B900000F05EFCA06A8542EAD2A562E8E7000068
:104BA00030000024040F00242DE9F041054600F0F8
:104BB00067FC354C354FA068401CA060206810B1E0
:104BC000606930B32BE02560A068012827D100265A
:104BD00006EB860007EB800000F02CFC761C382EDC
:104BE000F6D32B4800F026FC2948143000F022FCB4
:104BF0002748283000F01EFC25483C3000F01AFC05
:104C00002348503000F016FC2148A0631430E063C4
:104C100005E0E86A2168C96A814200D82560606AB7
:104C2000401C60626864E86A2169884200D920619A
:104C300000EB8000291D07EB80004068A8608268B7
:104C4000EA60826851608160E86A00EB800007EBEF
:104C50008001696157F82010491C47F8201000F0C6
:104C60002FFC606900280CD02068E96AC06A88427D
:104C700007D208494FF080500860BFF34F8FBFF351
:104C80006F8FBDE8F081000030000024540A00243A
:104C9000B40E002404ED00E038B500F0F1FB104C38
:104CA0002068C8B90F4800F0C5FB0E48143000F06A
:104CB000C1FB0C490020E16014312161A1F5827330
:104CC0000090A1F1B40210210A2000F0E7FE20605C
:104CD00010B105A100F076FCBDE8384000F0F0BB53
:104CE0007000002408100024546D72510000000070
:104CF00030B4026C0B46002A0BD0D0E902411144BB
:104D0000C160A14201D30168C160184630BCFBF705
:104D100028BC30BC70472DE9F041856B1746026C0A
:104D20000446002682B1C7B1E068FBF71AFCE168CF
:104D3000206C2268091AE160914202D2A168081A27
:104D4000E060022F16D017E02068A8B9A06801F033
:104D500059FC06460020A0600EE06068FBF701FCED
:104D6000D4E90101226C10446060884204D32068B9
:104D7000606001E005B16D1E6D1CA5633046BDE8A5
:104D8000F08110B5044690F8590058B101280CD0B4
:104D900002280FD0502080F31188BFF34F8FBFF34C
:104DA0006F8FFEE7206B00F09FFB2046BDE81040B0
:104DB00000F09ABB10BD00000F484FF4705110B5C1
:104DC000420706D00C49C01D20F00700411AC1F56A
:104DD00070510A4C002201440839A4F1140321F057
:104DE0000701C4E900020C1A19604A600A60C0E9B0
:104DF00000149C605C6010BDE81600249C00002438
:104E0000144E4FF08058144CDFF85090A6F29C4797
:104E100012E000BF00F034FBF068C568281D00F008
:104E2000DDFAA068401EA0606068401E606000F06F
:104E300047FB2846FFF7A5FF60680028EAD13868DD
:104E40000128F9D9C9F80080BFF34F8FBFF36F8FE6
:104E5000F2E70000F00E00243000002404ED00E032
:104E6000002807D00021816001600B460A46C1601E
:104E700000F096BE7047000070B51D46049C51B10D
:104E8000C4F80020C4E90F010121204600F02AFEE9
:104E900084F84C5070BD2460F4E72DE9F0470D46CE
:104EA000994691001746DDE90984089EA5228246AD
:104EB000206BFBF7CDFB206B6FF0030101EB87014B
:104EC000084420F00707780707D0502080F31188A6
:104ED000BFF34F8FBFF36F8FFEE765B1002022183D
:104EE000295C82F83410295C11B1401C1028F6D3DB
:104EF000002084F84300382E07D3502080F3118817
:104F0000BFF34F8FBFF36F8FFEE7E662201DE664AD
:104F100000F09BFA04F1180000F097FA2461C6F142
:104F2000380064624A465146A061384600F03EFAB5
:104F3000B8F1000F206001D0C8F80040BDE8F0874C
:104F400030B5114900E011460A688242FBD34B6834
:104F50005C18844203D14468084623444B6043688C
:104F60001D18954209D1084C143C2468A24209D06E
:104F700052681A4442600A6812680260814200D096
:104F8000086030BD0460F9E79C00002470B50D4D49
:104F9000914241604FF00004006106D88169D21A45
:104FA0008A4206D2011D286907E09A4203D299423B
:104FB00001D3012403E0011DE86800F049FA20460E
:104FC00070BD00007000002410B5044600F058FACF
:104FD000A06B28B15FF0000400F072FA204610BD0B
:104FE0000124F9E770B506460D480D46C068C06853
:104FF000C468201D00F0F2F994F82800410705D597
:105000002A463146204600F0BBF803E000F0FE00DF
:1050100084F82800216A2046BDE870400847000057
:105020007000002470B53A4E86B067E00098002802
:1050300006DA019ADDE902019047009800285DDB5D
:10504000029C606910B1201D00F0C8F904A800F0AE
:10505000B9F8054600980A2850D2DFE800F04F055D
:1050600005282B430505282B94F828002A4640F0F4
:10507000010084F82800A1690198014403462046F4
:10508000FFF784FF28B394F82800410707D501985B
:105090002A46A1690144204600F072F803E000F0BE
:1050A000FE0084F82800216A2046884726E094F80C
:1050B00028001FE094F8280040F0010084F8280040
:1050C0000198A06130B141192B461A462046FFF7DE
:1050D0005DFF13E0502080F31188BFF34F8FBFF3C3
:1050E0006F8FFEE794F82800810703D4204600F074
:1050F000FBF903E000F0FE0084F82800306800228D
:10510000694600F01DFE002890D106B070BD000079
:1051100070000024F8B50D46064600F0ADFB684669
:1051200000F050F80446009810B101F07DFBF8BD86
:105130001148ADB101690968D9B100250068311B7A
:105140002A4600F067FA01F06FFB0028EFD10B4907
:105150004FF080500860BFF34F8FBFF36F8FF8BDE3
:10516000A642EBD801F060FB21463046FFF73AFF3C
:10517000F8BD0125E2E700007000002404ED00E026
:1051800070B516460C46054604E0A869296A044431
:1051900028468847A8692346324601192846FFF762
:1051A000F5FE0028F1D170BD0548816B096821B179
:1051B000816BC9680968816270474FF0FF31FAE777
:1051C000300000242DE9F041064601F07DF90E4C37
:1051D0000546A068854214D24FF0FF3704E0C0684E
:1051E00039460068FFF7FEFEE06801680029F6D145
:1051F0002169C4E90310012030602846A560BDE89C
:10520000F0810020F8E700007000002408484068A2
:10521000401C4FF0500080F3118804D0BFF34F8F33
:10522000BFF36F8FFEE7BFF34F8FBFF36F8FFEE7C4
:10523000A4000024074CE068016841B1C068002167
:10524000D0F80000FFF766FFFFF7ECFEF3E701215F
:105250000020F7E7700000242DE9F041044600F03B
:105260000FF994F9455004F1240609E0606A48B149
:10527000304601F06BFA08B100F01CFA6D1E6DB2F9
:10528000002DF3DC4FF0FF3684F8456000F018F98C
:1052900000F0F6F894F9445004F1100709E0206991
:1052A00048B1384601F052FA08B100F003FA6D1E19
:1052B0006DB2002DF3DC84F84460BDE8F04100F0ED
:1052C000FFB800002DE9F0410027044600F0D4FAB1
:1052D0002F4E306808B9FFF76FFDACB314F1090F1A
:1052E00047D80834600707D004F00700C0F1080071
:1052F000C1438C423DD80444002C3ADD706884429E
:1053000037D82348143001460D6801E028460D4681
:105310006968A14202D229680029F7D131688D421B
:1053200027D007682968016008376868011B1029C1
:105330000FD92819420708D0502080F31188BFF3F5
:105340004F8FBFF36F8FFEE713E041606C60FFF794
:10535000F7FD69687068401A7060B268904200D2C8
:10536000B06041F000410020C5E90001F068401C38
:10537000F06001F059FA780707D0502080F31188C7
:10538000BFF34F8FBFF36F8FFEE73846BDE8F08164
:10539000880000240449086818B10868026D521C8E
:1053A00002650868704700003000002470B5041FD3
:1053B000094E231F4FF0807521F0010125601C1F4D
:1053C0001960A0F120010B1F266044380A606FF0BD
:1053D00002051D6070BD00000D520008D0E90132C9
:1053E00001699A60D0E901235A604A68824201D17A
:1053F00082684A60002202610868401E08600868EE
:105400007047000010B5044C8023046004F15C0078
:105410000860136010BD00003010002410B5044C6B
:105420004FF48073046004F15C000860136010BDE9
:105430008C1200244FF0FF3300F108010022C0E974
:1054400001130260C1600161704700210161704772
:1054500030B50B685A1C02D000F1080202E0026964
:1054600004E02246546825689D42FAD953684B608F
:1054700099608A60516008610168491C016030BD13
:10548000502080F31188BFF34F8FBFF36F8F0A490D
:105490004868401C486001280CD10848006810F09A
:1054A000FF0F07D0502080F31188BFF34F8FBFF359
:1054B0006F8FFEE770470000A400002404ED00E0B9
:1054C0000849486828B1401E486001D180F311881E
:1054D0007047502080F31188BFF34F8FBFF36F8F59
:1054E000FEE70000A400002470B500282AD0A0F137
:1054F00008046068002807DB502080F31188BFF3A0
:105500004F8FBFF36F8FFEE7216839B1502080F3D2
:105510001188BFF34F8FBFF36F8FFEE720F000407D
:10552000606000F0A9F9084D606869680844686027
:105530002046FFF705FD2869401C2861BDE8704042
:1055400001F072B970BD0000880000244FF0E02027
:10555000002101614FF47A728161072303490968D0
:10556000B1FBF2F1491E416103617047280000243C
:1055700010B5FAF757FF114910280ED300F1E020BB
:105580000A7890F8F003904207D2502080F31188F7
:10559000BFF34F8FBFF36F8FFEE70948896800683C
:1055A00000F4E060884207D9502080F31188BFF3EF
:1055B0004F8FBFF36F8FFEE710BD0000A4000024E3
:1055C0000CED00E070B54FF0000258B100291DD07D
:1055D0000F4C002304EBC3056E6886420AD104EB2E
:1055E000C3020FE0502080F31188BFF34F8FBFF349
:1055F0006F8FFEE71AB954F8336006B92A465B1C70
:10560000082BE7D3002A01D0C2E9001070BD0000CA
:10561000140A002470B515460E460446FFF730FF05
:1056200094F944100020491C01D184F8440094F9F5
:105630004510491C01D184F84500FFF741FFA06BDC
:1056400028B904F124002A46314600F051F82046DA
:10565000BDE87040FFF700BE020010B514D00F483F
:10566000406B38B1502080F31188BFF34F8FBFF3E8
:105670006F8FFEE700F000F900211046FFF758FA9F
:1056800001F0D2F8002807D105494FF0805008609A
:10569000BFF34F8FBFF36F8F10BD000030000024A9
:1056A00004ED00E002490A6A0260C968416070477F
:1056B0003000002401490120C861704730000024F7
:1056C00010B50C4650B1094909681831FFF7C0FE02
:1056D0002046BDE810400121FFF72ABA502080F390
:1056E0001188BFF34F8FBFF36F8FFEE730000024A8
:1056F000F0B40C46D0B111490D684368EB619D6868
:105700000E6835620D689E68183575600D6818352D
:105710009D60096888620168491C01600AB14FF008
:10572000FF3411462046F0BCFFF702BA502080F348
:105730001188BFF34F8FBFF36F8FFEE73000002457
:1057400070B5002804464FD0226DA2B1E06C8842AB
:1057500000D30146E06A884246D0012A44D1234E54
:10576000326894420FD1502080F31188BFF34F8FDD
:10577000BFF36F8FFEE7502080F31188BFF34F8F88
:10578000BFF36F8FFEE7A269E162002A02DBC1F17D
:105790003801A161164D00EB8000616905EB8000C6
:1057A000814221D1201DFFF719FEE06A316988424C
:1057B00000D9306100EB8000211D05EB80004068BE
:1057C000A0608268E260826851608160E06A00EBFC
:1057D000800005EB80006061E06A00EB800055F816
:1057E0002010491C45F8201070BD00003000002436
:1057F000540A002430B587B0002405AA04A90394F4
:1058000003A80494FFF7FEFDDDE9030100940023E3
:10581000CDE90110164814A1059A00F06BFC154D56
:10582000E862A8B101F0A0F8012802D0401C12D013
:105830000EE0502080F31188BFF34F8FBFF36F8FBE
:1058400001204FF0FF31A9626861EC6000F04EF872
:10585000286B07B030BD502080F31188BFF34F8F05
:10586000BFF36F8FFEE7000049444C450000000085
:10587000014E0008300000240248416B491C41637E
:105880007047000030000024164810B5416B11B17C
:105890000121C16110BD0021C1611349026901E00C
:1058A000BAB1521E02EB820351F82330002BF7D01D
:1058B00002EB820301EB830101F108044B685B6892
:1058C0004B60A34201D1CB684B60D9680160026193
:1058D00010BD502080F31188BFF34F8FBFF36F8F3F
:1058E000FEE7000030000024540A00243A483EB588
:1058F0003A4902688A4207D1502080F31188BFF3E9
:105900004F8FBFF36F8FFEE734490068491E88420E
:1059100007D1502080F31188BFF34F8FBFF36F8FF3
:10592000FEE72F4800250195FF2102788DF8082019
:10593000017001782B4C8DF800109DF8001011F0CB
:10594000500121700CD09DF800205021914316D0B9
:10595000502080F31188BFF34F8FBFF36F8FFEE7A6
:10596000502080F31188BFF34F8FBFF36F8FFEE796
:10597000491C01919DF8001049008DF800109DF818
:10598000001009060199F3D4082922D0C1F10701BA
:10599000A160217A090201F4E061A1609DF808107C
:1059A00001700D482030016841F47F0101600168F9
:1059B00041F07F410160FFF7C9FD6560FAF7FAFC2D
:1059C0000948016841F040410160FAF7DFFC00201E
:1059D0003EBDA560DDE7000000ED00E071C20F41B3
:1059E00000E400E0A400002434EF00E0502010B5F3
:1059F00080F31188BFF34F8FBFF36F8F00F06AFD04
:105A000018B104494FF080500860002080F31188DD
:105A100010BD000004ED00E000210246012010B599
:105A200000F012F80446FFF71BFA204610BD38B507
:105A300000220B4611460090012000F02FF804468A
:105A4000FFF70EFA204638BDF8B5050017460E469A
:105A50001CD04FF0FF30B0FBF5F0B04216D305FB81
:105A600006F010F1510F11D85030FFF72BFC040055
:105A70000AD0002084F8460004F150023B4631462B
:105A800028460094FFF7F8F92046F8BD502080F32F
:105A90001188BFF34F8FBFF36F8FFEE7F8B5069DF8
:105AA0001BB158B14AB189B908E0502080F3118880
:105AB000BFF34F8FBFF36F8FFEE739B1502080F3F4
:105AC0001188BFF34F8FBFF36F8FFEE750241C4642
:105AD000012683F8466000932B46FFF7CDF9204658
