:020000040800F2
:100000003008002499030008D13A00080939000893
:10001000C93A0008990500083949000800000000A5
:10002000000000000000000000000000313D00085A
:10003000A105000800000000D93A0008393D000879
:10004000B7030008B7030008B7030008B7030008A8
:10005000B7030008B7030008B7030008B703000898
:10006000B7030008B7030008B7030008B703000888
:10007000B7030008B7030008B7030008B703000878
:10008000B7030008B7030008B7030008B703000868
:10009000B7030008B7030008B7030008B703000858
:1000A000B7030008B7030008B7030008B703000848
:1000B000B7030008B7030008B7030008B703000838
:1000C000B7030008B7030008B7030008B703000828
:1000D000B7030008B7030008B7030008B703000818
:1000E000B7030008B703000800000000B7030008CA
:1000F000B7030008B7030008B7030008B7030008F8
:10010000B7030008B7030008B7030008B7030008E7
:10011000B7030008B7030008B7030008B7030008D7
:10012000B7030008B7030008B7030008B7030008C7
:10013000B7030008B7030008B7030008B7030008B7
:1001400000000000000000000000000000000000AF
:10015000B7030008B7030008B7030008B703000897
:10016000B7030008B7030008B7030008B703000887
:10017000B7030008B7030008B70300080000000039
:10018000B7030008B7030008B7030008B703000867
:10019000B7030008B7030008B7030008B703000857
:1001A000B7030008B7030008B70300080000000009
:1001B000B7030008B7030008B7030008B703000837
:1001C000B7030008B70300080000000000000000AB
:1001D0000000000000000000B7030008000000005D
:1001E000000000000000000000000000000000000F
:1001F0000000000000000000B7030008B70300087B
:10020000B7030008B703000800000000B7030008A8
:10021000B7030008B7030008B7030008B7030008D6
:10022000B703000800000000B7030008000000004A
:10023000B7030008B703000800000000B703000878
:10024000B7030008B7030008B7030008B7030008A6
:10025000B7030008B7030008B7030008B703000896
:10026000B7030008B7030008B7030008B703000886
:10027000B7030008B7030008B70300080000000038
:10028000B7030008B7030008B7030008B703000866
:1002900000000000B7030008B703000800000000DA
:1002A00000000000B7030008B7030008D93E0008AB
:1002B000B7030008B7030008B7030008B703000836
:1002C000B7030008B7030008B703000800F002F8FE
:1002D00000F052F814A696E8000CB244B344DA4594
:1002E00001D100F049F8BAE80F000FA696E83000F7
:1002F000A5EB040504EB0607AAEB0704A7F1010729
:100300004FEA15154FEA3414A4F10104AC4201D3AD
:1003100000F032F813F0010F18BFFB1A43F001038D
:1003200000F001F8DBE71847B04C0000D04C0000AB
:10033000103A24BF78C878C1FAD8520724BF30C811
:1003400030C144BF04680C60704700007047000073
:100350000023002400250026103A28BF78C1FBD8CE
:10036000520728BF30C148BF0B6070471FB504F06B
:1003700003FD1FBD10B510BD00F0D4F81146FFF706
:10038000F5FF04F069FB00F0F2F803B4FFF7F2FFA9
:1003900003BC00F0F9F800000A4880470A4880478B
:1003A0000A480047FEE7FEE7FEE7FEE7FEE7FEE756
:1003B000FEE7FEE7FEE7FEE705480649064A074B6B
:1003C00070470000B1050008013E0008CD0200089A
:1003D00030020024300800243004002430040024BB
:1003E00053EA020C00F069802DE9F04B4FF0000653
:1003F000002B1FBFB3FA83F503FA05F424FA05F6C0
:100400005E4012BF1643B2FA82F502FA05F4C5F156
:1004100020051EBF22FA05FC44EA0C04203556EAEA
:10042000044C4FEA144418BF641C4FF000084FF00E
:100430000009904271EB030C39D3002919BFB1FABE
:1004400081F701FA07F6B0FA80F700FA07F6C7F16C
:1004500020071EBF20FA07FC46EA0C062037B6FB31
:10046000F4FCA7EB0507103F07F01F0BCBF12006AC
:100470002CFA06F60CFA0BFB44BFB3460026202FDD
:10048000A4BF5E464FF0000B5BEA060C08BF4FF0BE
:10049000010B19EB0B0948EB0608ABFB027C06FBD2
:1004A00002CC0BFB03CCC01B71EB0C01C1E70B466C
:1004B000024641464846BDE8F08B13B5084318BFD5
:1004C0004FF0FF300146AFF30080BDE81C4070479D
:1004D0004FF0000200B5134694469646203922BFDD
:1004E000A0E80C50A0E80C50B1F12001BFF4F7AF28
:1004F000090728BFA0E80C5048BF0CC05DF804EB0A
:10050000890028BF40F8042B08BF704748BF20F877
:10051000022B11F0804F18BF00F8012B7047704775
:1005200070477047754600F02BF8AE4605006946E7
:10053000534620F00700854618B020B5FFF73CFF72
:10054000BDE820404FF000064FF000074FF00008D4
:100550004FF0000BAC46ACE8C009ACE8C009ACE811
:10056000C009ACE8C00921F007018D46704710B5FD
:100570000446AFF300802046BDE81040FFF705BFFA
:10058000004870471800002401491820ABBEFEE760
:100590002600020070470000FEE700000000000097
:1005A000704700000000000072B600BFFEE70000C8
:1005B00044F60400C5F60200816841F00201816042
:1005C0000168890409D4016889045CBF01685FEA95
:1005D000814102D401688904F2D57047000000000F
:1005E000006C70470000000090ED110A7047000099
:1005F00090ED120A704700002DE9F0410E460746C3
:10060000083080211C461546DDF81880FFF760FF92
:10061000C7E900653C81002287F80A802846214608
:10062000BDE8F04100F0C0BD70B504460C300D4689
:1006300004F0B6FA206802F03BFB218960680122D1
:1006400000F0B2FD206804F124011122642303F0BC
:100650009FF838B1218960680022002500F0A4FDD0
:10066000284670BD20680068C169490609D4C1697F
:1006700049065CBFC1695FEA416102D4C1694906AC
:10068000F2D5D4F88420218960680132C4F884202E
:10069000002200F089FD206804F1740608222B4630
:1006A00001680A6202220A621022314602F0E4FF67
:1006B00020B1E06D0130E065002070BD94F8740059
:1006C000FD2853D194F87500EE284FD100200E225A
:1006D0003146002504F034F9B4F88210814249D142
:1006E00094F8800094F8761094F97F209FED242AE6
:1006F00000F007030125C4E90F2301F00F02B4F94C
:100700007730C1F3021184F83820B4F9792000EE73
:10071000103A84F8391094F8811001EE102AD4F8B8
:100720007B2003EE102AB8EEC00A40EA0120B8EEA2
:10073000C11AC0F3CB00B8EEC33A20EE020A6065DE
:1007400021EE021A9FED0F2A23EE023A84ED110AE0
:1007500021EE021A9FED0C2A23EE020A84ED121AF2
:1007600084ED130A2846256570BD00BF0025284684
:10077000256570BD206E256501302066284670BD58
:100780000000803BD00FC94000000038000000008E
:10079000817A80ED050A81810121C18100210161F9
:1007A000C0E90611C0ED080A704700000000000013
:1007B0002DE9F041044600F0FFFC3CB3054694F8F7
:1007C0003500022826D1276840F20F46C4F20206FF
:1007D00040F26F483868B74220F0010038606FF08F
:1007E0000E00C4F202081DDC6F21C4F202018F4228
:1007F0002ADC3F21C4F202018F4241DC1021C4F205
:1008000002018F4263D028215CE000BF0120BDE8D7
:10081000F08100BF802060650120002184F8341041
:10082000BDE8F08147451BDC40F23F41C4F20201C4
:100830008F422DDC40F21041C4F202018F4246D0BB
:1008400040F228413EE000BF9F21C4F202018F42E6
:1008500028DC7021C4F202018F4238D0882131E0B7
:1008600040F29F41C4F202018F4223DC40F270410A
:10087000C4F202018F422AD040F2884122E000BF38
:100880004021C4F202018F4221D058211AE000BF5A
:1008900040F24041C4F202018F4218D040F2584168
:1008A00010E000BFA021C4F202018F420FD0B82196
:1008B00008E000BF40F2B841C4F202018F4206D006
:1008C00040F2A041C4F202018F42394607D13946B5
:1008D000386820F01E0041F8140B6FF080000A68A1
:1008E000474500EA020008601ADC9F20C4F20200BB
:1008F000874233DC5720C4F2020087425ADC1020C2
:10090000C4F20200874200F097802820C4F202005F
:10091000874200F091804020C4F202008AE000BFCC
:1009200045F22F40C5F6020087422DDC40F2B74069
:10093000C4F2020087424BDC40F27040C4F2020075
:10094000874279D040F28840C4F20200874273D0D7
:1009500040F2A040C4F202006CE000BF40F2274029
:10096000C4F20200874243DCA020C4F202008742A6
:1009700062D0B820C4F2020087425DD040F210403D
:10098000C4F2020056E000BF45F26B40C5F602001B
:1009900087423FDC45F23040C5F6020087424BD02B
:1009A00045F24440C5F60200874245D045F2584022
:1009B0003EE000BF5820C4F2020087423CD07020C5
:1009C000C4F20200874237D08820C4F2020031E02E
:1009D00040F2B840C4F2020087422DD045F20840F0
:1009E000C5F60200874227D045F21C4020E000BF38
:1009F00040F22840C4F2020087421DD040F240403D
:100A0000C4F20200874217D040F25840C4F20200FC
:100A100010E000BF45F26C40C5F6020087420BD0E3
:100A200045F29440C5F60200874205D045F2804069
:100A3000C5F60200874205D1206E016821F480715D
:100A4000016000BF3868C00710D000F0B5FB401B44
:100A50000628F7D320206065032084F835000120A4
:100A6000002184F83410BDE8F08100BF206808211F
:100A7000B0424FF03F0211DC6F23C4F202039842F0
:100A80001EDC3F23C4F20203984235DC1023C4F27B
:100A90000203984257D0282350E000BF40451BDC9A
:100AA00040F23F43C4F2020398422DDC40F210436F
:100AB000C4F20203984246D040F228433EE000BF11
:100AC0009F23C4F20203984228DC7023C4F202037D
:100AD000984238D0882331E040F29F43C4F20203A9
:100AE000984223DC40F27043C4F2020398422AD0B9
:100AF00040F2884322E000BF4023C4F20203984240
:100B000021D058231AE000BF40F24043C4F2020350
:100B1000984218D040F2584310E000BFA023C4F21E
:100B2000020398420FD0B82308E000BF40F2A04370
:100B3000C4F20203984206D040F2B843C4F2020362
:100B4000984240F0C580D4E9163707F01F074045AA
:100B500002FA07F25A5019DC9F21C4F202018842BE
:100B600032DC5721C4F20201884259DC1021C4F260
:100B70000201884200F096802821C4F202018842D6
:100B800000F090804021C4F2020189E045F22F413B
:100B9000C5F6020188422DDC40F2B741C4F20201E1
:100BA00088424BDC40F27041C4F20201884279D0A5
:100BB00040F28841C4F20201884273D040F2A04161
:100BC000C4F202016CE000BF40F22741C4F202010E
:100BD000884243DCA021C4F20201884262D0B821DD
:100BE000C4F2020188425DD040F21041C4F2020119
:100BF00056E000BF45F26B41C5F6020188423FDC7A
:100C000045F23041C5F6020188424BD045F24441DD
:100C1000C5F60201884245D045F258413EE000BF8A
:100C20005821C4F2020188423CD07021C4F2020172
:100C3000884237D08821C4F2020131E040F2B84145
:100C4000C4F2020188422DD045F20841C5F60201E6
:100C5000884227D045F21C4120E000BF40F22841E5
:100C6000C4F2020188421DD040F24041C4F20201A8
:100C7000884217D040F25841C4F2020110E000BF90
:100C800045F26C41C5F6020188420BD045F2944111
:100C9000C5F60201884205D045F28041C5F6020141
:100CA00088420BD1616EA26EE06E4A6030B101687D
:100CB00021F480710160D4E91C014160012084F8B5
:100CC00035000020002184F83410BDE8F08100BF19
:100CD0000421012237E70000F0B190F83510022915
:100CE00018D180B540F20F420168C4F2020291426D
:100CF00014DC6F23C4F20203994225DC3F23C4F2C3
:100D0000020399423CDC1023C4F2020399425DD0F5
:100D1000282357E0802141650120704740F26F434E
:100D2000C4F2020399421BDC40F23F43C4F20203C7
:100D300099422DDC40F21043C4F20203994245D09F
:100D400040F228433EE000BF9F23C4F202039942D1
:100D500028DC7023C4F20203994237D0882331E0A3
:100D600040F29F43C4F20203994223DC40F27043F5
:100D7000C4F20203994229D040F2884322E000BF26
:100D80004023C4F20203994220D058231AE000BF46
:100D900040F24043C4F20203994217D040F2584354
:100DA00010E000BFA023C4F2020399420ED0B82382
:100DB00008E000BF40F2B843C4F20203994205D0F4
:100DC00040F2A043C4F20203994275D191424FF020
:100DD000040280F8352011DC6F20C4F20200814249
:100DE00022DC3F20C4F20200814239DC1020C4F230
:100DF0000200814259D0282054E000BF40F26F40E9
:100E0000C4F2020081421BDC40F23F40C4F2020007
:100E100081422DDC40F21040C4F20200814244D0F5
:100E200040F228403EE000BF9F20C4F20200814211
:100E300028DC7020C4F20200814236D0882031E0E4
:100E400040F29F40C4F20200814223DC40F2704035
:100E5000C4F20200814228D040F2884022E000BF64
:100E60004020C4F2020081421FD058201AE000BF87
:100E700040F24040C4F20200814216D040F2584095
:100E800010E000BFA020C4F2020081420DD0B820C3
:100E900008E000BF40F2B840C4F20200814204D032
:100EA00040F2A040C4F202008142086820F0010034
:100EB0000860002080BD00BF0A6822F001020A60BD
:100EC00045F25742C5F6020291420A6822F00E022C
:100ED0000A600FDC45F22F42C5F60202914219DC8E
:100EE00045F20842C5F60202914229D045F21C4261
:100EF00022E000BF45F27F42C5F60202914213DCB8
:100F000045F25842C5F60202914219D045F26C42B0
:100F100012E000BF45F23042C5F6020291420FD006
:100F200045F2444208E000BF45F29442C5F6020291
:100F3000914205D045F28042C5F6020291421AD193
:100F4000D0E9181CD0E916E30A6822F480720A601E
:100F500003F01F01012202FA01F1CEF80410816EA4
:100F6000CCF80410C16E31B10A6822F480720A60B4
:100F7000D0E91C124A60012180F83510016D002271
:100F8000002980F8342094D08847002080BD0000DC
:100F9000406D704700000000B0B5044600F00CF949
:100FA00040F208010546C2F20041621C097818BFF0
:100FB0000C4400BF00F000F9401BA042FAD3B0BDC2
:100FC0002DE9F04F85B00F680390002F00F0E68008
:100FD000039842F2004600F126428C4602F1FF726D
:100FE000C5F602060A21B0424FEAB22600F12000FF
:100FF00008BF09210090082E38BF4FEAB221002413
:1010000000264FF000080191CDF808C00CE000BFA9
:1010100008F10108DCF8007037FA08F106F1020661
:1010200004F1040400F0BA80012000FA08F217EA83
:101030000209EDD0DCF804A003200AF0030B00FA4B
:1010400006F5ABF10107012F12D803988768DCE998
:1010500002C3AF43B3403B438360CAF30017436806
:1010600023EA020207FA08F31A43426008E000BFCD
:10107000DCF808C0BBF1030F08BFBCF1010F2DD095
:1010800003994FEA480EE8430CFA06F3CA68BBF12D
:10109000020F22EA050242EA0302CA601AD183461D
:1010A0006FF0030000EA5802009804F01C050F21BD
:1010B00050F802C001FA05FA02992CEA0A078C4698
:1010C0000B69AB403B438350D1F804A058460AF06B
:1010D000030B0BE0DDF808C008E000BF4FF0030B86
:1010E000B6460BFA06F2DDF808C0D043039B1AF4AB
:1010F000403F1A6802EA00010BFA0EF241EA0201CF
:1011000019603FF485AF44F2F44040F20845C5F65B
:101110000200C5F60005016841F0020101600168A6
:101120000F2001F00201049128F00301049A04F059
:101130000C024B5900FA02F70198BB4300FA02F285
:101140004FF0B0401A434A510168DCF8042041EAEC
:101150000903D70258BF21EA09039702036040F24E
:101160000400C5F60000016841EA090358BF21EAFE
:10117000090397030360D0F8801041EA090358BFC0
:1011800021EA0903D203C0F88030C16F41EA0903A4
:1011900058BF21EA0903C3673AE700BF05B0BDE8BD
:1011A000F08F000000000000002A08BF09048161E0
:1011B000704700000000000040F22820C2F200400A
:1011C000006870470000000040F2080040F228214B
:1011D000C2F20040C2F2004100780A681044086080
:1011E000704700000000000080B5032000F0FCF80C
:1011F00001F062F944F2184144F69E53C5F602012B
:10120000C0F600030A68C2F303229A5C096801F081
:101210000F0102F01F02595CD04040F21402C2F2EA
:10122000004201F01F0120FA01F1116040F21001AB
:10123000C2F2004108600F2000F00AF800281CBF2D
:10124000012080BD00F07CF8002080BD000000007F
:10125000B0B540F20805C2F200452978F1B1044664
:1012600040F21000C2F200404FF47A72B2FBF1F18A
:101270000068B0FBF1F001F047FC0F2C01464FF085
:1012800001000AD8002918BFB0BD4FF0FF3000227E
:10129000214600F079F800206C60B0BD0120B0BD9F
:1012A00010B54EF6A05E4378CEF2000E90F800C066
:1012B0004EF8083CDEF8003023F00103CEF8003091
:1012C00043684EF8043C037BC27A817A447B120661
:1012D00042EA0372837B42EAC141C27B41EA844114
:1012E000447A41EA4341007A41EA024141EA042159
:1012F00041EA400040EA0C00CEF8000010BD0000BA
:101300004EF62450CEF20000BFF35F8F016821F447
:10131000803101600021016770470000000000007B
:101320004EF6245140F00100CEF200010867086833
:1013300040F480300860BFF34F8FBFF36F8F70476A
:1013400081B044F2F440C5F60200016841F00201A8
:101350000160006800F002000090009801B0704742
:10136000002848BF704700F01F01012202FA01F176
:101370004EF20012C0F34A10CEF2000242F82010E2
:10138000704700000000000070B54EF60C5C4FF096
:10139000FF36CEF2000C00F1604505F56445DCF83F
:1013A0000030C3F3022E8EF00703042B28BF042362
:1013B000BEF1030406FA03F321EA030100F00F0370
:1013C00038BF0024043B0028634406FA04F048BFF9
:1013D00003F10C05A14022EA000008430001287037
:1013E00070BD0000000000004EF60C514FF6FF03E8
:1013F000CEF200010A681A4060F30A2242F08060CF
:1014000040F0FD7008607047B0B544F60C05C5F6B5
:10141000020529684907296806D401F00701081A5E
:1014200018BF0120B0BD00BF21F0070108432860AC
:10143000FFF7C2FE044600BF55F8080C800407D42D
:10144000FFF7BAFE001BB0F57A7FF5D90120B0BDD9
:101450000020B0BD0000000080B500F0A5FF44F200
:10146000204144F69E52C5F60201C0F6000209680A
:10147000C1F30211515C01F01F01C84080BD0000A2
:1014800080B544F2384EC5F6020E5EF8103C5EF8A8
:10149000101C5EF80C2CC1F3053CDEF80410BCF106
:1014A000000F19D0C9089FED3C1AD20601EAE2717B
:1014B00003F003026FF35F3100EE101AB8EE400A3A
:1014C000DFE802F0022210225EF8381C89060DD4F3
:1014D0009FED331A18E000BF00218160C0E90011C0
:1014E00080BD00BF9FED2D1A0EE000BF5EF8381CD6
:1014F00049F20002C0F2D032C1F3C10122FA01F177
:1015000001EE101AB8EE411ADEF800109FED253AF0
:101510006FF35F2102EE101ADEF80010C1F34621CE
:10152000B8EE422A013100EE032A00EE10CAB7EEEF
:10153000003AB8EE400A81EE000A32EE031A20EEBD
:10154000010A01EE101AB8EE411A80EE011ABCEE43
:10155000C11A80ED001ADEF80010C1F30641013116
:1015600001EE101AB8EE411A80EE011ABCEEC11A53
:1015700080ED011ADEF80010C1F30661013101EEC1
:10158000101AB8EE411A80EE010ABCEEC00A10EE45
:10159000101A816080BD00BF0024744A20BCBE4B7D
:1015A0000024744C0000003980B544F2404EC5F66A
:1015B000020E5EF8183C5EF8181C5EF8142CC1F39D
:1015C000055CDEF80410BCF1000F19D0C9089FEDCE
:1015D0003C1AD20501EAE27103F003026FF35F31B6
:1015E00000EE101AB8EE400ADFE802F002221022E4
:1015F0005EF8401C89060DD49FED331A18E000BF39
:1016000000218160C0E9001180BD00BF9FED2D1A4F
:101610000EE000BF5EF8401C49F20002C0F2D0327A
:10162000C1F3C10122FA01F101EE101AB8EE411A1C
:10163000DEF800109FED253A6FF35F2102EE101ADD
:10164000DEF80010C1F34621B8EE422A013100EE67
:10165000032A00EE10CAB7EE003AB8EE400A81EE57
:10166000000A32EE031A20EE010A01EE101AB8EE5B
:10167000411A80EE011ABCEEC11A80ED001ADEF8A4
:101680000010C1F30641013101EE101AB8EE411A03
:1016900080EE011ABCEEC11A80ED011ADEF80010CE
:1016A000C1F30661013101EE101AB8EE411A80EE65
:1016B000010ABCEEC00A10EE101A816080BD00BFA6
:1016C0000024744A20BCBE4B0024744C0000003936
:1016D0002DE9F0470446C07844F22C480007C5F6CF
:1016E000020828D5606E4FEA305103292AD8DFE876
:1016F00001F0030B131B00BFD8F8001041F40031B8
:10170000C8F8001010E000BF04F10800022102F048
:10171000E7F9064680B906E004F12800022102F04C
:1017200073FA064640B9606ED8F8241021F44011CF
:101730000843C8F8240000266078C00706D1354663
:101740002FE000BF01266078C007F8D0A06D042804
:101750003ED83546DFE800F004140E0B0B0000BF46
:10176000D8F80000354640F40030C8F800002F4695
:10177000C5B90DE004F12800002102F045FA04E0AB
:1017800004F10800002102F0ABF905462F464DB9DF
:10179000D8F82400A16D20F0070000250843C8F800
:1017A00024003746607840073AD5D4F8A4004FEAC1
:1017B0007050052818D8DFE800F0031D11232323FB
:1017C000D8F8000040F40030C8F8000018E000BF6E
:1017D0000125012760784007E7D421E004F12800C3
:1017E000002102F011FA0AE00125012660780007C5
:1017F0001AD44FE004F10800002102F071F9054607
:101800002E461DB1607800070ED443E0D8F82C00B6
:10181000D4F8A41020F4600000250843C8F82C0078
:101820003E466078000735D5D4F8A8004FEA30600E
:10183000052813D8DFE800F004180C1E1E1E00BF98
:10184000D8F8000040F40030C8F8000012E000BFF3
:1018500004F12800002102F0D7F90AE00125012750
:10186000E07880071AD434E004F10800002102F087
:1018700037F905462F461DB1E07880070ED428E0E1
:10188000D8F82C00D4F8A81020F0E0600025084318
:10189000C8F82C003746E07880071AD5E06C4FEA8C
:1018A0003010032838D8DFE800F009032D0900BF05
:1018B000D8F8000040F40030C8F800002E464DB9BA
:1018C000D8F82000E16C20F0300000250843C8F86B
:1018D00020003E466078C00639D5E06D4FEA3030D2
:1018E000042847D8DFE800F004221C0A0A0000BFE1
:1018F000D8F8000040F40030C8F800002F463DBB87
:101900001CE000BF04F10800022102F0E9F80546DE
:10191000002D2E46DED1D3E701250126DAE700BFF0
:1019200004F12800002102F06FF904E004F108003E
:10193000002102F0D5F805462F464DB9D8F824000D
:10194000E16D20F4E04000250843C8F82400374644
:101950006078800635D5206E4FEA3040052815D8CE
:10196000DFE800F0041A0E04040400BF2E46DDB9BF
:101970001EE000BF0125012760788006EBD420E03F
:1019800004F12800012102F03FF90AE001250126B7
:101990006078400619D449E004F10800012102F002
:1019A0009FF805462E461DB1607840060DD43DE0F7
:1019B000D8F82400216E20F4E02000250843C8F860
:1019C00024003E466078400630D5D4F8AC004FEA9B
:1019D000307005280ED8DFE800F003130703030377
:1019E0002F46ADB918E000BF04F12800012102F034
:1019F0000BF90AE001250127607800061AD43CE0C3
:101A000004F10800012102F06BF805462F461DB1D4
:101A1000607800060ED430E0D8F82C00D4F8AC1072
:101A200020F0E04000250843C8F82C0037466078D5
:101A3000000622D5E06E58B1B0F1005F0CD0B0F1D5
:101A4000805F37D1D8F8000040F40030C8F80000BB
:101A50002E469DB908E000BF04F10800012102F004
:101A60003FF805462E464DB9D8F82400E16E20F027
:101A7000405000250843C8F824003E46E078C007DF
:101A80001DD0A06C032855D8DFE800F008024A08F2
:101A9000D8F8000040F40030C8F80000A9467DB92D
:101AA000D8F82000A16C20F0030000250843C8F8F6
:101AB000200004E001250126E078C007E1D1B1460D
:101AC000A078400602D44F4618E000BFD8F8D403EF
:101AD00040F48070C8F8D403FFF76EFB064600BFE1
:101AE000D8F8D403C00507D4FFF766FB801B642831
:101AF000F6D90325032701E02F46FDB12078C00762
:101B000000F06F80A06F4FEAF00005284ED8DFE8A4
:101B100000F0035347030303002D2E4654D157E032
:101B200004F10800022101F0DBFF0546002DA94663
:101B3000C6D1B5E701254FF00109C1E7D8F8441037
:101B4000D4F8B000414011F4407F11D0D8F84410CF
:101B5000D8F8442042F48032C8F84420D8F8442011
:101B600021F4407122F48032C8F84420C8F84410AF
:101B7000B0F5807F40F0D082FFF71EFB064641F2B1
:101B8000883A0325032700BFD8F84400800700F1F6
:101B9000C182FFF711FB801B5045F5D9AEE700BFAE
:101BA00004F12800012102F02FF80AE001250126A6
:101BB0002078800719D446E004F10800012101F0E3
:101BC0008FFF05462E461DB1207880070DD43AE0E0
:101BD000D8F82800A16F20F0380000250843C8F885
:101BE00028003E46207880072DD5606F05280FD845
:101BF000DFE800F004140804040400BF2F46ADB968
:101C000018E000BF04F12800012101F0FDFF0AE007
:101C1000012501272078400719D447E004F1080086
:101C2000012101F05DFF05462F461DB120784007D8
:101C30000DD43BE0D8F82800616F20F007000025A4
:101C40000843C8F828003746207840072ED5D4F836
:101C5000900005280ED8DFE800F003130703030304
:101C60002E46ADB918E000BF04F12800012101F0B3
:101C7000CBFF0AE001250126207880061AD44BE02C
:101C800004F10800012101F02BFF05462E461DB18D
:101C9000207880060ED43FE0D8F82C00D4F89010BD
:101CA00020F0070000250843C8F82C003E462078A5
:101CB000800631D5D4F88C004FEA307005280FD853
:101CC000DFE800F004140804040400BF2F46ADB997
:101CD00018E000BF04F12800022101F095FF0AE09E
:101CE00001250127207840061AD44BE004F10800B2
:101CF000002101F0F5FE05462F461DB12078400673
:101D00000ED43FE0D8F82800D4F88C1020F0E04042
:101D100000250843C8F8280037462078400631D50A
:101D2000D4F898004FEAB02005280FD8DFE800F07B
:101D300004140804040400BF2E46ADB918E000BF27
:101D400004F12800022101F05FFF0AE001250126CD
:101D5000207800061AD44EE004F10800002101F0BA
:101D6000BFFE05462E461DB1207800060ED442E087
:101D7000D8F82C00D4F8981020F4E050002508433F
:101D8000C8F82C003E462078000634D5D4F89C00D4
:101D90004FEA7030052815D8DFE800F0041A0E0469
:101DA000040400BF2F46E5B12068010727D4C1060F
:101DB0003ED4000355D477E004F12800022101F05D
:101DC00023FF0AE00125012720680107EFD516E06F
:101DD00004F10800002101F083FE0546002D2F4686
:101DE000E2D1D8F82C00D4F89C1020F460400025F3
:101DF0000843C8F82C00374620680107D7D5D4F827
:101E00008000B0F5805F09D104F12800022101F0C3
:101E1000FBFE002818BF0127D4F88000D8F828104E
:101E200021F440510843C8F828002068C106C0D5F5
:101E3000D4F89400B0F5807F09D104F12800022184
:101E400001F0E2FE002818BF0127D4F89400D8F86A
:101E50002C1021F440710843C8F82C0020680003BE
:101E600022D5D4F8A000B0F5003F11D0B0F5803FE6
:101E700008D0002844D104F10800002101F030FE10
:101E800005E000BF04F12800022101F0BDFE054677
:101E90002E4655B9D8F82C00D4F8A01020F44030C4
:101EA00000250843C8F82C003E46A07840072CD5F2
:101EB000D4F88400B0F5401F0BD0B0F5001F0BD054
:101EC000B0F5801F2AD1D8F8000040F40030C8F8DF
:101ED00000002F46D5B907E004F12800012101F0E8
:101EE00093FE05462F468DB9D8F82800D4F8841003
:101EF00020F4401000250843C8F8280005E000BF82
:101F000001250126A0784007D2D43746A078C00723
:101F100009D13E462168880015D532E00125012708
:101F2000A078C007F5D0206DB0F5803F10D018BB69
:101F3000D8F8000040F40030C8F800002E4685B103
:101F4000216888001DD460688A0326D465E000BF3C
:101F500004F10800022101F0C3FD0546002D2E46C4
:101F6000EED1D8F82000216D20F480300025084300
:101F7000C8F82000CDE700BF0125012621688800B0
:101F8000E1D504F12800022101F03EFE002818BF2F
:101F90000126D4E900108A033FD5E26F6FF00103F8
:101FA00003EB3223022B0BD34FEA322343B1012B35
:101FB00040F0AA80D8F8003043F40033C8F800306D
:101FC00025B3CA022CD48A0234D44A003CD4CA0FA6
:101FD00049D1090251D4C1075AD1810763D44107BD
:101FE0006CD4010776D4C10600F18080800607D545
:101FF00004F12800022101F007FE002818BF012586
:10200000002D18BF01252846BDE8F087D8F82830F4
:1020100023F440731A43C8F828203546CA02D2D5A3
:10202000D8F82420236F22F000421A43C8F8242055
:102030008A02CAD5D8F82420A36E22F080721A43EF
:10204000C8F824204A00C2D558F81C2C22F40042BB
:1020500048F81C2CD4F8B42058F81C3C1A4348F813
:102060001C2CCA0FB5D0D8F82020636D22F0405246
:102070001A43C8F820200902ADD5D8F82810D4F8A2
:10208000882021F440011143C8F82810C107A4D0CA
:1020900004F10800002101F023FD002818BF0546C7
:1020A000606881079BD504F10800012101F018FD4B
:1020B000002818BF05466068410792D504F1080062
:1020C000022101F00DFD002818BF054660680107D8
:1020D0007FF589AF04F12800002101F095FD00286B
:1020E00018BF05466068C1067FF580AF04F128007F
:1020F000012101F089FD002818BF054660688006AF
:102100003FF576AF7CE700BF0125CA027FF55BAFE4
:1021100086E700BFD4F8B0004FF6CF7358F81C2CF8
:10212000C0F2FF0300F4407122F47C5203EA101362
:102130006FF31F30B1F5407F08BF1A43002548F800
:102140001C2CD8F844100843C8F84400FFF7BBBC67
:102150002DE9F04381B0002800F0208142F200090F
:102160000446C5F20029D9F8000000F00F008142B2
:102170000DD9D9F8000020F00F000843C9F800007D
:10218000D9F8000000F00F00884240F00781206875
:1021900044F218464207C5F602060AD5226933689A
:1021A00003F070039A4204D9336823F070031A4392
:1021B000326002070AD56269736803F070039A42BD
:1021C00004D9736823F070031A437260C2060AD5FB
:1021D000A269736803F4E0639A4204D9736823F434
:1021E000E0631A43726082060AD5E269B36803F0BD
:1021F00070039A4204D9B36823F070031A43B260A3
:1022000010F002020AD0E368376807F00F07BB42FC
:1022100004D9376827F00F073B433360C3073FD02B
:10222000306820F47062D4E901031A433260012857
:1022300056F8182C0AD0032804D002280AD1920399
:102240000BD4ABE0920108D4A8E000BFD20504D4BF
:10225000A4E000BF520740F1A180884656F8081C50
:1022600021F00701084346F8080CFEF7A5FF0546D4
:1022700041F2883756F8080C616800F03800B0EB7E
:10228000C10F09D0FEF798FF401BB842F2D90320D6
:1022900001B0BDE8F08300BF2068414600F00202B3
:1022A00052B1E268336803F00F039A4204D23368F4
:1022B00023F00F031A433260D9F8002002F00F0216
:1022C00091420CD2D9F8002022F00F020A43C9F83B
:1022D0000020D9F8002002F00F028A425ED14107A7
:1022E0000AD52169326802F07002914204D2326844
:1022F00022F070021143316001070AD561697268EA
:1023000002F07002914204D2726822F0700211430E
:102310007160C1060AD5A169726802F4E062914257
:1023200004D2726822F4E0621143716080060AD51B
:10233000E069B16801F07001884204D2B16821F00F
:1023400070010843B06000F0B7F8316844F69E525F
:10235000C0F60002C1F30321515C336803F00F03A0
:1023600001F01F01D25C20FA01F102F01F0040F2DF
:102370001402C2F2004221FA00F0106040F20C0098
:1023800040F21002C2F20040C2F200420068116046
:1023900001B0BDE8F043FEF75BBF00BF012001B014
:1023A000BDE8F0830000000080B500F085F844F23D
:1023B000184144F69E53C5F60201C0F600030A68B0
:1023C000C2F303229A5C096801F00F0102F01F02B8
:1023D000595C20FA02F201F01F0040F21401C2F22F
:1023E000004122FA00F0086040F21001C2F2004100
:1023F0000A6080BD0000000080B500F05DF844F286
:10240000184C44F69E53C5F6020CC0F60003DCF8E7
:102410000020C2F303229A5CDCF8001001F00F01E7
:1024200002F01F02595CD04040F21402C2F2004296
:1024300001F01F0120FA01F1116040F21002C2F216
:1024400000421060DCF80400C0F30210185C00F0D9
:102450001F0021FA00F080BD80B500F02DF844F295
:10246000184C44F69E53C5F6020CC0F60003DCF887
:102470000020C2F303229A5CDCF8001001F00F0187
:1024800002F01F02595CD04040F21402C2F2004236
:1024900001F01F0120FA01F1116040F21002C2F2B6
:1024A00000421060DCF80400C0F30220185C00F069
:1024B0001F0021FA00F080BD44F20041C5F6020180
:1024C0000869C0F3C200032816D002280ED00028E5
:1024D00032D10868800649F20000C0F2D03058BFFF
:1024E00070470968C1F3C101C840704747F6400012
:1024F000C0F27D10704700BF8B6A886AD1F82CC08B
:102500004A6BC0F30510E8B1C2F3CC0203F0030339
:1025100000EE102A9FED2A1AB8EE400A20EE010ABA
:102520009FED281ADFE803F0022110210A689206C5
:102530000ED49FED261A18E040F60010C0F23D00C0
:10254000704700BF002070479FED1F1A0DE000BFCD
:102550000A6849F20003C0F2D033C2F3C10223FA81
:1025600002F201EE102AB8EE411A0A6B9FED183AFA
:102570006FF35F2202EE102A5FEACC7203FE000ABC
:1025800003EE100A086BB8EE422AC0F34620B8EEFC
:10259000433A013030EE020AB7EE002A81EE031A08
:1025A00030EE020A21EE000A01EE100AB8EE411ADE
:1025B00080EE010ABCEEC00A10EE100A704700BFA0
:1025C000000000390024744A20BCBE4B0024744C27
:1025D000000000000000000070B3F0B581B00446B8
:1025E000007844F20046C007C5F6020626D12078DE
:1025F00080076AD5306910F03801B06A42D01829D6
:1026000008BF5FEA80703DD0E0683168002800F0C4
:102610002D8121F0190108433060FEF7CDFD0546FC
:10262000306840074AD4FEF7C7FD401B0228F7D99F
:10263000032001B0F0BD00BF01207047306900F0F9
:102640003801B06A102905D018290BD100F0030019
:10265000022807D130688003C9D560680028C6D138
:10266000AAE000BF61683068002900F03981B1F547
:10267000A02F00F02D81B1F5803F40F0478140F45C
:10268000803049E130684007E06802D5002800F05A
:102690009380316821F0190108433060FEF78CFD0A
:1026A000054600BF3068400708D4FEF785FD401B93
:1026B00002284FF00300F5D901B0F0BD7068216920
:1026C00020F0FE4040EA016070602078C0061AD514
:1026D000306900F03801B06A082907D0182940F0A5
:1026E000858000F00300012840F080803068C0053C
:1026F00002D5E06980285FD1F068216A20F07C5023
:1027000040EA0160F060207800073FD4207880061E
:1027100056D42078400700F18180656A9DB3306906
:1027200000F03800182840F01981012DB16A306B93
:1027300042D001F00302A36A9A423DD1C1F30511D0
:10274000E26A914238D10146226B6FF35F21013A70
:10275000914231D1C0F34622616B01398A422BD1BB
:10276000C0F30642A16B01398A4225D1C0F306604D
:10277000E16B013988421FD1706BA16CC0F3CC00B2
:10278000814240F0A581002001B0F0BD60690028C1
:10279000706F59D040F001007067FEF70DFD0546DF
:1027A000706F8007B2D4FEF707FD401B0228F7D9EF
:1027B000032001B0F0BD00BF012001B0F0BD00BF9B
:1027C000A0690028306871D040F480503060FEF776
:1027D000F3FC0546306880049BD4FEF7EDFC401BFB
:1027E0000228F7D9032001B0F0BD00BFE06900283E
:1027F000306800F0A18040F080003060FEF7DCFC23
:10280000054600BF3068C0053FF576AFFEF7D4FC43
:10281000401B02284FF00300F4D94DE7D6F800041E
:1028200040F48070C6F80004FEF7C6FC054600BF01
:10283000D6F80004C0052BD4FEF7BEFC401B64286C
:10284000F6D9032001B0F0BD20F001007067FEF75B
:10285000B3FC0546706F80077FF558AFFEF7ACFC00
:10286000401B02284FF00300F4D925E721F00100B6
:102870003060FEF7A1FC0546306840077FF525AFC4
:10288000FEF79AFC401B02284FF00300F4D913E72F
:10289000A168306F002900F08B80052900F080804E
:1028A000012940F09D8040F001009FE020F480501D
:1028B0003060FEF781FC0546306880047FF529AF63
:1028C000FEF77AFC401B02284FF00300F4D9F3E630
:1028D00040F480203060306840F480301CE000BF5D
:1028E00020F480303060306820F480203060FEF7C3
:1028F00063FC0546306880037FF579AEFEF75CFC2B
:10290000401B64284FF00300F4D9D5E620F4803052
:102910003060306820F480203060FEF74DFC0546C2
:10292000306880033FF563AEFEF746FC401B642829
:10293000F6D9032001B0F0BD20F080003060FEF732
:102940003BFC05463068C0057FF5DDAEFEF734FC84
:10295000401B02284FF00300F4D9ADE6306820F0A8
:1029600080703060FEF728FC022D05460CD100BFB8
:10297000306880014CD5FEF71FFC401B02284FF049
:102980000300F5D998E600BF306880017FF5FBAE03
:10299000FEF712FC401B02284FF00300F4D98BE62F
:1029A00040F004003067306F40F001001EE000BFCF
:1029B00020F001003067306F20F004003067FEF730
:1029C000FBFB054641F28837306F80077FF5A5AEE7
:1029D000FEF7F2FB401BB8424FF00300F4D96BE660
:1029E00020F001003067306F20F004003067FEF700
:1029F000E3FB054641F28837306F80073FF58DAE27
:102A0000FEF7DAFB401BB8424FF00300F4D953E65F
:102A100004F12807B06A40F2F33188438ECF0843AF
:102A2000591E40EA02104FF47E426FF35F21B062FC
:102A300002EB47204FF4FE0280B2E36B0844A16B27
:102A400002EB01414FF0FE4201F4FE0102EB036292
:102A5000084402F0FE4108443063F06A4FF6F87112
:102A600020F00100F062706BA26C884340EAC20063
:102A70007063F06A216C20F00C000843F062F06A89
:102A8000616C20F002000843F062F06A40F480308C
:102A9000F062F06A40F40030F062F06A40F48020A6
:102AA000F062F06A40F00100F062306840F080703F
:102AB0003060FEF781FB0446306880013FF563AE6D
:102AC000FEF77AFB001B02284FF00300F4D9F3E570
:102AD000F06A20F00100F062FEF76EFB0546FEF79B
:102AE0006BFBA842FBD0706B4FF6F871A26C884369
:102AF00040EAC2007063F06A40F00100F06200201A
:102B000001B0F0BD00000000411E0020B0EB116FCD
:102B100002D00120704700BF4EF21002F023CEF227
:102B2000000251604EF62351CEF200010B700721D6
:102B3000906011607047000090F88410012901D165
:102B4000022070472421C0F8881001680A680B68C9
:102B500022F0005223F001030B60002343660A6059
:102B60002021C0F8881080F88430002070470000D1
:102B700070470000000000007047000000000000E7
:102B800090F88420012A01D10220704770B52422D8
:102B9000C0F888200268D0F864E0BEF1000FD2F8D7
:102BA00000C0136823F001031360936823F060638F
:102BB00041EA0301916019D0916844F6C67E93689A
:102BC000C0F6000E5B0F44F6CE75C1F34266C0F648
:102BD00000051EF80340E95C2301B3FBF1F11EF888
:102BE0000630AE5D1B01B3FBF6F301E001210123CA
:102BF000A0F86A102021A0F86830C2F800C0C0F820
:102C00008810002180F88410002070BD00000000B2
:102C100090F88420012A01D10220704770B5242247
:102C2000C0F888200268D0F864E0BEF1000FD2F846
:102C300000C0136823F001031360936823F060431E
:102C400041EA0301916019D0916844F6C67E936809
:102C5000C0F6000E5B0F44F6CE75C1F34266C0F6B7
:102C600000051EF80340E95C2301B3FBF1F11EF8F7
:102C70000630AE5D1B01B3FBF6F301E00121012339
:102C8000A0F86A102021A0F86830C2F800C0C0F88F
:102C90008810002180F88410002070BD0000000022
:102CA00070470000000000007047000000000000B6
:102CB00010B50446206850E8000F216820F4907099
:102CC00041E80002F2B1206850E8000F216820F4CA
:102CD000907041E80002002A1FBF206850E8000FF2
:102CE000216820F490701CBF41E80002002A09D03E
:102CF000206850E8000F216820F4907041E800023D
:102D0000002AD7D14FF6FE70CEF6FF70216851E849
:102D1000021F2268014042E80213DBB1216851E83A
:102D2000021F2268014042E80213002B1FBF2168E6
:102D300051E8021F226801401CBF42E80213002B29
:102D400008D0216851E8021F2268014042E80213BE
:102D5000002BDBD1E06E012827D1206850E8000F5E
:102D6000216820F0100041E80002F2B1206850E82C
:102D7000000F216820F0100041E80002002A1FBF68
:102D8000206850E8000F216820F010001CBF41E8C7
:102D90000002002A09D0206850E8000F216820F0C6
:102DA000100041E80002002AD7D120688068400660
:102DB0003AD5206850E8020F216820F0400041E831
:102DC0000202F2B1206850E8020F216820F04000B2
:102DD00041E80202002A1FBF206850E8020F216864
:102DE00020F040001CBF41E80202002A09D0206800
:102DF00050E8020F216820F0400041E80202002A5A
:102E0000D7D1D4F8800078B100210165FDF7D0FC5E
:102E100050B1D4F88000FEF7BBF8202804D1102070
:102E2000C4F89000032010BD20680F210162816961
:102E300041F0080181612020C4F88C000020E06688
:102E400010BD0000000000007047000000000000FE
:102E500070B5016840F62F02CB691A40202A0A6833
:102E60008E680BD102F0200406F080552D1917D082
:102E7000416F69B3BDE87040084700BF40F60F05D9
:102E80002B420DD0012540F22014C1F20005C0F202
:102E9000004406EA050C02EA040515EB0C0525D1F1
:102EA000DD06C46E16D5012C14D112F0100511D018
:102EB00010220A628968490666D4B0F85C10B0F83E
:102EC0005E20B0F85E30002B18BF914240F068825F
:102ED00070BD00BFDD0215D516F4800512D04FF489
:102EE00080120A62BDE87040FFF7DEBEDD0718BF42
:102EF00012F4807540F02A819D0706F0010E00F162
:102F000031813AE1190606D502F0800106F4000687
:102F1000891940F0CB82590640F10C8112F0400132
:102F200000F00881016851E8001F026821F04001AB
:102F300042E80013F3B1016851E8001F026821F074
:102F4000400142E80013002B1FBF016851E8001F39
:102F5000026821F040011CBF42E80013002B09D099
:102F6000016851E8001F026821F0400142E80013A7
:102F7000002BD7D12021C0F8881000218167BDE83F
:102F8000704000F0BDBC00BFD0F8802011684B68D5
:102F9000B0F85C4099B2002900F0C280A14280F0F4
:102FA000BF80A0F85E30D169B1F5807F00F0AC80C1
:102FB000016851E8001F026821F4807142E80013A3
:102FC000F3B1016851E8001F026821F4807142E802
:102FD0000013002B1FBF016851E8001F026821F495
:102FE00080711CBF42E80013002B09D0016851E832
:102FF000001F026821F4807142E80013002BD7D132
:10300000016851E8021F026821F0010142E8021341
:10301000F3B1016851E8021F026821F0010142E8A2
:103020000213002B1FBF016851E8021F026821F044
:1030300001011CBF42E80213002B09D0016851E8CE
:10304000021F026821F0010142E80213002BD7D1D0
:10305000016851E8021F026821F0400142E80213B2
:10306000F3B1016851E8021F026821F0400142E813
:103070000213002B1FBF016851E8021F026821F0F4
:1030800040011CBF42E80213002B09D0016851E83F
:10309000021F026821F0400142E80213002BD7D141
:1030A0002021C0F88C100021C166016851E8001F82
:1030B000026821F0100142E80013F3B1016851E801
:1030C000001F026821F0100142E80013002B1FBF0F
:1030D000016851E8001F026821F010011CBF42E89E
:1030E0000013002B09D0016851E8001F026821F08D
:1030F000100142E80013002BD7D1D0F8801004460D
:103100000846FDF755FB204602210167B0F85C1028
:10311000B0F85E20891A89B2BDE87040FFF728BD7B
:103120008C427FF4D5AED269B2F5807F7FF4D0AE09
:10313000B6E100BF190240F1C58112F0804100F0F4
:10314000C181BDE87040FFF7ABBD00BF01250D6236
:10315000D0F8905045F00105C0F890509D0706F05A
:10316000010E0AD5BEF1000F07D002240C62D0F880
:10317000904044F00404C0F890405C070AD5BEF1CA
:10318000000F07D004250D62D0F8905045F00205DD
:10319000C0F890501D070CD502F0200555EA0C052B
:1031A00007D008250D62D0F8905045F00805C0F80A
:1031B00090501D050BD512F0806508D04FF40065C6
:1031C0000D62D0F8905045F02005C0F89050D0F82E
:1031D0009050002D3FF47CAE9B060BD502F02002F0
:1031E00006F08053D21805D0426F1AB104469047BA
:1031F00020462168D0F89020896801F0400102F053
:103200002802891806D10446FFF71EFE0020C4F8E4
:10321000900070BD016851E8001F026821F49071B0
:1032200042E80013F3B1016851E8001F026821F47D
:10323000907142E80013002B1FBF016851E8001F86
:10324000026821F490711CBF42E80013002B09D0E2
:10325000016851E8001F026821F4907142E80013F0
:10326000002BD7D14FF6FE71CEF6FF71026852E8FF
:10327000022F03680A4043E80226DEB1026852E8E2
:10328000022F03680A4043E80226002E1FBF02688F
:1032900052E8022F03680A401CBF43E80226002EB2
:1032A00008D0026852E8022F03680A4043E8022669
:1032B000002EDBD1C16E012927D1016851E8001F22
:1032C000026821F0100142E80013F3B1016851E8EF
:1032D000001F026821F0100142E80013002B1FBFFD
:1032E000016851E8001F026821F010011CBF42E88C
:1032F0000013002B09D0016851E8001F026821F07B
:10330000100142E80013002BD7D12021C0F88C1007
:103310000021C166026841679168490640F1CE808C
:10332000016851E8021F026821F0400142E80213DF
:10333000F3B1016851E8021F026821F0400142E840
:103340000213002B1FBF016851E8021F026821F021
:1033500040011CBF42E80213002B09D0016851E86C
:10336000021F026821F0400142E80213002BD7D16E
:10337000D0F88010002900F0A18044F239120446F0
:103380000846C0F600020A65FDF7A6FC00283FF4D7
:103390009FADD4F88000016DBDE87040084700BFC4
:1033A000891A026852E8002F036822F4907243E8F9
:1033B0000026F6B1026852E8002F036822F49072EA
:1033C00043E80026002E1FBF026852E8002F036862
:1033D00022F490721CBF43E80026002E09D0026838
:1033E00052E8002F036822F4907243E80026002E72
:1033F000D7D14FF6FE72CEF6FF72036853E8023F54
:103400000668134046E80235DDB1036853E8023F21
:103410000668134046E80235002D1FBF036853E8D5
:10342000023F066813401CBF46E80235002D08D055
:10343000036853E8023F0668134046E80235002D52
:10344000DBD12022C0F88C200022C26642670268CD
:1034500052E8002F036822F0100243E80026F6B17C
:10346000026852E8002F036822F0100243E80026A9
:10347000002E1FBF026852E8002F036822F01002DE
:103480001CBF43E80026002E09D0026852E8002F36
:10349000036822F0100243E80026002ED7D189B23B
:1034A00002220267BDE87040FFF762BB816F00290E
:1034B0003FF40EADBDE87040084700BFBDE8704066
:1034C000FFF7C2BCD9017FF503ADB2F1FF3FC8BF22
:1034D00070BDBDE87040FFF74FBB0000000000006A
:1034E00010B5D8B10446D0F8880028B9002084F877
:1034F0008400204600F028F82420C4F888002068C2
:10350000A16A0268002922F00101016002D0204670
:1035100000F0EAFC204600F013FE08B1012010BDC7
:103520002068416821F490414160816821F02A01BE
:103530008160016841F0010101602046BDE8104052
:1035400000F042BD000000002DE9F041B6B0044695
:1035500002A8B8210025CDE93455CDE93255319581
:10356000FCF7B6FF44F600012068C4F2000188426F
:103570004CD041F60001C4F20101884277D102A883
:103580004FF00008CDF80C8001240294FEF7A0F85B
:1035900008B1FDF709F844F2E0400227C5F6020041
:1035A00031AD0B26016941F040010161016901F073
:1035B000400101910199016841F0400101600068FA
:1035C000294600F04000019001983194CDE9327411
:1035D00041F60004CDF8D080C5F6020435962046A9
:1035E000FDF7EEFC20462946CDE93177CDE9338859
:1035F0003596FDF7E5FC9B2000210022FDF7C4FE77
:103600009B20FDF7ADFE36B0BDE8F08102A8039522
:1036100002240294FEF75CF808B1FCF7C5FF44F2FF
:10362000E040C5F60200816841F480218160816834
:1036300001F4802101910199016841F002010160CA
:10364000006841F6000100F002000190C5F6020199
:1036500001984FF44060CDE931040020CDE93300FA
:1036600007203590A1F5A05031A9FDF7A9FC36B08F
:10367000BDE8F081000000002DE9F04381B0044670
:10368000D0F88C00202809D10E460120002918BF4F
:10369000002A07D101B0BDE8F08300BF022001B0CD
:1036A000BDE8F0831D460020C4F890002221C4F834
:1036B0008C101746E066FDF77FFDA4F85C7080462D
:1036C000A4F85E70A168E9B1B1F1805F16D0B1F5E0
:1036D000805F1BD12069FF27014600281CBF3146AF
:1036E0000026002808BF40F2FF17B1460E46A4F896
:1036F0006070B4F85E0098B937E000BF206918B177
:103700003F2706E0206918B17F2702E0002700E08C
:10371000FF274FF00009A4F86070B4F85E0020B3F2
:103720002021002220464346009500F059FF18BB97
:103730002068406A46B1384006F8010BD4F88C0086
:10374000222809D020E000BF384029F8020B0026CB
:10375000D4F88C00222817D1B4F85E000138A4F800
:103760005E00B4F85E000028DAD100202021C4F801
:103770008C1001B0BDE8F08303202021C4F88C1028
:1037800001B0BDE8F08300BF012001B0BDE8F083C7
:103790002DE9F04381B00446D0F88800202809D1F3
:1037A00088460120002918BF002A07D101B0BDE8D2
:1037B000F08300BF022001B0BDE8F0831D46002069
:1037C000C4F890002120C4F888001646FDF7F4FCE8
:1037D000A4F85460A4F856600646A168B1F5805F6D
:1037E00002D12069002843D047464FF00008B4F8C2
:1037F00056002168002841D005F10109C86900067A
:103800000ED4B9F1000F0FD0002D61D0FDF7D4FC1C
:10381000801BA8425ED821680868C8690006F5D5F3
:1038200087B117F8010B12E0C8690006F8D4C8691F
:1038300000065CBFC8695FEA0060F1D4C869000691
:10384000F2D5EDE738F8020B00276FF35F208862AE
:10385000D4F8880000F0210021284BD1B4F856009C
:103860000138A4F85600B4F856000028C6D105E087
:103870000027B4F8560021680028BDD1C869400669
:103880001ED42DB3681C14D1C86940062AD4C86957
:10389000400627D4C869400624D4C86940064FF0C2
:1038A0000000F1D50DE000BF20680168C069400646
:1038B00018D4FDF781FC801BA842F5D90AE000BFAF
:1038C00000202021C4F8881001B0BDE8F08300BFBB
:1038D000FDF772FC03202021C4F8881001B0BDE878
:1038E000F08300BF00202021C4F8881001B0BDE89B
:1038F000F08300BF012001B0BDE8F08300000000AC
:103900007047000000000000FEE70000000000001B
:1039100070B586B044F2E0400025C5F6020005957A
:10392000CDE90355CDE90155016841F2004441F06C
:10393000040101600168C5F6020401F00401009170
:103940000099016841F0800101600168002201F0E6
:10395000800100910099016841F020010160016837
:103960004FF4804601F0200100910099016841F078
:1039700040010160016801F0400100910099016877
:1039800041F002010160016801F00201009100991B
:10399000016841F00101016000684FF4804100F0CE
:1039A0000100009000982046FDF7FEFB012001A9D0
:1039B000CDE90205204601960495FDF701FB06B00E
:1039C00070BD00000000000080B540F20C1041F610
:1039D0000001C2F2004040F60012C4F20101C0F240
:1039E0003D02C0E9001200210161C0E902110C2270
:1039F000C0E90521C0E90711C0E90911FFF770FD11
:103A000008B1FCF7D1FD40F20C100021C2F20040D9
:103A1000FFF7FEF808B1FCF7C7FD40F20C100021DB
:103A2000C2F20040FFF7ACF808B1FCF7BDFD40F270
:103A30000C10C2F20040FFF77FF8002808BF80BDDD
:103A4000BDE88040FCF7B0BD80B540F2780044F698
:103A50000001C2F20040C4F200010C2201604FF4E8
:103A6000612141600021C0E902110161C0E9052125
:103A7000C0E90711C0E90911FFF732FD08B1FCF7F1
:103A800093FD40F278000021C2F20040FFF7C0F839
:103A900008B1FCF789FD40F278000021C2F2004035
:103AA000FFF76EF808B1FCF77FFD40F27800C2F234
:103AB0000040FFF741F8002808BF80BDBDE8804006
:103AC000FCF772BD00000000FEE7000000000000EF
:103AD000FEE700000000000070470000000000004A
:103AE000F0B581B044F22C47C5F6020757F8042C14
:103AF00002F00302032A03D1012001B0F0BD00BF90
:103B0000054657F82C0C0C4620F0806047F82C0C2A
:103B1000FDF752FB064600BF57F82C0C000105D5F7
:103B2000FDF74AFB801B0228F6D964E057F8040C25
:103B3000EE6895E80E0020F47C30012C40EA01305C
:103B4000A2F101016FF35F214FF47E4202EB4322A9
:103B500047F8040C92B24FF0FE4302EB01004FF421
:103B6000FE012A6901EB064101F4FE0103EB02624A
:103B7000084402F0FE410844F8603868696920F0A2
:103B8000C00040EA010038603868A96920F02000D0
:103B900040EA0100386038684FF6F87120F01000F4
:103BA00038603869EA6920EA01004FF4001140EA00
:103BB000C2003861386808BF4FF4801140F010002F
:103BC000002C386008BF4FF4002138680843386083
:103BD00057F82C0C40F0806047F82C0CFDF7ECFAFD
:103BE000044600BF57F82C0C000107D4FDF7E4FA97
:103BF000001B0328F6D3032001B0F0BD002001B064
:103C0000F0BD000000000000F0B581B044F22C4788
:103C1000C5F6020757F8042C02F00302032A03D169
:103C2000012001B0F0BD00BF054657F82C0C0C4632
:103C300020F0805047F82C0CFDF7BEFA064600BF76
:103C400057F82C0C800005D5FDF7B6FA801B02282A
:103C5000F6D964E057F8040CEE6895E80E0020F001
:103C60007C70012C40EA0150A2F101016FF35F2149
:103C70004FF47E4202EB432247F8040C92B24FF01D
:103C8000FE4302EB01004FF4FE012A6901EB0641FD
:103C900001F4FE0103EB0262084402F0FE41084415
:103CA00078613868696920F4406040EA0100386052
:103CB0003868A96920F4007040EA0100386038686B
:103CC0004FF6F87120F480703860B869EA6920EA2C
:103CD00001004FF0807140EAC200B861386808BF47
:103CE0004FF4000140F48070002C386008BF4FF49E
:103CF000800138680843386057F82C0C40F0805039
:103D000047F82C0CFDF758FA044600BF57F82C0C66
:103D1000800007D4FDF750FA001B0328F6D30320D8
:103D200001B0F0BD002001B0F0BD000000000000B7
:103D30007047000000000000FDF746BA00000000D8
:103D4000B0B59CB044F6180409A84C21C5F602048D
:103D5000FCF7BEFB02200025CDE90755CDE905554E
:103D6000CDE90355CDE90155FDF74EFB00952068DF
:103D700020F440402060206800F44040009000980B
:103D80002068800409D4206880045CBF20685FEA52
:103D9000804002D420688004F2D5012009902C22B2
:103DA0004FF48031CDE915200C20199009A80A9113
:103DB00002211491CDE91211CDE917110024CDE9AA
:103DC0001A44FEF709FC18B172B600BFFEE700BF47
:103DD0003F20019003204FF48061CDE902040820C8
:103DE00004904020CDE90500CDE9071001A803218A
:103DF000FEF7AEF910B172B6FEE700BF1CB0B0BD61
:103E00004EF6885042F2000CCEF20000C5F2002CB3
:103E1000026842F470020260DCF8000000F00F005B
:103E2000062806D8DCF80000072262F30300CCF86D
:103E3000000044F200404EF67F51C5F60200CEF677
:103E4000F621026842F0010202600022026103686A
:103E500019400160DCF80010090706D5DCF80010F5
:103E6000072363F30301CCF8001040F200218261C4
:103E7000C261C0F20221026281620021C0F2FF1120
:103E8000C16240F28021C0F201110163426381638B
:103E9000C26301644264016821F48021016002660A
:103EA000D0F8D410C90448BF7047D0F8D41043F2FA
:103EB000D20241F48051C0F8D41044F20001C5F29E
:103EC00000210A60D0F8D41021F48051C0F8D41039
:103ED000704700000000000040F20C10C2F20040E9
:103EE000FEF7B6BF00000000816A0A070CD4CA07BB
:103EF00015D18A071ED44A0727D4CA0630D48A06A9
:103F000039D44A0642D454E00268D0F838C0536825
:103F100023F4004343EA0C035360CA07E9D0026864
:103F2000D0F82CC0536823F4003343EA0C035360E9
:103F30008A07E0D50268D0F830C0536823F4803394
:103F400043EA0C0353604A07D7D50268D0F834C05F
:103F5000536823F4802343EA0C035360CA06CED58A
:103F60000268D0F83CC0936823F4805343EA0C0302
:103F700093608A06C5D50268D0F840C0936823F4E0
:103F8000005343EA0C0393604A0612D50268D0F846
:103F900044C0BCF5801F536823F4801343EA0C032C
:103FA000536006D1536823F4C00C836C43EA0C03BE
:103FB0005360090658BF70470168C06C4A6822F414
:103FC0000022104348607047B0B582B0044600201C
:103FD000C4F89000FDF7F0F8216805460A6812075A
:103FE00037D54FF4001100226FF07E40009020463C
:103FF0002B4600F0F5FA58B3206850E8000F21680E
:1040000020F0800041E80002002A1FBF206850E82D
:10401000000F216820F080001CBF41E80002002A48
:1040200012D0206850E8000F216820F0800041E89D
:1040300000024AB1206850E8000F216820F080009B
:1040400041E80002002AD7D10320202188226CE019
:104050002168086840075FD54FF4800100226FF0A7
:104060007E40009020462B4600F0BAFA002853D03C
:10407000206850E8000F216820F4907041E80002A9
:10408000F2B1206850E8000F216820F4907041E8F8
:104090000002002A1FBF206850E8000F216820F4AA
:1040A00090701CBF41E80002002A09D0206850E847
:1040B000000F216820F4907041E80002002AD7D157
:1040C000206850E8020F216820F0010041E8020258
:1040D000002A1FBF206850E8020F216820F001006D
:1040E0001CBF41E80202002A12D0206850E8020FEB
:1040F000216820F0010041E802024AB1206850E83E
:10410000020F216820F0010041E80202002AD7D105
:10411000032020218C2208E02020C4F88800C4F865
:104120008C00002170220020E166A150002184F85B
:10413000841002B0B0BD0000806BFEF785BE0000A9
:10414000F0B583B00446006846F6F31640F6004E1C
:1041500022696569D4E902130A43E7690168CCF66C
:10416000FF762A4331401143C5F6000E3943016002
:104170004168704521F4405144F2544C41EA030136
:104180004160A2694FF2FF431CBF216A0A43816864
:10419000C1F2FF131940C5F6020C1143816047F6C6
:1041A000FF32C16AC4F2000221F00F01656A904239
:1041B0004FF0800341EA0501C16219DD41F2FF7150
:1041C000C4F2010188422DDC47F60041C4F200012F
:1041D000884257D041F20001C4F20101884239D02F
:1041E00041F20041C4F20101884233D056E000BFE1
:1041F00044F6FF31C4F20001884237DD44F6004145
:10420000C4F2000188423DD045F20001C4F2000131
:10421000884237D047F60001C4F20001884231D00D
:104220003CE000BF41F60001C4F20101884211D018
:1042300041F60041C4F2010188420BD070452DD1F6
:10424000DCF8041001F00702062A27D20FF28831A9
:1042500022E000BFDCF80010C1F3C202062A1DD222
:1042600044F69851C0F6000116E000BF44F2004148
:10427000C4F20001884205D044F60001C4F20001F6
:1042800088420BD1DCF8001001F00702062A05D2A3
:1042900044F69251C0F600018B181B78704540F629
:1042A0000010C0F23D0000F05380B7F5004F40F021
:1042B0007B80402B4FF0010100F28581DFE813F095
:1042C00042002E01830183013601830183018301B2
:1042D00042018301830183018301830183018301FF
:1042E0000A01830183018301830183018301830127
:1042F000830183018301830183018301830183019E
:1043000048018301830183018301830183018301C8
:10431000830183018301830183018301830183017D
:10432000830183018301830183018301830183016D
:10433000830183018301830183018301830183015D
:10434000260100BFFEF758F8002840F0008136E152
:104350009A1E01211E2A00F27580DFE812F01F006C
:10436000340187003401340134018D0034013401FB
:104370003401340134013401340179003401340151
:104380003401340134013401340134013401340185
:10439000340134013401340134019500FDF75CF837
:1043A000002840F070800AE1402B4FF0010100F23C
:1043B0000A81DFE813F04100B70008010801C100DD
:1043C000080108010801E9000801080108010801C5
:1043D0000801080108019D00080108010801080101
:1043E0000801080108010801080108010801080185
:1043F000080108010801EF0008010801080108018F
:104400000801080108010801080108010801080164
:104410000801080108010801080108010801080154
:104420000801080108010801080108010801080144
:10443000080108010801AF00FDF7DEFF002840F089
:10444000A880BCE0402B40F0BE804FF400401BE051
:104450005CF8540C800649F20000C0F2D03013D54D
:104460005CF8541CC1F3C101C8400DE06846FDF77B
:1044700007F8019838B9A2E06846FDF795F8019869
:10448000002800F09C80656A44F6AE516268C0F670
:10449000000131F81510B0FBF1F002EB4201884247
:1044A0004FF00101C0F08F801303984200F28B801F
:1044B000010E0023000210EB520041F10001FBF756
:1044C0008FFF4FF60052A0F54071C0F20F029142EB
:1044D00073D377E05CF8540C800649F20000C0F218
:1044E000D03035D55CF8541CC1F3C101C8402FE071
:1044F0005CF8540C800649F20000C0F2D03049D577
:104500005CF8541CC1F3C101C84043E04FF40040C3
:104510001EE000BF4FF400403CE000BFFDF79CFFF1
:10452000A8B94CE0FDF798FF98BB48E06846FCF757
:10453000A7FF019858B942E06846FCF7A1FF01982F
:1045400038BB3CE06846FDF72FF80198B8B3656AC0
:1045500044F6AE51C0F6000131F81510B0FBF1F091
:1045600061684A0802EB40004FF6EF72B0FBF1F0D1
:10457000A0F11001914225D84FF6F0710140C0F32F
:104580004200084419E000BF6846FDF70DF80198A5
:10459000A8B1656A44F6AE516268C0F6000131F810
:1045A0001510B0FBF1F000EB5200B0FBF2F0A0F1FF
:1045B00010014FF6EF72914204D82168C8600021C3
:1045C00001E000BF01214FF00110A0660020C4E906
:1045D0001D00084603B0F0BD020408102040000092
:1045E0002DE9F041804600680D46C7693940491BF6
:1045F000B1FA81F149098A4225D1069C34B31646A5
:10460000611C29D1C1692940491BB1FA81F14909CD
:104610008E4218D1C1692940491BB1FA81F149097B
:104620008E4201BFC1692940491BB1FA81F104BF23
:1046300049098E4207D1C1692940491BB1FA81F16C
:1046400049098E42DED00020BDE8F081FCF7B4FDC0
:104650000320BDE8F08100BF1F4607E0C069284085
:10466000401BB0FA80F040098642ECD1FCF7A4FD73
:10467000C01BA04200F2B680D8F8000001684907CC
:10468000ECD5402D18BF802DE8D0C169090700F195
:10469000AD80C1690905E1D54FF400610162D8F828
:1046A000000050E8000FD8F8001020F4907041E8A6
:1046B000000222B3D8F8000050E8000FD8F800102C
:1046C00020F4907041E80002002A1FBFD8F80000D3
:1046D00050E8000FD8F8001020F490701CBF41E89B
:1046E0000002002A0BD0D8F8000050E8000FD8F8DC
:1046F000001020F4907041E80002002ACFD14FF65C
:10470000FE70CEF6FF70D8F8001051E8021FD8F8FE
:104710000020014042E802130BB3D8F8001051E822
:10472000021FD8F80020014042E80213002B1FBFEF
:10473000D8F8001051E8021FD8F8002001401CBF33
:1047400042E80213002B0AD0D8F8001051E8021FEB
:10475000D8F80020014042E80213002BD3D1D8F84A
:104760006C0001282FD1D8F8000050E8000FD8F8CD
:10477000001020F0100041E8000222B3D8F8000039
:1047800050E8000FD8F8001020F0100041E80002B7
:10479000002A1FBFD8F8000050E8000FD8F800101A
:1047A00020F010001CBF41E80002002A0BD0D8F80E
:1047B000000050E8000FD8F8001020F0100041E889
:1047C0000002002ACFD12020C8F88C000021C8F8B0
:1047D0006C10C8F87410C8F89000032088F8841092
:1047E000BDE8F0810320BDE8F08100BF082101622F
:1047F000D8F8000050E8000FD8F8001020F49070AE
:1048000041E8000222B3D8F8000050E8000FD8F8C1
:10481000001020F4907041E80002002A1FBFD8F871
:10482000000050E8000FD8F8001020F490701CBF72
:1048300041E80002002A0BD0D8F8000050E8000F31
:10484000D8F8001020F4907041E80002002ACFD17F
:104850004FF6FE70CEF6FF70D8F8001051E8021F38
:10486000D8F80020014042E802130BB3D8F800103A
:1048700051E8021FD8F80020014042E80213002B43
:104880001FBFD8F8001051E8021FD8F800200140DF
:104890001CBF42E80213002B0AD0D8F8001051E8E0
:1048A000021FD8F80020014042E80213002BD3D1A8
:1048B000D8F86C0001282FD1D8F8000050E8000F7C
:1048C000D8F8001020F0100041E8000222B3D8F818
:1048D000000050E8000FD8F8001020F0100041E868
:1048E0000002002A1FBFD8F8000050E8000FD8F8D7
:1048F000001020F010001CBF41E80002002A0BD07D
:10490000D8F8000050E8000FD8F8001020F0100090
:1049100041E80002002ACFD12020C8F88C000020F6
:10492000C8F86C00C8F874000821C8F8901088F81E
:1049300084000120BDE8F081FEE7000000000000D7
:10494000002A00F08480B0B544F6C65512F0030C7E
:10495000C0F6000512D08E46BCF1010F1EF8014BC7
:1049600084EA0004E4B235F8144084EA102009D146
:10497000A2F1010C7146042A22D266E09446042A70
:104980001ED262E0C0B291F801E0BCF1020F80EAF1
:104990000E0035F810E08EEA142005D1A2F1020CC9
:1049A0000231042A0CD250E0C0B28C780331A2F15B
:1049B000030C604035F8100080EA1E20042A44D31E
:1049C000043911F8042F4C784240D2B235F8122045
:1049D00082EA102060408C78C0B235F8100080EA7E
:1049E00012226240D2B235F81240CA7884EA10200E
:1049F0005040BCF10402C0B235F8100080EA142027
:104A000023D000BF11F8044F043A4B7884EA000425
:104A1000E4B235F8144084EA102080EA03008B7871
:104A2000C0B235F8100080EA142483EA0403CC787D
:104A3000DBB235F8133083EA102080EA0400C0B2FC
:104A400035F8100080EA1320DCD1BDE8B04080B218
:104A5000704700000000000088B001200290FCF7C1
:104A60004FFC0020039048F21F70049040F20110A8
:104A7000059002A8FCF714FC04200424FCF750FC69
:104A8000FCF7B2FBFFF75CF9FEF742FFFEF79CFF75
:104A9000FEF7DAFF40F2A01540F20C11C2F2004519
:104AA00041F20042C2F20041C5F602024FF48043D7
:104AB00028460094FBF7A0FD40F22C2B40F20004A6
:104AC00040F27806C2F2004BC2F200449FED319AE8
:104AD0009FED31AA4FF0FF479FED308AC2F20046AA
:104AE0000DF11C090DF1180A3BE000BF20EE0A0A87
:104AF000F0EE480A2846FBF74BFE0A212846FBF752
:104B000093FD2846D4F80080FBF772FD284680EE1E
:104B10000ABAFBF769FD2846CDF808808DED03BA87
:104B20008DED040AFBF75CFD00EE100A04226423FD
:104B300030464946B8EEC00A8DED050ACDE9067744
:104B4000FEF726FE10226423304602A9FEF720FE5F
:104B50000422642330465146FEF71AFE0120FCF77A
:104B60001BFA9BED000A94ED001AB4EE410AF1EE37
:104B700010FABBDA94ED012AA2EE090A8BED000AC5
:104B8000B4EE410AF1EE10FAB0DDB0EE410A8BED61
:104B9000001AABE76F12833A5C8FCA40295C8F3DE5
:104BA00010B50446008821464EF6FE6221F8182F03
:104BB00030B30F2801D30F202080628822B3072A48
:104BC00001D30722628094ED040AB5EE400AF1EEAB
:104BD00010FA21DD9FED5D1AB4EE410AF1EE10FAF4
:104BE0001CDA94ED052AB5EE402AF1EE10FA20DD2C
:104BF0009FED561AB4EE412AF1EE10FA1BDA1EE0D0
:104C000000206288002ADAD1002294ED040AB5EE71
:104C1000400AF1EE10FADDDC9FED4B1AB0EE410ACE
:104C200084ED041A94ED052AB5EE402AF1EE10FA4F
:104C3000DEDC9FED451AB0EE412A84ED051A94EDB5
:104C4000011A9FED433AB4EE431AF1EE10FA06DD75
:104C50009FED403AB4EE431AF1EE10FA03DBB0EEEA
:104C6000431A84ED013A94ED023A9FED3B4AB4EECB
:104C7000443AF1EE10FA06DD9FED384AB4EE443ABC
:104C8000F1EE10FA03DBB0EE443A84ED024A94ED03
:104C9000034A9FED335AB4EE454AF1EE10FA06DDB1
:104CA0009FED305AB4EE454AF1EE10FA03DBB0EE58
:104CB000454A84ED035A9FED2C5AA37E80EE050AE7
:104CC0009FED2A6A82EE052A9FED295A84EE054A55
:104CD00000F00F0020EE060A03F0800322EE062A01
:104CE000184462F3061083EE053ABDEEC00A9FED4C
:104CF000215A24EE064AA076BDEEC22A0F2223EEE8
:104D0000053A10EE100ABDEEC40A21EE051AA4F809
:104D1000230012EE100ABDEEC32AA4F8250010EEFF
:104D2000100ABDEEC11AC4F81F0012EE100AA4F852
:104D30001D0011EE100AA4F81B000020FFF700FE72
:104D4000A4F8270010BD00BF00000000C1CACC417C
:104D5000E1FAFFC2E1FAFF42000049C40000494401
:104D6000C00FC9C8C00FC948CDCCCC410000004716
:104D7000D00FC94000008043F1EE100A4FF6FF71DA
:104D8000C0F2C03120EA010040F04070E1EE100AAC
:104D90007047000408102040010408102040000063
:104DA00000000102030401020304060708090100D0
:104DB00002000400060008000A000C001000200099
:104DC0004000800000010000891112239B3224461C
:104DD000AD573665BF74488CC19D5AAFD3BE6CCAFF
:104DE000E5DB7EE9F7F88110080193331A22A55616
:104DF0002C47B7753E64C99C408DDBBF52AEEDDADF
:104E000064CBFFF976E802218B30100299132667F4
:104E1000AF763444BD554AADC3BC588ED19F6EEBBE
:104E2000E7FA7CC8F5D983310A2091121803A777D5
:104E30002E66B5543C45CBBD42ACD99E508FEFFB9E
:104E400066EAFDD874C904428D5316619F70200430
:104E5000A9153227BB364CCEC5DF5EEDD7FC68887E
:104E6000E1997AABF3BA85520C4397711E60A11495
:104E70002805B3373A26CDDE44CFDFFD56ECE9985E
:104E80006089FBBB72AA06638F7214409D51222574
:104E9000AB343006B9174EEFC7FE5CCCD5DD6AA93E
:104EA000E3B8788AF19B87730E6295501C41A33555
:104EB0002A24B1163807CFFF46EEDDDC54CDEBB91E
:104EC00062A8F99A708B088481951AA793B62CC2B0
:104ED000A5D33EE1B7F04008C919522BDB3A644E26
:104EE000ED5F766DFF7C899400859BB712A6ADD2ED
:104EF00024C3BFF136E0C1184809D33B5A2AE55E06
:104F00006C4FF77D7E6C0AA583B4188691972EE3CB
:104F1000A7F23CC0B5D14229CB38500AD91B666FE5
:104F2000EF7E744CFD5D8BB502A499961087AFF3AC
:104F300026E2BDD034C1C3394A28D11A580BE77FC5
:104F40006E6EF55C7C4D0CC685D71EE597F4288007
:104F5000A1913AA3B3B2444ACD5B5669DF78600CA5
:104F6000E91D722FFB3E8DD604C79FF516E4A9906C
:104F70002081BBB332A2C55A4C4BD7795E68E11C85
:104F8000680DF33F7A2E0EE787F61CC495D52AA14B
:104F9000A3B03882B193466BCF7A5448DD59622D65
:104FA000EB3C700EF91F8FF706E69DD414C5ABB12C
:104FB00022A0B9923083C77B4E6AD5585C49E33D45
:104FC0006A2CF11E780F010101030701000008049B
:104FD0000204080101010000F84F0008000000244D
:104FE00018000000300300081050000818000024CA
:104FF0001808000050030008C3F5C8400000004036
:1050000001000000100000000090D0030090D003C9
:04000005080002CD20
:00000001FF
